{
	"nft_exchange.sol": {
		"NftExchange": {
			"abi": [
				{
					"inputs": [
						{
							"internalType": "contract IERC721",
							"name": "nftCode",
							"type": "address"
						},
						{
							"internalType": "uint256",
							"name": "minDuration",
							"type": "uint256"
						}
					],
					"stateMutability": "nonpayable",
					"type": "constructor"
				},
				{
					"anonymous": false,
					"inputs": [
						{
							"indexed": false,
							"internalType": "uint256",
							"name": "tokenId",
							"type": "uint256"
						},
						{
							"indexed": false,
							"internalType": "uint256",
							"name": "price",
							"type": "uint256"
						},
						{
							"indexed": false,
							"internalType": "uint256",
							"name": "timestamps",
							"type": "uint256"
						}
					],
					"name": "DoneOnShelf",
					"type": "event"
				},
				{
					"anonymous": false,
					"inputs": [
						{
							"indexed": false,
							"internalType": "address",
							"name": "from",
							"type": "address"
						},
						{
							"indexed": false,
							"internalType": "address",
							"name": "to",
							"type": "address"
						},
						{
							"indexed": false,
							"internalType": "uint256",
							"name": "tokenId",
							"type": "uint256"
						},
						{
							"indexed": false,
							"internalType": "uint256",
							"name": "price",
							"type": "uint256"
						}
					],
					"name": "DonePurchase",
					"type": "event"
				},
				{
					"anonymous": false,
					"inputs": [
						{
							"indexed": false,
							"internalType": "address",
							"name": "to",
							"type": "address"
						},
						{
							"indexed": false,
							"internalType": "uint256",
							"name": "amount",
							"type": "uint256"
						}
					],
					"name": "DoneWithdraw",
					"type": "event"
				},
				{
					"anonymous": false,
					"inputs": [
						{
							"indexed": true,
							"internalType": "address",
							"name": "previousOwner",
							"type": "address"
						},
						{
							"indexed": true,
							"internalType": "address",
							"name": "newOwner",
							"type": "address"
						}
					],
					"name": "OwnershipTransferred",
					"type": "event"
				},
				{
					"inputs": [
						{
							"internalType": "uint256",
							"name": "tokenId",
							"type": "uint256"
						}
					],
					"name": "buy",
					"outputs": [],
					"stateMutability": "payable",
					"type": "function"
				},
				{
					"inputs": [],
					"name": "getMinDuration",
					"outputs": [
						{
							"internalType": "uint256",
							"name": "duration",
							"type": "uint256"
						}
					],
					"stateMutability": "view",
					"type": "function"
				},
				{
					"inputs": [],
					"name": "getNftCode",
					"outputs": [
						{
							"internalType": "contract IERC721",
							"name": "nftCode",
							"type": "address"
						}
					],
					"stateMutability": "view",
					"type": "function"
				},
				{
					"inputs": [
						{
							"internalType": "uint256",
							"name": "tokenId",
							"type": "uint256"
						}
					],
					"name": "getPrices",
					"outputs": [
						{
							"internalType": "uint256",
							"name": "price",
							"type": "uint256"
						}
					],
					"stateMutability": "view",
					"type": "function"
				},
				{
					"inputs": [
						{
							"internalType": "uint256",
							"name": "tokenId",
							"type": "uint256"
						}
					],
					"name": "getTimestamp",
					"outputs": [
						{
							"internalType": "uint256",
							"name": "timestamp",
							"type": "uint256"
						}
					],
					"stateMutability": "view",
					"type": "function"
				},
				{
					"inputs": [],
					"name": "owner",
					"outputs": [
						{
							"internalType": "address",
							"name": "",
							"type": "address"
						}
					],
					"stateMutability": "view",
					"type": "function"
				},
				{
					"inputs": [],
					"name": "renounceOwnership",
					"outputs": [],
					"stateMutability": "nonpayable",
					"type": "function"
				},
				{
					"inputs": [
						{
							"internalType": "uint256",
							"name": "tokenId",
							"type": "uint256"
						},
						{
							"internalType": "uint256",
							"name": "price",
							"type": "uint256"
						},
						{
							"internalType": "uint256",
							"name": "duration",
							"type": "uint256"
						}
					],
					"name": "sell",
					"outputs": [],
					"stateMutability": "nonpayable",
					"type": "function"
				},
				{
					"inputs": [
						{
							"internalType": "address",
							"name": "newOwner",
							"type": "address"
						}
					],
					"name": "transferOwnership",
					"outputs": [],
					"stateMutability": "nonpayable",
					"type": "function"
				},
				{
					"inputs": [
						{
							"internalType": "address",
							"name": "to",
							"type": "address"
						},
						{
							"internalType": "uint256",
							"name": "amount",
							"type": "uint256"
						}
					],
					"name": "withdraw",
					"outputs": [],
					"stateMutability": "nonpayable",
					"type": "function"
				}
			],
			"devdoc": {
				"kind": "dev",
				"methods": {
					"owner()": {
						"details": "Returns the address of the current owner."
					},
					"renounceOwnership()": {
						"details": "Leaves the contract without owner. It will not be possible to call `onlyOwner` functions anymore. Can only be called by the current owner. NOTE: Renouncing ownership will leave the contract without an owner, thereby removing any functionality that is only available to the owner."
					},
					"transferOwnership(address)": {
						"details": "Transfers ownership of the contract to a new account (`newOwner`). Can only be called by the current owner."
					}
				},
				"version": 1
			},
			"evm": {
				"assembly": "    /* \"nft_exchange.sol\":229:2595  contract NftExchange is Ownable {... */\n  mstore(0x40, 0x80)\n    /* \"nft_exchange.sol\":660:789  constructor(IERC721 nftCode, uint256 minDuration)... */\n  callvalue\n  dup1\n  iszero\n  tag_1\n  jumpi\n  0x00\n  dup1\n  revert\ntag_1:\n  pop\n  mload(0x40)\n  sub(codesize, bytecodeSize)\n  dup1\n  bytecodeSize\n  dup4\n  codecopy\n  dup2\n  dup2\n  add\n  0x40\n  mstore\n  dup2\n  add\n  swap1\n  tag_2\n  swap2\n  swap1\n  tag_3\n  jump\t// in\ntag_2:\n    /* \"@openzeppelin/contracts/access/Ownable.sol\":921:953  _transferOwnership(_msgSender()) */\n  tag_7\n    /* \"@openzeppelin/contracts/access/Ownable.sol\":940:952  _msgSender() */\n  tag_8\n    /* \"@openzeppelin/contracts/access/Ownable.sol\":940:950  _msgSender */\n  shl(0x20, tag_9)\n    /* \"@openzeppelin/contracts/access/Ownable.sol\":940:952  _msgSender() */\n  0x20\n  shr\n  jump\t// in\ntag_8:\n    /* \"@openzeppelin/contracts/access/Ownable.sol\":921:939  _transferOwnership */\n  shl(0x20, tag_10)\n    /* \"@openzeppelin/contracts/access/Ownable.sol\":921:953  _transferOwnership(_msgSender()) */\n  0x20\n  shr\n  jump\t// in\ntag_7:\n    /* \"nft_exchange.sol\":737:744  nftCode */\n  dup2\n    /* \"nft_exchange.sol\":726:734  _nftCode */\n  0x01\n  0x00\n    /* \"nft_exchange.sol\":726:744  _nftCode = nftCode */\n  0x0100\n  exp\n  dup2\n  sload\n  dup2\n  0xffffffffffffffffffffffffffffffffffffffff\n  mul\n  not\n  and\n  swap1\n  dup4\n  0xffffffffffffffffffffffffffffffffffffffff\n  and\n  mul\n  or\n  swap1\n  sstore\n  pop\n    /* \"nft_exchange.sol\":770:781  minDuration */\n  dup1\n    /* \"nft_exchange.sol\":755:767  _minDuration */\n  0x02\n    /* \"nft_exchange.sol\":755:781  _minDuration = minDuration */\n  dup2\n  swap1\n  sstore\n  pop\n    /* \"nft_exchange.sol\":660:789  constructor(IERC721 nftCode, uint256 minDuration)... */\n  pop\n  pop\n    /* \"nft_exchange.sol\":229:2595  contract NftExchange is Ownable {... */\n  jump(tag_12)\n    /* \"@openzeppelin/contracts/utils/Context.sol\":640:736  function _msgSender() internal view virtual returns (address) {... */\ntag_9:\n    /* \"@openzeppelin/contracts/utils/Context.sol\":693:700  address */\n  0x00\n    /* \"@openzeppelin/contracts/utils/Context.sol\":719:729  msg.sender */\n  caller\n    /* \"@openzeppelin/contracts/utils/Context.sol\":712:729  return msg.sender */\n  swap1\n  pop\n    /* \"@openzeppelin/contracts/utils/Context.sol\":640:736  function _msgSender() internal view virtual returns (address) {... */\n  swap1\n  jump\t// out\n    /* \"@openzeppelin/contracts/access/Ownable.sol\":2270:2457  function _transferOwnership(address newOwner) internal virtual {... */\ntag_10:\n    /* \"@openzeppelin/contracts/access/Ownable.sol\":2343:2359  address oldOwner */\n  0x00\n    /* \"@openzeppelin/contracts/access/Ownable.sol\":2362:2368  _owner */\n  dup1\n  0x00\n  swap1\n  sload\n  swap1\n  0x0100\n  exp\n  swap1\n  div\n  0xffffffffffffffffffffffffffffffffffffffff\n  and\n    /* \"@openzeppelin/contracts/access/Ownable.sol\":2343:2368  address oldOwner = _owner */\n  swap1\n  pop\n    /* \"@openzeppelin/contracts/access/Ownable.sol\":2387:2395  newOwner */\n  dup2\n    /* \"@openzeppelin/contracts/access/Ownable.sol\":2378:2384  _owner */\n  0x00\n  dup1\n    /* \"@openzeppelin/contracts/access/Ownable.sol\":2378:2395  _owner = newOwner */\n  0x0100\n  exp\n  dup2\n  sload\n  dup2\n  0xffffffffffffffffffffffffffffffffffffffff\n  mul\n  not\n  and\n  swap1\n  dup4\n  0xffffffffffffffffffffffffffffffffffffffff\n  and\n  mul\n  or\n  swap1\n  sstore\n  pop\n    /* \"@openzeppelin/contracts/access/Ownable.sol\":2441:2449  newOwner */\n  dup2\n    /* \"@openzeppelin/contracts/access/Ownable.sol\":2410:2450  OwnershipTransferred(oldOwner, newOwner) */\n  0xffffffffffffffffffffffffffffffffffffffff\n  and\n    /* \"@openzeppelin/contracts/access/Ownable.sol\":2431:2439  oldOwner */\n  dup2\n    /* \"@openzeppelin/contracts/access/Ownable.sol\":2410:2450  OwnershipTransferred(oldOwner, newOwner) */\n  0xffffffffffffffffffffffffffffffffffffffff\n  and\n  0x8be0079c531659141344cd1fd0a4f28419497f9722a3daafe3b4186f6b6457e0\n  mload(0x40)\n  mload(0x40)\n  dup1\n  swap2\n  sub\n  swap1\n  log3\n    /* \"@openzeppelin/contracts/access/Ownable.sol\":2333:2457  {... */\n  pop\n    /* \"@openzeppelin/contracts/access/Ownable.sol\":2270:2457  function _transferOwnership(address newOwner) internal virtual {... */\n  pop\n  jump\t// out\n    /* \"#utility.yul\":88:205   */\ntag_16:\n    /* \"#utility.yul\":197:198   */\n  0x00\n    /* \"#utility.yul\":194:195   */\n  dup1\n    /* \"#utility.yul\":187:199   */\n  revert\n    /* \"#utility.yul\":334:460   */\ntag_18:\n    /* \"#utility.yul\":371:378   */\n  0x00\n    /* \"#utility.yul\":411:453   */\n  0xffffffffffffffffffffffffffffffffffffffff\n    /* \"#utility.yul\":404:409   */\n  dup3\n    /* \"#utility.yul\":400:454   */\n  and\n    /* \"#utility.yul\":389:454   */\n  swap1\n  pop\n    /* \"#utility.yul\":334:460   */\n  swap2\n  swap1\n  pop\n  jump\t// out\n    /* \"#utility.yul\":466:562   */\ntag_19:\n    /* \"#utility.yul\":503:510   */\n  0x00\n    /* \"#utility.yul\":532:556   */\n  tag_32\n    /* \"#utility.yul\":550:555   */\n  dup3\n    /* \"#utility.yul\":532:556   */\n  tag_18\n  jump\t// in\ntag_32:\n    /* \"#utility.yul\":521:556   */\n  swap1\n  pop\n    /* \"#utility.yul\":466:562   */\n  swap2\n  swap1\n  pop\n  jump\t// out\n    /* \"#utility.yul\":568:679   */\ntag_20:\n    /* \"#utility.yul\":620:627   */\n  0x00\n    /* \"#utility.yul\":649:673   */\n  tag_34\n    /* \"#utility.yul\":667:672   */\n  dup3\n    /* \"#utility.yul\":649:673   */\n  tag_19\n  jump\t// in\ntag_34:\n    /* \"#utility.yul\":638:673   */\n  swap1\n  pop\n    /* \"#utility.yul\":568:679   */\n  swap2\n  swap1\n  pop\n  jump\t// out\n    /* \"#utility.yul\":685:837   */\ntag_21:\n    /* \"#utility.yul\":773:812   */\n  tag_36\n    /* \"#utility.yul\":806:811   */\n  dup2\n    /* \"#utility.yul\":773:812   */\n  tag_20\n  jump\t// in\ntag_36:\n    /* \"#utility.yul\":766:771   */\n  dup2\n    /* \"#utility.yul\":763:813   */\n  eq\n    /* \"#utility.yul\":753:831   */\n  tag_37\n  jumpi\n    /* \"#utility.yul\":827:828   */\n  0x00\n    /* \"#utility.yul\":824:825   */\n  dup1\n    /* \"#utility.yul\":817:829   */\n  revert\n    /* \"#utility.yul\":753:831   */\ntag_37:\n    /* \"#utility.yul\":685:837   */\n  pop\n  jump\t// out\n    /* \"#utility.yul\":843:1016   */\ntag_22:\n    /* \"#utility.yul\":915:920   */\n  0x00\n    /* \"#utility.yul\":946:952   */\n  dup2\n    /* \"#utility.yul\":940:953   */\n  mload\n    /* \"#utility.yul\":931:953   */\n  swap1\n  pop\n    /* \"#utility.yul\":962:1010   */\n  tag_39\n    /* \"#utility.yul\":1004:1009   */\n  dup2\n    /* \"#utility.yul\":962:1010   */\n  tag_21\n  jump\t// in\ntag_39:\n    /* \"#utility.yul\":843:1016   */\n  swap3\n  swap2\n  pop\n  pop\n  jump\t// out\n    /* \"#utility.yul\":1022:1099   */\ntag_23:\n    /* \"#utility.yul\":1059:1066   */\n  0x00\n    /* \"#utility.yul\":1088:1093   */\n  dup2\n    /* \"#utility.yul\":1077:1093   */\n  swap1\n  pop\n    /* \"#utility.yul\":1022:1099   */\n  swap2\n  swap1\n  pop\n  jump\t// out\n    /* \"#utility.yul\":1105:1227   */\ntag_24:\n    /* \"#utility.yul\":1178:1202   */\n  tag_42\n    /* \"#utility.yul\":1196:1201   */\n  dup2\n    /* \"#utility.yul\":1178:1202   */\n  tag_23\n  jump\t// in\ntag_42:\n    /* \"#utility.yul\":1171:1176   */\n  dup2\n    /* \"#utility.yul\":1168:1203   */\n  eq\n    /* \"#utility.yul\":1158:1221   */\n  tag_43\n  jumpi\n    /* \"#utility.yul\":1217:1218   */\n  0x00\n    /* \"#utility.yul\":1214:1215   */\n  dup1\n    /* \"#utility.yul\":1207:1219   */\n  revert\n    /* \"#utility.yul\":1158:1221   */\ntag_43:\n    /* \"#utility.yul\":1105:1227   */\n  pop\n  jump\t// out\n    /* \"#utility.yul\":1233:1376   */\ntag_25:\n    /* \"#utility.yul\":1290:1295   */\n  0x00\n    /* \"#utility.yul\":1321:1327   */\n  dup2\n    /* \"#utility.yul\":1315:1328   */\n  mload\n    /* \"#utility.yul\":1306:1328   */\n  swap1\n  pop\n    /* \"#utility.yul\":1337:1370   */\n  tag_45\n    /* \"#utility.yul\":1364:1369   */\n  dup2\n    /* \"#utility.yul\":1337:1370   */\n  tag_24\n  jump\t// in\ntag_45:\n    /* \"#utility.yul\":1233:1376   */\n  swap3\n  swap2\n  pop\n  pop\n  jump\t// out\n    /* \"#utility.yul\":1382:1919   */\ntag_3:\n    /* \"#utility.yul\":1476:1482   */\n  0x00\n    /* \"#utility.yul\":1484:1490   */\n  dup1\n    /* \"#utility.yul\":1533:1535   */\n  0x40\n    /* \"#utility.yul\":1521:1530   */\n  dup4\n    /* \"#utility.yul\":1512:1519   */\n  dup6\n    /* \"#utility.yul\":1508:1531   */\n  sub\n    /* \"#utility.yul\":1504:1536   */\n  slt\n    /* \"#utility.yul\":1501:1620   */\n  iszero\n  tag_47\n  jumpi\n    /* \"#utility.yul\":1539:1618   */\n  tag_48\n  tag_16\n  jump\t// in\ntag_48:\n    /* \"#utility.yul\":1501:1620   */\ntag_47:\n    /* \"#utility.yul\":1659:1660   */\n  0x00\n    /* \"#utility.yul\":1684:1763   */\n  tag_49\n    /* \"#utility.yul\":1755:1762   */\n  dup6\n    /* \"#utility.yul\":1746:1752   */\n  dup3\n    /* \"#utility.yul\":1735:1744   */\n  dup7\n    /* \"#utility.yul\":1731:1753   */\n  add\n    /* \"#utility.yul\":1684:1763   */\n  tag_22\n  jump\t// in\ntag_49:\n    /* \"#utility.yul\":1674:1763   */\n  swap3\n  pop\n    /* \"#utility.yul\":1630:1773   */\n  pop\n    /* \"#utility.yul\":1812:1814   */\n  0x20\n    /* \"#utility.yul\":1838:1902   */\n  tag_50\n    /* \"#utility.yul\":1894:1901   */\n  dup6\n    /* \"#utility.yul\":1885:1891   */\n  dup3\n    /* \"#utility.yul\":1874:1883   */\n  dup7\n    /* \"#utility.yul\":1870:1892   */\n  add\n    /* \"#utility.yul\":1838:1902   */\n  tag_25\n  jump\t// in\ntag_50:\n    /* \"#utility.yul\":1828:1902   */\n  swap2\n  pop\n    /* \"#utility.yul\":1783:1912   */\n  pop\n    /* \"#utility.yul\":1382:1919   */\n  swap3\n  pop\n  swap3\n  swap1\n  pop\n  jump\t// out\n    /* \"nft_exchange.sol\":229:2595  contract NftExchange is Ownable {... */\ntag_12:\n  dataSize(sub_0)\n  dup1\n  dataOffset(sub_0)\n  0x00\n  codecopy\n  0x00\n  return\nstop\n\nsub_0: assembly {\n        /* \"nft_exchange.sol\":229:2595  contract NftExchange is Ownable {... */\n      mstore(0x40, 0x80)\n      jumpi(tag_1, lt(calldatasize, 0x04))\n      shr(0xe0, calldataload(0x00))\n      dup1\n      0xb633620c\n      gt\n      tag_12\n      jumpi\n      dup1\n      0xb633620c\n      eq\n      tag_7\n      jumpi\n      dup1\n      0xd3c9727c\n      eq\n      tag_8\n      jumpi\n      dup1\n      0xd96a094a\n      eq\n      tag_9\n      jumpi\n      dup1\n      0xf2fde38b\n      eq\n      tag_10\n      jumpi\n      dup1\n      0xf3fef3a3\n      eq\n      tag_11\n      jumpi\n      jump(tag_1)\n    tag_12:\n      dup1\n      0x034d501b\n      eq\n      tag_2\n      jumpi\n      dup1\n      0x715018a6\n      eq\n      tag_3\n      jumpi\n      dup1\n      0x8da5cb5b\n      eq\n      tag_4\n      jumpi\n      dup1\n      0x8e2c2dfa\n      eq\n      tag_5\n      jumpi\n      dup1\n      0x91492956\n      eq\n      tag_6\n      jumpi\n    tag_1:\n      0x00\n      dup1\n      revert\n        /* \"nft_exchange.sol\":797:900  function getMinDuration() public view returns (uint256 duration) {... */\n    tag_2:\n      callvalue\n      dup1\n      iszero\n      tag_13\n      jumpi\n      0x00\n      dup1\n      revert\n    tag_13:\n      pop\n      tag_14\n      tag_15\n      jump\t// in\n    tag_14:\n      mload(0x40)\n      tag_16\n      swap2\n      swap1\n      tag_17\n      jump\t// in\n    tag_16:\n      mload(0x40)\n      dup1\n      swap2\n      sub\n      swap1\n      return\n        /* \"@openzeppelin/contracts/access/Ownable.sol\":1668:1769  function renounceOwnership() public virtual onlyOwner {... */\n    tag_3:\n      callvalue\n      dup1\n      iszero\n      tag_18\n      jumpi\n      0x00\n      dup1\n      revert\n    tag_18:\n      pop\n      tag_19\n      tag_20\n      jump\t// in\n    tag_19:\n      stop\n        /* \"@openzeppelin/contracts/access/Ownable.sol\":1036:1121  function owner() public view virtual returns (address) {... */\n    tag_4:\n      callvalue\n      dup1\n      iszero\n      tag_21\n      jumpi\n      0x00\n      dup1\n      revert\n    tag_21:\n      pop\n      tag_22\n      tag_23\n      jump\t// in\n    tag_22:\n      mload(0x40)\n      tag_24\n      swap2\n      swap1\n      tag_25\n      jump\t// in\n    tag_24:\n      mload(0x40)\n      dup1\n      swap2\n      sub\n      swap1\n      return\n        /* \"nft_exchange.sol\":908:1002  function getNftCode() public view returns (IERC721 nftCode) {... */\n    tag_5:\n      callvalue\n      dup1\n      iszero\n      tag_26\n      jumpi\n      0x00\n      dup1\n      revert\n    tag_26:\n      pop\n      tag_27\n      tag_28\n      jump\t// in\n    tag_27:\n      mload(0x40)\n      tag_29\n      swap2\n      swap1\n      tag_30\n      jump\t// in\n    tag_29:\n      mload(0x40)\n      dup1\n      swap2\n      sub\n      swap1\n      return\n        /* \"nft_exchange.sol\":1143:1257  function getPrices(uint256 tokenId) public view returns (uint256 price) {... */\n    tag_6:\n      callvalue\n      dup1\n      iszero\n      tag_31\n      jumpi\n      0x00\n      dup1\n      revert\n    tag_31:\n      pop\n      tag_32\n      0x04\n      dup1\n      calldatasize\n      sub\n      dup2\n      add\n      swap1\n      tag_33\n      swap2\n      swap1\n      tag_34\n      jump\t// in\n    tag_33:\n      tag_35\n      jump\t// in\n    tag_32:\n      mload(0x40)\n      tag_36\n      swap2\n      swap1\n      tag_17\n      jump\t// in\n    tag_36:\n      mload(0x40)\n      dup1\n      swap2\n      sub\n      swap1\n      return\n        /* \"nft_exchange.sol\":1010:1135  function getTimestamp(uint256 tokenId) public view returns (uint256 timestamp) {... */\n    tag_7:\n      callvalue\n      dup1\n      iszero\n      tag_37\n      jumpi\n      0x00\n      dup1\n      revert\n    tag_37:\n      pop\n      tag_38\n      0x04\n      dup1\n      calldatasize\n      sub\n      dup2\n      add\n      swap1\n      tag_39\n      swap2\n      swap1\n      tag_34\n      jump\t// in\n    tag_39:\n      tag_40\n      jump\t// in\n    tag_38:\n      mload(0x40)\n      tag_41\n      swap2\n      swap1\n      tag_17\n      jump\t// in\n    tag_41:\n      mload(0x40)\n      dup1\n      swap2\n      sub\n      swap1\n      return\n        /* \"nft_exchange.sol\":1518:2034  function sell(uint256 tokenId, uint256 price, uint256 duration) public {... */\n    tag_8:\n      callvalue\n      dup1\n      iszero\n      tag_42\n      jumpi\n      0x00\n      dup1\n      revert\n    tag_42:\n      pop\n      tag_43\n      0x04\n      dup1\n      calldatasize\n      sub\n      dup2\n      add\n      swap1\n      tag_44\n      swap2\n      swap1\n      tag_45\n      jump\t// in\n    tag_44:\n      tag_46\n      jump\t// in\n    tag_43:\n      stop\n        /* \"nft_exchange.sol\":2042:2592  function buy(uint256 tokenId) public payable {... */\n    tag_9:\n      tag_47\n      0x04\n      dup1\n      calldatasize\n      sub\n      dup2\n      add\n      swap1\n      tag_48\n      swap2\n      swap1\n      tag_34\n      jump\t// in\n    tag_48:\n      tag_49\n      jump\t// in\n    tag_47:\n      stop\n        /* \"@openzeppelin/contracts/access/Ownable.sol\":1918:2116  function transferOwnership(address newOwner) public virtual onlyOwner {... */\n    tag_10:\n      callvalue\n      dup1\n      iszero\n      tag_50\n      jumpi\n      0x00\n      dup1\n      revert\n    tag_50:\n      pop\n      tag_51\n      0x04\n      dup1\n      calldatasize\n      sub\n      dup2\n      add\n      swap1\n      tag_52\n      swap2\n      swap1\n      tag_53\n      jump\t// in\n    tag_52:\n      tag_54\n      jump\t// in\n    tag_51:\n      stop\n        /* \"nft_exchange.sol\":1265:1510  function withdraw(address to, uint256 amount) public onlyOwner {... */\n    tag_11:\n      callvalue\n      dup1\n      iszero\n      tag_55\n      jumpi\n      0x00\n      dup1\n      revert\n    tag_55:\n      pop\n      tag_56\n      0x04\n      dup1\n      calldatasize\n      sub\n      dup2\n      add\n      swap1\n      tag_57\n      swap2\n      swap1\n      tag_58\n      jump\t// in\n    tag_57:\n      tag_59\n      jump\t// in\n    tag_56:\n      stop\n        /* \"nft_exchange.sol\":797:900  function getMinDuration() public view returns (uint256 duration) {... */\n    tag_15:\n        /* \"nft_exchange.sol\":844:860  uint256 duration */\n      0x00\n        /* \"nft_exchange.sol\":880:892  _minDuration */\n      sload(0x02)\n        /* \"nft_exchange.sol\":873:892  return _minDuration */\n      swap1\n      pop\n        /* \"nft_exchange.sol\":797:900  function getMinDuration() public view returns (uint256 duration) {... */\n      swap1\n      jump\t// out\n        /* \"@openzeppelin/contracts/access/Ownable.sol\":1668:1769  function renounceOwnership() public virtual onlyOwner {... */\n    tag_20:\n        /* \"@openzeppelin/contracts/access/Ownable.sol\":1259:1271  _msgSender() */\n      tag_62\n        /* \"@openzeppelin/contracts/access/Ownable.sol\":1259:1269  _msgSender */\n      tag_63\n        /* \"@openzeppelin/contracts/access/Ownable.sol\":1259:1271  _msgSender() */\n      jump\t// in\n    tag_62:\n        /* \"@openzeppelin/contracts/access/Ownable.sol\":1248:1271  owner() == _msgSender() */\n      0xffffffffffffffffffffffffffffffffffffffff\n      and\n        /* \"@openzeppelin/contracts/access/Ownable.sol\":1248:1255  owner() */\n      tag_64\n        /* \"@openzeppelin/contracts/access/Ownable.sol\":1248:1253  owner */\n      tag_23\n        /* \"@openzeppelin/contracts/access/Ownable.sol\":1248:1255  owner() */\n      jump\t// in\n    tag_64:\n        /* \"@openzeppelin/contracts/access/Ownable.sol\":1248:1271  owner() == _msgSender() */\n      0xffffffffffffffffffffffffffffffffffffffff\n      and\n      eq\n        /* \"@openzeppelin/contracts/access/Ownable.sol\":1240:1308  require(owner() == _msgSender(), \"Ownable: caller is not the owner\") */\n      tag_65\n      jumpi\n      mload(0x40)\n      0x08c379a000000000000000000000000000000000000000000000000000000000\n      dup2\n      mstore\n      0x04\n      add\n      tag_66\n      swap1\n      tag_67\n      jump\t// in\n    tag_66:\n      mload(0x40)\n      dup1\n      swap2\n      sub\n      swap1\n      revert\n    tag_65:\n        /* \"@openzeppelin/contracts/access/Ownable.sol\":1732:1762  _transferOwnership(address(0)) */\n      tag_69\n        /* \"@openzeppelin/contracts/access/Ownable.sol\":1759:1760  0 */\n      0x00\n        /* \"@openzeppelin/contracts/access/Ownable.sol\":1732:1750  _transferOwnership */\n      tag_70\n        /* \"@openzeppelin/contracts/access/Ownable.sol\":1732:1762  _transferOwnership(address(0)) */\n      jump\t// in\n    tag_69:\n        /* \"@openzeppelin/contracts/access/Ownable.sol\":1668:1769  function renounceOwnership() public virtual onlyOwner {... */\n      jump\t// out\n        /* \"@openzeppelin/contracts/access/Ownable.sol\":1036:1121  function owner() public view virtual returns (address) {... */\n    tag_23:\n        /* \"@openzeppelin/contracts/access/Ownable.sol\":1082:1089  address */\n      0x00\n        /* \"@openzeppelin/contracts/access/Ownable.sol\":1108:1114  _owner */\n      dup1\n      0x00\n      swap1\n      sload\n      swap1\n      0x0100\n      exp\n      swap1\n      div\n      0xffffffffffffffffffffffffffffffffffffffff\n      and\n        /* \"@openzeppelin/contracts/access/Ownable.sol\":1101:1114  return _owner */\n      swap1\n      pop\n        /* \"@openzeppelin/contracts/access/Ownable.sol\":1036:1121  function owner() public view virtual returns (address) {... */\n      swap1\n      jump\t// out\n        /* \"nft_exchange.sol\":908:1002  function getNftCode() public view returns (IERC721 nftCode) {... */\n    tag_28:\n        /* \"nft_exchange.sol\":951:966  IERC721 nftCode */\n      0x00\n        /* \"nft_exchange.sol\":986:994  _nftCode */\n      0x01\n      0x00\n      swap1\n      sload\n      swap1\n      0x0100\n      exp\n      swap1\n      div\n      0xffffffffffffffffffffffffffffffffffffffff\n      and\n        /* \"nft_exchange.sol\":979:994  return _nftCode */\n      swap1\n      pop\n        /* \"nft_exchange.sol\":908:1002  function getNftCode() public view returns (IERC721 nftCode) {... */\n      swap1\n      jump\t// out\n        /* \"nft_exchange.sol\":1143:1257  function getPrices(uint256 tokenId) public view returns (uint256 price) {... */\n    tag_35:\n        /* \"nft_exchange.sol\":1200:1213  uint256 price */\n      0x00\n        /* \"nft_exchange.sol\":1233:1240  _prices */\n      0x04\n        /* \"nft_exchange.sol\":1233:1249  _prices[tokenId] */\n      0x00\n        /* \"nft_exchange.sol\":1241:1248  tokenId */\n      dup4\n        /* \"nft_exchange.sol\":1233:1249  _prices[tokenId] */\n      dup2\n      mstore\n      0x20\n      add\n      swap1\n      dup2\n      mstore\n      0x20\n      add\n      0x00\n      keccak256\n      sload\n        /* \"nft_exchange.sol\":1226:1249  return _prices[tokenId] */\n      swap1\n      pop\n        /* \"nft_exchange.sol\":1143:1257  function getPrices(uint256 tokenId) public view returns (uint256 price) {... */\n      swap2\n      swap1\n      pop\n      jump\t// out\n        /* \"nft_exchange.sol\":1010:1135  function getTimestamp(uint256 tokenId) public view returns (uint256 timestamp) {... */\n    tag_40:\n        /* \"nft_exchange.sol\":1070:1087  uint256 timestamp */\n      0x00\n        /* \"nft_exchange.sol\":1107:1118  _timestamps */\n      0x03\n        /* \"nft_exchange.sol\":1107:1127  _timestamps[tokenId] */\n      0x00\n        /* \"nft_exchange.sol\":1119:1126  tokenId */\n      dup4\n        /* \"nft_exchange.sol\":1107:1127  _timestamps[tokenId] */\n      dup2\n      mstore\n      0x20\n      add\n      swap1\n      dup2\n      mstore\n      0x20\n      add\n      0x00\n      keccak256\n      sload\n        /* \"nft_exchange.sol\":1100:1127  return _timestamps[tokenId] */\n      swap1\n      pop\n        /* \"nft_exchange.sol\":1010:1135  function getTimestamp(uint256 tokenId) public view returns (uint256 timestamp) {... */\n      swap2\n      swap1\n      pop\n      jump\t// out\n        /* \"nft_exchange.sol\":1518:2034  function sell(uint256 tokenId, uint256 price, uint256 duration) public {... */\n    tag_46:\n        /* \"nft_exchange.sol\":1600:1613  address owner */\n      0x00\n        /* \"nft_exchange.sol\":1616:1624  _nftCode */\n      0x01\n      0x00\n      swap1\n      sload\n      swap1\n      0x0100\n      exp\n      swap1\n      div\n      0xffffffffffffffffffffffffffffffffffffffff\n      and\n        /* \"nft_exchange.sol\":1616:1632  _nftCode.ownerOf */\n      0xffffffffffffffffffffffffffffffffffffffff\n      and\n      0x6352211e\n        /* \"nft_exchange.sol\":1633:1640  tokenId */\n      dup6\n        /* \"nft_exchange.sol\":1616:1641  _nftCode.ownerOf(tokenId) */\n      mload(0x40)\n      dup3\n      0xffffffff\n      and\n      0xe0\n      shl\n      dup2\n      mstore\n      0x04\n      add\n      tag_76\n      swap2\n      swap1\n      tag_17\n      jump\t// in\n    tag_76:\n      0x20\n      mload(0x40)\n      dup1\n      dup4\n      sub\n      dup2\n      dup7\n      gas\n      staticcall\n      iszero\n      dup1\n      iszero\n      tag_78\n      jumpi\n      returndatasize\n      0x00\n      dup1\n      returndatacopy\n      revert(0x00, returndatasize)\n    tag_78:\n      pop\n      pop\n      pop\n      pop\n      mload(0x40)\n      returndatasize\n      not(0x1f)\n      0x1f\n      dup3\n      add\n      and\n      dup3\n      add\n      dup1\n      0x40\n      mstore\n      pop\n      dup2\n      add\n      swap1\n      tag_79\n      swap2\n      swap1\n      tag_80\n      jump\t// in\n    tag_79:\n        /* \"nft_exchange.sol\":1600:1641  address owner = _nftCode.ownerOf(tokenId) */\n      swap1\n      pop\n        /* \"nft_exchange.sol\":1674:1679  owner */\n      dup1\n        /* \"nft_exchange.sol\":1660:1679  msg.sender == owner */\n      0xffffffffffffffffffffffffffffffffffffffff\n      and\n        /* \"nft_exchange.sol\":1660:1670  msg.sender */\n      caller\n        /* \"nft_exchange.sol\":1660:1679  msg.sender == owner */\n      0xffffffffffffffffffffffffffffffffffffffff\n      and\n      eq\n        /* \"nft_exchange.sol\":1652:1720  require(msg.sender == owner, \"NftExchange: seller is not nft owner\") */\n      tag_81\n      jumpi\n      mload(0x40)\n      0x08c379a000000000000000000000000000000000000000000000000000000000\n      dup2\n      mstore\n      0x04\n      add\n      tag_82\n      swap1\n      tag_83\n      jump\t// in\n    tag_82:\n      mload(0x40)\n      dup1\n      swap2\n      sub\n      swap1\n      revert\n    tag_81:\n        /* \"nft_exchange.sol\":1751:1767  getMinDuration() */\n      tag_84\n        /* \"nft_exchange.sol\":1751:1765  getMinDuration */\n      tag_15\n        /* \"nft_exchange.sol\":1751:1767  getMinDuration() */\n      jump\t// in\n    tag_84:\n        /* \"nft_exchange.sol\":1739:1747  duration */\n      dup3\n        /* \"nft_exchange.sol\":1739:1767  duration >= getMinDuration() */\n      lt\n      iszero\n        /* \"nft_exchange.sol\":1828:1862  Strings.toString(getMinDuration()) */\n      tag_85\n        /* \"nft_exchange.sol\":1845:1861  getMinDuration() */\n      tag_86\n        /* \"nft_exchange.sol\":1845:1859  getMinDuration */\n      tag_15\n        /* \"nft_exchange.sol\":1845:1861  getMinDuration() */\n      jump\t// in\n    tag_86:\n        /* \"nft_exchange.sol\":1828:1844  Strings.toString */\n      tag_87\n        /* \"nft_exchange.sol\":1828:1862  Strings.toString(getMinDuration()) */\n      jump\t// in\n    tag_85:\n        /* \"nft_exchange.sol\":1776:1863  abi.encodePacked(\"NftExchange: duration at least \", Strings.toString(getMinDuration())) */\n      add(0x20, mload(0x40))\n      tag_88\n      swap2\n      swap1\n      tag_89\n      jump\t// in\n    tag_88:\n      mload(0x40)\n      0x20\n      dup2\n      dup4\n      sub\n      sub\n      dup2\n      mstore\n      swap1\n      0x40\n      mstore\n        /* \"nft_exchange.sol\":1731:1865  require(duration >= getMinDuration(), string(abi.encodePacked(\"NftExchange: duration at least \", Strings.toString(getMinDuration())))) */\n      swap1\n      tag_90\n      jumpi\n      mload(0x40)\n      0x08c379a000000000000000000000000000000000000000000000000000000000\n      dup2\n      mstore\n      0x04\n      add\n      tag_91\n      swap2\n      swap1\n      tag_92\n      jump\t// in\n    tag_91:\n      mload(0x40)\n      dup1\n      swap2\n      sub\n      swap1\n      revert\n    tag_90:\n      pop\n        /* \"nft_exchange.sol\":1917:1925  duration */\n      dup2\n        /* \"nft_exchange.sol\":1899:1914  block.timestamp */\n      timestamp\n        /* \"nft_exchange.sol\":1899:1925  block.timestamp + duration */\n      tag_93\n      swap2\n      swap1\n      tag_94\n      jump\t// in\n    tag_93:\n        /* \"nft_exchange.sol\":1876:1887  _timestamps */\n      0x03\n        /* \"nft_exchange.sol\":1876:1896  _timestamps[tokenId] */\n      0x00\n        /* \"nft_exchange.sol\":1888:1895  tokenId */\n      dup7\n        /* \"nft_exchange.sol\":1876:1896  _timestamps[tokenId] */\n      dup2\n      mstore\n      0x20\n      add\n      swap1\n      dup2\n      mstore\n      0x20\n      add\n      0x00\n      keccak256\n        /* \"nft_exchange.sol\":1876:1925  _timestamps[tokenId] = block.timestamp + duration */\n      dup2\n      swap1\n      sstore\n      pop\n        /* \"nft_exchange.sol\":1955:1960  price */\n      dup3\n        /* \"nft_exchange.sol\":1936:1943  _prices */\n      0x04\n        /* \"nft_exchange.sol\":1936:1952  _prices[tokenId] */\n      0x00\n        /* \"nft_exchange.sol\":1944:1951  tokenId */\n      dup7\n        /* \"nft_exchange.sol\":1936:1952  _prices[tokenId] */\n      dup2\n      mstore\n      0x20\n      add\n      swap1\n      dup2\n      mstore\n      0x20\n      add\n      0x00\n      keccak256\n        /* \"nft_exchange.sol\":1936:1960  _prices[tokenId] = price */\n      dup2\n      swap1\n      sstore\n      pop\n        /* \"nft_exchange.sol\":1976:2025  DoneOnShelf(tokenId, price, _timestamps[tokenId]) */\n      0x9fece02dacd609f794ef9a2f8f1f690ec297ebcf6745b038ab218b14f7dc8d1f\n        /* \"nft_exchange.sol\":1988:1995  tokenId */\n      dup5\n        /* \"nft_exchange.sol\":1997:2002  price */\n      dup5\n        /* \"nft_exchange.sol\":2004:2015  _timestamps */\n      0x03\n        /* \"nft_exchange.sol\":2004:2024  _timestamps[tokenId] */\n      0x00\n        /* \"nft_exchange.sol\":2016:2023  tokenId */\n      dup9\n        /* \"nft_exchange.sol\":2004:2024  _timestamps[tokenId] */\n      dup2\n      mstore\n      0x20\n      add\n      swap1\n      dup2\n      mstore\n      0x20\n      add\n      0x00\n      keccak256\n      sload\n        /* \"nft_exchange.sol\":1976:2025  DoneOnShelf(tokenId, price, _timestamps[tokenId]) */\n      mload(0x40)\n      tag_95\n      swap4\n      swap3\n      swap2\n      swap1\n      tag_96\n      jump\t// in\n    tag_95:\n      mload(0x40)\n      dup1\n      swap2\n      sub\n      swap1\n      log1\n        /* \"nft_exchange.sol\":1589:2034  {... */\n      pop\n        /* \"nft_exchange.sol\":1518:2034  function sell(uint256 tokenId, uint256 price, uint256 duration) public {... */\n      pop\n      pop\n      pop\n      jump\t// out\n        /* \"nft_exchange.sol\":2042:2592  function buy(uint256 tokenId) public payable {... */\n    tag_49:\n        /* \"nft_exchange.sol\":2125:2146  getTimestamp(tokenId) */\n      tag_98\n        /* \"nft_exchange.sol\":2138:2145  tokenId */\n      dup2\n        /* \"nft_exchange.sol\":2125:2137  getTimestamp */\n      tag_40\n        /* \"nft_exchange.sol\":2125:2146  getTimestamp(tokenId) */\n      jump\t// in\n    tag_98:\n        /* \"nft_exchange.sol\":2106:2121  block.timestamp */\n      timestamp\n        /* \"nft_exchange.sol\":2106:2146  block.timestamp <= getTimestamp(tokenId) */\n      gt\n      iszero\n        /* \"nft_exchange.sol\":2098:2185  require(block.timestamp <= getTimestamp(tokenId), \"NftExchange: nft not on the shelf!\") */\n      tag_99\n      jumpi\n      mload(0x40)\n      0x08c379a000000000000000000000000000000000000000000000000000000000\n      dup2\n      mstore\n      0x04\n      add\n      tag_100\n      swap1\n      tag_101\n      jump\t// in\n    tag_100:\n      mload(0x40)\n      dup1\n      swap2\n      sub\n      swap1\n      revert\n    tag_99:\n        /* \"nft_exchange.sol\":2196:2209  uint256 price */\n      0x00\n        /* \"nft_exchange.sol\":2212:2219  _prices */\n      0x04\n        /* \"nft_exchange.sol\":2212:2228  _prices[tokenId] */\n      0x00\n        /* \"nft_exchange.sol\":2220:2227  tokenId */\n      dup4\n        /* \"nft_exchange.sol\":2212:2228  _prices[tokenId] */\n      dup2\n      mstore\n      0x20\n      add\n      swap1\n      dup2\n      mstore\n      0x20\n      add\n      0x00\n      keccak256\n      sload\n        /* \"nft_exchange.sol\":2196:2228  uint256 price = _prices[tokenId] */\n      swap1\n      pop\n        /* \"nft_exchange.sol\":2260:2265  price */\n      dup1\n        /* \"nft_exchange.sol\":2247:2256  msg.value */\n      callvalue\n        /* \"nft_exchange.sol\":2247:2265  msg.value >= price */\n      lt\n      iszero\n        /* \"nft_exchange.sol\":2333:2367  Strings.toString(getMinDuration()) */\n      tag_102\n        /* \"nft_exchange.sol\":2350:2366  getMinDuration() */\n      tag_103\n        /* \"nft_exchange.sol\":2350:2364  getMinDuration */\n      tag_15\n        /* \"nft_exchange.sol\":2350:2366  getMinDuration() */\n      jump\t// in\n    tag_103:\n        /* \"nft_exchange.sol\":2333:2349  Strings.toString */\n      tag_87\n        /* \"nft_exchange.sol\":2333:2367  Strings.toString(getMinDuration()) */\n      jump\t// in\n    tag_102:\n        /* \"nft_exchange.sol\":2274:2368  abi.encodePacked(\"NftExchange: value Quantity less than \", Strings.toString(getMinDuration())) */\n      add(0x20, mload(0x40))\n      tag_104\n      swap2\n      swap1\n      tag_105\n      jump\t// in\n    tag_104:\n      mload(0x40)\n      0x20\n      dup2\n      dup4\n      sub\n      sub\n      dup2\n      mstore\n      swap1\n      0x40\n      mstore\n        /* \"nft_exchange.sol\":2239:2370  require(msg.value >= price, string(abi.encodePacked(\"NftExchange: value Quantity less than \", Strings.toString(getMinDuration())))) */\n      swap1\n      tag_106\n      jumpi\n      mload(0x40)\n      0x08c379a000000000000000000000000000000000000000000000000000000000\n      dup2\n      mstore\n      0x04\n      add\n      tag_107\n      swap2\n      swap1\n      tag_92\n      jump\t// in\n    tag_107:\n      mload(0x40)\n      dup1\n      swap2\n      sub\n      swap1\n      revert\n    tag_106:\n      pop\n        /* \"nft_exchange.sol\":2381:2393  address from */\n      0x00\n        /* \"nft_exchange.sol\":2396:2404  _nftCode */\n      0x01\n      0x00\n      swap1\n      sload\n      swap1\n      0x0100\n      exp\n      swap1\n      div\n      0xffffffffffffffffffffffffffffffffffffffff\n      and\n        /* \"nft_exchange.sol\":2396:2412  _nftCode.ownerOf */\n      0xffffffffffffffffffffffffffffffffffffffff\n      and\n      0x6352211e\n        /* \"nft_exchange.sol\":2413:2420  tokenId */\n      dup5\n        /* \"nft_exchange.sol\":2396:2421  _nftCode.ownerOf(tokenId) */\n      mload(0x40)\n      dup3\n      0xffffffff\n      and\n      0xe0\n      shl\n      dup2\n      mstore\n      0x04\n      add\n      tag_108\n      swap2\n      swap1\n      tag_17\n      jump\t// in\n    tag_108:\n      0x20\n      mload(0x40)\n      dup1\n      dup4\n      sub\n      dup2\n      dup7\n      gas\n      staticcall\n      iszero\n      dup1\n      iszero\n      tag_110\n      jumpi\n      returndatasize\n      0x00\n      dup1\n      returndatacopy\n      revert(0x00, returndatasize)\n    tag_110:\n      pop\n      pop\n      pop\n      pop\n      mload(0x40)\n      returndatasize\n      not(0x1f)\n      0x1f\n      dup3\n      add\n      and\n      dup3\n      add\n      dup1\n      0x40\n      mstore\n      pop\n      dup2\n      add\n      swap1\n      tag_111\n      swap2\n      swap1\n      tag_80\n      jump\t// in\n    tag_111:\n        /* \"nft_exchange.sol\":2381:2421  address from = _nftCode.ownerOf(tokenId) */\n      swap1\n      pop\n        /* \"nft_exchange.sol\":2432:2440  _nftCode */\n      0x01\n      0x00\n      swap1\n      sload\n      swap1\n      0x0100\n      exp\n      swap1\n      div\n      0xffffffffffffffffffffffffffffffffffffffff\n      and\n        /* \"nft_exchange.sol\":2432:2457  _nftCode.safeTransferFrom */\n      0xffffffffffffffffffffffffffffffffffffffff\n      and\n      0x42842e0e\n        /* \"nft_exchange.sol\":2458:2462  from */\n      dup3\n        /* \"nft_exchange.sol\":2464:2474  msg.sender */\n      caller\n        /* \"nft_exchange.sol\":2476:2483  tokenId */\n      dup7\n        /* \"nft_exchange.sol\":2432:2484  _nftCode.safeTransferFrom(from, msg.sender, tokenId) */\n      mload(0x40)\n      dup5\n      0xffffffff\n      and\n      0xe0\n      shl\n      dup2\n      mstore\n      0x04\n      add\n      tag_112\n      swap4\n      swap3\n      swap2\n      swap1\n      tag_113\n      jump\t// in\n    tag_112:\n      0x00\n      mload(0x40)\n      dup1\n      dup4\n      sub\n      dup2\n      0x00\n      dup8\n      dup1\n      extcodesize\n      iszero\n      dup1\n      iszero\n      tag_114\n      jumpi\n      0x00\n      dup1\n      revert\n    tag_114:\n      pop\n      gas\n      call\n      iszero\n      dup1\n      iszero\n      tag_116\n      jumpi\n      returndatasize\n      0x00\n      dup1\n      returndatacopy\n      revert(0x00, returndatasize)\n    tag_116:\n      pop\n      pop\n      pop\n      pop\n        /* \"nft_exchange.sol\":2518:2519  0 */\n      0x00\n        /* \"nft_exchange.sol\":2495:2506  _timestamps */\n      0x03\n        /* \"nft_exchange.sol\":2495:2515  _timestamps[tokenId] */\n      0x00\n        /* \"nft_exchange.sol\":2507:2514  tokenId */\n      dup6\n        /* \"nft_exchange.sol\":2495:2515  _timestamps[tokenId] */\n      dup2\n      mstore\n      0x20\n      add\n      swap1\n      dup2\n      mstore\n      0x20\n      add\n      0x00\n      keccak256\n        /* \"nft_exchange.sol\":2495:2519  _timestamps[tokenId] = 0 */\n      dup2\n      swap1\n      sstore\n      pop\n        /* \"nft_exchange.sol\":2537:2583  DonePurchase(from, msg.sender, tokenId, price) */\n      0xf06e0ddedcf564fbe63eb7c8a2fa82a50b4e0697d6fe7ea91ce49b845ac5d46b\n        /* \"nft_exchange.sol\":2550:2554  from */\n      dup2\n        /* \"nft_exchange.sol\":2556:2566  msg.sender */\n      caller\n        /* \"nft_exchange.sol\":2568:2575  tokenId */\n      dup6\n        /* \"nft_exchange.sol\":2577:2582  price */\n      dup6\n        /* \"nft_exchange.sol\":2537:2583  DonePurchase(from, msg.sender, tokenId, price) */\n      mload(0x40)\n      tag_117\n      swap5\n      swap4\n      swap3\n      swap2\n      swap1\n      tag_118\n      jump\t// in\n    tag_117:\n      mload(0x40)\n      dup1\n      swap2\n      sub\n      swap1\n      log1\n        /* \"nft_exchange.sol\":2087:2592  {... */\n      pop\n      pop\n        /* \"nft_exchange.sol\":2042:2592  function buy(uint256 tokenId) public payable {... */\n      pop\n      jump\t// out\n        /* \"@openzeppelin/contracts/access/Ownable.sol\":1918:2116  function transferOwnership(address newOwner) public virtual onlyOwner {... */\n    tag_54:\n        /* \"@openzeppelin/contracts/access/Ownable.sol\":1259:1271  _msgSender() */\n      tag_120\n        /* \"@openzeppelin/contracts/access/Ownable.sol\":1259:1269  _msgSender */\n      tag_63\n        /* \"@openzeppelin/contracts/access/Ownable.sol\":1259:1271  _msgSender() */\n      jump\t// in\n    tag_120:\n        /* \"@openzeppelin/contracts/access/Ownable.sol\":1248:1271  owner() == _msgSender() */\n      0xffffffffffffffffffffffffffffffffffffffff\n      and\n        /* \"@openzeppelin/contracts/access/Ownable.sol\":1248:1255  owner() */\n      tag_121\n        /* \"@openzeppelin/contracts/access/Ownable.sol\":1248:1253  owner */\n      tag_23\n        /* \"@openzeppelin/contracts/access/Ownable.sol\":1248:1255  owner() */\n      jump\t// in\n    tag_121:\n        /* \"@openzeppelin/contracts/access/Ownable.sol\":1248:1271  owner() == _msgSender() */\n      0xffffffffffffffffffffffffffffffffffffffff\n      and\n      eq\n        /* \"@openzeppelin/contracts/access/Ownable.sol\":1240:1308  require(owner() == _msgSender(), \"Ownable: caller is not the owner\") */\n      tag_122\n      jumpi\n      mload(0x40)\n      0x08c379a000000000000000000000000000000000000000000000000000000000\n      dup2\n      mstore\n      0x04\n      add\n      tag_123\n      swap1\n      tag_67\n      jump\t// in\n    tag_123:\n      mload(0x40)\n      dup1\n      swap2\n      sub\n      swap1\n      revert\n    tag_122:\n        /* \"@openzeppelin/contracts/access/Ownable.sol\":2026:2027  0 */\n      0x00\n        /* \"@openzeppelin/contracts/access/Ownable.sol\":2006:2028  newOwner != address(0) */\n      0xffffffffffffffffffffffffffffffffffffffff\n      and\n        /* \"@openzeppelin/contracts/access/Ownable.sol\":2006:2014  newOwner */\n      dup2\n        /* \"@openzeppelin/contracts/access/Ownable.sol\":2006:2028  newOwner != address(0) */\n      0xffffffffffffffffffffffffffffffffffffffff\n      and\n      sub\n        /* \"@openzeppelin/contracts/access/Ownable.sol\":1998:2071  require(newOwner != address(0), \"Ownable: new owner is the zero address\") */\n      tag_125\n      jumpi\n      mload(0x40)\n      0x08c379a000000000000000000000000000000000000000000000000000000000\n      dup2\n      mstore\n      0x04\n      add\n      tag_126\n      swap1\n      tag_127\n      jump\t// in\n    tag_126:\n      mload(0x40)\n      dup1\n      swap2\n      sub\n      swap1\n      revert\n    tag_125:\n        /* \"@openzeppelin/contracts/access/Ownable.sol\":2081:2109  _transferOwnership(newOwner) */\n      tag_128\n        /* \"@openzeppelin/contracts/access/Ownable.sol\":2100:2108  newOwner */\n      dup2\n        /* \"@openzeppelin/contracts/access/Ownable.sol\":2081:2099  _transferOwnership */\n      tag_70\n        /* \"@openzeppelin/contracts/access/Ownable.sol\":2081:2109  _transferOwnership(newOwner) */\n      jump\t// in\n    tag_128:\n        /* \"@openzeppelin/contracts/access/Ownable.sol\":1918:2116  function transferOwnership(address newOwner) public virtual onlyOwner {... */\n      pop\n      jump\t// out\n        /* \"nft_exchange.sol\":1265:1510  function withdraw(address to, uint256 amount) public onlyOwner {... */\n    tag_59:\n        /* \"@openzeppelin/contracts/access/Ownable.sol\":1259:1271  _msgSender() */\n      tag_130\n        /* \"@openzeppelin/contracts/access/Ownable.sol\":1259:1269  _msgSender */\n      tag_63\n        /* \"@openzeppelin/contracts/access/Ownable.sol\":1259:1271  _msgSender() */\n      jump\t// in\n    tag_130:\n        /* \"@openzeppelin/contracts/access/Ownable.sol\":1248:1271  owner() == _msgSender() */\n      0xffffffffffffffffffffffffffffffffffffffff\n      and\n        /* \"@openzeppelin/contracts/access/Ownable.sol\":1248:1255  owner() */\n      tag_131\n        /* \"@openzeppelin/contracts/access/Ownable.sol\":1248:1253  owner */\n      tag_23\n        /* \"@openzeppelin/contracts/access/Ownable.sol\":1248:1255  owner() */\n      jump\t// in\n    tag_131:\n        /* \"@openzeppelin/contracts/access/Ownable.sol\":1248:1271  owner() == _msgSender() */\n      0xffffffffffffffffffffffffffffffffffffffff\n      and\n      eq\n        /* \"@openzeppelin/contracts/access/Ownable.sol\":1240:1308  require(owner() == _msgSender(), \"Ownable: caller is not the owner\") */\n      tag_132\n      jumpi\n      mload(0x40)\n      0x08c379a000000000000000000000000000000000000000000000000000000000\n      dup2\n      mstore\n      0x04\n      add\n      tag_133\n      swap1\n      tag_67\n      jump\t// in\n    tag_133:\n      mload(0x40)\n      dup1\n      swap2\n      sub\n      swap1\n      revert\n    tag_132:\n        /* \"nft_exchange.sol\":1340:1352  bool success */\n      0x00\n        /* \"nft_exchange.sol\":1358:1360  to */\n      dup3\n        /* \"nft_exchange.sol\":1358:1365  to.call */\n      0xffffffffffffffffffffffffffffffffffffffff\n      and\n        /* \"nft_exchange.sol\":1373:1379  amount */\n      dup3\n        /* \"nft_exchange.sol\":1358:1384  to.call{value: amount}(\"\") */\n      mload(0x40)\n      tag_135\n      swap1\n      tag_136\n      jump\t// in\n    tag_135:\n      0x00\n      mload(0x40)\n      dup1\n      dup4\n      sub\n      dup2\n      dup6\n      dup8\n      gas\n      call\n      swap3\n      pop\n      pop\n      pop\n      returndatasize\n      dup1\n      0x00\n      dup2\n      eq\n      tag_139\n      jumpi\n      mload(0x40)\n      swap2\n      pop\n      and(add(returndatasize, 0x3f), not(0x1f))\n      dup3\n      add\n      0x40\n      mstore\n      returndatasize\n      dup3\n      mstore\n      returndatasize\n      0x00\n      0x20\n      dup5\n      add\n      returndatacopy\n      jump(tag_138)\n    tag_139:\n      0x60\n      swap2\n      pop\n    tag_138:\n      pop\n        /* \"nft_exchange.sol\":1339:1384  (bool success, ) = to.call{value: amount}(\"\") */\n      pop\n      swap1\n      pop\n        /* \"nft_exchange.sol\":1403:1410  success */\n      dup1\n        /* \"nft_exchange.sol\":1395:1443  require(success, \"NftExchange: withdraw error!\") */\n      tag_140\n      jumpi\n      mload(0x40)\n      0x08c379a000000000000000000000000000000000000000000000000000000000\n      dup2\n      mstore\n      0x04\n      add\n      tag_141\n      swap1\n      tag_142\n      jump\t// in\n    tag_141:\n      mload(0x40)\n      dup1\n      swap2\n      sub\n      swap1\n      revert\n    tag_140:\n        /* \"nft_exchange.sol\":1469:1501  DoneWithdraw(msg.sender, amount) */\n      0x9698e61c645d6b39d54d12fe323bad02e9dfdbde2487c2ba08ccfe654400623e\n        /* \"nft_exchange.sol\":1482:1492  msg.sender */\n      caller\n        /* \"nft_exchange.sol\":1494:1500  amount */\n      dup4\n        /* \"nft_exchange.sol\":1469:1501  DoneWithdraw(msg.sender, amount) */\n      mload(0x40)\n      tag_143\n      swap3\n      swap2\n      swap1\n      tag_144\n      jump\t// in\n    tag_143:\n      mload(0x40)\n      dup1\n      swap2\n      sub\n      swap1\n      log1\n        /* \"nft_exchange.sol\":1328:1510  {... */\n      pop\n        /* \"nft_exchange.sol\":1265:1510  function withdraw(address to, uint256 amount) public onlyOwner {... */\n      pop\n      pop\n      jump\t// out\n        /* \"@openzeppelin/contracts/utils/Context.sol\":640:736  function _msgSender() internal view virtual returns (address) {... */\n    tag_63:\n        /* \"@openzeppelin/contracts/utils/Context.sol\":693:700  address */\n      0x00\n        /* \"@openzeppelin/contracts/utils/Context.sol\":719:729  msg.sender */\n      caller\n        /* \"@openzeppelin/contracts/utils/Context.sol\":712:729  return msg.sender */\n      swap1\n      pop\n        /* \"@openzeppelin/contracts/utils/Context.sol\":640:736  function _msgSender() internal view virtual returns (address) {... */\n      swap1\n      jump\t// out\n        /* \"@openzeppelin/contracts/access/Ownable.sol\":2270:2457  function _transferOwnership(address newOwner) internal virtual {... */\n    tag_70:\n        /* \"@openzeppelin/contracts/access/Ownable.sol\":2343:2359  address oldOwner */\n      0x00\n        /* \"@openzeppelin/contracts/access/Ownable.sol\":2362:2368  _owner */\n      dup1\n      0x00\n      swap1\n      sload\n      swap1\n      0x0100\n      exp\n      swap1\n      div\n      0xffffffffffffffffffffffffffffffffffffffff\n      and\n        /* \"@openzeppelin/contracts/access/Ownable.sol\":2343:2368  address oldOwner = _owner */\n      swap1\n      pop\n        /* \"@openzeppelin/contracts/access/Ownable.sol\":2387:2395  newOwner */\n      dup2\n        /* \"@openzeppelin/contracts/access/Ownable.sol\":2378:2384  _owner */\n      0x00\n      dup1\n        /* \"@openzeppelin/contracts/access/Ownable.sol\":2378:2395  _owner = newOwner */\n      0x0100\n      exp\n      dup2\n      sload\n      dup2\n      0xffffffffffffffffffffffffffffffffffffffff\n      mul\n      not\n      and\n      swap1\n      dup4\n      0xffffffffffffffffffffffffffffffffffffffff\n      and\n      mul\n      or\n      swap1\n      sstore\n      pop\n        /* \"@openzeppelin/contracts/access/Ownable.sol\":2441:2449  newOwner */\n      dup2\n        /* \"@openzeppelin/contracts/access/Ownable.sol\":2410:2450  OwnershipTransferred(oldOwner, newOwner) */\n      0xffffffffffffffffffffffffffffffffffffffff\n      and\n        /* \"@openzeppelin/contracts/access/Ownable.sol\":2431:2439  oldOwner */\n      dup2\n        /* \"@openzeppelin/contracts/access/Ownable.sol\":2410:2450  OwnershipTransferred(oldOwner, newOwner) */\n      0xffffffffffffffffffffffffffffffffffffffff\n      and\n      0x8be0079c531659141344cd1fd0a4f28419497f9722a3daafe3b4186f6b6457e0\n      mload(0x40)\n      mload(0x40)\n      dup1\n      swap2\n      sub\n      swap1\n      log3\n        /* \"@openzeppelin/contracts/access/Ownable.sol\":2333:2457  {... */\n      pop\n        /* \"@openzeppelin/contracts/access/Ownable.sol\":2270:2457  function _transferOwnership(address newOwner) internal virtual {... */\n      pop\n      jump\t// out\n        /* \"@openzeppelin/contracts/utils/Strings.sol\":328:1031  function toString(uint256 value) internal pure returns (string memory) {... */\n    tag_87:\n        /* \"@openzeppelin/contracts/utils/Strings.sol\":384:397  string memory */\n      0x60\n        /* \"@openzeppelin/contracts/utils/Strings.sol\":610:611  0 */\n      0x00\n        /* \"@openzeppelin/contracts/utils/Strings.sol\":601:606  value */\n      dup3\n        /* \"@openzeppelin/contracts/utils/Strings.sol\":601:611  value == 0 */\n      sub\n        /* \"@openzeppelin/contracts/utils/Strings.sol\":597:648  if (value == 0) {... */\n      tag_148\n      jumpi\n        /* \"@openzeppelin/contracts/utils/Strings.sol\":627:637  return \"0\" */\n      mload(0x40)\n      dup1\n      0x40\n      add\n      0x40\n      mstore\n      dup1\n      0x01\n      dup2\n      mstore\n      0x20\n      add\n      0x3000000000000000000000000000000000000000000000000000000000000000\n      dup2\n      mstore\n      pop\n      swap1\n      pop\n      jump(tag_147)\n        /* \"@openzeppelin/contracts/utils/Strings.sol\":597:648  if (value == 0) {... */\n    tag_148:\n        /* \"@openzeppelin/contracts/utils/Strings.sol\":657:669  uint256 temp */\n      0x00\n        /* \"@openzeppelin/contracts/utils/Strings.sol\":672:677  value */\n      dup3\n        /* \"@openzeppelin/contracts/utils/Strings.sol\":657:677  uint256 temp = value */\n      swap1\n      pop\n        /* \"@openzeppelin/contracts/utils/Strings.sol\":687:701  uint256 digits */\n      0x00\n        /* \"@openzeppelin/contracts/utils/Strings.sol\":711:786  while (temp != 0) {... */\n    tag_149:\n        /* \"@openzeppelin/contracts/utils/Strings.sol\":726:727  0 */\n      0x00\n        /* \"@openzeppelin/contracts/utils/Strings.sol\":718:722  temp */\n      dup3\n        /* \"@openzeppelin/contracts/utils/Strings.sol\":718:727  temp != 0 */\n      eq\n        /* \"@openzeppelin/contracts/utils/Strings.sol\":711:786  while (temp != 0) {... */\n      tag_150\n      jumpi\n        /* \"@openzeppelin/contracts/utils/Strings.sol\":743:751  digits++ */\n      dup1\n      dup1\n      tag_151\n      swap1\n      tag_152\n      jump\t// in\n    tag_151:\n      swap2\n      pop\n      pop\n        /* \"@openzeppelin/contracts/utils/Strings.sol\":773:775  10 */\n      0x0a\n        /* \"@openzeppelin/contracts/utils/Strings.sol\":765:775  temp /= 10 */\n      dup3\n      tag_153\n      swap2\n      swap1\n      tag_154\n      jump\t// in\n    tag_153:\n      swap2\n      pop\n        /* \"@openzeppelin/contracts/utils/Strings.sol\":711:786  while (temp != 0) {... */\n      jump(tag_149)\n    tag_150:\n        /* \"@openzeppelin/contracts/utils/Strings.sol\":795:814  bytes memory buffer */\n      0x00\n        /* \"@openzeppelin/contracts/utils/Strings.sol\":827:833  digits */\n      dup2\n        /* \"@openzeppelin/contracts/utils/Strings.sol\":817:834  new bytes(digits) */\n      0xffffffffffffffff\n      dup2\n      gt\n      iszero\n      tag_155\n      jumpi\n      tag_156\n      tag_157\n      jump\t// in\n    tag_156:\n    tag_155:\n      mload(0x40)\n      swap1\n      dup1\n      dup3\n      mstore\n      dup1\n      0x1f\n      add\n      not(0x1f)\n      and\n      0x20\n      add\n      dup3\n      add\n      0x40\n      mstore\n      dup1\n      iszero\n      tag_158\n      jumpi\n      dup2\n      0x20\n      add\n      0x01\n      dup3\n      mul\n      dup1\n      calldatasize\n      dup4\n      calldatacopy\n      dup1\n      dup3\n      add\n      swap2\n      pop\n      pop\n      swap1\n      pop\n    tag_158:\n      pop\n        /* \"@openzeppelin/contracts/utils/Strings.sol\":795:834  bytes memory buffer = new bytes(digits) */\n      swap1\n      pop\n        /* \"@openzeppelin/contracts/utils/Strings.sol\":844:994  while (value != 0) {... */\n    tag_159:\n        /* \"@openzeppelin/contracts/utils/Strings.sol\":860:861  0 */\n      0x00\n        /* \"@openzeppelin/contracts/utils/Strings.sol\":851:856  value */\n      dup6\n        /* \"@openzeppelin/contracts/utils/Strings.sol\":851:861  value != 0 */\n      eq\n        /* \"@openzeppelin/contracts/utils/Strings.sol\":844:994  while (value != 0) {... */\n      tag_160\n      jumpi\n        /* \"@openzeppelin/contracts/utils/Strings.sol\":887:888  1 */\n      0x01\n        /* \"@openzeppelin/contracts/utils/Strings.sol\":877:888  digits -= 1 */\n      dup3\n      tag_161\n      swap2\n      swap1\n      tag_162\n      jump\t// in\n    tag_161:\n      swap2\n      pop\n        /* \"@openzeppelin/contracts/utils/Strings.sol\":953:955  10 */\n      0x0a\n        /* \"@openzeppelin/contracts/utils/Strings.sol\":945:950  value */\n      dup6\n        /* \"@openzeppelin/contracts/utils/Strings.sol\":945:955  value % 10 */\n      tag_163\n      swap2\n      swap1\n      tag_164\n      jump\t// in\n    tag_163:\n        /* \"@openzeppelin/contracts/utils/Strings.sol\":932:934  48 */\n      0x30\n        /* \"@openzeppelin/contracts/utils/Strings.sol\":932:956  48 + uint256(value % 10) */\n      tag_165\n      swap2\n      swap1\n      tag_94\n      jump\t// in\n    tag_165:\n        /* \"@openzeppelin/contracts/utils/Strings.sol\":919:958  bytes1(uint8(48 + uint256(value % 10))) */\n      0xf8\n      shl\n        /* \"@openzeppelin/contracts/utils/Strings.sol\":902:908  buffer */\n      dup2\n        /* \"@openzeppelin/contracts/utils/Strings.sol\":909:915  digits */\n      dup4\n        /* \"@openzeppelin/contracts/utils/Strings.sol\":902:916  buffer[digits] */\n      dup2\n      mload\n      dup2\n      lt\n      tag_166\n      jumpi\n      tag_167\n      tag_168\n      jump\t// in\n    tag_167:\n    tag_166:\n      0x20\n      add\n      add\n        /* \"@openzeppelin/contracts/utils/Strings.sol\":902:958  buffer[digits] = bytes1(uint8(48 + uint256(value % 10))) */\n      swap1\n      not(0xffffffffffffffffffffffffffffffffffffffffffffffffffffffffffffff)\n      and\n      swap1\n      dup2\n      0x00\n      byte\n      swap1\n      mstore8\n      pop\n        /* \"@openzeppelin/contracts/utils/Strings.sol\":981:983  10 */\n      0x0a\n        /* \"@openzeppelin/contracts/utils/Strings.sol\":972:983  value /= 10 */\n      dup6\n      tag_169\n      swap2\n      swap1\n      tag_154\n      jump\t// in\n    tag_169:\n      swap5\n      pop\n        /* \"@openzeppelin/contracts/utils/Strings.sol\":844:994  while (value != 0) {... */\n      jump(tag_159)\n    tag_160:\n        /* \"@openzeppelin/contracts/utils/Strings.sol\":1017:1023  buffer */\n      dup1\n        /* \"@openzeppelin/contracts/utils/Strings.sol\":1003:1024  return string(buffer) */\n      swap4\n      pop\n      pop\n      pop\n      pop\n        /* \"@openzeppelin/contracts/utils/Strings.sol\":328:1031  function toString(uint256 value) internal pure returns (string memory) {... */\n    tag_147:\n      swap2\n      swap1\n      pop\n      jump\t// out\n        /* \"#utility.yul\":7:84   */\n    tag_170:\n        /* \"#utility.yul\":44:51   */\n      0x00\n        /* \"#utility.yul\":73:78   */\n      dup2\n        /* \"#utility.yul\":62:78   */\n      swap1\n      pop\n        /* \"#utility.yul\":7:84   */\n      swap2\n      swap1\n      pop\n      jump\t// out\n        /* \"#utility.yul\":90:208   */\n    tag_171:\n        /* \"#utility.yul\":177:201   */\n      tag_217\n        /* \"#utility.yul\":195:200   */\n      dup2\n        /* \"#utility.yul\":177:201   */\n      tag_170\n      jump\t// in\n    tag_217:\n        /* \"#utility.yul\":172:175   */\n      dup3\n        /* \"#utility.yul\":165:202   */\n      mstore\n        /* \"#utility.yul\":90:208   */\n      pop\n      pop\n      jump\t// out\n        /* \"#utility.yul\":214:436   */\n    tag_17:\n        /* \"#utility.yul\":307:311   */\n      0x00\n        /* \"#utility.yul\":345:347   */\n      0x20\n        /* \"#utility.yul\":334:343   */\n      dup3\n        /* \"#utility.yul\":330:348   */\n      add\n        /* \"#utility.yul\":322:348   */\n      swap1\n      pop\n        /* \"#utility.yul\":358:429   */\n      tag_219\n        /* \"#utility.yul\":426:427   */\n      0x00\n        /* \"#utility.yul\":415:424   */\n      dup4\n        /* \"#utility.yul\":411:428   */\n      add\n        /* \"#utility.yul\":402:408   */\n      dup5\n        /* \"#utility.yul\":358:429   */\n      tag_171\n      jump\t// in\n    tag_219:\n        /* \"#utility.yul\":214:436   */\n      swap3\n      swap2\n      pop\n      pop\n      jump\t// out\n        /* \"#utility.yul\":442:568   */\n    tag_172:\n        /* \"#utility.yul\":479:486   */\n      0x00\n        /* \"#utility.yul\":519:561   */\n      0xffffffffffffffffffffffffffffffffffffffff\n        /* \"#utility.yul\":512:517   */\n      dup3\n        /* \"#utility.yul\":508:562   */\n      and\n        /* \"#utility.yul\":497:562   */\n      swap1\n      pop\n        /* \"#utility.yul\":442:568   */\n      swap2\n      swap1\n      pop\n      jump\t// out\n        /* \"#utility.yul\":574:670   */\n    tag_173:\n        /* \"#utility.yul\":611:618   */\n      0x00\n        /* \"#utility.yul\":640:664   */\n      tag_222\n        /* \"#utility.yul\":658:663   */\n      dup3\n        /* \"#utility.yul\":640:664   */\n      tag_172\n      jump\t// in\n    tag_222:\n        /* \"#utility.yul\":629:664   */\n      swap1\n      pop\n        /* \"#utility.yul\":574:670   */\n      swap2\n      swap1\n      pop\n      jump\t// out\n        /* \"#utility.yul\":676:794   */\n    tag_174:\n        /* \"#utility.yul\":763:787   */\n      tag_224\n        /* \"#utility.yul\":781:786   */\n      dup2\n        /* \"#utility.yul\":763:787   */\n      tag_173\n      jump\t// in\n    tag_224:\n        /* \"#utility.yul\":758:761   */\n      dup3\n        /* \"#utility.yul\":751:788   */\n      mstore\n        /* \"#utility.yul\":676:794   */\n      pop\n      pop\n      jump\t// out\n        /* \"#utility.yul\":800:1022   */\n    tag_25:\n        /* \"#utility.yul\":893:897   */\n      0x00\n        /* \"#utility.yul\":931:933   */\n      0x20\n        /* \"#utility.yul\":920:929   */\n      dup3\n        /* \"#utility.yul\":916:934   */\n      add\n        /* \"#utility.yul\":908:934   */\n      swap1\n      pop\n        /* \"#utility.yul\":944:1015   */\n      tag_226\n        /* \"#utility.yul\":1012:1013   */\n      0x00\n        /* \"#utility.yul\":1001:1010   */\n      dup4\n        /* \"#utility.yul\":997:1014   */\n      add\n        /* \"#utility.yul\":988:994   */\n      dup5\n        /* \"#utility.yul\":944:1015   */\n      tag_174\n      jump\t// in\n    tag_226:\n        /* \"#utility.yul\":800:1022   */\n      swap3\n      swap2\n      pop\n      pop\n      jump\t// out\n        /* \"#utility.yul\":1028:1088   */\n    tag_175:\n        /* \"#utility.yul\":1056:1059   */\n      0x00\n        /* \"#utility.yul\":1077:1082   */\n      dup2\n        /* \"#utility.yul\":1070:1082   */\n      swap1\n      pop\n        /* \"#utility.yul\":1028:1088   */\n      swap2\n      swap1\n      pop\n      jump\t// out\n        /* \"#utility.yul\":1094:1236   */\n    tag_176:\n        /* \"#utility.yul\":1144:1153   */\n      0x00\n        /* \"#utility.yul\":1177:1230   */\n      tag_229\n        /* \"#utility.yul\":1195:1229   */\n      tag_230\n        /* \"#utility.yul\":1204:1228   */\n      tag_231\n        /* \"#utility.yul\":1222:1227   */\n      dup5\n        /* \"#utility.yul\":1204:1228   */\n      tag_172\n      jump\t// in\n    tag_231:\n        /* \"#utility.yul\":1195:1229   */\n      tag_175\n      jump\t// in\n    tag_230:\n        /* \"#utility.yul\":1177:1230   */\n      tag_172\n      jump\t// in\n    tag_229:\n        /* \"#utility.yul\":1164:1230   */\n      swap1\n      pop\n        /* \"#utility.yul\":1094:1236   */\n      swap2\n      swap1\n      pop\n      jump\t// out\n        /* \"#utility.yul\":1242:1368   */\n    tag_177:\n        /* \"#utility.yul\":1292:1301   */\n      0x00\n        /* \"#utility.yul\":1325:1362   */\n      tag_233\n        /* \"#utility.yul\":1356:1361   */\n      dup3\n        /* \"#utility.yul\":1325:1362   */\n      tag_176\n      jump\t// in\n    tag_233:\n        /* \"#utility.yul\":1312:1362   */\n      swap1\n      pop\n        /* \"#utility.yul\":1242:1368   */\n      swap2\n      swap1\n      pop\n      jump\t// out\n        /* \"#utility.yul\":1374:1515   */\n    tag_178:\n        /* \"#utility.yul\":1439:1448   */\n      0x00\n        /* \"#utility.yul\":1472:1509   */\n      tag_235\n        /* \"#utility.yul\":1503:1508   */\n      dup3\n        /* \"#utility.yul\":1472:1509   */\n      tag_177\n      jump\t// in\n    tag_235:\n        /* \"#utility.yul\":1459:1509   */\n      swap1\n      pop\n        /* \"#utility.yul\":1374:1515   */\n      swap2\n      swap1\n      pop\n      jump\t// out\n        /* \"#utility.yul\":1521:1682   */\n    tag_179:\n        /* \"#utility.yul\":1623:1675   */\n      tag_237\n        /* \"#utility.yul\":1669:1674   */\n      dup2\n        /* \"#utility.yul\":1623:1675   */\n      tag_178\n      jump\t// in\n    tag_237:\n        /* \"#utility.yul\":1618:1621   */\n      dup3\n        /* \"#utility.yul\":1611:1676   */\n      mstore\n        /* \"#utility.yul\":1521:1682   */\n      pop\n      pop\n      jump\t// out\n        /* \"#utility.yul\":1688:1940   */\n    tag_30:\n        /* \"#utility.yul\":1796:1800   */\n      0x00\n        /* \"#utility.yul\":1834:1836   */\n      0x20\n        /* \"#utility.yul\":1823:1832   */\n      dup3\n        /* \"#utility.yul\":1819:1837   */\n      add\n        /* \"#utility.yul\":1811:1837   */\n      swap1\n      pop\n        /* \"#utility.yul\":1847:1933   */\n      tag_239\n        /* \"#utility.yul\":1930:1931   */\n      0x00\n        /* \"#utility.yul\":1919:1928   */\n      dup4\n        /* \"#utility.yul\":1915:1932   */\n      add\n        /* \"#utility.yul\":1906:1912   */\n      dup5\n        /* \"#utility.yul\":1847:1933   */\n      tag_179\n      jump\t// in\n    tag_239:\n        /* \"#utility.yul\":1688:1940   */\n      swap3\n      swap2\n      pop\n      pop\n      jump\t// out\n        /* \"#utility.yul\":2027:2144   */\n    tag_181:\n        /* \"#utility.yul\":2136:2137   */\n      0x00\n        /* \"#utility.yul\":2133:2134   */\n      dup1\n        /* \"#utility.yul\":2126:2138   */\n      revert\n        /* \"#utility.yul\":2273:2395   */\n    tag_183:\n        /* \"#utility.yul\":2346:2370   */\n      tag_244\n        /* \"#utility.yul\":2364:2369   */\n      dup2\n        /* \"#utility.yul\":2346:2370   */\n      tag_170\n      jump\t// in\n    tag_244:\n        /* \"#utility.yul\":2339:2344   */\n      dup2\n        /* \"#utility.yul\":2336:2371   */\n      eq\n        /* \"#utility.yul\":2326:2389   */\n      tag_245\n      jumpi\n        /* \"#utility.yul\":2385:2386   */\n      0x00\n        /* \"#utility.yul\":2382:2383   */\n      dup1\n        /* \"#utility.yul\":2375:2387   */\n      revert\n        /* \"#utility.yul\":2326:2389   */\n    tag_245:\n        /* \"#utility.yul\":2273:2395   */\n      pop\n      jump\t// out\n        /* \"#utility.yul\":2401:2540   */\n    tag_184:\n        /* \"#utility.yul\":2447:2452   */\n      0x00\n        /* \"#utility.yul\":2485:2491   */\n      dup2\n        /* \"#utility.yul\":2472:2492   */\n      calldataload\n        /* \"#utility.yul\":2463:2492   */\n      swap1\n      pop\n        /* \"#utility.yul\":2501:2534   */\n      tag_247\n        /* \"#utility.yul\":2528:2533   */\n      dup2\n        /* \"#utility.yul\":2501:2534   */\n      tag_183\n      jump\t// in\n    tag_247:\n        /* \"#utility.yul\":2401:2540   */\n      swap3\n      swap2\n      pop\n      pop\n      jump\t// out\n        /* \"#utility.yul\":2546:2875   */\n    tag_34:\n        /* \"#utility.yul\":2605:2611   */\n      0x00\n        /* \"#utility.yul\":2654:2656   */\n      0x20\n        /* \"#utility.yul\":2642:2651   */\n      dup3\n        /* \"#utility.yul\":2633:2640   */\n      dup5\n        /* \"#utility.yul\":2629:2652   */\n      sub\n        /* \"#utility.yul\":2625:2657   */\n      slt\n        /* \"#utility.yul\":2622:2741   */\n      iszero\n      tag_249\n      jumpi\n        /* \"#utility.yul\":2660:2739   */\n      tag_250\n      tag_181\n      jump\t// in\n    tag_250:\n        /* \"#utility.yul\":2622:2741   */\n    tag_249:\n        /* \"#utility.yul\":2780:2781   */\n      0x00\n        /* \"#utility.yul\":2805:2858   */\n      tag_251\n        /* \"#utility.yul\":2850:2857   */\n      dup5\n        /* \"#utility.yul\":2841:2847   */\n      dup3\n        /* \"#utility.yul\":2830:2839   */\n      dup6\n        /* \"#utility.yul\":2826:2848   */\n      add\n        /* \"#utility.yul\":2805:2858   */\n      tag_184\n      jump\t// in\n    tag_251:\n        /* \"#utility.yul\":2795:2858   */\n      swap2\n      pop\n        /* \"#utility.yul\":2751:2868   */\n      pop\n        /* \"#utility.yul\":2546:2875   */\n      swap3\n      swap2\n      pop\n      pop\n      jump\t// out\n        /* \"#utility.yul\":2881:3500   */\n    tag_45:\n        /* \"#utility.yul\":2958:2964   */\n      0x00\n        /* \"#utility.yul\":2966:2972   */\n      dup1\n        /* \"#utility.yul\":2974:2980   */\n      0x00\n        /* \"#utility.yul\":3023:3025   */\n      0x60\n        /* \"#utility.yul\":3011:3020   */\n      dup5\n        /* \"#utility.yul\":3002:3009   */\n      dup7\n        /* \"#utility.yul\":2998:3021   */\n      sub\n        /* \"#utility.yul\":2994:3026   */\n      slt\n        /* \"#utility.yul\":2991:3110   */\n      iszero\n      tag_253\n      jumpi\n        /* \"#utility.yul\":3029:3108   */\n      tag_254\n      tag_181\n      jump\t// in\n    tag_254:\n        /* \"#utility.yul\":2991:3110   */\n    tag_253:\n        /* \"#utility.yul\":3149:3150   */\n      0x00\n        /* \"#utility.yul\":3174:3227   */\n      tag_255\n        /* \"#utility.yul\":3219:3226   */\n      dup7\n        /* \"#utility.yul\":3210:3216   */\n      dup3\n        /* \"#utility.yul\":3199:3208   */\n      dup8\n        /* \"#utility.yul\":3195:3217   */\n      add\n        /* \"#utility.yul\":3174:3227   */\n      tag_184\n      jump\t// in\n    tag_255:\n        /* \"#utility.yul\":3164:3227   */\n      swap4\n      pop\n        /* \"#utility.yul\":3120:3237   */\n      pop\n        /* \"#utility.yul\":3276:3278   */\n      0x20\n        /* \"#utility.yul\":3302:3355   */\n      tag_256\n        /* \"#utility.yul\":3347:3354   */\n      dup7\n        /* \"#utility.yul\":3338:3344   */\n      dup3\n        /* \"#utility.yul\":3327:3336   */\n      dup8\n        /* \"#utility.yul\":3323:3345   */\n      add\n        /* \"#utility.yul\":3302:3355   */\n      tag_184\n      jump\t// in\n    tag_256:\n        /* \"#utility.yul\":3292:3355   */\n      swap3\n      pop\n        /* \"#utility.yul\":3247:3365   */\n      pop\n        /* \"#utility.yul\":3404:3406   */\n      0x40\n        /* \"#utility.yul\":3430:3483   */\n      tag_257\n        /* \"#utility.yul\":3475:3482   */\n      dup7\n        /* \"#utility.yul\":3466:3472   */\n      dup3\n        /* \"#utility.yul\":3455:3464   */\n      dup8\n        /* \"#utility.yul\":3451:3473   */\n      add\n        /* \"#utility.yul\":3430:3483   */\n      tag_184\n      jump\t// in\n    tag_257:\n        /* \"#utility.yul\":3420:3483   */\n      swap2\n      pop\n        /* \"#utility.yul\":3375:3493   */\n      pop\n        /* \"#utility.yul\":2881:3500   */\n      swap3\n      pop\n      swap3\n      pop\n      swap3\n      jump\t// out\n        /* \"#utility.yul\":3506:3628   */\n    tag_185:\n        /* \"#utility.yul\":3579:3603   */\n      tag_259\n        /* \"#utility.yul\":3597:3602   */\n      dup2\n        /* \"#utility.yul\":3579:3603   */\n      tag_173\n      jump\t// in\n    tag_259:\n        /* \"#utility.yul\":3572:3577   */\n      dup2\n        /* \"#utility.yul\":3569:3604   */\n      eq\n        /* \"#utility.yul\":3559:3622   */\n      tag_260\n      jumpi\n        /* \"#utility.yul\":3618:3619   */\n      0x00\n        /* \"#utility.yul\":3615:3616   */\n      dup1\n        /* \"#utility.yul\":3608:3620   */\n      revert\n        /* \"#utility.yul\":3559:3622   */\n    tag_260:\n        /* \"#utility.yul\":3506:3628   */\n      pop\n      jump\t// out\n        /* \"#utility.yul\":3634:3773   */\n    tag_186:\n        /* \"#utility.yul\":3680:3685   */\n      0x00\n        /* \"#utility.yul\":3718:3724   */\n      dup2\n        /* \"#utility.yul\":3705:3725   */\n      calldataload\n        /* \"#utility.yul\":3696:3725   */\n      swap1\n      pop\n        /* \"#utility.yul\":3734:3767   */\n      tag_262\n        /* \"#utility.yul\":3761:3766   */\n      dup2\n        /* \"#utility.yul\":3734:3767   */\n      tag_185\n      jump\t// in\n    tag_262:\n        /* \"#utility.yul\":3634:3773   */\n      swap3\n      swap2\n      pop\n      pop\n      jump\t// out\n        /* \"#utility.yul\":3779:4108   */\n    tag_53:\n        /* \"#utility.yul\":3838:3844   */\n      0x00\n        /* \"#utility.yul\":3887:3889   */\n      0x20\n        /* \"#utility.yul\":3875:3884   */\n      dup3\n        /* \"#utility.yul\":3866:3873   */\n      dup5\n        /* \"#utility.yul\":3862:3885   */\n      sub\n        /* \"#utility.yul\":3858:3890   */\n      slt\n        /* \"#utility.yul\":3855:3974   */\n      iszero\n      tag_264\n      jumpi\n        /* \"#utility.yul\":3893:3972   */\n      tag_265\n      tag_181\n      jump\t// in\n    tag_265:\n        /* \"#utility.yul\":3855:3974   */\n    tag_264:\n        /* \"#utility.yul\":4013:4014   */\n      0x00\n        /* \"#utility.yul\":4038:4091   */\n      tag_266\n        /* \"#utility.yul\":4083:4090   */\n      dup5\n        /* \"#utility.yul\":4074:4080   */\n      dup3\n        /* \"#utility.yul\":4063:4072   */\n      dup6\n        /* \"#utility.yul\":4059:4081   */\n      add\n        /* \"#utility.yul\":4038:4091   */\n      tag_186\n      jump\t// in\n    tag_266:\n        /* \"#utility.yul\":4028:4091   */\n      swap2\n      pop\n        /* \"#utility.yul\":3984:4101   */\n      pop\n        /* \"#utility.yul\":3779:4108   */\n      swap3\n      swap2\n      pop\n      pop\n      jump\t// out\n        /* \"#utility.yul\":4114:4588   */\n    tag_58:\n        /* \"#utility.yul\":4182:4188   */\n      0x00\n        /* \"#utility.yul\":4190:4196   */\n      dup1\n        /* \"#utility.yul\":4239:4241   */\n      0x40\n        /* \"#utility.yul\":4227:4236   */\n      dup4\n        /* \"#utility.yul\":4218:4225   */\n      dup6\n        /* \"#utility.yul\":4214:4237   */\n      sub\n        /* \"#utility.yul\":4210:4242   */\n      slt\n        /* \"#utility.yul\":4207:4326   */\n      iszero\n      tag_268\n      jumpi\n        /* \"#utility.yul\":4245:4324   */\n      tag_269\n      tag_181\n      jump\t// in\n    tag_269:\n        /* \"#utility.yul\":4207:4326   */\n    tag_268:\n        /* \"#utility.yul\":4365:4366   */\n      0x00\n        /* \"#utility.yul\":4390:4443   */\n      tag_270\n        /* \"#utility.yul\":4435:4442   */\n      dup6\n        /* \"#utility.yul\":4426:4432   */\n      dup3\n        /* \"#utility.yul\":4415:4424   */\n      dup7\n        /* \"#utility.yul\":4411:4433   */\n      add\n        /* \"#utility.yul\":4390:4443   */\n      tag_186\n      jump\t// in\n    tag_270:\n        /* \"#utility.yul\":4380:4443   */\n      swap3\n      pop\n        /* \"#utility.yul\":4336:4453   */\n      pop\n        /* \"#utility.yul\":4492:4494   */\n      0x20\n        /* \"#utility.yul\":4518:4571   */\n      tag_271\n        /* \"#utility.yul\":4563:4570   */\n      dup6\n        /* \"#utility.yul\":4554:4560   */\n      dup3\n        /* \"#utility.yul\":4543:4552   */\n      dup7\n        /* \"#utility.yul\":4539:4561   */\n      add\n        /* \"#utility.yul\":4518:4571   */\n      tag_184\n      jump\t// in\n    tag_271:\n        /* \"#utility.yul\":4508:4571   */\n      swap2\n      pop\n        /* \"#utility.yul\":4463:4581   */\n      pop\n        /* \"#utility.yul\":4114:4588   */\n      swap3\n      pop\n      swap3\n      swap1\n      pop\n      jump\t// out\n        /* \"#utility.yul\":4594:4763   */\n    tag_187:\n        /* \"#utility.yul\":4678:4689   */\n      0x00\n        /* \"#utility.yul\":4712:4718   */\n      dup3\n        /* \"#utility.yul\":4707:4710   */\n      dup3\n        /* \"#utility.yul\":4700:4719   */\n      mstore\n        /* \"#utility.yul\":4752:4756   */\n      0x20\n        /* \"#utility.yul\":4747:4750   */\n      dup3\n        /* \"#utility.yul\":4743:4757   */\n      add\n        /* \"#utility.yul\":4728:4757   */\n      swap1\n      pop\n        /* \"#utility.yul\":4594:4763   */\n      swap3\n      swap2\n      pop\n      pop\n      jump\t// out\n        /* \"#utility.yul\":4769:4951   */\n    tag_188:\n        /* \"#utility.yul\":4909:4943   */\n      0x4f776e61626c653a2063616c6c6572206973206e6f7420746865206f776e6572\n        /* \"#utility.yul\":4905:4906   */\n      0x00\n        /* \"#utility.yul\":4897:4903   */\n      dup3\n        /* \"#utility.yul\":4893:4907   */\n      add\n        /* \"#utility.yul\":4886:4944   */\n      mstore\n        /* \"#utility.yul\":4769:4951   */\n      pop\n      jump\t// out\n        /* \"#utility.yul\":4957:5323   */\n    tag_189:\n        /* \"#utility.yul\":5099:5102   */\n      0x00\n        /* \"#utility.yul\":5120:5187   */\n      tag_275\n        /* \"#utility.yul\":5184:5186   */\n      0x20\n        /* \"#utility.yul\":5179:5182   */\n      dup4\n        /* \"#utility.yul\":5120:5187   */\n      tag_187\n      jump\t// in\n    tag_275:\n        /* \"#utility.yul\":5113:5187   */\n      swap2\n      pop\n        /* \"#utility.yul\":5196:5289   */\n      tag_276\n        /* \"#utility.yul\":5285:5288   */\n      dup3\n        /* \"#utility.yul\":5196:5289   */\n      tag_188\n      jump\t// in\n    tag_276:\n        /* \"#utility.yul\":5314:5316   */\n      0x20\n        /* \"#utility.yul\":5309:5312   */\n      dup3\n        /* \"#utility.yul\":5305:5317   */\n      add\n        /* \"#utility.yul\":5298:5317   */\n      swap1\n      pop\n        /* \"#utility.yul\":4957:5323   */\n      swap2\n      swap1\n      pop\n      jump\t// out\n        /* \"#utility.yul\":5329:5748   */\n    tag_67:\n        /* \"#utility.yul\":5495:5499   */\n      0x00\n        /* \"#utility.yul\":5533:5535   */\n      0x20\n        /* \"#utility.yul\":5522:5531   */\n      dup3\n        /* \"#utility.yul\":5518:5536   */\n      add\n        /* \"#utility.yul\":5510:5536   */\n      swap1\n      pop\n        /* \"#utility.yul\":5582:5591   */\n      dup2\n        /* \"#utility.yul\":5576:5580   */\n      dup2\n        /* \"#utility.yul\":5572:5592   */\n      sub\n        /* \"#utility.yul\":5568:5569   */\n      0x00\n        /* \"#utility.yul\":5557:5566   */\n      dup4\n        /* \"#utility.yul\":5553:5570   */\n      add\n        /* \"#utility.yul\":5546:5593   */\n      mstore\n        /* \"#utility.yul\":5610:5741   */\n      tag_278\n        /* \"#utility.yul\":5736:5740   */\n      dup2\n        /* \"#utility.yul\":5610:5741   */\n      tag_189\n      jump\t// in\n    tag_278:\n        /* \"#utility.yul\":5602:5741   */\n      swap1\n      pop\n        /* \"#utility.yul\":5329:5748   */\n      swap2\n      swap1\n      pop\n      jump\t// out\n        /* \"#utility.yul\":5754:5897   */\n    tag_190:\n        /* \"#utility.yul\":5811:5816   */\n      0x00\n        /* \"#utility.yul\":5842:5848   */\n      dup2\n        /* \"#utility.yul\":5836:5849   */\n      mload\n        /* \"#utility.yul\":5827:5849   */\n      swap1\n      pop\n        /* \"#utility.yul\":5858:5891   */\n      tag_280\n        /* \"#utility.yul\":5885:5890   */\n      dup2\n        /* \"#utility.yul\":5858:5891   */\n      tag_185\n      jump\t// in\n    tag_280:\n        /* \"#utility.yul\":5754:5897   */\n      swap3\n      swap2\n      pop\n      pop\n      jump\t// out\n        /* \"#utility.yul\":5903:6254   */\n    tag_80:\n        /* \"#utility.yul\":5973:5979   */\n      0x00\n        /* \"#utility.yul\":6022:6024   */\n      0x20\n        /* \"#utility.yul\":6010:6019   */\n      dup3\n        /* \"#utility.yul\":6001:6008   */\n      dup5\n        /* \"#utility.yul\":5997:6020   */\n      sub\n        /* \"#utility.yul\":5993:6025   */\n      slt\n        /* \"#utility.yul\":5990:6109   */\n      iszero\n      tag_282\n      jumpi\n        /* \"#utility.yul\":6028:6107   */\n      tag_283\n      tag_181\n      jump\t// in\n    tag_283:\n        /* \"#utility.yul\":5990:6109   */\n    tag_282:\n        /* \"#utility.yul\":6148:6149   */\n      0x00\n        /* \"#utility.yul\":6173:6237   */\n      tag_284\n        /* \"#utility.yul\":6229:6236   */\n      dup5\n        /* \"#utility.yul\":6220:6226   */\n      dup3\n        /* \"#utility.yul\":6209:6218   */\n      dup6\n        /* \"#utility.yul\":6205:6227   */\n      add\n        /* \"#utility.yul\":6173:6237   */\n      tag_190\n      jump\t// in\n    tag_284:\n        /* \"#utility.yul\":6163:6237   */\n      swap2\n      pop\n        /* \"#utility.yul\":6119:6247   */\n      pop\n        /* \"#utility.yul\":5903:6254   */\n      swap3\n      swap2\n      pop\n      pop\n      jump\t// out\n        /* \"#utility.yul\":6260:6483   */\n    tag_191:\n        /* \"#utility.yul\":6400:6434   */\n      0x4e667445786368616e67653a2073656c6c6572206973206e6f74206e6674206f\n        /* \"#utility.yul\":6396:6397   */\n      0x00\n        /* \"#utility.yul\":6388:6394   */\n      dup3\n        /* \"#utility.yul\":6384:6398   */\n      add\n        /* \"#utility.yul\":6377:6435   */\n      mstore\n        /* \"#utility.yul\":6469:6475   */\n      0x776e657200000000000000000000000000000000000000000000000000000000\n        /* \"#utility.yul\":6464:6466   */\n      0x20\n        /* \"#utility.yul\":6456:6462   */\n      dup3\n        /* \"#utility.yul\":6452:6467   */\n      add\n        /* \"#utility.yul\":6445:6476   */\n      mstore\n        /* \"#utility.yul\":6260:6483   */\n      pop\n      jump\t// out\n        /* \"#utility.yul\":6489:6855   */\n    tag_192:\n        /* \"#utility.yul\":6631:6634   */\n      0x00\n        /* \"#utility.yul\":6652:6719   */\n      tag_287\n        /* \"#utility.yul\":6716:6718   */\n      0x24\n        /* \"#utility.yul\":6711:6714   */\n      dup4\n        /* \"#utility.yul\":6652:6719   */\n      tag_187\n      jump\t// in\n    tag_287:\n        /* \"#utility.yul\":6645:6719   */\n      swap2\n      pop\n        /* \"#utility.yul\":6728:6821   */\n      tag_288\n        /* \"#utility.yul\":6817:6820   */\n      dup3\n        /* \"#utility.yul\":6728:6821   */\n      tag_191\n      jump\t// in\n    tag_288:\n        /* \"#utility.yul\":6846:6848   */\n      0x40\n        /* \"#utility.yul\":6841:6844   */\n      dup3\n        /* \"#utility.yul\":6837:6849   */\n      add\n        /* \"#utility.yul\":6830:6849   */\n      swap1\n      pop\n        /* \"#utility.yul\":6489:6855   */\n      swap2\n      swap1\n      pop\n      jump\t// out\n        /* \"#utility.yul\":6861:7280   */\n    tag_83:\n        /* \"#utility.yul\":7027:7031   */\n      0x00\n        /* \"#utility.yul\":7065:7067   */\n      0x20\n        /* \"#utility.yul\":7054:7063   */\n      dup3\n        /* \"#utility.yul\":7050:7068   */\n      add\n        /* \"#utility.yul\":7042:7068   */\n      swap1\n      pop\n        /* \"#utility.yul\":7114:7123   */\n      dup2\n        /* \"#utility.yul\":7108:7112   */\n      dup2\n        /* \"#utility.yul\":7104:7124   */\n      sub\n        /* \"#utility.yul\":7100:7101   */\n      0x00\n        /* \"#utility.yul\":7089:7098   */\n      dup4\n        /* \"#utility.yul\":7085:7102   */\n      add\n        /* \"#utility.yul\":7078:7125   */\n      mstore\n        /* \"#utility.yul\":7142:7273   */\n      tag_290\n        /* \"#utility.yul\":7268:7272   */\n      dup2\n        /* \"#utility.yul\":7142:7273   */\n      tag_192\n      jump\t// in\n    tag_290:\n        /* \"#utility.yul\":7134:7273   */\n      swap1\n      pop\n        /* \"#utility.yul\":6861:7280   */\n      swap2\n      swap1\n      pop\n      jump\t// out\n        /* \"#utility.yul\":7286:7434   */\n    tag_193:\n        /* \"#utility.yul\":7388:7399   */\n      0x00\n        /* \"#utility.yul\":7425:7428   */\n      dup2\n        /* \"#utility.yul\":7410:7428   */\n      swap1\n      pop\n        /* \"#utility.yul\":7286:7434   */\n      swap3\n      swap2\n      pop\n      pop\n      jump\t// out\n        /* \"#utility.yul\":7440:7621   */\n    tag_194:\n        /* \"#utility.yul\":7580:7613   */\n      0x4e667445786368616e67653a206475726174696f6e206174206c656173742000\n        /* \"#utility.yul\":7576:7577   */\n      0x00\n        /* \"#utility.yul\":7568:7574   */\n      dup3\n        /* \"#utility.yul\":7564:7578   */\n      add\n        /* \"#utility.yul\":7557:7614   */\n      mstore\n        /* \"#utility.yul\":7440:7621   */\n      pop\n      jump\t// out\n        /* \"#utility.yul\":7627:8029   */\n    tag_195:\n        /* \"#utility.yul\":7787:7790   */\n      0x00\n        /* \"#utility.yul\":7808:7893   */\n      tag_294\n        /* \"#utility.yul\":7890:7892   */\n      0x1f\n        /* \"#utility.yul\":7885:7888   */\n      dup4\n        /* \"#utility.yul\":7808:7893   */\n      tag_193\n      jump\t// in\n    tag_294:\n        /* \"#utility.yul\":7801:7893   */\n      swap2\n      pop\n        /* \"#utility.yul\":7902:7995   */\n      tag_295\n        /* \"#utility.yul\":7991:7994   */\n      dup3\n        /* \"#utility.yul\":7902:7995   */\n      tag_194\n      jump\t// in\n    tag_295:\n        /* \"#utility.yul\":8020:8022   */\n      0x1f\n        /* \"#utility.yul\":8015:8018   */\n      dup3\n        /* \"#utility.yul\":8011:8023   */\n      add\n        /* \"#utility.yul\":8004:8023   */\n      swap1\n      pop\n        /* \"#utility.yul\":7627:8029   */\n      swap2\n      swap1\n      pop\n      jump\t// out\n        /* \"#utility.yul\":8035:8134   */\n    tag_196:\n        /* \"#utility.yul\":8087:8093   */\n      0x00\n        /* \"#utility.yul\":8121:8126   */\n      dup2\n        /* \"#utility.yul\":8115:8127   */\n      mload\n        /* \"#utility.yul\":8105:8127   */\n      swap1\n      pop\n        /* \"#utility.yul\":8035:8134   */\n      swap2\n      swap1\n      pop\n      jump\t// out\n        /* \"#utility.yul\":8140:8447   */\n    tag_197:\n        /* \"#utility.yul\":8208:8209   */\n      0x00\n        /* \"#utility.yul\":8218:8331   */\n    tag_298:\n        /* \"#utility.yul\":8232:8238   */\n      dup4\n        /* \"#utility.yul\":8229:8230   */\n      dup2\n        /* \"#utility.yul\":8226:8239   */\n      lt\n        /* \"#utility.yul\":8218:8331   */\n      iszero\n      tag_300\n      jumpi\n        /* \"#utility.yul\":8317:8318   */\n      dup1\n        /* \"#utility.yul\":8312:8315   */\n      dup3\n        /* \"#utility.yul\":8308:8319   */\n      add\n        /* \"#utility.yul\":8302:8320   */\n      mload\n        /* \"#utility.yul\":8298:8299   */\n      dup2\n        /* \"#utility.yul\":8293:8296   */\n      dup5\n        /* \"#utility.yul\":8289:8300   */\n      add\n        /* \"#utility.yul\":8282:8321   */\n      mstore\n        /* \"#utility.yul\":8254:8256   */\n      0x20\n        /* \"#utility.yul\":8251:8252   */\n      dup2\n        /* \"#utility.yul\":8247:8257   */\n      add\n        /* \"#utility.yul\":8242:8257   */\n      swap1\n      pop\n        /* \"#utility.yul\":8218:8331   */\n      jump(tag_298)\n    tag_300:\n        /* \"#utility.yul\":8349:8355   */\n      dup4\n        /* \"#utility.yul\":8346:8347   */\n      dup2\n        /* \"#utility.yul\":8343:8356   */\n      gt\n        /* \"#utility.yul\":8340:8441   */\n      iszero\n      tag_301\n      jumpi\n        /* \"#utility.yul\":8429:8430   */\n      0x00\n        /* \"#utility.yul\":8420:8426   */\n      dup5\n        /* \"#utility.yul\":8415:8418   */\n      dup5\n        /* \"#utility.yul\":8411:8427   */\n      add\n        /* \"#utility.yul\":8404:8431   */\n      mstore\n        /* \"#utility.yul\":8340:8441   */\n    tag_301:\n        /* \"#utility.yul\":8189:8447   */\n      pop\n        /* \"#utility.yul\":8140:8447   */\n      pop\n      pop\n      pop\n      jump\t// out\n        /* \"#utility.yul\":8453:8830   */\n    tag_198:\n        /* \"#utility.yul\":8559:8562   */\n      0x00\n        /* \"#utility.yul\":8587:8626   */\n      tag_303\n        /* \"#utility.yul\":8620:8625   */\n      dup3\n        /* \"#utility.yul\":8587:8626   */\n      tag_196\n      jump\t// in\n    tag_303:\n        /* \"#utility.yul\":8642:8731   */\n      tag_304\n        /* \"#utility.yul\":8724:8730   */\n      dup2\n        /* \"#utility.yul\":8719:8722   */\n      dup6\n        /* \"#utility.yul\":8642:8731   */\n      tag_193\n      jump\t// in\n    tag_304:\n        /* \"#utility.yul\":8635:8731   */\n      swap4\n      pop\n        /* \"#utility.yul\":8740:8792   */\n      tag_305\n        /* \"#utility.yul\":8785:8791   */\n      dup2\n        /* \"#utility.yul\":8780:8783   */\n      dup6\n        /* \"#utility.yul\":8773:8777   */\n      0x20\n        /* \"#utility.yul\":8766:8771   */\n      dup7\n        /* \"#utility.yul\":8762:8778   */\n      add\n        /* \"#utility.yul\":8740:8792   */\n      tag_197\n      jump\t// in\n    tag_305:\n        /* \"#utility.yul\":8817:8823   */\n      dup1\n        /* \"#utility.yul\":8812:8815   */\n      dup5\n        /* \"#utility.yul\":8808:8824   */\n      add\n        /* \"#utility.yul\":8801:8824   */\n      swap2\n      pop\n        /* \"#utility.yul\":8563:8830   */\n      pop\n        /* \"#utility.yul\":8453:8830   */\n      swap3\n      swap2\n      pop\n      pop\n      jump\t// out\n        /* \"#utility.yul\":8836:9377   */\n    tag_89:\n        /* \"#utility.yul\":9069:9072   */\n      0x00\n        /* \"#utility.yul\":9091:9239   */\n      tag_307\n        /* \"#utility.yul\":9235:9238   */\n      dup3\n        /* \"#utility.yul\":9091:9239   */\n      tag_195\n      jump\t// in\n    tag_307:\n        /* \"#utility.yul\":9084:9239   */\n      swap2\n      pop\n        /* \"#utility.yul\":9256:9351   */\n      tag_308\n        /* \"#utility.yul\":9347:9350   */\n      dup3\n        /* \"#utility.yul\":9338:9344   */\n      dup5\n        /* \"#utility.yul\":9256:9351   */\n      tag_198\n      jump\t// in\n    tag_308:\n        /* \"#utility.yul\":9249:9351   */\n      swap2\n      pop\n        /* \"#utility.yul\":9368:9371   */\n      dup2\n        /* \"#utility.yul\":9361:9371   */\n      swap1\n      pop\n        /* \"#utility.yul\":8836:9377   */\n      swap3\n      swap2\n      pop\n      pop\n      jump\t// out\n        /* \"#utility.yul\":9383:9485   */\n    tag_199:\n        /* \"#utility.yul\":9424:9430   */\n      0x00\n        /* \"#utility.yul\":9475:9477   */\n      0x1f\n        /* \"#utility.yul\":9471:9478   */\n      not\n        /* \"#utility.yul\":9466:9468   */\n      0x1f\n        /* \"#utility.yul\":9459:9464   */\n      dup4\n        /* \"#utility.yul\":9455:9469   */\n      add\n        /* \"#utility.yul\":9451:9479   */\n      and\n        /* \"#utility.yul\":9441:9479   */\n      swap1\n      pop\n        /* \"#utility.yul\":9383:9485   */\n      swap2\n      swap1\n      pop\n      jump\t// out\n        /* \"#utility.yul\":9491:9855   */\n    tag_200:\n        /* \"#utility.yul\":9579:9582   */\n      0x00\n        /* \"#utility.yul\":9607:9646   */\n      tag_311\n        /* \"#utility.yul\":9640:9645   */\n      dup3\n        /* \"#utility.yul\":9607:9646   */\n      tag_196\n      jump\t// in\n    tag_311:\n        /* \"#utility.yul\":9662:9733   */\n      tag_312\n        /* \"#utility.yul\":9726:9732   */\n      dup2\n        /* \"#utility.yul\":9721:9724   */\n      dup6\n        /* \"#utility.yul\":9662:9733   */\n      tag_187\n      jump\t// in\n    tag_312:\n        /* \"#utility.yul\":9655:9733   */\n      swap4\n      pop\n        /* \"#utility.yul\":9742:9794   */\n      tag_313\n        /* \"#utility.yul\":9787:9793   */\n      dup2\n        /* \"#utility.yul\":9782:9785   */\n      dup6\n        /* \"#utility.yul\":9775:9779   */\n      0x20\n        /* \"#utility.yul\":9768:9773   */\n      dup7\n        /* \"#utility.yul\":9764:9780   */\n      add\n        /* \"#utility.yul\":9742:9794   */\n      tag_197\n      jump\t// in\n    tag_313:\n        /* \"#utility.yul\":9819:9848   */\n      tag_314\n        /* \"#utility.yul\":9841:9847   */\n      dup2\n        /* \"#utility.yul\":9819:9848   */\n      tag_199\n      jump\t// in\n    tag_314:\n        /* \"#utility.yul\":9814:9817   */\n      dup5\n        /* \"#utility.yul\":9810:9849   */\n      add\n        /* \"#utility.yul\":9803:9849   */\n      swap2\n      pop\n        /* \"#utility.yul\":9583:9855   */\n      pop\n        /* \"#utility.yul\":9491:9855   */\n      swap3\n      swap2\n      pop\n      pop\n      jump\t// out\n        /* \"#utility.yul\":9861:10174   */\n    tag_92:\n        /* \"#utility.yul\":9974:9978   */\n      0x00\n        /* \"#utility.yul\":10012:10014   */\n      0x20\n        /* \"#utility.yul\":10001:10010   */\n      dup3\n        /* \"#utility.yul\":9997:10015   */\n      add\n        /* \"#utility.yul\":9989:10015   */\n      swap1\n      pop\n        /* \"#utility.yul\":10061:10070   */\n      dup2\n        /* \"#utility.yul\":10055:10059   */\n      dup2\n        /* \"#utility.yul\":10051:10071   */\n      sub\n        /* \"#utility.yul\":10047:10048   */\n      0x00\n        /* \"#utility.yul\":10036:10045   */\n      dup4\n        /* \"#utility.yul\":10032:10049   */\n      add\n        /* \"#utility.yul\":10025:10072   */\n      mstore\n        /* \"#utility.yul\":10089:10167   */\n      tag_316\n        /* \"#utility.yul\":10162:10166   */\n      dup2\n        /* \"#utility.yul\":10153:10159   */\n      dup5\n        /* \"#utility.yul\":10089:10167   */\n      tag_200\n      jump\t// in\n    tag_316:\n        /* \"#utility.yul\":10081:10167   */\n      swap1\n      pop\n        /* \"#utility.yul\":9861:10174   */\n      swap3\n      swap2\n      pop\n      pop\n      jump\t// out\n        /* \"#utility.yul\":10180:10360   */\n    tag_201:\n        /* \"#utility.yul\":10228:10305   */\n      0x4e487b7100000000000000000000000000000000000000000000000000000000\n        /* \"#utility.yul\":10225:10226   */\n      0x00\n        /* \"#utility.yul\":10218:10306   */\n      mstore\n        /* \"#utility.yul\":10325:10329   */\n      0x11\n        /* \"#utility.yul\":10322:10323   */\n      0x04\n        /* \"#utility.yul\":10315:10330   */\n      mstore\n        /* \"#utility.yul\":10349:10353   */\n      0x24\n        /* \"#utility.yul\":10346:10347   */\n      0x00\n        /* \"#utility.yul\":10339:10354   */\n      revert\n        /* \"#utility.yul\":10366:10671   */\n    tag_94:\n        /* \"#utility.yul\":10406:10409   */\n      0x00\n        /* \"#utility.yul\":10425:10445   */\n      tag_319\n        /* \"#utility.yul\":10443:10444   */\n      dup3\n        /* \"#utility.yul\":10425:10445   */\n      tag_170\n      jump\t// in\n    tag_319:\n        /* \"#utility.yul\":10420:10445   */\n      swap2\n      pop\n        /* \"#utility.yul\":10459:10479   */\n      tag_320\n        /* \"#utility.yul\":10477:10478   */\n      dup4\n        /* \"#utility.yul\":10459:10479   */\n      tag_170\n      jump\t// in\n    tag_320:\n        /* \"#utility.yul\":10454:10479   */\n      swap3\n      pop\n        /* \"#utility.yul\":10613:10614   */\n      dup3\n        /* \"#utility.yul\":10545:10611   */\n      0xffffffffffffffffffffffffffffffffffffffffffffffffffffffffffffffff\n        /* \"#utility.yul\":10541:10615   */\n      sub\n        /* \"#utility.yul\":10538:10539   */\n      dup3\n        /* \"#utility.yul\":10535:10616   */\n      gt\n        /* \"#utility.yul\":10532:10639   */\n      iszero\n      tag_321\n      jumpi\n        /* \"#utility.yul\":10619:10637   */\n      tag_322\n      tag_201\n      jump\t// in\n    tag_322:\n        /* \"#utility.yul\":10532:10639   */\n    tag_321:\n        /* \"#utility.yul\":10663:10664   */\n      dup3\n        /* \"#utility.yul\":10660:10661   */\n      dup3\n        /* \"#utility.yul\":10656:10665   */\n      add\n        /* \"#utility.yul\":10649:10665   */\n      swap1\n      pop\n        /* \"#utility.yul\":10366:10671   */\n      swap3\n      swap2\n      pop\n      pop\n      jump\t// out\n        /* \"#utility.yul\":10677:11119   */\n    tag_96:\n        /* \"#utility.yul\":10826:10830   */\n      0x00\n        /* \"#utility.yul\":10864:10866   */\n      0x60\n        /* \"#utility.yul\":10853:10862   */\n      dup3\n        /* \"#utility.yul\":10849:10867   */\n      add\n        /* \"#utility.yul\":10841:10867   */\n      swap1\n      pop\n        /* \"#utility.yul\":10877:10948   */\n      tag_324\n        /* \"#utility.yul\":10945:10946   */\n      0x00\n        /* \"#utility.yul\":10934:10943   */\n      dup4\n        /* \"#utility.yul\":10930:10947   */\n      add\n        /* \"#utility.yul\":10921:10927   */\n      dup7\n        /* \"#utility.yul\":10877:10948   */\n      tag_171\n      jump\t// in\n    tag_324:\n        /* \"#utility.yul\":10958:11030   */\n      tag_325\n        /* \"#utility.yul\":11026:11028   */\n      0x20\n        /* \"#utility.yul\":11015:11024   */\n      dup4\n        /* \"#utility.yul\":11011:11029   */\n      add\n        /* \"#utility.yul\":11002:11008   */\n      dup6\n        /* \"#utility.yul\":10958:11030   */\n      tag_171\n      jump\t// in\n    tag_325:\n        /* \"#utility.yul\":11040:11112   */\n      tag_326\n        /* \"#utility.yul\":11108:11110   */\n      0x40\n        /* \"#utility.yul\":11097:11106   */\n      dup4\n        /* \"#utility.yul\":11093:11111   */\n      add\n        /* \"#utility.yul\":11084:11090   */\n      dup5\n        /* \"#utility.yul\":11040:11112   */\n      tag_171\n      jump\t// in\n    tag_326:\n        /* \"#utility.yul\":10677:11119   */\n      swap5\n      swap4\n      pop\n      pop\n      pop\n      pop\n      jump\t// out\n        /* \"#utility.yul\":11125:11346   */\n    tag_202:\n        /* \"#utility.yul\":11265:11299   */\n      0x4e667445786368616e67653a206e6674206e6f74206f6e20746865207368656c\n        /* \"#utility.yul\":11261:11262   */\n      0x00\n        /* \"#utility.yul\":11253:11259   */\n      dup3\n        /* \"#utility.yul\":11249:11263   */\n      add\n        /* \"#utility.yul\":11242:11300   */\n      mstore\n        /* \"#utility.yul\":11334:11338   */\n      0x6621000000000000000000000000000000000000000000000000000000000000\n        /* \"#utility.yul\":11329:11331   */\n      0x20\n        /* \"#utility.yul\":11321:11327   */\n      dup3\n        /* \"#utility.yul\":11317:11332   */\n      add\n        /* \"#utility.yul\":11310:11339   */\n      mstore\n        /* \"#utility.yul\":11125:11346   */\n      pop\n      jump\t// out\n        /* \"#utility.yul\":11352:11718   */\n    tag_203:\n        /* \"#utility.yul\":11494:11497   */\n      0x00\n        /* \"#utility.yul\":11515:11582   */\n      tag_329\n        /* \"#utility.yul\":11579:11581   */\n      0x22\n        /* \"#utility.yul\":11574:11577   */\n      dup4\n        /* \"#utility.yul\":11515:11582   */\n      tag_187\n      jump\t// in\n    tag_329:\n        /* \"#utility.yul\":11508:11582   */\n      swap2\n      pop\n        /* \"#utility.yul\":11591:11684   */\n      tag_330\n        /* \"#utility.yul\":11680:11683   */\n      dup3\n        /* \"#utility.yul\":11591:11684   */\n      tag_202\n      jump\t// in\n    tag_330:\n        /* \"#utility.yul\":11709:11711   */\n      0x40\n        /* \"#utility.yul\":11704:11707   */\n      dup3\n        /* \"#utility.yul\":11700:11712   */\n      add\n        /* \"#utility.yul\":11693:11712   */\n      swap1\n      pop\n        /* \"#utility.yul\":11352:11718   */\n      swap2\n      swap1\n      pop\n      jump\t// out\n        /* \"#utility.yul\":11724:12143   */\n    tag_101:\n        /* \"#utility.yul\":11890:11894   */\n      0x00\n        /* \"#utility.yul\":11928:11930   */\n      0x20\n        /* \"#utility.yul\":11917:11926   */\n      dup3\n        /* \"#utility.yul\":11913:11931   */\n      add\n        /* \"#utility.yul\":11905:11931   */\n      swap1\n      pop\n        /* \"#utility.yul\":11977:11986   */\n      dup2\n        /* \"#utility.yul\":11971:11975   */\n      dup2\n        /* \"#utility.yul\":11967:11987   */\n      sub\n        /* \"#utility.yul\":11963:11964   */\n      0x00\n        /* \"#utility.yul\":11952:11961   */\n      dup4\n        /* \"#utility.yul\":11948:11965   */\n      add\n        /* \"#utility.yul\":11941:11988   */\n      mstore\n        /* \"#utility.yul\":12005:12136   */\n      tag_332\n        /* \"#utility.yul\":12131:12135   */\n      dup2\n        /* \"#utility.yul\":12005:12136   */\n      tag_203\n      jump\t// in\n    tag_332:\n        /* \"#utility.yul\":11997:12136   */\n      swap1\n      pop\n        /* \"#utility.yul\":11724:12143   */\n      swap2\n      swap1\n      pop\n      jump\t// out\n        /* \"#utility.yul\":12149:12374   */\n    tag_204:\n        /* \"#utility.yul\":12289:12323   */\n      0x4e667445786368616e67653a2076616c7565205175616e74697479206c657373\n        /* \"#utility.yul\":12285:12286   */\n      0x00\n        /* \"#utility.yul\":12277:12283   */\n      dup3\n        /* \"#utility.yul\":12273:12287   */\n      add\n        /* \"#utility.yul\":12266:12324   */\n      mstore\n        /* \"#utility.yul\":12358:12366   */\n      0x207468616e200000000000000000000000000000000000000000000000000000\n        /* \"#utility.yul\":12353:12355   */\n      0x20\n        /* \"#utility.yul\":12345:12351   */\n      dup3\n        /* \"#utility.yul\":12341:12356   */\n      add\n        /* \"#utility.yul\":12334:12367   */\n      mstore\n        /* \"#utility.yul\":12149:12374   */\n      pop\n      jump\t// out\n        /* \"#utility.yul\":12380:12782   */\n    tag_205:\n        /* \"#utility.yul\":12540:12543   */\n      0x00\n        /* \"#utility.yul\":12561:12646   */\n      tag_335\n        /* \"#utility.yul\":12643:12645   */\n      0x26\n        /* \"#utility.yul\":12638:12641   */\n      dup4\n        /* \"#utility.yul\":12561:12646   */\n      tag_193\n      jump\t// in\n    tag_335:\n        /* \"#utility.yul\":12554:12646   */\n      swap2\n      pop\n        /* \"#utility.yul\":12655:12748   */\n      tag_336\n        /* \"#utility.yul\":12744:12747   */\n      dup3\n        /* \"#utility.yul\":12655:12748   */\n      tag_204\n      jump\t// in\n    tag_336:\n        /* \"#utility.yul\":12773:12775   */\n      0x26\n        /* \"#utility.yul\":12768:12771   */\n      dup3\n        /* \"#utility.yul\":12764:12776   */\n      add\n        /* \"#utility.yul\":12757:12776   */\n      swap1\n      pop\n        /* \"#utility.yul\":12380:12782   */\n      swap2\n      swap1\n      pop\n      jump\t// out\n        /* \"#utility.yul\":12788:13329   */\n    tag_105:\n        /* \"#utility.yul\":13021:13024   */\n      0x00\n        /* \"#utility.yul\":13043:13191   */\n      tag_338\n        /* \"#utility.yul\":13187:13190   */\n      dup3\n        /* \"#utility.yul\":13043:13191   */\n      tag_205\n      jump\t// in\n    tag_338:\n        /* \"#utility.yul\":13036:13191   */\n      swap2\n      pop\n        /* \"#utility.yul\":13208:13303   */\n      tag_339\n        /* \"#utility.yul\":13299:13302   */\n      dup3\n        /* \"#utility.yul\":13290:13296   */\n      dup5\n        /* \"#utility.yul\":13208:13303   */\n      tag_198\n      jump\t// in\n    tag_339:\n        /* \"#utility.yul\":13201:13303   */\n      swap2\n      pop\n        /* \"#utility.yul\":13320:13323   */\n      dup2\n        /* \"#utility.yul\":13313:13323   */\n      swap1\n      pop\n        /* \"#utility.yul\":12788:13329   */\n      swap3\n      swap2\n      pop\n      pop\n      jump\t// out\n        /* \"#utility.yul\":13335:13777   */\n    tag_113:\n        /* \"#utility.yul\":13484:13488   */\n      0x00\n        /* \"#utility.yul\":13522:13524   */\n      0x60\n        /* \"#utility.yul\":13511:13520   */\n      dup3\n        /* \"#utility.yul\":13507:13525   */\n      add\n        /* \"#utility.yul\":13499:13525   */\n      swap1\n      pop\n        /* \"#utility.yul\":13535:13606   */\n      tag_341\n        /* \"#utility.yul\":13603:13604   */\n      0x00\n        /* \"#utility.yul\":13592:13601   */\n      dup4\n        /* \"#utility.yul\":13588:13605   */\n      add\n        /* \"#utility.yul\":13579:13585   */\n      dup7\n        /* \"#utility.yul\":13535:13606   */\n      tag_174\n      jump\t// in\n    tag_341:\n        /* \"#utility.yul\":13616:13688   */\n      tag_342\n        /* \"#utility.yul\":13684:13686   */\n      0x20\n        /* \"#utility.yul\":13673:13682   */\n      dup4\n        /* \"#utility.yul\":13669:13687   */\n      add\n        /* \"#utility.yul\":13660:13666   */\n      dup6\n        /* \"#utility.yul\":13616:13688   */\n      tag_174\n      jump\t// in\n    tag_342:\n        /* \"#utility.yul\":13698:13770   */\n      tag_343\n        /* \"#utility.yul\":13766:13768   */\n      0x40\n        /* \"#utility.yul\":13755:13764   */\n      dup4\n        /* \"#utility.yul\":13751:13769   */\n      add\n        /* \"#utility.yul\":13742:13748   */\n      dup5\n        /* \"#utility.yul\":13698:13770   */\n      tag_171\n      jump\t// in\n    tag_343:\n        /* \"#utility.yul\":13335:13777   */\n      swap5\n      swap4\n      pop\n      pop\n      pop\n      pop\n      jump\t// out\n        /* \"#utility.yul\":13783:14336   */\n    tag_118:\n        /* \"#utility.yul\":13960:13964   */\n      0x00\n        /* \"#utility.yul\":13998:14001   */\n      0x80\n        /* \"#utility.yul\":13987:13996   */\n      dup3\n        /* \"#utility.yul\":13983:14002   */\n      add\n        /* \"#utility.yul\":13975:14002   */\n      swap1\n      pop\n        /* \"#utility.yul\":14012:14083   */\n      tag_345\n        /* \"#utility.yul\":14080:14081   */\n      0x00\n        /* \"#utility.yul\":14069:14078   */\n      dup4\n        /* \"#utility.yul\":14065:14082   */\n      add\n        /* \"#utility.yul\":14056:14062   */\n      dup8\n        /* \"#utility.yul\":14012:14083   */\n      tag_174\n      jump\t// in\n    tag_345:\n        /* \"#utility.yul\":14093:14165   */\n      tag_346\n        /* \"#utility.yul\":14161:14163   */\n      0x20\n        /* \"#utility.yul\":14150:14159   */\n      dup4\n        /* \"#utility.yul\":14146:14164   */\n      add\n        /* \"#utility.yul\":14137:14143   */\n      dup7\n        /* \"#utility.yul\":14093:14165   */\n      tag_174\n      jump\t// in\n    tag_346:\n        /* \"#utility.yul\":14175:14247   */\n      tag_347\n        /* \"#utility.yul\":14243:14245   */\n      0x40\n        /* \"#utility.yul\":14232:14241   */\n      dup4\n        /* \"#utility.yul\":14228:14246   */\n      add\n        /* \"#utility.yul\":14219:14225   */\n      dup6\n        /* \"#utility.yul\":14175:14247   */\n      tag_171\n      jump\t// in\n    tag_347:\n        /* \"#utility.yul\":14257:14329   */\n      tag_348\n        /* \"#utility.yul\":14325:14327   */\n      0x60\n        /* \"#utility.yul\":14314:14323   */\n      dup4\n        /* \"#utility.yul\":14310:14328   */\n      add\n        /* \"#utility.yul\":14301:14307   */\n      dup5\n        /* \"#utility.yul\":14257:14329   */\n      tag_171\n      jump\t// in\n    tag_348:\n        /* \"#utility.yul\":13783:14336   */\n      swap6\n      swap5\n      pop\n      pop\n      pop\n      pop\n      pop\n      jump\t// out\n        /* \"#utility.yul\":14342:14567   */\n    tag_206:\n        /* \"#utility.yul\":14482:14516   */\n      0x4f776e61626c653a206e6577206f776e657220697320746865207a65726f2061\n        /* \"#utility.yul\":14478:14479   */\n      0x00\n        /* \"#utility.yul\":14470:14476   */\n      dup3\n        /* \"#utility.yul\":14466:14480   */\n      add\n        /* \"#utility.yul\":14459:14517   */\n      mstore\n        /* \"#utility.yul\":14551:14559   */\n      0x6464726573730000000000000000000000000000000000000000000000000000\n        /* \"#utility.yul\":14546:14548   */\n      0x20\n        /* \"#utility.yul\":14538:14544   */\n      dup3\n        /* \"#utility.yul\":14534:14549   */\n      add\n        /* \"#utility.yul\":14527:14560   */\n      mstore\n        /* \"#utility.yul\":14342:14567   */\n      pop\n      jump\t// out\n        /* \"#utility.yul\":14573:14939   */\n    tag_207:\n        /* \"#utility.yul\":14715:14718   */\n      0x00\n        /* \"#utility.yul\":14736:14803   */\n      tag_351\n        /* \"#utility.yul\":14800:14802   */\n      0x26\n        /* \"#utility.yul\":14795:14798   */\n      dup4\n        /* \"#utility.yul\":14736:14803   */\n      tag_187\n      jump\t// in\n    tag_351:\n        /* \"#utility.yul\":14729:14803   */\n      swap2\n      pop\n        /* \"#utility.yul\":14812:14905   */\n      tag_352\n        /* \"#utility.yul\":14901:14904   */\n      dup3\n        /* \"#utility.yul\":14812:14905   */\n      tag_206\n      jump\t// in\n    tag_352:\n        /* \"#utility.yul\":14930:14932   */\n      0x40\n        /* \"#utility.yul\":14925:14928   */\n      dup3\n        /* \"#utility.yul\":14921:14933   */\n      add\n        /* \"#utility.yul\":14914:14933   */\n      swap1\n      pop\n        /* \"#utility.yul\":14573:14939   */\n      swap2\n      swap1\n      pop\n      jump\t// out\n        /* \"#utility.yul\":14945:15364   */\n    tag_127:\n        /* \"#utility.yul\":15111:15115   */\n      0x00\n        /* \"#utility.yul\":15149:15151   */\n      0x20\n        /* \"#utility.yul\":15138:15147   */\n      dup3\n        /* \"#utility.yul\":15134:15152   */\n      add\n        /* \"#utility.yul\":15126:15152   */\n      swap1\n      pop\n        /* \"#utility.yul\":15198:15207   */\n      dup2\n        /* \"#utility.yul\":15192:15196   */\n      dup2\n        /* \"#utility.yul\":15188:15208   */\n      sub\n        /* \"#utility.yul\":15184:15185   */\n      0x00\n        /* \"#utility.yul\":15173:15182   */\n      dup4\n        /* \"#utility.yul\":15169:15186   */\n      add\n        /* \"#utility.yul\":15162:15209   */\n      mstore\n        /* \"#utility.yul\":15226:15357   */\n      tag_354\n        /* \"#utility.yul\":15352:15356   */\n      dup2\n        /* \"#utility.yul\":15226:15357   */\n      tag_207\n      jump\t// in\n    tag_354:\n        /* \"#utility.yul\":15218:15357   */\n      swap1\n      pop\n        /* \"#utility.yul\":14945:15364   */\n      swap2\n      swap1\n      pop\n      jump\t// out\n        /* \"#utility.yul\":15370:15517   */\n    tag_208:\n        /* \"#utility.yul\":15471:15482   */\n      0x00\n        /* \"#utility.yul\":15508:15511   */\n      dup2\n        /* \"#utility.yul\":15493:15511   */\n      swap1\n      pop\n        /* \"#utility.yul\":15370:15517   */\n      swap3\n      swap2\n      pop\n      pop\n      jump\t// out\n        /* \"#utility.yul\":15523:15637   */\n    tag_209:\n      pop\n      jump\t// out\n        /* \"#utility.yul\":15643:16041   */\n    tag_210:\n        /* \"#utility.yul\":15802:15805   */\n      0x00\n        /* \"#utility.yul\":15823:15906   */\n      tag_358\n        /* \"#utility.yul\":15904:15905   */\n      0x00\n        /* \"#utility.yul\":15899:15902   */\n      dup4\n        /* \"#utility.yul\":15823:15906   */\n      tag_208\n      jump\t// in\n    tag_358:\n        /* \"#utility.yul\":15816:15906   */\n      swap2\n      pop\n        /* \"#utility.yul\":15915:16008   */\n      tag_359\n        /* \"#utility.yul\":16004:16007   */\n      dup3\n        /* \"#utility.yul\":15915:16008   */\n      tag_209\n      jump\t// in\n    tag_359:\n        /* \"#utility.yul\":16033:16034   */\n      0x00\n        /* \"#utility.yul\":16028:16031   */\n      dup3\n        /* \"#utility.yul\":16024:16035   */\n      add\n        /* \"#utility.yul\":16017:16035   */\n      swap1\n      pop\n        /* \"#utility.yul\":15643:16041   */\n      swap2\n      swap1\n      pop\n      jump\t// out\n        /* \"#utility.yul\":16047:16426   */\n    tag_136:\n        /* \"#utility.yul\":16231:16234   */\n      0x00\n        /* \"#utility.yul\":16253:16400   */\n      tag_361\n        /* \"#utility.yul\":16396:16399   */\n      dup3\n        /* \"#utility.yul\":16253:16400   */\n      tag_210\n      jump\t// in\n    tag_361:\n        /* \"#utility.yul\":16246:16400   */\n      swap2\n      pop\n        /* \"#utility.yul\":16417:16420   */\n      dup2\n        /* \"#utility.yul\":16410:16420   */\n      swap1\n      pop\n        /* \"#utility.yul\":16047:16426   */\n      swap2\n      swap1\n      pop\n      jump\t// out\n        /* \"#utility.yul\":16432:16610   */\n    tag_211:\n        /* \"#utility.yul\":16572:16602   */\n      0x4e667445786368616e67653a207769746864726177206572726f722100000000\n        /* \"#utility.yul\":16568:16569   */\n      0x00\n        /* \"#utility.yul\":16560:16566   */\n      dup3\n        /* \"#utility.yul\":16556:16570   */\n      add\n        /* \"#utility.yul\":16549:16603   */\n      mstore\n        /* \"#utility.yul\":16432:16610   */\n      pop\n      jump\t// out\n        /* \"#utility.yul\":16616:16982   */\n    tag_212:\n        /* \"#utility.yul\":16758:16761   */\n      0x00\n        /* \"#utility.yul\":16779:16846   */\n      tag_364\n        /* \"#utility.yul\":16843:16845   */\n      0x1c\n        /* \"#utility.yul\":16838:16841   */\n      dup4\n        /* \"#utility.yul\":16779:16846   */\n      tag_187\n      jump\t// in\n    tag_364:\n        /* \"#utility.yul\":16772:16846   */\n      swap2\n      pop\n        /* \"#utility.yul\":16855:16948   */\n      tag_365\n        /* \"#utility.yul\":16944:16947   */\n      dup3\n        /* \"#utility.yul\":16855:16948   */\n      tag_211\n      jump\t// in\n    tag_365:\n        /* \"#utility.yul\":16973:16975   */\n      0x20\n        /* \"#utility.yul\":16968:16971   */\n      dup3\n        /* \"#utility.yul\":16964:16976   */\n      add\n        /* \"#utility.yul\":16957:16976   */\n      swap1\n      pop\n        /* \"#utility.yul\":16616:16982   */\n      swap2\n      swap1\n      pop\n      jump\t// out\n        /* \"#utility.yul\":16988:17407   */\n    tag_142:\n        /* \"#utility.yul\":17154:17158   */\n      0x00\n        /* \"#utility.yul\":17192:17194   */\n      0x20\n        /* \"#utility.yul\":17181:17190   */\n      dup3\n        /* \"#utility.yul\":17177:17195   */\n      add\n        /* \"#utility.yul\":17169:17195   */\n      swap1\n      pop\n        /* \"#utility.yul\":17241:17250   */\n      dup2\n        /* \"#utility.yul\":17235:17239   */\n      dup2\n        /* \"#utility.yul\":17231:17251   */\n      sub\n        /* \"#utility.yul\":17227:17228   */\n      0x00\n        /* \"#utility.yul\":17216:17225   */\n      dup4\n        /* \"#utility.yul\":17212:17229   */\n      add\n        /* \"#utility.yul\":17205:17252   */\n      mstore\n        /* \"#utility.yul\":17269:17400   */\n      tag_367\n        /* \"#utility.yul\":17395:17399   */\n      dup2\n        /* \"#utility.yul\":17269:17400   */\n      tag_212\n      jump\t// in\n    tag_367:\n        /* \"#utility.yul\":17261:17400   */\n      swap1\n      pop\n        /* \"#utility.yul\":16988:17407   */\n      swap2\n      swap1\n      pop\n      jump\t// out\n        /* \"#utility.yul\":17413:17745   */\n    tag_144:\n        /* \"#utility.yul\":17534:17538   */\n      0x00\n        /* \"#utility.yul\":17572:17574   */\n      0x40\n        /* \"#utility.yul\":17561:17570   */\n      dup3\n        /* \"#utility.yul\":17557:17575   */\n      add\n        /* \"#utility.yul\":17549:17575   */\n      swap1\n      pop\n        /* \"#utility.yul\":17585:17656   */\n      tag_369\n        /* \"#utility.yul\":17653:17654   */\n      0x00\n        /* \"#utility.yul\":17642:17651   */\n      dup4\n        /* \"#utility.yul\":17638:17655   */\n      add\n        /* \"#utility.yul\":17629:17635   */\n      dup6\n        /* \"#utility.yul\":17585:17656   */\n      tag_174\n      jump\t// in\n    tag_369:\n        /* \"#utility.yul\":17666:17738   */\n      tag_370\n        /* \"#utility.yul\":17734:17736   */\n      0x20\n        /* \"#utility.yul\":17723:17732   */\n      dup4\n        /* \"#utility.yul\":17719:17737   */\n      add\n        /* \"#utility.yul\":17710:17716   */\n      dup5\n        /* \"#utility.yul\":17666:17738   */\n      tag_171\n      jump\t// in\n    tag_370:\n        /* \"#utility.yul\":17413:17745   */\n      swap4\n      swap3\n      pop\n      pop\n      pop\n      jump\t// out\n        /* \"#utility.yul\":17751:17984   */\n    tag_152:\n        /* \"#utility.yul\":17790:17793   */\n      0x00\n        /* \"#utility.yul\":17813:17837   */\n      tag_372\n        /* \"#utility.yul\":17831:17836   */\n      dup3\n        /* \"#utility.yul\":17813:17837   */\n      tag_170\n      jump\t// in\n    tag_372:\n        /* \"#utility.yul\":17804:17837   */\n      swap2\n      pop\n        /* \"#utility.yul\":17859:17925   */\n      0xffffffffffffffffffffffffffffffffffffffffffffffffffffffffffffffff\n        /* \"#utility.yul\":17852:17857   */\n      dup3\n        /* \"#utility.yul\":17849:17926   */\n      sub\n        /* \"#utility.yul\":17846:17949   */\n      tag_373\n      jumpi\n        /* \"#utility.yul\":17929:17947   */\n      tag_374\n      tag_201\n      jump\t// in\n    tag_374:\n        /* \"#utility.yul\":17846:17949   */\n    tag_373:\n        /* \"#utility.yul\":17976:17977   */\n      0x01\n        /* \"#utility.yul\":17969:17974   */\n      dup3\n        /* \"#utility.yul\":17965:17978   */\n      add\n        /* \"#utility.yul\":17958:17978   */\n      swap1\n      pop\n        /* \"#utility.yul\":17751:17984   */\n      swap2\n      swap1\n      pop\n      jump\t// out\n        /* \"#utility.yul\":17990:18170   */\n    tag_213:\n        /* \"#utility.yul\":18038:18115   */\n      0x4e487b7100000000000000000000000000000000000000000000000000000000\n        /* \"#utility.yul\":18035:18036   */\n      0x00\n        /* \"#utility.yul\":18028:18116   */\n      mstore\n        /* \"#utility.yul\":18135:18139   */\n      0x12\n        /* \"#utility.yul\":18132:18133   */\n      0x04\n        /* \"#utility.yul\":18125:18140   */\n      mstore\n        /* \"#utility.yul\":18159:18163   */\n      0x24\n        /* \"#utility.yul\":18156:18157   */\n      0x00\n        /* \"#utility.yul\":18149:18164   */\n      revert\n        /* \"#utility.yul\":18176:18361   */\n    tag_154:\n        /* \"#utility.yul\":18216:18217   */\n      0x00\n        /* \"#utility.yul\":18233:18253   */\n      tag_377\n        /* \"#utility.yul\":18251:18252   */\n      dup3\n        /* \"#utility.yul\":18233:18253   */\n      tag_170\n      jump\t// in\n    tag_377:\n        /* \"#utility.yul\":18228:18253   */\n      swap2\n      pop\n        /* \"#utility.yul\":18267:18287   */\n      tag_378\n        /* \"#utility.yul\":18285:18286   */\n      dup4\n        /* \"#utility.yul\":18267:18287   */\n      tag_170\n      jump\t// in\n    tag_378:\n        /* \"#utility.yul\":18262:18287   */\n      swap3\n      pop\n        /* \"#utility.yul\":18306:18307   */\n      dup3\n        /* \"#utility.yul\":18296:18331   */\n      tag_379\n      jumpi\n        /* \"#utility.yul\":18311:18329   */\n      tag_380\n      tag_213\n      jump\t// in\n    tag_380:\n        /* \"#utility.yul\":18296:18331   */\n    tag_379:\n        /* \"#utility.yul\":18353:18354   */\n      dup3\n        /* \"#utility.yul\":18350:18351   */\n      dup3\n        /* \"#utility.yul\":18346:18355   */\n      div\n        /* \"#utility.yul\":18341:18355   */\n      swap1\n      pop\n        /* \"#utility.yul\":18176:18361   */\n      swap3\n      swap2\n      pop\n      pop\n      jump\t// out\n        /* \"#utility.yul\":18367:18547   */\n    tag_157:\n        /* \"#utility.yul\":18415:18492   */\n      0x4e487b7100000000000000000000000000000000000000000000000000000000\n        /* \"#utility.yul\":18412:18413   */\n      0x00\n        /* \"#utility.yul\":18405:18493   */\n      mstore\n        /* \"#utility.yul\":18512:18516   */\n      0x41\n        /* \"#utility.yul\":18509:18510   */\n      0x04\n        /* \"#utility.yul\":18502:18517   */\n      mstore\n        /* \"#utility.yul\":18536:18540   */\n      0x24\n        /* \"#utility.yul\":18533:18534   */\n      0x00\n        /* \"#utility.yul\":18526:18541   */\n      revert\n        /* \"#utility.yul\":18553:18744   */\n    tag_162:\n        /* \"#utility.yul\":18593:18597   */\n      0x00\n        /* \"#utility.yul\":18613:18633   */\n      tag_383\n        /* \"#utility.yul\":18631:18632   */\n      dup3\n        /* \"#utility.yul\":18613:18633   */\n      tag_170\n      jump\t// in\n    tag_383:\n        /* \"#utility.yul\":18608:18633   */\n      swap2\n      pop\n        /* \"#utility.yul\":18647:18667   */\n      tag_384\n        /* \"#utility.yul\":18665:18666   */\n      dup4\n        /* \"#utility.yul\":18647:18667   */\n      tag_170\n      jump\t// in\n    tag_384:\n        /* \"#utility.yul\":18642:18667   */\n      swap3\n      pop\n        /* \"#utility.yul\":18686:18687   */\n      dup3\n        /* \"#utility.yul\":18683:18684   */\n      dup3\n        /* \"#utility.yul\":18680:18688   */\n      lt\n        /* \"#utility.yul\":18677:18711   */\n      iszero\n      tag_385\n      jumpi\n        /* \"#utility.yul\":18691:18709   */\n      tag_386\n      tag_201\n      jump\t// in\n    tag_386:\n        /* \"#utility.yul\":18677:18711   */\n    tag_385:\n        /* \"#utility.yul\":18736:18737   */\n      dup3\n        /* \"#utility.yul\":18733:18734   */\n      dup3\n        /* \"#utility.yul\":18729:18738   */\n      sub\n        /* \"#utility.yul\":18721:18738   */\n      swap1\n      pop\n        /* \"#utility.yul\":18553:18744   */\n      swap3\n      swap2\n      pop\n      pop\n      jump\t// out\n        /* \"#utility.yul\":18750:18926   */\n    tag_164:\n        /* \"#utility.yul\":18782:18783   */\n      0x00\n        /* \"#utility.yul\":18799:18819   */\n      tag_388\n        /* \"#utility.yul\":18817:18818   */\n      dup3\n        /* \"#utility.yul\":18799:18819   */\n      tag_170\n      jump\t// in\n    tag_388:\n        /* \"#utility.yul\":18794:18819   */\n      swap2\n      pop\n        /* \"#utility.yul\":18833:18853   */\n      tag_389\n        /* \"#utility.yul\":18851:18852   */\n      dup4\n        /* \"#utility.yul\":18833:18853   */\n      tag_170\n      jump\t// in\n    tag_389:\n        /* \"#utility.yul\":18828:18853   */\n      swap3\n      pop\n        /* \"#utility.yul\":18872:18873   */\n      dup3\n        /* \"#utility.yul\":18862:18897   */\n      tag_390\n      jumpi\n        /* \"#utility.yul\":18877:18895   */\n      tag_391\n      tag_213\n      jump\t// in\n    tag_391:\n        /* \"#utility.yul\":18862:18897   */\n    tag_390:\n        /* \"#utility.yul\":18918:18919   */\n      dup3\n        /* \"#utility.yul\":18915:18916   */\n      dup3\n        /* \"#utility.yul\":18911:18920   */\n      mod\n        /* \"#utility.yul\":18906:18920   */\n      swap1\n      pop\n        /* \"#utility.yul\":18750:18926   */\n      swap3\n      swap2\n      pop\n      pop\n      jump\t// out\n        /* \"#utility.yul\":18932:19112   */\n    tag_168:\n        /* \"#utility.yul\":18980:19057   */\n      0x4e487b7100000000000000000000000000000000000000000000000000000000\n        /* \"#utility.yul\":18977:18978   */\n      0x00\n        /* \"#utility.yul\":18970:19058   */\n      mstore\n        /* \"#utility.yul\":19077:19081   */\n      0x32\n        /* \"#utility.yul\":19074:19075   */\n      0x04\n        /* \"#utility.yul\":19067:19082   */\n      mstore\n        /* \"#utility.yul\":19101:19105   */\n      0x24\n        /* \"#utility.yul\":19098:19099   */\n      0x00\n        /* \"#utility.yul\":19091:19106   */\n      revert\n\n    auxdata: 0xa2646970667358221220ea9754cb0edc1fbc0ae058541e832d4be9287577fd59dccef006f1d6e53938f364736f6c634300080d0033\n}\n",
				"bytecode": {
					"linkReferences": {},
					"object": "60806040523480156200001157600080fd5b506040516200194c3803806200194c83398181016040528101906200003791906200022c565b620000576200004b620000a760201b60201c565b620000af60201b60201c565b81600160006101000a81548173ffffffffffffffffffffffffffffffffffffffff021916908373ffffffffffffffffffffffffffffffffffffffff16021790555080600281905550505062000273565b600033905090565b60008060009054906101000a900473ffffffffffffffffffffffffffffffffffffffff169050816000806101000a81548173ffffffffffffffffffffffffffffffffffffffff021916908373ffffffffffffffffffffffffffffffffffffffff1602179055508173ffffffffffffffffffffffffffffffffffffffff168173ffffffffffffffffffffffffffffffffffffffff167f8be0079c531659141344cd1fd0a4f28419497f9722a3daafe3b4186f6b6457e060405160405180910390a35050565b600080fd5b600073ffffffffffffffffffffffffffffffffffffffff82169050919050565b6000620001a58262000178565b9050919050565b6000620001b98262000198565b9050919050565b620001cb81620001ac565b8114620001d757600080fd5b50565b600081519050620001eb81620001c0565b92915050565b6000819050919050565b6200020681620001f1565b81146200021257600080fd5b50565b6000815190506200022681620001fb565b92915050565b6000806040838503121562000246576200024562000173565b5b60006200025685828601620001da565b9250506020620002698582860162000215565b9150509250929050565b6116c980620002836000396000f3fe6080604052600436106100915760003560e01c8063b633620c11610059578063b633620c1461016b578063d3c9727c146101a8578063d96a094a146101d1578063f2fde38b146101ed578063f3fef3a31461021657610091565b8063034d501b14610096578063715018a6146100c15780638da5cb5b146100d85780638e2c2dfa14610103578063914929561461012e575b600080fd5b3480156100a257600080fd5b506100ab61023f565b6040516100b89190610c7d565b60405180910390f35b3480156100cd57600080fd5b506100d6610249565b005b3480156100e457600080fd5b506100ed6102d1565b6040516100fa9190610cd9565b60405180910390f35b34801561010f57600080fd5b506101186102fa565b6040516101259190610d53565b60405180910390f35b34801561013a57600080fd5b5061015560048036038101906101509190610d9f565b610324565b6040516101629190610c7d565b60405180910390f35b34801561017757600080fd5b50610192600480360381019061018d9190610d9f565b610341565b60405161019f9190610c7d565b60405180910390f35b3480156101b457600080fd5b506101cf60048036038101906101ca9190610dcc565b61035e565b005b6101eb60048036038101906101e69190610d9f565b610577565b005b3480156101f957600080fd5b50610214600480360381019061020f9190610e4b565b6107db565b005b34801561022257600080fd5b5061023d60048036038101906102389190610e78565b6108d2565b005b6000600254905090565b610251610a38565b73ffffffffffffffffffffffffffffffffffffffff1661026f6102d1565b73ffffffffffffffffffffffffffffffffffffffff16146102c5576040517f08c379a00000000000000000000000000000000000000000000000000000000081526004016102bc90610f15565b60405180910390fd5b6102cf6000610a40565b565b60008060009054906101000a900473ffffffffffffffffffffffffffffffffffffffff16905090565b6000600160009054906101000a900473ffffffffffffffffffffffffffffffffffffffff16905090565b600060046000838152602001908152602001600020549050919050565b600060036000838152602001908152602001600020549050919050565b6000600160009054906101000a900473ffffffffffffffffffffffffffffffffffffffff1673ffffffffffffffffffffffffffffffffffffffff16636352211e856040518263ffffffff1660e01b81526004016103bb9190610c7d565b602060405180830381865afa1580156103d8573d6000803e3d6000fd5b505050506040513d601f19601f820116820180604052508101906103fc9190610f4a565b90508073ffffffffffffffffffffffffffffffffffffffff163373ffffffffffffffffffffffffffffffffffffffff161461046c576040517f08c379a000000000000000000000000000000000000000000000000000000000815260040161046390610fe9565b60405180910390fd5b61047461023f565b82101561048761048261023f565b610b04565b60405160200161049791906110cf565b604051602081830303815290604052906104e7576040517f08c379a00000000000000000000000000000000000000000000000000000000081526004016104de919061113b565b60405180910390fd5b5081426104f4919061118c565b60036000868152602001908152602001600020819055508260046000868152602001908152602001600020819055507f9fece02dacd609f794ef9a2f8f1f690ec297ebcf6745b038ab218b14f7dc8d1f84846003600088815260200190815260200160002054604051610569939291906111e2565b60405180910390a150505050565b61058081610341565b4211156105c2576040517f08c379a00000000000000000000000000000000000000000000000000000000081526004016105b99061128b565b60405180910390fd5b600060046000838152602001908152602001600020549050803410156105ee6105e961023f565b610b04565b6040516020016105fe919061131d565b6040516020818303038152906040529061064e576040517f08c379a0000000000000000000000000000000000000000000000000000000008152600401610645919061113b565b60405180910390fd5b506000600160009054906101000a900473ffffffffffffffffffffffffffffffffffffffff1673ffffffffffffffffffffffffffffffffffffffff16636352211e846040518263ffffffff1660e01b81526004016106ac9190610c7d565b602060405180830381865afa1580156106c9573d6000803e3d6000fd5b505050506040513d601f19601f820116820180604052508101906106ed9190610f4a565b9050600160009054906101000a900473ffffffffffffffffffffffffffffffffffffffff1673ffffffffffffffffffffffffffffffffffffffff166342842e0e8233866040518463ffffffff1660e01b815260040161074e9392919061133f565b600060405180830381600087803b15801561076857600080fd5b505af115801561077c573d6000803e3d6000fd5b50505050600060036000858152602001908152602001600020819055507ff06e0ddedcf564fbe63eb7c8a2fa82a50b4e0697d6fe7ea91ce49b845ac5d46b813385856040516107ce9493929190611376565b60405180910390a1505050565b6107e3610a38565b73ffffffffffffffffffffffffffffffffffffffff166108016102d1565b73ffffffffffffffffffffffffffffffffffffffff1614610857576040517f08c379a000000000000000000000000000000000000000000000000000000000815260040161084e90610f15565b60405180910390fd5b600073ffffffffffffffffffffffffffffffffffffffff168173ffffffffffffffffffffffffffffffffffffffff16036108c6576040517f08c379a00000000000000000000000000000000000000000000000000000000081526004016108bd9061142d565b60405180910390fd5b6108cf81610a40565b50565b6108da610a38565b73ffffffffffffffffffffffffffffffffffffffff166108f86102d1565b73ffffffffffffffffffffffffffffffffffffffff161461094e576040517f08c379a000000000000000000000000000000000000000000000000000000000815260040161094590610f15565b60405180910390fd5b60008273ffffffffffffffffffffffffffffffffffffffff16826040516109749061147e565b60006040518083038185875af1925050503d80600081146109b1576040519150601f19603f3d011682016040523d82523d6000602084013e6109b6565b606091505b50509050806109fa576040517f08c379a00000000000000000000000000000000000000000000000000000000081526004016109f1906114df565b60405180910390fd5b7f9698e61c645d6b39d54d12fe323bad02e9dfdbde2487c2ba08ccfe654400623e3383604051610a2b9291906114ff565b60405180910390a1505050565b600033905090565b60008060009054906101000a900473ffffffffffffffffffffffffffffffffffffffff169050816000806101000a81548173ffffffffffffffffffffffffffffffffffffffff021916908373ffffffffffffffffffffffffffffffffffffffff1602179055508173ffffffffffffffffffffffffffffffffffffffff168173ffffffffffffffffffffffffffffffffffffffff167f8be0079c531659141344cd1fd0a4f28419497f9722a3daafe3b4186f6b6457e060405160405180910390a35050565b606060008203610b4b576040518060400160405280600181526020017f30000000000000000000000000000000000000000000000000000000000000008152509050610c5f565b600082905060005b60008214610b7d578080610b6690611528565b915050600a82610b76919061159f565b9150610b53565b60008167ffffffffffffffff811115610b9957610b986115d0565b5b6040519080825280601f01601f191660200182016040528015610bcb5781602001600182028036833780820191505090505b5090505b60008514610c5857600182610be491906115ff565b9150600a85610bf39190611633565b6030610bff919061118c565b60f81b818381518110610c1557610c14611664565b5b60200101907effffffffffffffffffffffffffffffffffffffffffffffffffffffffffffff1916908160001a905350600a85610c51919061159f565b9450610bcf565b8093505050505b919050565b6000819050919050565b610c7781610c64565b82525050565b6000602082019050610c926000830184610c6e565b92915050565b600073ffffffffffffffffffffffffffffffffffffffff82169050919050565b6000610cc382610c98565b9050919050565b610cd381610cb8565b82525050565b6000602082019050610cee6000830184610cca565b92915050565b6000819050919050565b6000610d19610d14610d0f84610c98565b610cf4565b610c98565b9050919050565b6000610d2b82610cfe565b9050919050565b6000610d3d82610d20565b9050919050565b610d4d81610d32565b82525050565b6000602082019050610d686000830184610d44565b92915050565b600080fd5b610d7c81610c64565b8114610d8757600080fd5b50565b600081359050610d9981610d73565b92915050565b600060208284031215610db557610db4610d6e565b5b6000610dc384828501610d8a565b91505092915050565b600080600060608486031215610de557610de4610d6e565b5b6000610df386828701610d8a565b9350506020610e0486828701610d8a565b9250506040610e1586828701610d8a565b9150509250925092565b610e2881610cb8565b8114610e3357600080fd5b50565b600081359050610e4581610e1f565b92915050565b600060208284031215610e6157610e60610d6e565b5b6000610e6f84828501610e36565b91505092915050565b60008060408385031215610e8f57610e8e610d6e565b5b6000610e9d85828601610e36565b9250506020610eae85828601610d8a565b9150509250929050565b600082825260208201905092915050565b7f4f776e61626c653a2063616c6c6572206973206e6f7420746865206f776e6572600082015250565b6000610eff602083610eb8565b9150610f0a82610ec9565b602082019050919050565b60006020820190508181036000830152610f2e81610ef2565b9050919050565b600081519050610f4481610e1f565b92915050565b600060208284031215610f6057610f5f610d6e565b5b6000610f6e84828501610f35565b91505092915050565b7f4e667445786368616e67653a2073656c6c6572206973206e6f74206e6674206f60008201527f776e657200000000000000000000000000000000000000000000000000000000602082015250565b6000610fd3602483610eb8565b9150610fde82610f77565b604082019050919050565b6000602082019050818103600083015261100281610fc6565b9050919050565b600081905092915050565b7f4e667445786368616e67653a206475726174696f6e206174206c656173742000600082015250565b600061104a601f83611009565b915061105582611014565b601f82019050919050565b600081519050919050565b60005b8381101561108957808201518184015260208101905061106e565b83811115611098576000848401525b50505050565b60006110a982611060565b6110b38185611009565b93506110c381856020860161106b565b80840191505092915050565b60006110da8261103d565b91506110e6828461109e565b915081905092915050565b6000601f19601f8301169050919050565b600061110d82611060565b6111178185610eb8565b935061112781856020860161106b565b611130816110f1565b840191505092915050565b600060208201905081810360008301526111558184611102565b905092915050565b7f4e487b7100000000000000000000000000000000000000000000000000000000600052601160045260246000fd5b600061119782610c64565b91506111a283610c64565b9250827fffffffffffffffffffffffffffffffffffffffffffffffffffffffffffffffff038211156111d7576111d661115d565b5b828201905092915050565b60006060820190506111f76000830186610c6e565b6112046020830185610c6e565b6112116040830184610c6e565b949350505050565b7f4e667445786368616e67653a206e6674206e6f74206f6e20746865207368656c60008201527f6621000000000000000000000000000000000000000000000000000000000000602082015250565b6000611275602283610eb8565b915061128082611219565b604082019050919050565b600060208201905081810360008301526112a481611268565b9050919050565b7f4e667445786368616e67653a2076616c7565205175616e74697479206c65737360008201527f207468616e200000000000000000000000000000000000000000000000000000602082015250565b6000611307602683611009565b9150611312826112ab565b602682019050919050565b6000611328826112fa565b9150611334828461109e565b915081905092915050565b60006060820190506113546000830186610cca565b6113616020830185610cca565b61136e6040830184610c6e565b949350505050565b600060808201905061138b6000830187610cca565b6113986020830186610cca565b6113a56040830185610c6e565b6113b26060830184610c6e565b95945050505050565b7f4f776e61626c653a206e6577206f776e657220697320746865207a65726f206160008201527f6464726573730000000000000000000000000000000000000000000000000000602082015250565b6000611417602683610eb8565b9150611422826113bb565b604082019050919050565b600060208201905081810360008301526114468161140a565b9050919050565b600081905092915050565b50565b600061146860008361144d565b915061147382611458565b600082019050919050565b60006114898261145b565b9150819050919050565b7f4e667445786368616e67653a207769746864726177206572726f722100000000600082015250565b60006114c9601c83610eb8565b91506114d482611493565b602082019050919050565b600060208201905081810360008301526114f8816114bc565b9050919050565b60006040820190506115146000830185610cca565b6115216020830184610c6e565b9392505050565b600061153382610c64565b91507fffffffffffffffffffffffffffffffffffffffffffffffffffffffffffffffff82036115655761156461115d565b5b600182019050919050565b7f4e487b7100000000000000000000000000000000000000000000000000000000600052601260045260246000fd5b60006115aa82610c64565b91506115b583610c64565b9250826115c5576115c4611570565b5b828204905092915050565b7f4e487b7100000000000000000000000000000000000000000000000000000000600052604160045260246000fd5b600061160a82610c64565b915061161583610c64565b9250828210156116285761162761115d565b5b828203905092915050565b600061163e82610c64565b915061164983610c64565b92508261165957611658611570565b5b828206905092915050565b7f4e487b7100000000000000000000000000000000000000000000000000000000600052603260045260246000fdfea2646970667358221220ea9754cb0edc1fbc0ae058541e832d4be9287577fd59dccef006f1d6e53938f364736f6c634300080d0033",
					"opcodes": "PUSH1 0x80 PUSH1 0x40 MSTORE CALLVALUE DUP1 ISZERO PUSH3 0x11 JUMPI PUSH1 0x0 DUP1 REVERT JUMPDEST POP PUSH1 0x40 MLOAD PUSH3 0x194C CODESIZE SUB DUP1 PUSH3 0x194C DUP4 CODECOPY DUP2 DUP2 ADD PUSH1 0x40 MSTORE DUP2 ADD SWAP1 PUSH3 0x37 SWAP2 SWAP1 PUSH3 0x22C JUMP JUMPDEST PUSH3 0x57 PUSH3 0x4B PUSH3 0xA7 PUSH1 0x20 SHL PUSH1 0x20 SHR JUMP JUMPDEST PUSH3 0xAF PUSH1 0x20 SHL PUSH1 0x20 SHR JUMP JUMPDEST DUP2 PUSH1 0x1 PUSH1 0x0 PUSH2 0x100 EXP DUP2 SLOAD DUP2 PUSH20 0xFFFFFFFFFFFFFFFFFFFFFFFFFFFFFFFFFFFFFFFF MUL NOT AND SWAP1 DUP4 PUSH20 0xFFFFFFFFFFFFFFFFFFFFFFFFFFFFFFFFFFFFFFFF AND MUL OR SWAP1 SSTORE POP DUP1 PUSH1 0x2 DUP2 SWAP1 SSTORE POP POP POP PUSH3 0x273 JUMP JUMPDEST PUSH1 0x0 CALLER SWAP1 POP SWAP1 JUMP JUMPDEST PUSH1 0x0 DUP1 PUSH1 0x0 SWAP1 SLOAD SWAP1 PUSH2 0x100 EXP SWAP1 DIV PUSH20 0xFFFFFFFFFFFFFFFFFFFFFFFFFFFFFFFFFFFFFFFF AND SWAP1 POP DUP2 PUSH1 0x0 DUP1 PUSH2 0x100 EXP DUP2 SLOAD DUP2 PUSH20 0xFFFFFFFFFFFFFFFFFFFFFFFFFFFFFFFFFFFFFFFF MUL NOT AND SWAP1 DUP4 PUSH20 0xFFFFFFFFFFFFFFFFFFFFFFFFFFFFFFFFFFFFFFFF AND MUL OR SWAP1 SSTORE POP DUP2 PUSH20 0xFFFFFFFFFFFFFFFFFFFFFFFFFFFFFFFFFFFFFFFF AND DUP2 PUSH20 0xFFFFFFFFFFFFFFFFFFFFFFFFFFFFFFFFFFFFFFFF AND PUSH32 0x8BE0079C531659141344CD1FD0A4F28419497F9722A3DAAFE3B4186F6B6457E0 PUSH1 0x40 MLOAD PUSH1 0x40 MLOAD DUP1 SWAP2 SUB SWAP1 LOG3 POP POP JUMP JUMPDEST PUSH1 0x0 DUP1 REVERT JUMPDEST PUSH1 0x0 PUSH20 0xFFFFFFFFFFFFFFFFFFFFFFFFFFFFFFFFFFFFFFFF DUP3 AND SWAP1 POP SWAP2 SWAP1 POP JUMP JUMPDEST PUSH1 0x0 PUSH3 0x1A5 DUP3 PUSH3 0x178 JUMP JUMPDEST SWAP1 POP SWAP2 SWAP1 POP JUMP JUMPDEST PUSH1 0x0 PUSH3 0x1B9 DUP3 PUSH3 0x198 JUMP JUMPDEST SWAP1 POP SWAP2 SWAP1 POP JUMP JUMPDEST PUSH3 0x1CB DUP2 PUSH3 0x1AC JUMP JUMPDEST DUP2 EQ PUSH3 0x1D7 JUMPI PUSH1 0x0 DUP1 REVERT JUMPDEST POP JUMP JUMPDEST PUSH1 0x0 DUP2 MLOAD SWAP1 POP PUSH3 0x1EB DUP2 PUSH3 0x1C0 JUMP JUMPDEST SWAP3 SWAP2 POP POP JUMP JUMPDEST PUSH1 0x0 DUP2 SWAP1 POP SWAP2 SWAP1 POP JUMP JUMPDEST PUSH3 0x206 DUP2 PUSH3 0x1F1 JUMP JUMPDEST DUP2 EQ PUSH3 0x212 JUMPI PUSH1 0x0 DUP1 REVERT JUMPDEST POP JUMP JUMPDEST PUSH1 0x0 DUP2 MLOAD SWAP1 POP PUSH3 0x226 DUP2 PUSH3 0x1FB JUMP JUMPDEST SWAP3 SWAP2 POP POP JUMP JUMPDEST PUSH1 0x0 DUP1 PUSH1 0x40 DUP4 DUP6 SUB SLT ISZERO PUSH3 0x246 JUMPI PUSH3 0x245 PUSH3 0x173 JUMP JUMPDEST JUMPDEST PUSH1 0x0 PUSH3 0x256 DUP6 DUP3 DUP7 ADD PUSH3 0x1DA JUMP JUMPDEST SWAP3 POP POP PUSH1 0x20 PUSH3 0x269 DUP6 DUP3 DUP7 ADD PUSH3 0x215 JUMP JUMPDEST SWAP2 POP POP SWAP3 POP SWAP3 SWAP1 POP JUMP JUMPDEST PUSH2 0x16C9 DUP1 PUSH3 0x283 PUSH1 0x0 CODECOPY PUSH1 0x0 RETURN INVALID PUSH1 0x80 PUSH1 0x40 MSTORE PUSH1 0x4 CALLDATASIZE LT PUSH2 0x91 JUMPI PUSH1 0x0 CALLDATALOAD PUSH1 0xE0 SHR DUP1 PUSH4 0xB633620C GT PUSH2 0x59 JUMPI DUP1 PUSH4 0xB633620C EQ PUSH2 0x16B JUMPI DUP1 PUSH4 0xD3C9727C EQ PUSH2 0x1A8 JUMPI DUP1 PUSH4 0xD96A094A EQ PUSH2 0x1D1 JUMPI DUP1 PUSH4 0xF2FDE38B EQ PUSH2 0x1ED JUMPI DUP1 PUSH4 0xF3FEF3A3 EQ PUSH2 0x216 JUMPI PUSH2 0x91 JUMP JUMPDEST DUP1 PUSH4 0x34D501B EQ PUSH2 0x96 JUMPI DUP1 PUSH4 0x715018A6 EQ PUSH2 0xC1 JUMPI DUP1 PUSH4 0x8DA5CB5B EQ PUSH2 0xD8 JUMPI DUP1 PUSH4 0x8E2C2DFA EQ PUSH2 0x103 JUMPI DUP1 PUSH4 0x91492956 EQ PUSH2 0x12E JUMPI JUMPDEST PUSH1 0x0 DUP1 REVERT JUMPDEST CALLVALUE DUP1 ISZERO PUSH2 0xA2 JUMPI PUSH1 0x0 DUP1 REVERT JUMPDEST POP PUSH2 0xAB PUSH2 0x23F JUMP JUMPDEST PUSH1 0x40 MLOAD PUSH2 0xB8 SWAP2 SWAP1 PUSH2 0xC7D JUMP JUMPDEST PUSH1 0x40 MLOAD DUP1 SWAP2 SUB SWAP1 RETURN JUMPDEST CALLVALUE DUP1 ISZERO PUSH2 0xCD JUMPI PUSH1 0x0 DUP1 REVERT JUMPDEST POP PUSH2 0xD6 PUSH2 0x249 JUMP JUMPDEST STOP JUMPDEST CALLVALUE DUP1 ISZERO PUSH2 0xE4 JUMPI PUSH1 0x0 DUP1 REVERT JUMPDEST POP PUSH2 0xED PUSH2 0x2D1 JUMP JUMPDEST PUSH1 0x40 MLOAD PUSH2 0xFA SWAP2 SWAP1 PUSH2 0xCD9 JUMP JUMPDEST PUSH1 0x40 MLOAD DUP1 SWAP2 SUB SWAP1 RETURN JUMPDEST CALLVALUE DUP1 ISZERO PUSH2 0x10F JUMPI PUSH1 0x0 DUP1 REVERT JUMPDEST POP PUSH2 0x118 PUSH2 0x2FA JUMP JUMPDEST PUSH1 0x40 MLOAD PUSH2 0x125 SWAP2 SWAP1 PUSH2 0xD53 JUMP JUMPDEST PUSH1 0x40 MLOAD DUP1 SWAP2 SUB SWAP1 RETURN JUMPDEST CALLVALUE DUP1 ISZERO PUSH2 0x13A JUMPI PUSH1 0x0 DUP1 REVERT JUMPDEST POP PUSH2 0x155 PUSH1 0x4 DUP1 CALLDATASIZE SUB DUP2 ADD SWAP1 PUSH2 0x150 SWAP2 SWAP1 PUSH2 0xD9F JUMP JUMPDEST PUSH2 0x324 JUMP JUMPDEST PUSH1 0x40 MLOAD PUSH2 0x162 SWAP2 SWAP1 PUSH2 0xC7D JUMP JUMPDEST PUSH1 0x40 MLOAD DUP1 SWAP2 SUB SWAP1 RETURN JUMPDEST CALLVALUE DUP1 ISZERO PUSH2 0x177 JUMPI PUSH1 0x0 DUP1 REVERT JUMPDEST POP PUSH2 0x192 PUSH1 0x4 DUP1 CALLDATASIZE SUB DUP2 ADD SWAP1 PUSH2 0x18D SWAP2 SWAP1 PUSH2 0xD9F JUMP JUMPDEST PUSH2 0x341 JUMP JUMPDEST PUSH1 0x40 MLOAD PUSH2 0x19F SWAP2 SWAP1 PUSH2 0xC7D JUMP JUMPDEST PUSH1 0x40 MLOAD DUP1 SWAP2 SUB SWAP1 RETURN JUMPDEST CALLVALUE DUP1 ISZERO PUSH2 0x1B4 JUMPI PUSH1 0x0 DUP1 REVERT JUMPDEST POP PUSH2 0x1CF PUSH1 0x4 DUP1 CALLDATASIZE SUB DUP2 ADD SWAP1 PUSH2 0x1CA SWAP2 SWAP1 PUSH2 0xDCC JUMP JUMPDEST PUSH2 0x35E JUMP JUMPDEST STOP JUMPDEST PUSH2 0x1EB PUSH1 0x4 DUP1 CALLDATASIZE SUB DUP2 ADD SWAP1 PUSH2 0x1E6 SWAP2 SWAP1 PUSH2 0xD9F JUMP JUMPDEST PUSH2 0x577 JUMP JUMPDEST STOP JUMPDEST CALLVALUE DUP1 ISZERO PUSH2 0x1F9 JUMPI PUSH1 0x0 DUP1 REVERT JUMPDEST POP PUSH2 0x214 PUSH1 0x4 DUP1 CALLDATASIZE SUB DUP2 ADD SWAP1 PUSH2 0x20F SWAP2 SWAP1 PUSH2 0xE4B JUMP JUMPDEST PUSH2 0x7DB JUMP JUMPDEST STOP JUMPDEST CALLVALUE DUP1 ISZERO PUSH2 0x222 JUMPI PUSH1 0x0 DUP1 REVERT JUMPDEST POP PUSH2 0x23D PUSH1 0x4 DUP1 CALLDATASIZE SUB DUP2 ADD SWAP1 PUSH2 0x238 SWAP2 SWAP1 PUSH2 0xE78 JUMP JUMPDEST PUSH2 0x8D2 JUMP JUMPDEST STOP JUMPDEST PUSH1 0x0 PUSH1 0x2 SLOAD SWAP1 POP SWAP1 JUMP JUMPDEST PUSH2 0x251 PUSH2 0xA38 JUMP JUMPDEST PUSH20 0xFFFFFFFFFFFFFFFFFFFFFFFFFFFFFFFFFFFFFFFF AND PUSH2 0x26F PUSH2 0x2D1 JUMP JUMPDEST PUSH20 0xFFFFFFFFFFFFFFFFFFFFFFFFFFFFFFFFFFFFFFFF AND EQ PUSH2 0x2C5 JUMPI PUSH1 0x40 MLOAD PUSH32 0x8C379A000000000000000000000000000000000000000000000000000000000 DUP2 MSTORE PUSH1 0x4 ADD PUSH2 0x2BC SWAP1 PUSH2 0xF15 JUMP JUMPDEST PUSH1 0x40 MLOAD DUP1 SWAP2 SUB SWAP1 REVERT JUMPDEST PUSH2 0x2CF PUSH1 0x0 PUSH2 0xA40 JUMP JUMPDEST JUMP JUMPDEST PUSH1 0x0 DUP1 PUSH1 0x0 SWAP1 SLOAD SWAP1 PUSH2 0x100 EXP SWAP1 DIV PUSH20 0xFFFFFFFFFFFFFFFFFFFFFFFFFFFFFFFFFFFFFFFF AND SWAP1 POP SWAP1 JUMP JUMPDEST PUSH1 0x0 PUSH1 0x1 PUSH1 0x0 SWAP1 SLOAD SWAP1 PUSH2 0x100 EXP SWAP1 DIV PUSH20 0xFFFFFFFFFFFFFFFFFFFFFFFFFFFFFFFFFFFFFFFF AND SWAP1 POP SWAP1 JUMP JUMPDEST PUSH1 0x0 PUSH1 0x4 PUSH1 0x0 DUP4 DUP2 MSTORE PUSH1 0x20 ADD SWAP1 DUP2 MSTORE PUSH1 0x20 ADD PUSH1 0x0 KECCAK256 SLOAD SWAP1 POP SWAP2 SWAP1 POP JUMP JUMPDEST PUSH1 0x0 PUSH1 0x3 PUSH1 0x0 DUP4 DUP2 MSTORE PUSH1 0x20 ADD SWAP1 DUP2 MSTORE PUSH1 0x20 ADD PUSH1 0x0 KECCAK256 SLOAD SWAP1 POP SWAP2 SWAP1 POP JUMP JUMPDEST PUSH1 0x0 PUSH1 0x1 PUSH1 0x0 SWAP1 SLOAD SWAP1 PUSH2 0x100 EXP SWAP1 DIV PUSH20 0xFFFFFFFFFFFFFFFFFFFFFFFFFFFFFFFFFFFFFFFF AND PUSH20 0xFFFFFFFFFFFFFFFFFFFFFFFFFFFFFFFFFFFFFFFF AND PUSH4 0x6352211E DUP6 PUSH1 0x40 MLOAD DUP3 PUSH4 0xFFFFFFFF AND PUSH1 0xE0 SHL DUP2 MSTORE PUSH1 0x4 ADD PUSH2 0x3BB SWAP2 SWAP1 PUSH2 0xC7D JUMP JUMPDEST PUSH1 0x20 PUSH1 0x40 MLOAD DUP1 DUP4 SUB DUP2 DUP7 GAS STATICCALL ISZERO DUP1 ISZERO PUSH2 0x3D8 JUMPI RETURNDATASIZE PUSH1 0x0 DUP1 RETURNDATACOPY RETURNDATASIZE PUSH1 0x0 REVERT JUMPDEST POP POP POP POP PUSH1 0x40 MLOAD RETURNDATASIZE PUSH1 0x1F NOT PUSH1 0x1F DUP3 ADD AND DUP3 ADD DUP1 PUSH1 0x40 MSTORE POP DUP2 ADD SWAP1 PUSH2 0x3FC SWAP2 SWAP1 PUSH2 0xF4A JUMP JUMPDEST SWAP1 POP DUP1 PUSH20 0xFFFFFFFFFFFFFFFFFFFFFFFFFFFFFFFFFFFFFFFF AND CALLER PUSH20 0xFFFFFFFFFFFFFFFFFFFFFFFFFFFFFFFFFFFFFFFF AND EQ PUSH2 0x46C JUMPI PUSH1 0x40 MLOAD PUSH32 0x8C379A000000000000000000000000000000000000000000000000000000000 DUP2 MSTORE PUSH1 0x4 ADD PUSH2 0x463 SWAP1 PUSH2 0xFE9 JUMP JUMPDEST PUSH1 0x40 MLOAD DUP1 SWAP2 SUB SWAP1 REVERT JUMPDEST PUSH2 0x474 PUSH2 0x23F JUMP JUMPDEST DUP3 LT ISZERO PUSH2 0x487 PUSH2 0x482 PUSH2 0x23F JUMP JUMPDEST PUSH2 0xB04 JUMP JUMPDEST PUSH1 0x40 MLOAD PUSH1 0x20 ADD PUSH2 0x497 SWAP2 SWAP1 PUSH2 0x10CF JUMP JUMPDEST PUSH1 0x40 MLOAD PUSH1 0x20 DUP2 DUP4 SUB SUB DUP2 MSTORE SWAP1 PUSH1 0x40 MSTORE SWAP1 PUSH2 0x4E7 JUMPI PUSH1 0x40 MLOAD PUSH32 0x8C379A000000000000000000000000000000000000000000000000000000000 DUP2 MSTORE PUSH1 0x4 ADD PUSH2 0x4DE SWAP2 SWAP1 PUSH2 0x113B JUMP JUMPDEST PUSH1 0x40 MLOAD DUP1 SWAP2 SUB SWAP1 REVERT JUMPDEST POP DUP2 TIMESTAMP PUSH2 0x4F4 SWAP2 SWAP1 PUSH2 0x118C JUMP JUMPDEST PUSH1 0x3 PUSH1 0x0 DUP7 DUP2 MSTORE PUSH1 0x20 ADD SWAP1 DUP2 MSTORE PUSH1 0x20 ADD PUSH1 0x0 KECCAK256 DUP2 SWAP1 SSTORE POP DUP3 PUSH1 0x4 PUSH1 0x0 DUP7 DUP2 MSTORE PUSH1 0x20 ADD SWAP1 DUP2 MSTORE PUSH1 0x20 ADD PUSH1 0x0 KECCAK256 DUP2 SWAP1 SSTORE POP PUSH32 0x9FECE02DACD609F794EF9A2F8F1F690EC297EBCF6745B038AB218B14F7DC8D1F DUP5 DUP5 PUSH1 0x3 PUSH1 0x0 DUP9 DUP2 MSTORE PUSH1 0x20 ADD SWAP1 DUP2 MSTORE PUSH1 0x20 ADD PUSH1 0x0 KECCAK256 SLOAD PUSH1 0x40 MLOAD PUSH2 0x569 SWAP4 SWAP3 SWAP2 SWAP1 PUSH2 0x11E2 JUMP JUMPDEST PUSH1 0x40 MLOAD DUP1 SWAP2 SUB SWAP1 LOG1 POP POP POP POP JUMP JUMPDEST PUSH2 0x580 DUP2 PUSH2 0x341 JUMP JUMPDEST TIMESTAMP GT ISZERO PUSH2 0x5C2 JUMPI PUSH1 0x40 MLOAD PUSH32 0x8C379A000000000000000000000000000000000000000000000000000000000 DUP2 MSTORE PUSH1 0x4 ADD PUSH2 0x5B9 SWAP1 PUSH2 0x128B JUMP JUMPDEST PUSH1 0x40 MLOAD DUP1 SWAP2 SUB SWAP1 REVERT JUMPDEST PUSH1 0x0 PUSH1 0x4 PUSH1 0x0 DUP4 DUP2 MSTORE PUSH1 0x20 ADD SWAP1 DUP2 MSTORE PUSH1 0x20 ADD PUSH1 0x0 KECCAK256 SLOAD SWAP1 POP DUP1 CALLVALUE LT ISZERO PUSH2 0x5EE PUSH2 0x5E9 PUSH2 0x23F JUMP JUMPDEST PUSH2 0xB04 JUMP JUMPDEST PUSH1 0x40 MLOAD PUSH1 0x20 ADD PUSH2 0x5FE SWAP2 SWAP1 PUSH2 0x131D JUMP JUMPDEST PUSH1 0x40 MLOAD PUSH1 0x20 DUP2 DUP4 SUB SUB DUP2 MSTORE SWAP1 PUSH1 0x40 MSTORE SWAP1 PUSH2 0x64E JUMPI PUSH1 0x40 MLOAD PUSH32 0x8C379A000000000000000000000000000000000000000000000000000000000 DUP2 MSTORE PUSH1 0x4 ADD PUSH2 0x645 SWAP2 SWAP1 PUSH2 0x113B JUMP JUMPDEST PUSH1 0x40 MLOAD DUP1 SWAP2 SUB SWAP1 REVERT JUMPDEST POP PUSH1 0x0 PUSH1 0x1 PUSH1 0x0 SWAP1 SLOAD SWAP1 PUSH2 0x100 EXP SWAP1 DIV PUSH20 0xFFFFFFFFFFFFFFFFFFFFFFFFFFFFFFFFFFFFFFFF AND PUSH20 0xFFFFFFFFFFFFFFFFFFFFFFFFFFFFFFFFFFFFFFFF AND PUSH4 0x6352211E DUP5 PUSH1 0x40 MLOAD DUP3 PUSH4 0xFFFFFFFF AND PUSH1 0xE0 SHL DUP2 MSTORE PUSH1 0x4 ADD PUSH2 0x6AC SWAP2 SWAP1 PUSH2 0xC7D JUMP JUMPDEST PUSH1 0x20 PUSH1 0x40 MLOAD DUP1 DUP4 SUB DUP2 DUP7 GAS STATICCALL ISZERO DUP1 ISZERO PUSH2 0x6C9 JUMPI RETURNDATASIZE PUSH1 0x0 DUP1 RETURNDATACOPY RETURNDATASIZE PUSH1 0x0 REVERT JUMPDEST POP POP POP POP PUSH1 0x40 MLOAD RETURNDATASIZE PUSH1 0x1F NOT PUSH1 0x1F DUP3 ADD AND DUP3 ADD DUP1 PUSH1 0x40 MSTORE POP DUP2 ADD SWAP1 PUSH2 0x6ED SWAP2 SWAP1 PUSH2 0xF4A JUMP JUMPDEST SWAP1 POP PUSH1 0x1 PUSH1 0x0 SWAP1 SLOAD SWAP1 PUSH2 0x100 EXP SWAP1 DIV PUSH20 0xFFFFFFFFFFFFFFFFFFFFFFFFFFFFFFFFFFFFFFFF AND PUSH20 0xFFFFFFFFFFFFFFFFFFFFFFFFFFFFFFFFFFFFFFFF AND PUSH4 0x42842E0E DUP3 CALLER DUP7 PUSH1 0x40 MLOAD DUP5 PUSH4 0xFFFFFFFF AND PUSH1 0xE0 SHL DUP2 MSTORE PUSH1 0x4 ADD PUSH2 0x74E SWAP4 SWAP3 SWAP2 SWAP1 PUSH2 0x133F JUMP JUMPDEST PUSH1 0x0 PUSH1 0x40 MLOAD DUP1 DUP4 SUB DUP2 PUSH1 0x0 DUP8 DUP1 EXTCODESIZE ISZERO DUP1 ISZERO PUSH2 0x768 JUMPI PUSH1 0x0 DUP1 REVERT JUMPDEST POP GAS CALL ISZERO DUP1 ISZERO PUSH2 0x77C JUMPI RETURNDATASIZE PUSH1 0x0 DUP1 RETURNDATACOPY RETURNDATASIZE PUSH1 0x0 REVERT JUMPDEST POP POP POP POP PUSH1 0x0 PUSH1 0x3 PUSH1 0x0 DUP6 DUP2 MSTORE PUSH1 0x20 ADD SWAP1 DUP2 MSTORE PUSH1 0x20 ADD PUSH1 0x0 KECCAK256 DUP2 SWAP1 SSTORE POP PUSH32 0xF06E0DDEDCF564FBE63EB7C8A2FA82A50B4E0697D6FE7EA91CE49B845AC5D46B DUP2 CALLER DUP6 DUP6 PUSH1 0x40 MLOAD PUSH2 0x7CE SWAP5 SWAP4 SWAP3 SWAP2 SWAP1 PUSH2 0x1376 JUMP JUMPDEST PUSH1 0x40 MLOAD DUP1 SWAP2 SUB SWAP1 LOG1 POP POP POP JUMP JUMPDEST PUSH2 0x7E3 PUSH2 0xA38 JUMP JUMPDEST PUSH20 0xFFFFFFFFFFFFFFFFFFFFFFFFFFFFFFFFFFFFFFFF AND PUSH2 0x801 PUSH2 0x2D1 JUMP JUMPDEST PUSH20 0xFFFFFFFFFFFFFFFFFFFFFFFFFFFFFFFFFFFFFFFF AND EQ PUSH2 0x857 JUMPI PUSH1 0x40 MLOAD PUSH32 0x8C379A000000000000000000000000000000000000000000000000000000000 DUP2 MSTORE PUSH1 0x4 ADD PUSH2 0x84E SWAP1 PUSH2 0xF15 JUMP JUMPDEST PUSH1 0x40 MLOAD DUP1 SWAP2 SUB SWAP1 REVERT JUMPDEST PUSH1 0x0 PUSH20 0xFFFFFFFFFFFFFFFFFFFFFFFFFFFFFFFFFFFFFFFF AND DUP2 PUSH20 0xFFFFFFFFFFFFFFFFFFFFFFFFFFFFFFFFFFFFFFFF AND SUB PUSH2 0x8C6 JUMPI PUSH1 0x40 MLOAD PUSH32 0x8C379A000000000000000000000000000000000000000000000000000000000 DUP2 MSTORE PUSH1 0x4 ADD PUSH2 0x8BD SWAP1 PUSH2 0x142D JUMP JUMPDEST PUSH1 0x40 MLOAD DUP1 SWAP2 SUB SWAP1 REVERT JUMPDEST PUSH2 0x8CF DUP2 PUSH2 0xA40 JUMP JUMPDEST POP JUMP JUMPDEST PUSH2 0x8DA PUSH2 0xA38 JUMP JUMPDEST PUSH20 0xFFFFFFFFFFFFFFFFFFFFFFFFFFFFFFFFFFFFFFFF AND PUSH2 0x8F8 PUSH2 0x2D1 JUMP JUMPDEST PUSH20 0xFFFFFFFFFFFFFFFFFFFFFFFFFFFFFFFFFFFFFFFF AND EQ PUSH2 0x94E JUMPI PUSH1 0x40 MLOAD PUSH32 0x8C379A000000000000000000000000000000000000000000000000000000000 DUP2 MSTORE PUSH1 0x4 ADD PUSH2 0x945 SWAP1 PUSH2 0xF15 JUMP JUMPDEST PUSH1 0x40 MLOAD DUP1 SWAP2 SUB SWAP1 REVERT JUMPDEST PUSH1 0x0 DUP3 PUSH20 0xFFFFFFFFFFFFFFFFFFFFFFFFFFFFFFFFFFFFFFFF AND DUP3 PUSH1 0x40 MLOAD PUSH2 0x974 SWAP1 PUSH2 0x147E JUMP JUMPDEST PUSH1 0x0 PUSH1 0x40 MLOAD DUP1 DUP4 SUB DUP2 DUP6 DUP8 GAS CALL SWAP3 POP POP POP RETURNDATASIZE DUP1 PUSH1 0x0 DUP2 EQ PUSH2 0x9B1 JUMPI PUSH1 0x40 MLOAD SWAP2 POP PUSH1 0x1F NOT PUSH1 0x3F RETURNDATASIZE ADD AND DUP3 ADD PUSH1 0x40 MSTORE RETURNDATASIZE DUP3 MSTORE RETURNDATASIZE PUSH1 0x0 PUSH1 0x20 DUP5 ADD RETURNDATACOPY PUSH2 0x9B6 JUMP JUMPDEST PUSH1 0x60 SWAP2 POP JUMPDEST POP POP SWAP1 POP DUP1 PUSH2 0x9FA JUMPI PUSH1 0x40 MLOAD PUSH32 0x8C379A000000000000000000000000000000000000000000000000000000000 DUP2 MSTORE PUSH1 0x4 ADD PUSH2 0x9F1 SWAP1 PUSH2 0x14DF JUMP JUMPDEST PUSH1 0x40 MLOAD DUP1 SWAP2 SUB SWAP1 REVERT JUMPDEST PUSH32 0x9698E61C645D6B39D54D12FE323BAD02E9DFDBDE2487C2BA08CCFE654400623E CALLER DUP4 PUSH1 0x40 MLOAD PUSH2 0xA2B SWAP3 SWAP2 SWAP1 PUSH2 0x14FF JUMP JUMPDEST PUSH1 0x40 MLOAD DUP1 SWAP2 SUB SWAP1 LOG1 POP POP POP JUMP JUMPDEST PUSH1 0x0 CALLER SWAP1 POP SWAP1 JUMP JUMPDEST PUSH1 0x0 DUP1 PUSH1 0x0 SWAP1 SLOAD SWAP1 PUSH2 0x100 EXP SWAP1 DIV PUSH20 0xFFFFFFFFFFFFFFFFFFFFFFFFFFFFFFFFFFFFFFFF AND SWAP1 POP DUP2 PUSH1 0x0 DUP1 PUSH2 0x100 EXP DUP2 SLOAD DUP2 PUSH20 0xFFFFFFFFFFFFFFFFFFFFFFFFFFFFFFFFFFFFFFFF MUL NOT AND SWAP1 DUP4 PUSH20 0xFFFFFFFFFFFFFFFFFFFFFFFFFFFFFFFFFFFFFFFF AND MUL OR SWAP1 SSTORE POP DUP2 PUSH20 0xFFFFFFFFFFFFFFFFFFFFFFFFFFFFFFFFFFFFFFFF AND DUP2 PUSH20 0xFFFFFFFFFFFFFFFFFFFFFFFFFFFFFFFFFFFFFFFF AND PUSH32 0x8BE0079C531659141344CD1FD0A4F28419497F9722A3DAAFE3B4186F6B6457E0 PUSH1 0x40 MLOAD PUSH1 0x40 MLOAD DUP1 SWAP2 SUB SWAP1 LOG3 POP POP JUMP JUMPDEST PUSH1 0x60 PUSH1 0x0 DUP3 SUB PUSH2 0xB4B JUMPI PUSH1 0x40 MLOAD DUP1 PUSH1 0x40 ADD PUSH1 0x40 MSTORE DUP1 PUSH1 0x1 DUP2 MSTORE PUSH1 0x20 ADD PUSH32 0x3000000000000000000000000000000000000000000000000000000000000000 DUP2 MSTORE POP SWAP1 POP PUSH2 0xC5F JUMP JUMPDEST PUSH1 0x0 DUP3 SWAP1 POP PUSH1 0x0 JUMPDEST PUSH1 0x0 DUP3 EQ PUSH2 0xB7D JUMPI DUP1 DUP1 PUSH2 0xB66 SWAP1 PUSH2 0x1528 JUMP JUMPDEST SWAP2 POP POP PUSH1 0xA DUP3 PUSH2 0xB76 SWAP2 SWAP1 PUSH2 0x159F JUMP JUMPDEST SWAP2 POP PUSH2 0xB53 JUMP JUMPDEST PUSH1 0x0 DUP2 PUSH8 0xFFFFFFFFFFFFFFFF DUP2 GT ISZERO PUSH2 0xB99 JUMPI PUSH2 0xB98 PUSH2 0x15D0 JUMP JUMPDEST JUMPDEST PUSH1 0x40 MLOAD SWAP1 DUP1 DUP3 MSTORE DUP1 PUSH1 0x1F ADD PUSH1 0x1F NOT AND PUSH1 0x20 ADD DUP3 ADD PUSH1 0x40 MSTORE DUP1 ISZERO PUSH2 0xBCB JUMPI DUP2 PUSH1 0x20 ADD PUSH1 0x1 DUP3 MUL DUP1 CALLDATASIZE DUP4 CALLDATACOPY DUP1 DUP3 ADD SWAP2 POP POP SWAP1 POP JUMPDEST POP SWAP1 POP JUMPDEST PUSH1 0x0 DUP6 EQ PUSH2 0xC58 JUMPI PUSH1 0x1 DUP3 PUSH2 0xBE4 SWAP2 SWAP1 PUSH2 0x15FF JUMP JUMPDEST SWAP2 POP PUSH1 0xA DUP6 PUSH2 0xBF3 SWAP2 SWAP1 PUSH2 0x1633 JUMP JUMPDEST PUSH1 0x30 PUSH2 0xBFF SWAP2 SWAP1 PUSH2 0x118C JUMP JUMPDEST PUSH1 0xF8 SHL DUP2 DUP4 DUP2 MLOAD DUP2 LT PUSH2 0xC15 JUMPI PUSH2 0xC14 PUSH2 0x1664 JUMP JUMPDEST JUMPDEST PUSH1 0x20 ADD ADD SWAP1 PUSH31 0xFFFFFFFFFFFFFFFFFFFFFFFFFFFFFFFFFFFFFFFFFFFFFFFFFFFFFFFFFFFFFF NOT AND SWAP1 DUP2 PUSH1 0x0 BYTE SWAP1 MSTORE8 POP PUSH1 0xA DUP6 PUSH2 0xC51 SWAP2 SWAP1 PUSH2 0x159F JUMP JUMPDEST SWAP5 POP PUSH2 0xBCF JUMP JUMPDEST DUP1 SWAP4 POP POP POP POP JUMPDEST SWAP2 SWAP1 POP JUMP JUMPDEST PUSH1 0x0 DUP2 SWAP1 POP SWAP2 SWAP1 POP JUMP JUMPDEST PUSH2 0xC77 DUP2 PUSH2 0xC64 JUMP JUMPDEST DUP3 MSTORE POP POP JUMP JUMPDEST PUSH1 0x0 PUSH1 0x20 DUP3 ADD SWAP1 POP PUSH2 0xC92 PUSH1 0x0 DUP4 ADD DUP5 PUSH2 0xC6E JUMP JUMPDEST SWAP3 SWAP2 POP POP JUMP JUMPDEST PUSH1 0x0 PUSH20 0xFFFFFFFFFFFFFFFFFFFFFFFFFFFFFFFFFFFFFFFF DUP3 AND SWAP1 POP SWAP2 SWAP1 POP JUMP JUMPDEST PUSH1 0x0 PUSH2 0xCC3 DUP3 PUSH2 0xC98 JUMP JUMPDEST SWAP1 POP SWAP2 SWAP1 POP JUMP JUMPDEST PUSH2 0xCD3 DUP2 PUSH2 0xCB8 JUMP JUMPDEST DUP3 MSTORE POP POP JUMP JUMPDEST PUSH1 0x0 PUSH1 0x20 DUP3 ADD SWAP1 POP PUSH2 0xCEE PUSH1 0x0 DUP4 ADD DUP5 PUSH2 0xCCA JUMP JUMPDEST SWAP3 SWAP2 POP POP JUMP JUMPDEST PUSH1 0x0 DUP2 SWAP1 POP SWAP2 SWAP1 POP JUMP JUMPDEST PUSH1 0x0 PUSH2 0xD19 PUSH2 0xD14 PUSH2 0xD0F DUP5 PUSH2 0xC98 JUMP JUMPDEST PUSH2 0xCF4 JUMP JUMPDEST PUSH2 0xC98 JUMP JUMPDEST SWAP1 POP SWAP2 SWAP1 POP JUMP JUMPDEST PUSH1 0x0 PUSH2 0xD2B DUP3 PUSH2 0xCFE JUMP JUMPDEST SWAP1 POP SWAP2 SWAP1 POP JUMP JUMPDEST PUSH1 0x0 PUSH2 0xD3D DUP3 PUSH2 0xD20 JUMP JUMPDEST SWAP1 POP SWAP2 SWAP1 POP JUMP JUMPDEST PUSH2 0xD4D DUP2 PUSH2 0xD32 JUMP JUMPDEST DUP3 MSTORE POP POP JUMP JUMPDEST PUSH1 0x0 PUSH1 0x20 DUP3 ADD SWAP1 POP PUSH2 0xD68 PUSH1 0x0 DUP4 ADD DUP5 PUSH2 0xD44 JUMP JUMPDEST SWAP3 SWAP2 POP POP JUMP JUMPDEST PUSH1 0x0 DUP1 REVERT JUMPDEST PUSH2 0xD7C DUP2 PUSH2 0xC64 JUMP JUMPDEST DUP2 EQ PUSH2 0xD87 JUMPI PUSH1 0x0 DUP1 REVERT JUMPDEST POP JUMP JUMPDEST PUSH1 0x0 DUP2 CALLDATALOAD SWAP1 POP PUSH2 0xD99 DUP2 PUSH2 0xD73 JUMP JUMPDEST SWAP3 SWAP2 POP POP JUMP JUMPDEST PUSH1 0x0 PUSH1 0x20 DUP3 DUP5 SUB SLT ISZERO PUSH2 0xDB5 JUMPI PUSH2 0xDB4 PUSH2 0xD6E JUMP JUMPDEST JUMPDEST PUSH1 0x0 PUSH2 0xDC3 DUP5 DUP3 DUP6 ADD PUSH2 0xD8A JUMP JUMPDEST SWAP2 POP POP SWAP3 SWAP2 POP POP JUMP JUMPDEST PUSH1 0x0 DUP1 PUSH1 0x0 PUSH1 0x60 DUP5 DUP7 SUB SLT ISZERO PUSH2 0xDE5 JUMPI PUSH2 0xDE4 PUSH2 0xD6E JUMP JUMPDEST JUMPDEST PUSH1 0x0 PUSH2 0xDF3 DUP7 DUP3 DUP8 ADD PUSH2 0xD8A JUMP JUMPDEST SWAP4 POP POP PUSH1 0x20 PUSH2 0xE04 DUP7 DUP3 DUP8 ADD PUSH2 0xD8A JUMP JUMPDEST SWAP3 POP POP PUSH1 0x40 PUSH2 0xE15 DUP7 DUP3 DUP8 ADD PUSH2 0xD8A JUMP JUMPDEST SWAP2 POP POP SWAP3 POP SWAP3 POP SWAP3 JUMP JUMPDEST PUSH2 0xE28 DUP2 PUSH2 0xCB8 JUMP JUMPDEST DUP2 EQ PUSH2 0xE33 JUMPI PUSH1 0x0 DUP1 REVERT JUMPDEST POP JUMP JUMPDEST PUSH1 0x0 DUP2 CALLDATALOAD SWAP1 POP PUSH2 0xE45 DUP2 PUSH2 0xE1F JUMP JUMPDEST SWAP3 SWAP2 POP POP JUMP JUMPDEST PUSH1 0x0 PUSH1 0x20 DUP3 DUP5 SUB SLT ISZERO PUSH2 0xE61 JUMPI PUSH2 0xE60 PUSH2 0xD6E JUMP JUMPDEST JUMPDEST PUSH1 0x0 PUSH2 0xE6F DUP5 DUP3 DUP6 ADD PUSH2 0xE36 JUMP JUMPDEST SWAP2 POP POP SWAP3 SWAP2 POP POP JUMP JUMPDEST PUSH1 0x0 DUP1 PUSH1 0x40 DUP4 DUP6 SUB SLT ISZERO PUSH2 0xE8F JUMPI PUSH2 0xE8E PUSH2 0xD6E JUMP JUMPDEST JUMPDEST PUSH1 0x0 PUSH2 0xE9D DUP6 DUP3 DUP7 ADD PUSH2 0xE36 JUMP JUMPDEST SWAP3 POP POP PUSH1 0x20 PUSH2 0xEAE DUP6 DUP3 DUP7 ADD PUSH2 0xD8A JUMP JUMPDEST SWAP2 POP POP SWAP3 POP SWAP3 SWAP1 POP JUMP JUMPDEST PUSH1 0x0 DUP3 DUP3 MSTORE PUSH1 0x20 DUP3 ADD SWAP1 POP SWAP3 SWAP2 POP POP JUMP JUMPDEST PUSH32 0x4F776E61626C653A2063616C6C6572206973206E6F7420746865206F776E6572 PUSH1 0x0 DUP3 ADD MSTORE POP JUMP JUMPDEST PUSH1 0x0 PUSH2 0xEFF PUSH1 0x20 DUP4 PUSH2 0xEB8 JUMP JUMPDEST SWAP2 POP PUSH2 0xF0A DUP3 PUSH2 0xEC9 JUMP JUMPDEST PUSH1 0x20 DUP3 ADD SWAP1 POP SWAP2 SWAP1 POP JUMP JUMPDEST PUSH1 0x0 PUSH1 0x20 DUP3 ADD SWAP1 POP DUP2 DUP2 SUB PUSH1 0x0 DUP4 ADD MSTORE PUSH2 0xF2E DUP2 PUSH2 0xEF2 JUMP JUMPDEST SWAP1 POP SWAP2 SWAP1 POP JUMP JUMPDEST PUSH1 0x0 DUP2 MLOAD SWAP1 POP PUSH2 0xF44 DUP2 PUSH2 0xE1F JUMP JUMPDEST SWAP3 SWAP2 POP POP JUMP JUMPDEST PUSH1 0x0 PUSH1 0x20 DUP3 DUP5 SUB SLT ISZERO PUSH2 0xF60 JUMPI PUSH2 0xF5F PUSH2 0xD6E JUMP JUMPDEST JUMPDEST PUSH1 0x0 PUSH2 0xF6E DUP5 DUP3 DUP6 ADD PUSH2 0xF35 JUMP JUMPDEST SWAP2 POP POP SWAP3 SWAP2 POP POP JUMP JUMPDEST PUSH32 0x4E667445786368616E67653A2073656C6C6572206973206E6F74206E6674206F PUSH1 0x0 DUP3 ADD MSTORE PUSH32 0x776E657200000000000000000000000000000000000000000000000000000000 PUSH1 0x20 DUP3 ADD MSTORE POP JUMP JUMPDEST PUSH1 0x0 PUSH2 0xFD3 PUSH1 0x24 DUP4 PUSH2 0xEB8 JUMP JUMPDEST SWAP2 POP PUSH2 0xFDE DUP3 PUSH2 0xF77 JUMP JUMPDEST PUSH1 0x40 DUP3 ADD SWAP1 POP SWAP2 SWAP1 POP JUMP JUMPDEST PUSH1 0x0 PUSH1 0x20 DUP3 ADD SWAP1 POP DUP2 DUP2 SUB PUSH1 0x0 DUP4 ADD MSTORE PUSH2 0x1002 DUP2 PUSH2 0xFC6 JUMP JUMPDEST SWAP1 POP SWAP2 SWAP1 POP JUMP JUMPDEST PUSH1 0x0 DUP2 SWAP1 POP SWAP3 SWAP2 POP POP JUMP JUMPDEST PUSH32 0x4E667445786368616E67653A206475726174696F6E206174206C656173742000 PUSH1 0x0 DUP3 ADD MSTORE POP JUMP JUMPDEST PUSH1 0x0 PUSH2 0x104A PUSH1 0x1F DUP4 PUSH2 0x1009 JUMP JUMPDEST SWAP2 POP PUSH2 0x1055 DUP3 PUSH2 0x1014 JUMP JUMPDEST PUSH1 0x1F DUP3 ADD SWAP1 POP SWAP2 SWAP1 POP JUMP JUMPDEST PUSH1 0x0 DUP2 MLOAD SWAP1 POP SWAP2 SWAP1 POP JUMP JUMPDEST PUSH1 0x0 JUMPDEST DUP4 DUP2 LT ISZERO PUSH2 0x1089 JUMPI DUP1 DUP3 ADD MLOAD DUP2 DUP5 ADD MSTORE PUSH1 0x20 DUP2 ADD SWAP1 POP PUSH2 0x106E JUMP JUMPDEST DUP4 DUP2 GT ISZERO PUSH2 0x1098 JUMPI PUSH1 0x0 DUP5 DUP5 ADD MSTORE JUMPDEST POP POP POP POP JUMP JUMPDEST PUSH1 0x0 PUSH2 0x10A9 DUP3 PUSH2 0x1060 JUMP JUMPDEST PUSH2 0x10B3 DUP2 DUP6 PUSH2 0x1009 JUMP JUMPDEST SWAP4 POP PUSH2 0x10C3 DUP2 DUP6 PUSH1 0x20 DUP7 ADD PUSH2 0x106B JUMP JUMPDEST DUP1 DUP5 ADD SWAP2 POP POP SWAP3 SWAP2 POP POP JUMP JUMPDEST PUSH1 0x0 PUSH2 0x10DA DUP3 PUSH2 0x103D JUMP JUMPDEST SWAP2 POP PUSH2 0x10E6 DUP3 DUP5 PUSH2 0x109E JUMP JUMPDEST SWAP2 POP DUP2 SWAP1 POP SWAP3 SWAP2 POP POP JUMP JUMPDEST PUSH1 0x0 PUSH1 0x1F NOT PUSH1 0x1F DUP4 ADD AND SWAP1 POP SWAP2 SWAP1 POP JUMP JUMPDEST PUSH1 0x0 PUSH2 0x110D DUP3 PUSH2 0x1060 JUMP JUMPDEST PUSH2 0x1117 DUP2 DUP6 PUSH2 0xEB8 JUMP JUMPDEST SWAP4 POP PUSH2 0x1127 DUP2 DUP6 PUSH1 0x20 DUP7 ADD PUSH2 0x106B JUMP JUMPDEST PUSH2 0x1130 DUP2 PUSH2 0x10F1 JUMP JUMPDEST DUP5 ADD SWAP2 POP POP SWAP3 SWAP2 POP POP JUMP JUMPDEST PUSH1 0x0 PUSH1 0x20 DUP3 ADD SWAP1 POP DUP2 DUP2 SUB PUSH1 0x0 DUP4 ADD MSTORE PUSH2 0x1155 DUP2 DUP5 PUSH2 0x1102 JUMP JUMPDEST SWAP1 POP SWAP3 SWAP2 POP POP JUMP JUMPDEST PUSH32 0x4E487B7100000000000000000000000000000000000000000000000000000000 PUSH1 0x0 MSTORE PUSH1 0x11 PUSH1 0x4 MSTORE PUSH1 0x24 PUSH1 0x0 REVERT JUMPDEST PUSH1 0x0 PUSH2 0x1197 DUP3 PUSH2 0xC64 JUMP JUMPDEST SWAP2 POP PUSH2 0x11A2 DUP4 PUSH2 0xC64 JUMP JUMPDEST SWAP3 POP DUP3 PUSH32 0xFFFFFFFFFFFFFFFFFFFFFFFFFFFFFFFFFFFFFFFFFFFFFFFFFFFFFFFFFFFFFFFF SUB DUP3 GT ISZERO PUSH2 0x11D7 JUMPI PUSH2 0x11D6 PUSH2 0x115D JUMP JUMPDEST JUMPDEST DUP3 DUP3 ADD SWAP1 POP SWAP3 SWAP2 POP POP JUMP JUMPDEST PUSH1 0x0 PUSH1 0x60 DUP3 ADD SWAP1 POP PUSH2 0x11F7 PUSH1 0x0 DUP4 ADD DUP7 PUSH2 0xC6E JUMP JUMPDEST PUSH2 0x1204 PUSH1 0x20 DUP4 ADD DUP6 PUSH2 0xC6E JUMP JUMPDEST PUSH2 0x1211 PUSH1 0x40 DUP4 ADD DUP5 PUSH2 0xC6E JUMP JUMPDEST SWAP5 SWAP4 POP POP POP POP JUMP JUMPDEST PUSH32 0x4E667445786368616E67653A206E6674206E6F74206F6E20746865207368656C PUSH1 0x0 DUP3 ADD MSTORE PUSH32 0x6621000000000000000000000000000000000000000000000000000000000000 PUSH1 0x20 DUP3 ADD MSTORE POP JUMP JUMPDEST PUSH1 0x0 PUSH2 0x1275 PUSH1 0x22 DUP4 PUSH2 0xEB8 JUMP JUMPDEST SWAP2 POP PUSH2 0x1280 DUP3 PUSH2 0x1219 JUMP JUMPDEST PUSH1 0x40 DUP3 ADD SWAP1 POP SWAP2 SWAP1 POP JUMP JUMPDEST PUSH1 0x0 PUSH1 0x20 DUP3 ADD SWAP1 POP DUP2 DUP2 SUB PUSH1 0x0 DUP4 ADD MSTORE PUSH2 0x12A4 DUP2 PUSH2 0x1268 JUMP JUMPDEST SWAP1 POP SWAP2 SWAP1 POP JUMP JUMPDEST PUSH32 0x4E667445786368616E67653A2076616C7565205175616E74697479206C657373 PUSH1 0x0 DUP3 ADD MSTORE PUSH32 0x207468616E200000000000000000000000000000000000000000000000000000 PUSH1 0x20 DUP3 ADD MSTORE POP JUMP JUMPDEST PUSH1 0x0 PUSH2 0x1307 PUSH1 0x26 DUP4 PUSH2 0x1009 JUMP JUMPDEST SWAP2 POP PUSH2 0x1312 DUP3 PUSH2 0x12AB JUMP JUMPDEST PUSH1 0x26 DUP3 ADD SWAP1 POP SWAP2 SWAP1 POP JUMP JUMPDEST PUSH1 0x0 PUSH2 0x1328 DUP3 PUSH2 0x12FA JUMP JUMPDEST SWAP2 POP PUSH2 0x1334 DUP3 DUP5 PUSH2 0x109E JUMP JUMPDEST SWAP2 POP DUP2 SWAP1 POP SWAP3 SWAP2 POP POP JUMP JUMPDEST PUSH1 0x0 PUSH1 0x60 DUP3 ADD SWAP1 POP PUSH2 0x1354 PUSH1 0x0 DUP4 ADD DUP7 PUSH2 0xCCA JUMP JUMPDEST PUSH2 0x1361 PUSH1 0x20 DUP4 ADD DUP6 PUSH2 0xCCA JUMP JUMPDEST PUSH2 0x136E PUSH1 0x40 DUP4 ADD DUP5 PUSH2 0xC6E JUMP JUMPDEST SWAP5 SWAP4 POP POP POP POP JUMP JUMPDEST PUSH1 0x0 PUSH1 0x80 DUP3 ADD SWAP1 POP PUSH2 0x138B PUSH1 0x0 DUP4 ADD DUP8 PUSH2 0xCCA JUMP JUMPDEST PUSH2 0x1398 PUSH1 0x20 DUP4 ADD DUP7 PUSH2 0xCCA JUMP JUMPDEST PUSH2 0x13A5 PUSH1 0x40 DUP4 ADD DUP6 PUSH2 0xC6E JUMP JUMPDEST PUSH2 0x13B2 PUSH1 0x60 DUP4 ADD DUP5 PUSH2 0xC6E JUMP JUMPDEST SWAP6 SWAP5 POP POP POP POP POP JUMP JUMPDEST PUSH32 0x4F776E61626C653A206E6577206F776E657220697320746865207A65726F2061 PUSH1 0x0 DUP3 ADD MSTORE PUSH32 0x6464726573730000000000000000000000000000000000000000000000000000 PUSH1 0x20 DUP3 ADD MSTORE POP JUMP JUMPDEST PUSH1 0x0 PUSH2 0x1417 PUSH1 0x26 DUP4 PUSH2 0xEB8 JUMP JUMPDEST SWAP2 POP PUSH2 0x1422 DUP3 PUSH2 0x13BB JUMP JUMPDEST PUSH1 0x40 DUP3 ADD SWAP1 POP SWAP2 SWAP1 POP JUMP JUMPDEST PUSH1 0x0 PUSH1 0x20 DUP3 ADD SWAP1 POP DUP2 DUP2 SUB PUSH1 0x0 DUP4 ADD MSTORE PUSH2 0x1446 DUP2 PUSH2 0x140A JUMP JUMPDEST SWAP1 POP SWAP2 SWAP1 POP JUMP JUMPDEST PUSH1 0x0 DUP2 SWAP1 POP SWAP3 SWAP2 POP POP JUMP JUMPDEST POP JUMP JUMPDEST PUSH1 0x0 PUSH2 0x1468 PUSH1 0x0 DUP4 PUSH2 0x144D JUMP JUMPDEST SWAP2 POP PUSH2 0x1473 DUP3 PUSH2 0x1458 JUMP JUMPDEST PUSH1 0x0 DUP3 ADD SWAP1 POP SWAP2 SWAP1 POP JUMP JUMPDEST PUSH1 0x0 PUSH2 0x1489 DUP3 PUSH2 0x145B JUMP JUMPDEST SWAP2 POP DUP2 SWAP1 POP SWAP2 SWAP1 POP JUMP JUMPDEST PUSH32 0x4E667445786368616E67653A207769746864726177206572726F722100000000 PUSH1 0x0 DUP3 ADD MSTORE POP JUMP JUMPDEST PUSH1 0x0 PUSH2 0x14C9 PUSH1 0x1C DUP4 PUSH2 0xEB8 JUMP JUMPDEST SWAP2 POP PUSH2 0x14D4 DUP3 PUSH2 0x1493 JUMP JUMPDEST PUSH1 0x20 DUP3 ADD SWAP1 POP SWAP2 SWAP1 POP JUMP JUMPDEST PUSH1 0x0 PUSH1 0x20 DUP3 ADD SWAP1 POP DUP2 DUP2 SUB PUSH1 0x0 DUP4 ADD MSTORE PUSH2 0x14F8 DUP2 PUSH2 0x14BC JUMP JUMPDEST SWAP1 POP SWAP2 SWAP1 POP JUMP JUMPDEST PUSH1 0x0 PUSH1 0x40 DUP3 ADD SWAP1 POP PUSH2 0x1514 PUSH1 0x0 DUP4 ADD DUP6 PUSH2 0xCCA JUMP JUMPDEST PUSH2 0x1521 PUSH1 0x20 DUP4 ADD DUP5 PUSH2 0xC6E JUMP JUMPDEST SWAP4 SWAP3 POP POP POP JUMP JUMPDEST PUSH1 0x0 PUSH2 0x1533 DUP3 PUSH2 0xC64 JUMP JUMPDEST SWAP2 POP PUSH32 0xFFFFFFFFFFFFFFFFFFFFFFFFFFFFFFFFFFFFFFFFFFFFFFFFFFFFFFFFFFFFFFFF DUP3 SUB PUSH2 0x1565 JUMPI PUSH2 0x1564 PUSH2 0x115D JUMP JUMPDEST JUMPDEST PUSH1 0x1 DUP3 ADD SWAP1 POP SWAP2 SWAP1 POP JUMP JUMPDEST PUSH32 0x4E487B7100000000000000000000000000000000000000000000000000000000 PUSH1 0x0 MSTORE PUSH1 0x12 PUSH1 0x4 MSTORE PUSH1 0x24 PUSH1 0x0 REVERT JUMPDEST PUSH1 0x0 PUSH2 0x15AA DUP3 PUSH2 0xC64 JUMP JUMPDEST SWAP2 POP PUSH2 0x15B5 DUP4 PUSH2 0xC64 JUMP JUMPDEST SWAP3 POP DUP3 PUSH2 0x15C5 JUMPI PUSH2 0x15C4 PUSH2 0x1570 JUMP JUMPDEST JUMPDEST DUP3 DUP3 DIV SWAP1 POP SWAP3 SWAP2 POP POP JUMP JUMPDEST PUSH32 0x4E487B7100000000000000000000000000000000000000000000000000000000 PUSH1 0x0 MSTORE PUSH1 0x41 PUSH1 0x4 MSTORE PUSH1 0x24 PUSH1 0x0 REVERT JUMPDEST PUSH1 0x0 PUSH2 0x160A DUP3 PUSH2 0xC64 JUMP JUMPDEST SWAP2 POP PUSH2 0x1615 DUP4 PUSH2 0xC64 JUMP JUMPDEST SWAP3 POP DUP3 DUP3 LT ISZERO PUSH2 0x1628 JUMPI PUSH2 0x1627 PUSH2 0x115D JUMP JUMPDEST JUMPDEST DUP3 DUP3 SUB SWAP1 POP SWAP3 SWAP2 POP POP JUMP JUMPDEST PUSH1 0x0 PUSH2 0x163E DUP3 PUSH2 0xC64 JUMP JUMPDEST SWAP2 POP PUSH2 0x1649 DUP4 PUSH2 0xC64 JUMP JUMPDEST SWAP3 POP DUP3 PUSH2 0x1659 JUMPI PUSH2 0x1658 PUSH2 0x1570 JUMP JUMPDEST JUMPDEST DUP3 DUP3 MOD SWAP1 POP SWAP3 SWAP2 POP POP JUMP JUMPDEST PUSH32 0x4E487B7100000000000000000000000000000000000000000000000000000000 PUSH1 0x0 MSTORE PUSH1 0x32 PUSH1 0x4 MSTORE PUSH1 0x24 PUSH1 0x0 REVERT INVALID LOG2 PUSH5 0x6970667358 0x22 SLT KECCAK256 0xEA SWAP8 SLOAD 0xCB 0xE 0xDC 0x1F 0xBC EXP 0xE0 PC SLOAD 0x1E DUP4 0x2D 0x4B 0xE9 0x28 PUSH22 0x77FD59DCCEF006F1D6E53938F364736F6C634300080D STOP CALLER "
				},
				"gasEstimates": {
					"creation": {
						"codeDepositCost": "1166600",
						"executionCost": "infinite",
						"totalCost": "infinite"
					},
					"external": {
						"buy(uint256)": "infinite",
						"getMinDuration()": "2438",
						"getNftCode()": "infinite",
						"getPrices(uint256)": "infinite",
						"getTimestamp(uint256)": "infinite",
						"owner()": "2567",
						"renounceOwnership()": "30397",
						"sell(uint256,uint256,uint256)": "infinite",
						"transferOwnership(address)": "30786",
						"withdraw(address,uint256)": "infinite"
					}
				},
				"methodIdentifiers": {
					"buy(uint256)": "d96a094a",
					"getMinDuration()": "034d501b",
					"getNftCode()": "8e2c2dfa",
					"getPrices(uint256)": "91492956",
					"getTimestamp(uint256)": "b633620c",
					"owner()": "8da5cb5b",
					"renounceOwnership()": "715018a6",
					"sell(uint256,uint256,uint256)": "d3c9727c",
					"transferOwnership(address)": "f2fde38b",
					"withdraw(address,uint256)": "f3fef3a3"
				}
			},
			"userdoc": {
				"kind": "user",
				"methods": {},
				"version": 1
			}
		}
	}
}