{
  "contractName": "AiToken",
  "abi": [
    {
      "inputs": [],
      "stateMutability": "nonpayable",
      "type": "constructor"
    },
    {
      "anonymous": false,
      "inputs": [
        {
          "indexed": false,
          "internalType": "address",
          "name": "previousAdmin",
          "type": "address"
        },
        {
          "indexed": false,
          "internalType": "address",
          "name": "newAdmin",
          "type": "address"
        }
      ],
      "name": "AdminChanged",
      "type": "event"
    },
    {
      "anonymous": false,
      "inputs": [
        {
          "indexed": true,
          "internalType": "address",
          "name": "owner",
          "type": "address"
        },
        {
          "indexed": true,
          "internalType": "address",
          "name": "approved",
          "type": "address"
        },
        {
          "indexed": true,
          "internalType": "uint256",
          "name": "tokenId",
          "type": "uint256"
        }
      ],
      "name": "Approval",
      "type": "event"
    },
    {
      "anonymous": false,
      "inputs": [
        {
          "indexed": true,
          "internalType": "address",
          "name": "owner",
          "type": "address"
        },
        {
          "indexed": true,
          "internalType": "address",
          "name": "operator",
          "type": "address"
        },
        {
          "indexed": false,
          "internalType": "bool",
          "name": "approved",
          "type": "bool"
        }
      ],
      "name": "ApprovalForAll",
      "type": "event"
    },
    {
      "anonymous": false,
      "inputs": [
        {
          "indexed": true,
          "internalType": "address",
          "name": "beacon",
          "type": "address"
        }
      ],
      "name": "BeaconUpgraded",
      "type": "event"
    },
    {
      "anonymous": false,
      "inputs": [
        {
          "indexed": false,
          "internalType": "uint8",
          "name": "version",
          "type": "uint8"
        }
      ],
      "name": "Initialized",
      "type": "event"
    },
    {
      "anonymous": false,
      "inputs": [
        {
          "indexed": true,
          "internalType": "address",
          "name": "previousOwner",
          "type": "address"
        },
        {
          "indexed": true,
          "internalType": "address",
          "name": "newOwner",
          "type": "address"
        }
      ],
      "name": "OwnershipTransferred",
      "type": "event"
    },
    {
      "anonymous": false,
      "inputs": [
        {
          "indexed": true,
          "internalType": "address",
          "name": "from",
          "type": "address"
        },
        {
          "indexed": true,
          "internalType": "address",
          "name": "to",
          "type": "address"
        },
        {
          "indexed": true,
          "internalType": "uint256",
          "name": "tokenId",
          "type": "uint256"
        }
      ],
      "name": "Transfer",
      "type": "event"
    },
    {
      "anonymous": false,
      "inputs": [
        {
          "indexed": true,
          "internalType": "address",
          "name": "implementation",
          "type": "address"
        }
      ],
      "name": "Upgraded",
      "type": "event"
    },
    {
      "inputs": [
        {
          "internalType": "address",
          "name": "to",
          "type": "address"
        },
        {
          "internalType": "uint256",
          "name": "tokenId",
          "type": "uint256"
        }
      ],
      "name": "approve",
      "outputs": [],
      "stateMutability": "nonpayable",
      "type": "function"
    },
    {
      "inputs": [],
      "name": "b3",
      "outputs": [
        {
          "internalType": "contract IERC1155",
          "name": "",
          "type": "address"
        }
      ],
      "stateMutability": "view",
      "type": "function",
      "constant": true
    },
    {
      "inputs": [
        {
          "internalType": "address",
          "name": "owner",
          "type": "address"
        }
      ],
      "name": "balanceOf",
      "outputs": [
        {
          "internalType": "uint256",
          "name": "",
          "type": "uint256"
        }
      ],
      "stateMutability": "view",
      "type": "function",
      "constant": true
    },
    {
      "inputs": [],
      "name": "baseUri",
      "outputs": [
        {
          "internalType": "string",
          "name": "",
          "type": "string"
        }
      ],
      "stateMutability": "view",
      "type": "function",
      "constant": true
    },
    {
      "inputs": [
        {
          "internalType": "uint256",
          "name": "tokenId",
          "type": "uint256"
        }
      ],
      "name": "getApproved",
      "outputs": [
        {
          "internalType": "address",
          "name": "",
          "type": "address"
        }
      ],
      "stateMutability": "view",
      "type": "function",
      "constant": true
    },
    {
      "inputs": [
        {
          "internalType": "address",
          "name": "owner",
          "type": "address"
        },
        {
          "internalType": "address",
          "name": "operator",
          "type": "address"
        }
      ],
      "name": "isApprovedForAll",
      "outputs": [
        {
          "internalType": "bool",
          "name": "",
          "type": "bool"
        }
      ],
      "stateMutability": "view",
      "type": "function",
      "constant": true
    },
    {
      "inputs": [],
      "name": "name",
      "outputs": [
        {
          "internalType": "string",
          "name": "",
          "type": "string"
        }
      ],
      "stateMutability": "view",
      "type": "function",
      "constant": true
    },
    {
      "inputs": [],
      "name": "owner",
      "outputs": [
        {
          "internalType": "address",
          "name": "",
          "type": "address"
        }
      ],
      "stateMutability": "view",
      "type": "function",
      "constant": true
    },
    {
      "inputs": [
        {
          "internalType": "uint256",
          "name": "tokenId",
          "type": "uint256"
        }
      ],
      "name": "ownerOf",
      "outputs": [
        {
          "internalType": "address",
          "name": "",
          "type": "address"
        }
      ],
      "stateMutability": "view",
      "type": "function",
      "constant": true
    },
    {
      "inputs": [],
      "name": "proxiableUUID",
      "outputs": [
        {
          "internalType": "bytes32",
          "name": "",
          "type": "bytes32"
        }
      ],
      "stateMutability": "view",
      "type": "function",
      "constant": true
    },
    {
      "inputs": [],
      "name": "renounceOwnership",
      "outputs": [],
      "stateMutability": "nonpayable",
      "type": "function"
    },
    {
      "inputs": [
        {
          "internalType": "address",
          "name": "from",
          "type": "address"
        },
        {
          "internalType": "address",
          "name": "to",
          "type": "address"
        },
        {
          "internalType": "uint256",
          "name": "tokenId",
          "type": "uint256"
        }
      ],
      "name": "safeTransferFrom",
      "outputs": [],
      "stateMutability": "nonpayable",
      "type": "function"
    },
    {
      "inputs": [
        {
          "internalType": "address",
          "name": "from",
          "type": "address"
        },
        {
          "internalType": "address",
          "name": "to",
          "type": "address"
        },
        {
          "internalType": "uint256",
          "name": "tokenId",
          "type": "uint256"
        },
        {
          "internalType": "bytes",
          "name": "data",
          "type": "bytes"
        }
      ],
      "name": "safeTransferFrom",
      "outputs": [],
      "stateMutability": "nonpayable",
      "type": "function"
    },
    {
      "inputs": [
        {
          "internalType": "address",
          "name": "operator",
          "type": "address"
        },
        {
          "internalType": "bool",
          "name": "approved",
          "type": "bool"
        }
      ],
      "name": "setApprovalForAll",
      "outputs": [],
      "stateMutability": "nonpayable",
      "type": "function"
    },
    {
      "inputs": [],
      "name": "symbol",
      "outputs": [
        {
          "internalType": "string",
          "name": "",
          "type": "string"
        }
      ],
      "stateMutability": "view",
      "type": "function",
      "constant": true
    },
    {
      "inputs": [
        {
          "internalType": "address",
          "name": "from",
          "type": "address"
        },
        {
          "internalType": "address",
          "name": "to",
          "type": "address"
        },
        {
          "internalType": "uint256",
          "name": "tokenId",
          "type": "uint256"
        }
      ],
      "name": "transferFrom",
      "outputs": [],
      "stateMutability": "nonpayable",
      "type": "function"
    },
    {
      "inputs": [
        {
          "internalType": "address",
          "name": "newOwner",
          "type": "address"
        }
      ],
      "name": "transferOwnership",
      "outputs": [],
      "stateMutability": "nonpayable",
      "type": "function"
    },
    {
      "inputs": [
        {
          "internalType": "address",
          "name": "newImplementation",
          "type": "address"
        }
      ],
      "name": "upgradeTo",
      "outputs": [],
      "stateMutability": "nonpayable",
      "type": "function"
    },
    {
      "inputs": [
        {
          "internalType": "address",
          "name": "newImplementation",
          "type": "address"
        },
        {
          "internalType": "bytes",
          "name": "data",
          "type": "bytes"
        }
      ],
      "name": "upgradeToAndCall",
      "outputs": [],
      "stateMutability": "payable",
      "type": "function",
      "payable": true
    },
    {
      "inputs": [],
      "name": "getVersion",
      "outputs": [
        {
          "internalType": "uint256",
          "name": "version",
          "type": "uint256"
        }
      ],
      "stateMutability": "pure",
      "type": "function",
      "constant": true
    },
    {
      "inputs": [],
      "name": "initialize",
      "outputs": [],
      "stateMutability": "nonpayable",
      "type": "function"
    },
    {
      "inputs": [
        {
          "internalType": "string",
          "name": "uri",
          "type": "string"
        }
      ],
      "name": "setBaseUri",
      "outputs": [],
      "stateMutability": "nonpayable",
      "type": "function"
    },
    {
      "inputs": [
        {
          "internalType": "contract IERC1155",
          "name": "nft",
          "type": "address"
        }
      ],
      "name": "setB3",
      "outputs": [],
      "stateMutability": "nonpayable",
      "type": "function"
    },
    {
      "inputs": [
        {
          "internalType": "uint256",
          "name": "id",
          "type": "uint256"
        }
      ],
      "name": "convertB3Nft",
      "outputs": [],
      "stateMutability": "nonpayable",
      "type": "function"
    },
    {
      "inputs": [
        {
          "internalType": "address",
          "name": "to",
          "type": "address"
        },
        {
          "internalType": "string",
          "name": "uri",
          "type": "string"
        }
      ],
      "name": "safeMint",
      "outputs": [],
      "stateMutability": "nonpayable",
      "type": "function"
    },
    {
      "inputs": [
        {
          "internalType": "uint256",
          "name": "tokenId",
          "type": "uint256"
        }
      ],
      "name": "tokenURI",
      "outputs": [
        {
          "internalType": "string",
          "name": "",
          "type": "string"
        }
      ],
      "stateMutability": "view",
      "type": "function",
      "constant": true
    },
    {
      "inputs": [
        {
          "internalType": "address",
          "name": "operator",
          "type": "address"
        },
        {
          "internalType": "address",
          "name": "from",
          "type": "address"
        },
        {
          "internalType": "uint256",
          "name": "id",
          "type": "uint256"
        },
        {
          "internalType": "uint256",
          "name": "value",
          "type": "uint256"
        },
        {
          "internalType": "bytes",
          "name": "data",
          "type": "bytes"
        }
      ],
      "name": "onERC1155Received",
      "outputs": [
        {
          "internalType": "bytes4",
          "name": "",
          "type": "bytes4"
        }
      ],
      "stateMutability": "nonpayable",
      "type": "function"
    },
    {
      "inputs": [
        {
          "internalType": "address",
          "name": "operator",
          "type": "address"
        },
        {
          "internalType": "address",
          "name": "from",
          "type": "address"
        },
        {
          "internalType": "uint256[]",
          "name": "ids",
          "type": "uint256[]"
        },
        {
          "internalType": "uint256[]",
          "name": "values",
          "type": "uint256[]"
        },
        {
          "internalType": "bytes",
          "name": "data",
          "type": "bytes"
        }
      ],
      "name": "onERC1155BatchReceived",
      "outputs": [
        {
          "internalType": "bytes4",
          "name": "",
          "type": "bytes4"
        }
      ],
      "stateMutability": "nonpayable",
      "type": "function"
    },
    {
      "inputs": [
        {
          "internalType": "bytes4",
          "name": "interfaceId",
          "type": "bytes4"
        }
      ],
      "name": "supportsInterface",
      "outputs": [
        {
          "internalType": "bool",
          "name": "",
          "type": "bool"
        }
      ],
      "stateMutability": "view",
      "type": "function",
      "constant": true
    }
  ],
  "bytecode": "0x60a06040523073ffffffffffffffffffffffffffffffffffffffff1660809073ffffffffffffffffffffffffffffffffffffffff168152503480156200004457600080fd5b50620000556200005b60201b60201c565b62000206565b600060019054906101000a900460ff1615620000ae576040517f08c379a0000000000000000000000000000000000000000000000000000000008152600401620000a590620001a9565b60405180910390fd5b60ff801660008054906101000a900460ff1660ff161015620001205760ff6000806101000a81548160ff021916908360ff1602179055507f7f26b83ff96e1f2b6a682f133852f6798a09c465da95921460cefb384740249860ff604051620001179190620001e9565b60405180910390a15b565b600082825260208201905092915050565b7f496e697469616c697a61626c653a20636f6e747261637420697320696e69746960008201527f616c697a696e6700000000000000000000000000000000000000000000000000602082015250565b60006200019160278362000122565b91506200019e8262000133565b604082019050919050565b60006020820190508181036000830152620001c48162000182565b9050919050565b600060ff82169050919050565b620001e381620001cb565b82525050565b6000602082019050620002006000830184620001d8565b92915050565b608051614b7e6200023e60003960008181610955015281816109e301528181610afd01528181610b8b0152610c3b0152614b7e6000f3fe6080604052600436106101c25760003560e01c80638da5cb5b116100f7578063b88d4fde11610095578063e985e9c511610064578063e985e9c51461061b578063e9b6190914610658578063f23a6e6114610683578063f2fde38b146106c0576101c2565b8063b88d4fde1461054f578063bc197c8114610578578063c87b56dd146105b5578063d204c45e146105f2576101c2565b80639abc8320116100d15780639abc8320146104a9578063a0bcfc7f146104d4578063a22cb465146104fd578063ac15529414610526576101c2565b80638da5cb5b1461042a578063959e67da1461045557806395d89b411461047e576101c2565b806342842e0e116101645780636352211e1161013e5780636352211e1461038257806370a08231146103bf578063715018a6146103fc5780638129fc1c14610413576101c2565b806342842e0e146103125780634f1ef2861461033b57806352d1902d14610357576101c2565b8063095ea7b3116101a0578063095ea7b31461026c5780630d8e6e2c1461029557806323b872dd146102c05780633659cfe6146102e9576101c2565b806301ffc9a7146101c757806306fdde0314610204578063081812fc1461022f575b600080fd5b3480156101d357600080fd5b506101ee60048036038101906101e99190612e6b565b6106e9565b6040516101fb9190612eb3565b60405180910390f35b34801561021057600080fd5b506102196106fb565b6040516102269190612f67565b60405180910390f35b34801561023b57600080fd5b5061025660048036038101906102519190612fbf565b61078d565b604051610263919061302d565b60405180910390f35b34801561027857600080fd5b50610293600480360381019061028e9190613074565b6107d3565b005b3480156102a157600080fd5b506102aa6108ea565b6040516102b791906130c3565b60405180910390f35b3480156102cc57600080fd5b506102e760048036038101906102e291906130de565b6108f3565b005b3480156102f557600080fd5b50610310600480360381019061030b9190613131565b610953565b005b34801561031e57600080fd5b50610339600480360381019061033491906130de565b610adb565b005b61035560048036038101906103509190613293565b610afb565b005b34801561036357600080fd5b5061036c610c37565b6040516103799190613308565b60405180910390f35b34801561038e57600080fd5b506103a960048036038101906103a49190612fbf565b610cf0565b6040516103b6919061302d565b60405180910390f35b3480156103cb57600080fd5b506103e660048036038101906103e19190613131565b610da1565b6040516103f391906130c3565b60405180910390f35b34801561040857600080fd5b50610411610e58565b005b34801561041f57600080fd5b50610428610e6c565b005b34801561043657600080fd5b5061043f61102e565b60405161044c919061302d565b60405180910390f35b34801561046157600080fd5b5061047c60048036038101906104779190612fbf565b611058565b005b34801561048a57600080fd5b50610493611246565b6040516104a09190612f67565b60405180910390f35b3480156104b557600080fd5b506104be6112d8565b6040516104cb9190612f67565b60405180910390f35b3480156104e057600080fd5b506104fb60048036038101906104f691906133c4565b611367565b005b34801561050957600080fd5b50610524600480360381019061051f9190613439565b61138a565b005b34801561053257600080fd5b5061054d600480360381019061054891906134b7565b6113a0565b005b34801561055b57600080fd5b50610576600480360381019061057191906134e4565b6113ed565b005b34801561058457600080fd5b5061059f600480360381019061059a919061361d565b61144f565b6040516105ac9190613708565b60405180910390f35b3480156105c157600080fd5b506105dc60048036038101906105d79190612fbf565b611467565b6040516105e99190612f67565b60405180910390f35b3480156105fe57600080fd5b5061061960048036038101906106149190613723565b611479565b005b34801561062757600080fd5b50610642600480360381019061063d919061377f565b6114b4565b60405161064f9190612eb3565b60405180910390f35b34801561066457600080fd5b5061066d611548565b60405161067a919061381e565b60405180910390f35b34801561068f57600080fd5b506106aa60048036038101906106a59190613839565b61156f565b6040516106b79190613708565b60405180910390f35b3480156106cc57600080fd5b506106e760048036038101906106e29190613131565b611585565b005b60006106f482611608565b9050919050565b60606065805461070a90613902565b80601f016020809104026020016040519081016040528092919081815260200182805461073690613902565b80156107835780601f1061075857610100808354040283529160200191610783565b820191906000526020600020905b81548152906001019060200180831161076657829003601f168201915b5050505050905090565b6000610798826116ea565b6069600083815260200190815260200160002060009054906101000a900473ffffffffffffffffffffffffffffffffffffffff169050919050565b60006107de82610cf0565b90508073ffffffffffffffffffffffffffffffffffffffff168373ffffffffffffffffffffffffffffffffffffffff160361084e576040517f08c379a0000000000000000000000000000000000000000000000000000000008152600401610845906139a5565b60405180910390fd5b8073ffffffffffffffffffffffffffffffffffffffff1661086d611735565b73ffffffffffffffffffffffffffffffffffffffff16148061089c575061089b81610896611735565b6114b4565b5b6108db576040517f08c379a00000000000000000000000000000000000000000000000000000000081526004016108d290613a37565b60405180910390fd5b6108e5838361173d565b505050565b60006001905090565b6109046108fe611735565b826117f6565b610943576040517f08c379a000000000000000000000000000000000000000000000000000000000815260040161093a90613ac9565b60405180910390fd5b61094e83838361188b565b505050565b7f000000000000000000000000000000000000000000000000000000000000000073ffffffffffffffffffffffffffffffffffffffff163073ffffffffffffffffffffffffffffffffffffffff16036109e1576040517f08c379a00000000000000000000000000000000000000000000000000000000081526004016109d890613b5b565b60405180910390fd5b7f000000000000000000000000000000000000000000000000000000000000000073ffffffffffffffffffffffffffffffffffffffff16610a20611af1565b73ffffffffffffffffffffffffffffffffffffffff1614610a76576040517f08c379a0000000000000000000000000000000000000000000000000000000008152600401610a6d90613bed565b60405180910390fd5b610a7f81611b48565b610ad881600067ffffffffffffffff811115610a9e57610a9d613168565b5b6040519080825280601f01601f191660200182016040528015610ad05781602001600182028036833780820191505090505b506000611b53565b50565b610af6838383604051806020016040528060008152506113ed565b505050565b7f000000000000000000000000000000000000000000000000000000000000000073ffffffffffffffffffffffffffffffffffffffff163073ffffffffffffffffffffffffffffffffffffffff1603610b89576040517f08c379a0000000000000000000000000000000000000000000000000000000008152600401610b8090613b5b565b60405180910390fd5b7f000000000000000000000000000000000000000000000000000000000000000073ffffffffffffffffffffffffffffffffffffffff16610bc8611af1565b73ffffffffffffffffffffffffffffffffffffffff1614610c1e576040517f08c379a0000000000000000000000000000000000000000000000000000000008152600401610c1590613bed565b60405180910390fd5b610c2782611b48565b610c3382826001611b53565b5050565b60007f000000000000000000000000000000000000000000000000000000000000000073ffffffffffffffffffffffffffffffffffffffff163073ffffffffffffffffffffffffffffffffffffffff1614610cc7576040517f08c379a0000000000000000000000000000000000000000000000000000000008152600401610cbe90613c7f565b60405180910390fd5b7f360894a13ba1a3210667c828492db98dca3e2076cc3735a920a3ca505d382bbc60001b905090565b6000806067600084815260200190815260200160002060009054906101000a900473ffffffffffffffffffffffffffffffffffffffff169050600073ffffffffffffffffffffffffffffffffffffffff168173ffffffffffffffffffffffffffffffffffffffff1603610d98576040517f08c379a0000000000000000000000000000000000000000000000000000000008152600401610d8f90613ceb565b60405180910390fd5b80915050919050565b60008073ffffffffffffffffffffffffffffffffffffffff168273ffffffffffffffffffffffffffffffffffffffff1603610e11576040517f08c379a0000000000000000000000000000000000000000000000000000000008152600401610e0890613d7d565b60405180910390fd5b606860008373ffffffffffffffffffffffffffffffffffffffff1673ffffffffffffffffffffffffffffffffffffffff168152602001908152602001600020549050919050565b610e60611cc1565b610e6a6000611d3f565b565b60008060019054906101000a900460ff16159050808015610e9d5750600160008054906101000a900460ff1660ff16105b80610eca5750610eac30611e05565b158015610ec95750600160008054906101000a900460ff1660ff16145b5b610f09576040517f08c379a0000000000000000000000000000000000000000000000000000000008152600401610f0090613e0f565b60405180910390fd5b60016000806101000a81548160ff021916908360ff1602179055508015610f46576001600060016101000a81548160ff0219169083151502179055505b610fba6040518060400160405280600781526020017f4169546f6b656e000000000000000000000000000000000000000000000000008152506040518060400160405280600381526020017f4149540000000000000000000000000000000000000000000000000000000000815250611e28565b610fc2611e85565b610fca611ed6565b610fd2611f2f565b801561102b5760008060016101000a81548160ff0219169083151502179055507f7f26b83ff96e1f2b6a682f133852f6798a09c465da95921460cefb384740249860016040516110229190613e77565b60405180910390a15b50565b600060c960009054906101000a900473ffffffffffffffffffffffffffffffffffffffff16905090565b600061016160009054906101000a900473ffffffffffffffffffffffffffffffffffffffff1673ffffffffffffffffffffffffffffffffffffffff1662fdd58e33846040518363ffffffff1660e01b81526004016110b7929190613e92565b602060405180830381865afa1580156110d4573d6000803e3d6000fd5b505050506040513d601f19601f820116820180604052508101906110f89190613ed0565b905060005b818110156111ad5761119a33610160805461111790613902565b80601f016020809104026020016040519081016040528092919081815260200182805461114390613902565b80156111905780601f1061116557610100808354040283529160200191611190565b820191906000526020600020905b81548152906001019060200180831161117357829003601f168201915b5050505050611479565b80806111a590613f2c565b9150506110fd565b5061016160009054906101000a900473ffffffffffffffffffffffffffffffffffffffff1673ffffffffffffffffffffffffffffffffffffffff1663f242432a333085856040518563ffffffff1660e01b81526004016112109493929190613fab565b600060405180830381600087803b15801561122a57600080fd5b505af115801561123e573d6000803e3d6000fd5b505050505050565b60606066805461125590613902565b80601f016020809104026020016040519081016040528092919081815260200182805461128190613902565b80156112ce5780601f106112a3576101008083540402835291602001916112ce565b820191906000526020600020905b8154815290600101906020018083116112b157829003601f168201915b5050505050905090565b61016080546112e690613902565b80601f016020809104026020016040519081016040528092919081815260200182805461131290613902565b801561135f5780601f106113345761010080835404028352916020019161135f565b820191906000526020600020905b81548152906001019060200180831161134257829003601f168201915b505050505081565b61136f611cc1565b806101609080519060200190611386929190612d5c565b5050565b61139c611395611735565b8383611f80565b5050565b6113a8611cc1565b8061016160006101000a81548173ffffffffffffffffffffffffffffffffffffffff021916908373ffffffffffffffffffffffffffffffffffffffff16021790555050565b6113fe6113f8611735565b836117f6565b61143d576040517f08c379a000000000000000000000000000000000000000000000000000000000815260040161143490613ac9565b60405180910390fd5b611449848484846120ec565b50505050565b600063bc197c8160e01b905098975050505050505050565b606061147282612148565b9050919050565b611481611cc1565b600061148e61015f6122a0565b905061149b61015f6122ae565b6114a583826122c4565b6114af81836122e2565b505050565b6000606a60008473ffffffffffffffffffffffffffffffffffffffff1673ffffffffffffffffffffffffffffffffffffffff16815260200190815260200160002060008373ffffffffffffffffffffffffffffffffffffffff1673ffffffffffffffffffffffffffffffffffffffff16815260200190815260200160002060009054906101000a900460ff16905092915050565b61016160009054906101000a900473ffffffffffffffffffffffffffffffffffffffff1681565b600063f23a6e6160e01b90509695505050505050565b61158d611cc1565b600073ffffffffffffffffffffffffffffffffffffffff168173ffffffffffffffffffffffffffffffffffffffff16036115fc576040517f08c379a00000000000000000000000000000000000000000000000000000000081526004016115f390614075565b60405180910390fd5b61160581611d3f565b50565b60007f80ac58cd000000000000000000000000000000000000000000000000000000007bffffffffffffffffffffffffffffffffffffffffffffffffffffffff1916827bffffffffffffffffffffffffffffffffffffffffffffffffffffffff191614806116d357507f5b5e139f000000000000000000000000000000000000000000000000000000007bffffffffffffffffffffffffffffffffffffffffffffffffffffffff1916827bffffffffffffffffffffffffffffffffffffffffffffffffffffffff1916145b806116e357506116e282612356565b5b9050919050565b6116f3816123c0565b611732576040517f08c379a000000000000000000000000000000000000000000000000000000000815260040161172990613ceb565b60405180910390fd5b50565b600033905090565b816069600083815260200190815260200160002060006101000a81548173ffffffffffffffffffffffffffffffffffffffff021916908373ffffffffffffffffffffffffffffffffffffffff160217905550808273ffffffffffffffffffffffffffffffffffffffff166117b083610cf0565b73ffffffffffffffffffffffffffffffffffffffff167f8c5be1e5ebec7d5bd14f71427d1e84f3dd0314c0f7b2291e5b200ac8c7c3b92560405160405180910390a45050565b60008061180283610cf0565b90508073ffffffffffffffffffffffffffffffffffffffff168473ffffffffffffffffffffffffffffffffffffffff161480611844575061184381856114b4565b5b8061188257508373ffffffffffffffffffffffffffffffffffffffff1661186a8461078d565b73ffffffffffffffffffffffffffffffffffffffff16145b91505092915050565b8273ffffffffffffffffffffffffffffffffffffffff166118ab82610cf0565b73ffffffffffffffffffffffffffffffffffffffff1614611901576040517f08c379a00000000000000000000000000000000000000000000000000000000081526004016118f890614107565b60405180910390fd5b600073ffffffffffffffffffffffffffffffffffffffff168273ffffffffffffffffffffffffffffffffffffffff1603611970576040517f08c379a000000000000000000000000000000000000000000000000000000000815260040161196790614199565b60405180910390fd5b61197b83838361242c565b61198660008261173d565b6001606860008573ffffffffffffffffffffffffffffffffffffffff1673ffffffffffffffffffffffffffffffffffffffff16815260200190815260200160002060008282546119d691906141b9565b925050819055506001606860008473ffffffffffffffffffffffffffffffffffffffff1673ffffffffffffffffffffffffffffffffffffffff1681526020019081526020016000206000828254611a2d91906141ed565b92505081905550816067600083815260200190815260200160002060006101000a81548173ffffffffffffffffffffffffffffffffffffffff021916908373ffffffffffffffffffffffffffffffffffffffff160217905550808273ffffffffffffffffffffffffffffffffffffffff168473ffffffffffffffffffffffffffffffffffffffff167fddf252ad1be2c89b69c2b068fc378daa952ba7f163c4a11628f55a4df523b3ef60405160405180910390a4611aec838383612431565b505050565b6000611b1f7f360894a13ba1a3210667c828492db98dca3e2076cc3735a920a3ca505d382bbc60001b612436565b60000160009054906101000a900473ffffffffffffffffffffffffffffffffffffffff16905090565b611b50611cc1565b50565b611b7f7f4910fdfa16fed3260ed0e7147f7cc6da11a60208b5b9406d12a635614ffd914360001b612440565b60000160009054906101000a900460ff1615611ba357611b9e8361244a565b611cbc565b8273ffffffffffffffffffffffffffffffffffffffff166352d1902d6040518163ffffffff1660e01b8152600401602060405180830381865afa925050508015611c0b57506040513d601f19601f82011682018060405250810190611c08919061426f565b60015b611c4a576040517f08c379a0000000000000000000000000000000000000000000000000000000008152600401611c419061430e565b60405180910390fd5b7f360894a13ba1a3210667c828492db98dca3e2076cc3735a920a3ca505d382bbc60001b8114611caf576040517f08c379a0000000000000000000000000000000000000000000000000000000008152600401611ca6906143a0565b60405180910390fd5b50611cbb838383612503565b5b505050565b611cc9611735565b73ffffffffffffffffffffffffffffffffffffffff16611ce761102e565b73ffffffffffffffffffffffffffffffffffffffff1614611d3d576040517f08c379a0000000000000000000000000000000000000000000000000000000008152600401611d349061440c565b60405180910390fd5b565b600060c960009054906101000a900473ffffffffffffffffffffffffffffffffffffffff1690508160c960006101000a81548173ffffffffffffffffffffffffffffffffffffffff021916908373ffffffffffffffffffffffffffffffffffffffff1602179055508173ffffffffffffffffffffffffffffffffffffffff168173ffffffffffffffffffffffffffffffffffffffff167f8be0079c531659141344cd1fd0a4f28419497f9722a3daafe3b4186f6b6457e060405160405180910390a35050565b6000808273ffffffffffffffffffffffffffffffffffffffff163b119050919050565b600060019054906101000a900460ff16611e77576040517f08c379a0000000000000000000000000000000000000000000000000000000008152600401611e6e9061449e565b60405180910390fd5b611e81828261252f565b5050565b600060019054906101000a900460ff16611ed4576040517f08c379a0000000000000000000000000000000000000000000000000000000008152600401611ecb9061449e565b60405180910390fd5b565b600060019054906101000a900460ff16611f25576040517f08c379a0000000000000000000000000000000000000000000000000000000008152600401611f1c9061449e565b60405180910390fd5b611f2d6125b0565b565b600060019054906101000a900460ff16611f7e576040517f08c379a0000000000000000000000000000000000000000000000000000000008152600401611f759061449e565b60405180910390fd5b565b8173ffffffffffffffffffffffffffffffffffffffff168373ffffffffffffffffffffffffffffffffffffffff1603611fee576040517f08c379a0000000000000000000000000000000000000000000000000000000008152600401611fe59061450a565b60405180910390fd5b80606a60008573ffffffffffffffffffffffffffffffffffffffff1673ffffffffffffffffffffffffffffffffffffffff16815260200190815260200160002060008473ffffffffffffffffffffffffffffffffffffffff1673ffffffffffffffffffffffffffffffffffffffff16815260200190815260200160002060006101000a81548160ff0219169083151502179055508173ffffffffffffffffffffffffffffffffffffffff168373ffffffffffffffffffffffffffffffffffffffff167f17307eab39ab6107e8899845ad3d59bd9653f200f220920489ca2b5937696c31836040516120df9190612eb3565b60405180910390a3505050565b6120f784848461188b565b61210384848484612611565b612142576040517f08c379a00000000000000000000000000000000000000000000000000000000081526004016121399061459c565b60405180910390fd5b50505050565b6060612153826123c0565b612192576040517f08c379a00000000000000000000000000000000000000000000000000000000081526004016121899061462e565b60405180910390fd5b60006097600084815260200190815260200160002080546121b290613902565b80601f01602080910402602001604051908101604052809291908181526020018280546121de90613902565b801561222b5780601f106122005761010080835404028352916020019161222b565b820191906000526020600020905b81548152906001019060200180831161220e57829003601f168201915b50505050509050600061223c612798565b9050600081510361225157819250505061229b565b60008251111561228d576122636127af565b8260405160200161227592919061468a565b6040516020818303038152906040529250505061229b565b612296846127c6565b925050505b919050565b600081600001549050919050565b6001816000016000828254019250508190555050565b6122de82826040518060200160405280600081525061282e565b5050565b6122eb826123c0565b61232a576040517f08c379a000000000000000000000000000000000000000000000000000000000815260040161232190614720565b60405180910390fd5b80609760008481526020019081526020016000209080519060200190612351929190612d5c565b505050565b60007f01ffc9a7000000000000000000000000000000000000000000000000000000007bffffffffffffffffffffffffffffffffffffffffffffffffffffffff1916827bffffffffffffffffffffffffffffffffffffffffffffffffffffffff1916149050919050565b60008073ffffffffffffffffffffffffffffffffffffffff166067600084815260200190815260200160002060009054906101000a900473ffffffffffffffffffffffffffffffffffffffff1673ffffffffffffffffffffffffffffffffffffffff1614159050919050565b505050565b505050565b6000819050919050565b6000819050919050565b61245381611e05565b612492576040517f08c379a0000000000000000000000000000000000000000000000000000000008152600401612489906147b2565b60405180910390fd5b806124bf7f360894a13ba1a3210667c828492db98dca3e2076cc3735a920a3ca505d382bbc60001b612436565b60000160006101000a81548173ffffffffffffffffffffffffffffffffffffffff021916908373ffffffffffffffffffffffffffffffffffffffff16021790555050565b61250c83612889565b6000825111806125195750805b1561252a5761252883836128d8565b505b505050565b600060019054906101000a900460ff1661257e576040517f08c379a00000000000000000000000000000000000000000000000000000000081526004016125759061449e565b60405180910390fd5b8160659080519060200190612594929190612d5c565b5080606690805190602001906125ab929190612d5c565b505050565b600060019054906101000a900460ff166125ff576040517f08c379a00000000000000000000000000000000000000000000000000000000081526004016125f69061449e565b60405180910390fd5b61260f61260a611735565b611d3f565b565b60006126328473ffffffffffffffffffffffffffffffffffffffff16611e05565b1561278b578373ffffffffffffffffffffffffffffffffffffffff1663150b7a0261265b611735565b8786866040518563ffffffff1660e01b815260040161267d9493929190614816565b6020604051808303816000875af19250505080156126b957506040513d601f19601f820116820180604052508101906126b69190614877565b60015b61273b573d80600081146126e9576040519150601f19603f3d011682016040523d82523d6000602084013e6126ee565b606091505b506000815103612733576040517f08c379a000000000000000000000000000000000000000000000000000000000815260040161272a9061459c565b60405180910390fd5b805181602001fd5b63150b7a0260e01b7bffffffffffffffffffffffffffffffffffffffffffffffffffffffff1916817bffffffffffffffffffffffffffffffffffffffffffffffffffffffff191614915050612790565b600190505b949350505050565b606060405180602001604052806000815250905090565b606060405180602001604052806000815250905090565b60606127d1826116ea565b60006127db612798565b905060008151116127fb5760405180602001604052806000815250612826565b80612805846129bc565b60405160200161281692919061468a565b6040516020818303038152906040525b915050919050565b6128388383612b1c565b6128456000848484612611565b612884576040517f08c379a000000000000000000000000000000000000000000000000000000000815260040161287b9061459c565b60405180910390fd5b505050565b6128928161244a565b8073ffffffffffffffffffffffffffffffffffffffff167fbc7cd75a20ee27fd9adebab32041f755214dbc6bffa90cc0225b39da2e5c2d3b60405160405180910390a250565b60606128e383611e05565b612922576040517f08c379a000000000000000000000000000000000000000000000000000000000815260040161291990614916565b60405180910390fd5b6000808473ffffffffffffffffffffffffffffffffffffffff168460405161294a9190614972565b600060405180830381855af49150503d8060008114612985576040519150601f19603f3d011682016040523d82523d6000602084013e61298a565b606091505b50915091506129b28282604051806060016040528060278152602001614b2260279139612cf5565b9250505092915050565b606060008203612a03576040518060400160405280600181526020017f30000000000000000000000000000000000000000000000000000000000000008152509050612b17565b600082905060005b60008214612a35578080612a1e90613f2c565b915050600a82612a2e91906149b8565b9150612a0b565b60008167ffffffffffffffff811115612a5157612a50613168565b5b6040519080825280601f01601f191660200182016040528015612a835781602001600182028036833780820191505090505b5090505b60008514612b1057600182612a9c91906141b9565b9150600a85612aab91906149e9565b6030612ab791906141ed565b60f81b818381518110612acd57612acc614a1a565b5b60200101907effffffffffffffffffffffffffffffffffffffffffffffffffffffffffffff1916908160001a905350600a85612b0991906149b8565b9450612a87565b8093505050505b919050565b600073ffffffffffffffffffffffffffffffffffffffff168273ffffffffffffffffffffffffffffffffffffffff1603612b8b576040517f08c379a0000000000000000000000000000000000000000000000000000000008152600401612b8290614a95565b60405180910390fd5b612b94816123c0565b15612bd4576040517f08c379a0000000000000000000000000000000000000000000000000000000008152600401612bcb90614b01565b60405180910390fd5b612be06000838361242c565b6001606860008473ffffffffffffffffffffffffffffffffffffffff1673ffffffffffffffffffffffffffffffffffffffff1681526020019081526020016000206000828254612c3091906141ed565b92505081905550816067600083815260200190815260200160002060006101000a81548173ffffffffffffffffffffffffffffffffffffffff021916908373ffffffffffffffffffffffffffffffffffffffff160217905550808273ffffffffffffffffffffffffffffffffffffffff16600073ffffffffffffffffffffffffffffffffffffffff167fddf252ad1be2c89b69c2b068fc378daa952ba7f163c4a11628f55a4df523b3ef60405160405180910390a4612cf160008383612431565b5050565b60608315612d0557829050612d55565b600083511115612d185782518084602001fd5b816040517f08c379a0000000000000000000000000000000000000000000000000000000008152600401612d4c9190612f67565b60405180910390fd5b9392505050565b828054612d6890613902565b90600052602060002090601f016020900481019282612d8a5760008555612dd1565b82601f10612da357805160ff1916838001178555612dd1565b82800160010185558215612dd1579182015b82811115612dd0578251825591602001919060010190612db5565b5b509050612dde9190612de2565b5090565b5b80821115612dfb576000816000905550600101612de3565b5090565b6000604051905090565b600080fd5b600080fd5b60007fffffffff0000000000000000000000000000000000000000000000000000000082169050919050565b612e4881612e13565b8114612e5357600080fd5b50565b600081359050612e6581612e3f565b92915050565b600060208284031215612e8157612e80612e09565b5b6000612e8f84828501612e56565b91505092915050565b60008115159050919050565b612ead81612e98565b82525050565b6000602082019050612ec86000830184612ea4565b92915050565b600081519050919050565b600082825260208201905092915050565b60005b83811015612f08578082015181840152602081019050612eed565b83811115612f17576000848401525b50505050565b6000601f19601f8301169050919050565b6000612f3982612ece565b612f438185612ed9565b9350612f53818560208601612eea565b612f5c81612f1d565b840191505092915050565b60006020820190508181036000830152612f818184612f2e565b905092915050565b6000819050919050565b612f9c81612f89565b8114612fa757600080fd5b50565b600081359050612fb981612f93565b92915050565b600060208284031215612fd557612fd4612e09565b5b6000612fe384828501612faa565b91505092915050565b600073ffffffffffffffffffffffffffffffffffffffff82169050919050565b600061301782612fec565b9050919050565b6130278161300c565b82525050565b6000602082019050613042600083018461301e565b92915050565b6130518161300c565b811461305c57600080fd5b50565b60008135905061306e81613048565b92915050565b6000806040838503121561308b5761308a612e09565b5b60006130998582860161305f565b92505060206130aa85828601612faa565b9150509250929050565b6130bd81612f89565b82525050565b60006020820190506130d860008301846130b4565b92915050565b6000806000606084860312156130f7576130f6612e09565b5b60006131058682870161305f565b93505060206131168682870161305f565b925050604061312786828701612faa565b9150509250925092565b60006020828403121561314757613146612e09565b5b60006131558482850161305f565b91505092915050565b600080fd5b600080fd5b7f4e487b7100000000000000000000000000000000000000000000000000000000600052604160045260246000fd5b6131a082612f1d565b810181811067ffffffffffffffff821117156131bf576131be613168565b5b80604052505050565b60006131d2612dff565b90506131de8282613197565b919050565b600067ffffffffffffffff8211156131fe576131fd613168565b5b61320782612f1d565b9050602081019050919050565b82818337600083830152505050565b6000613236613231846131e3565b6131c8565b90508281526020810184848401111561325257613251613163565b5b61325d848285613214565b509392505050565b600082601f83011261327a5761327961315e565b5b813561328a848260208601613223565b91505092915050565b600080604083850312156132aa576132a9612e09565b5b60006132b88582860161305f565b925050602083013567ffffffffffffffff8111156132d9576132d8612e0e565b5b6132e585828601613265565b9150509250929050565b6000819050919050565b613302816132ef565b82525050565b600060208201905061331d60008301846132f9565b92915050565b600067ffffffffffffffff82111561333e5761333d613168565b5b61334782612f1d565b9050602081019050919050565b600061336761336284613323565b6131c8565b90508281526020810184848401111561338357613382613163565b5b61338e848285613214565b509392505050565b600082601f8301126133ab576133aa61315e565b5b81356133bb848260208601613354565b91505092915050565b6000602082840312156133da576133d9612e09565b5b600082013567ffffffffffffffff8111156133f8576133f7612e0e565b5b61340484828501613396565b91505092915050565b61341681612e98565b811461342157600080fd5b50565b6000813590506134338161340d565b92915050565b600080604083850312156134505761344f612e09565b5b600061345e8582860161305f565b925050602061346f85828601613424565b9150509250929050565b60006134848261300c565b9050919050565b61349481613479565b811461349f57600080fd5b50565b6000813590506134b18161348b565b92915050565b6000602082840312156134cd576134cc612e09565b5b60006134db848285016134a2565b91505092915050565b600080600080608085870312156134fe576134fd612e09565b5b600061350c8782880161305f565b945050602061351d8782880161305f565b935050604061352e87828801612faa565b925050606085013567ffffffffffffffff81111561354f5761354e612e0e565b5b61355b87828801613265565b91505092959194509250565b600080fd5b600080fd5b60008083601f8401126135875761358661315e565b5b8235905067ffffffffffffffff8111156135a4576135a3613567565b5b6020830191508360208202830111156135c0576135bf61356c565b5b9250929050565b60008083601f8401126135dd576135dc61315e565b5b8235905067ffffffffffffffff8111156135fa576135f9613567565b5b6020830191508360018202830111156136165761361561356c565b5b9250929050565b60008060008060008060008060a0898b03121561363d5761363c612e09565b5b600061364b8b828c0161305f565b985050602061365c8b828c0161305f565b975050604089013567ffffffffffffffff81111561367d5761367c612e0e565b5b6136898b828c01613571565b9650965050606089013567ffffffffffffffff8111156136ac576136ab612e0e565b5b6136b88b828c01613571565b9450945050608089013567ffffffffffffffff8111156136db576136da612e0e565b5b6136e78b828c016135c7565b92509250509295985092959890939650565b61370281612e13565b82525050565b600060208201905061371d60008301846136f9565b92915050565b6000806040838503121561373a57613739612e09565b5b60006137488582860161305f565b925050602083013567ffffffffffffffff81111561376957613768612e0e565b5b61377585828601613396565b9150509250929050565b6000806040838503121561379657613795612e09565b5b60006137a48582860161305f565b92505060206137b58582860161305f565b9150509250929050565b6000819050919050565b60006137e46137df6137da84612fec565b6137bf565b612fec565b9050919050565b60006137f6826137c9565b9050919050565b6000613808826137eb565b9050919050565b613818816137fd565b82525050565b6000602082019050613833600083018461380f565b92915050565b60008060008060008060a0878903121561385657613855612e09565b5b600061386489828a0161305f565b965050602061387589828a0161305f565b955050604061388689828a01612faa565b945050606061389789828a01612faa565b935050608087013567ffffffffffffffff8111156138b8576138b7612e0e565b5b6138c489828a016135c7565b92509250509295509295509295565b7f4e487b7100000000000000000000000000000000000000000000000000000000600052602260045260246000fd5b6000600282049050600182168061391a57607f821691505b60208210810361392d5761392c6138d3565b5b50919050565b7f4552433732313a20617070726f76616c20746f2063757272656e74206f776e6560008201527f7200000000000000000000000000000000000000000000000000000000000000602082015250565b600061398f602183612ed9565b915061399a82613933565b604082019050919050565b600060208201905081810360008301526139be81613982565b9050919050565b7f4552433732313a20617070726f76652063616c6c6572206973206e6f7420746f60008201527f6b656e206f776e6572206e6f7220617070726f76656420666f7220616c6c0000602082015250565b6000613a21603e83612ed9565b9150613a2c826139c5565b604082019050919050565b60006020820190508181036000830152613a5081613a14565b9050919050565b7f4552433732313a2063616c6c6572206973206e6f7420746f6b656e206f776e6560008201527f72206e6f7220617070726f766564000000000000000000000000000000000000602082015250565b6000613ab3602e83612ed9565b9150613abe82613a57565b604082019050919050565b60006020820190508181036000830152613ae281613aa6565b9050919050565b7f46756e6374696f6e206d7573742062652063616c6c6564207468726f7567682060008201527f64656c656761746563616c6c0000000000000000000000000000000000000000602082015250565b6000613b45602c83612ed9565b9150613b5082613ae9565b604082019050919050565b60006020820190508181036000830152613b7481613b38565b9050919050565b7f46756e6374696f6e206d7573742062652063616c6c6564207468726f7567682060008201527f6163746976652070726f78790000000000000000000000000000000000000000602082015250565b6000613bd7602c83612ed9565b9150613be282613b7b565b604082019050919050565b60006020820190508181036000830152613c0681613bca565b9050919050565b7f555550535570677261646561626c653a206d757374206e6f742062652063616c60008201527f6c6564207468726f7567682064656c656761746563616c6c0000000000000000602082015250565b6000613c69603883612ed9565b9150613c7482613c0d565b604082019050919050565b60006020820190508181036000830152613c9881613c5c565b9050919050565b7f4552433732313a20696e76616c696420746f6b656e2049440000000000000000600082015250565b6000613cd5601883612ed9565b9150613ce082613c9f565b602082019050919050565b60006020820190508181036000830152613d0481613cc8565b9050919050565b7f4552433732313a2061646472657373207a65726f206973206e6f74206120766160008201527f6c6964206f776e65720000000000000000000000000000000000000000000000602082015250565b6000613d67602983612ed9565b9150613d7282613d0b565b604082019050919050565b60006020820190508181036000830152613d9681613d5a565b9050919050565b7f496e697469616c697a61626c653a20636f6e747261637420697320616c72656160008201527f647920696e697469616c697a6564000000000000000000000000000000000000602082015250565b6000613df9602e83612ed9565b9150613e0482613d9d565b604082019050919050565b60006020820190508181036000830152613e2881613dec565b9050919050565b6000819050919050565b600060ff82169050919050565b6000613e61613e5c613e5784613e2f565b6137bf565b613e39565b9050919050565b613e7181613e46565b82525050565b6000602082019050613e8c6000830184613e68565b92915050565b6000604082019050613ea7600083018561301e565b613eb460208301846130b4565b9392505050565b600081519050613eca81612f93565b92915050565b600060208284031215613ee657613ee5612e09565b5b6000613ef484828501613ebb565b91505092915050565b7f4e487b7100000000000000000000000000000000000000000000000000000000600052601160045260246000fd5b6000613f3782612f89565b91507fffffffffffffffffffffffffffffffffffffffffffffffffffffffffffffffff8203613f6957613f68613efd565b5b600182019050919050565b600082825260208201905092915050565b50565b6000613f95600083613f74565b9150613fa082613f85565b600082019050919050565b600060a082019050613fc0600083018761301e565b613fcd602083018661301e565b613fda60408301856130b4565b613fe760608301846130b4565b8181036080830152613ff881613f88565b905095945050505050565b7f4f776e61626c653a206e6577206f776e657220697320746865207a65726f206160008201527f6464726573730000000000000000000000000000000000000000000000000000602082015250565b600061405f602683612ed9565b915061406a82614003565b604082019050919050565b6000602082019050818103600083015261408e81614052565b9050919050565b7f4552433732313a207472616e736665722066726f6d20696e636f72726563742060008201527f6f776e6572000000000000000000000000000000000000000000000000000000602082015250565b60006140f1602583612ed9565b91506140fc82614095565b604082019050919050565b60006020820190508181036000830152614120816140e4565b9050919050565b7f4552433732313a207472616e7366657220746f20746865207a65726f2061646460008201527f7265737300000000000000000000000000000000000000000000000000000000602082015250565b6000614183602483612ed9565b915061418e82614127565b604082019050919050565b600060208201905081810360008301526141b281614176565b9050919050565b60006141c482612f89565b91506141cf83612f89565b9250828210156141e2576141e1613efd565b5b828203905092915050565b60006141f882612f89565b915061420383612f89565b9250827fffffffffffffffffffffffffffffffffffffffffffffffffffffffffffffffff0382111561423857614237613efd565b5b828201905092915050565b61424c816132ef565b811461425757600080fd5b50565b60008151905061426981614243565b92915050565b60006020828403121561428557614284612e09565b5b60006142938482850161425a565b91505092915050565b7f45524331393637557067726164653a206e657720696d706c656d656e7461746960008201527f6f6e206973206e6f742055555053000000000000000000000000000000000000602082015250565b60006142f8602e83612ed9565b91506143038261429c565b604082019050919050565b60006020820190508181036000830152614327816142eb565b9050919050565b7f45524331393637557067726164653a20756e737570706f727465642070726f7860008201527f6961626c65555549440000000000000000000000000000000000000000000000602082015250565b600061438a602983612ed9565b91506143958261432e565b604082019050919050565b600060208201905081810360008301526143b98161437d565b9050919050565b7f4f776e61626c653a2063616c6c6572206973206e6f7420746865206f776e6572600082015250565b60006143f6602083612ed9565b9150614401826143c0565b602082019050919050565b60006020820190508181036000830152614425816143e9565b9050919050565b7f496e697469616c697a61626c653a20636f6e7472616374206973206e6f74206960008201527f6e697469616c697a696e67000000000000000000000000000000000000000000602082015250565b6000614488602b83612ed9565b91506144938261442c565b604082019050919050565b600060208201905081810360008301526144b78161447b565b9050919050565b7f4552433732313a20617070726f766520746f2063616c6c657200000000000000600082015250565b60006144f4601983612ed9565b91506144ff826144be565b602082019050919050565b60006020820190508181036000830152614523816144e7565b9050919050565b7f4552433732313a207472616e7366657220746f206e6f6e20455243373231526560008201527f63656976657220696d706c656d656e7465720000000000000000000000000000602082015250565b6000614586603283612ed9565b91506145918261452a565b604082019050919050565b600060208201905081810360008301526145b581614579565b9050919050565b7f45524337323155524953746f726167653a2055524920717565727920666f722060008201527f6e6f6e6578697374656e7420746f6b656e000000000000000000000000000000602082015250565b6000614618603183612ed9565b9150614623826145bc565b604082019050919050565b600060208201905081810360008301526146478161460b565b9050919050565b600081905092915050565b600061466482612ece565b61466e818561464e565b935061467e818560208601612eea565b80840191505092915050565b60006146968285614659565b91506146a28284614659565b91508190509392505050565b7f45524337323155524953746f726167653a2055524920736574206f66206e6f6e60008201527f6578697374656e7420746f6b656e000000000000000000000000000000000000602082015250565b600061470a602e83612ed9565b9150614715826146ae565b604082019050919050565b60006020820190508181036000830152614739816146fd565b9050919050565b7f455243313936373a206e657720696d706c656d656e746174696f6e206973206e60008201527f6f74206120636f6e747261637400000000000000000000000000000000000000602082015250565b600061479c602d83612ed9565b91506147a782614740565b604082019050919050565b600060208201905081810360008301526147cb8161478f565b9050919050565b600081519050919050565b60006147e8826147d2565b6147f28185613f74565b9350614802818560208601612eea565b61480b81612f1d565b840191505092915050565b600060808201905061482b600083018761301e565b614838602083018661301e565b61484560408301856130b4565b818103606083015261485781846147dd565b905095945050505050565b60008151905061487181612e3f565b92915050565b60006020828403121561488d5761488c612e09565b5b600061489b84828501614862565b91505092915050565b7f416464726573733a2064656c65676174652063616c6c20746f206e6f6e2d636f60008201527f6e74726163740000000000000000000000000000000000000000000000000000602082015250565b6000614900602683612ed9565b915061490b826148a4565b604082019050919050565b6000602082019050818103600083015261492f816148f3565b9050919050565b600081905092915050565b600061494c826147d2565b6149568185614936565b9350614966818560208601612eea565b80840191505092915050565b600061497e8284614941565b915081905092915050565b7f4e487b7100000000000000000000000000000000000000000000000000000000600052601260045260246000fd5b60006149c382612f89565b91506149ce83612f89565b9250826149de576149dd614989565b5b828204905092915050565b60006149f482612f89565b91506149ff83612f89565b925082614a0f57614a0e614989565b5b828206905092915050565b7f4e487b7100000000000000000000000000000000000000000000000000000000600052603260045260246000fd5b7f4552433732313a206d696e7420746f20746865207a65726f2061646472657373600082015250565b6000614a7f602083612ed9565b9150614a8a82614a49565b602082019050919050565b60006020820190508181036000830152614aae81614a72565b9050919050565b7f4552433732313a20746f6b656e20616c7265616479206d696e74656400000000600082015250565b6000614aeb601c83612ed9565b9150614af682614ab5565b602082019050919050565b60006020820190508181036000830152614b1a81614ade565b905091905056fe416464726573733a206c6f772d6c6576656c2064656c65676174652063616c6c206661696c6564a26469706673582212203cb88619ac5ca01ce5dd9f1af45d850a541a49ac09caf72ba18e99d4c65f11be64736f6c634300080d0033",
  "immutableReferences": {
    "1115": [
      {
        "length": 32,
        "start": 2389
      },
      {
        "length": 32,
        "start": 2531
      },
      {
        "length": 32,
        "start": 2813
      },
      {
        "length": 32,
        "start": 2955
      },
      {
        "length": 32,
        "start": 3131
      }
    ]
  },
  "source": "// SPDX-License-Identifier: MIT\r\npragma solidity ^0.8.9;\r\n\r\nimport \"@openzeppelin/contracts-upgradeable/token/ERC721/ERC721Upgradeable.sol\";\r\nimport \"@openzeppelin/contracts-upgradeable/token/ERC721/extensions/ERC721URIStorageUpgradeable.sol\";\r\nimport \"@openzeppelin/contracts-upgradeable/access/OwnableUpgradeable.sol\";\r\nimport \"@openzeppelin/contracts-upgradeable/proxy/utils/Initializable.sol\";\r\nimport \"@openzeppelin/contracts-upgradeable/proxy/utils/UUPSUpgradeable.sol\";\r\nimport \"@openzeppelin/contracts-upgradeable/utils/CountersUpgradeable.sol\";\r\nimport \"@openzeppelin/contracts/token/ERC1155/IERC1155.sol\";\r\nimport \"@openzeppelin/contracts/token/ERC1155/IERC1155Receiver.sol\";\r\n\r\ncontract AiToken is Initializable, ERC721Upgradeable, ERC721URIStorageUpgradeable, OwnableUpgradeable, UUPSUpgradeable, IERC1155Receiver {\r\n    using CountersUpgradeable for CountersUpgradeable.Counter;\r\n\r\n    CountersUpgradeable.Counter private _tokenIdCounter;\r\n    string public baseUri;\r\n    IERC1155 public b3;\r\n\r\n    function getVersion() public pure returns (uint256 version) {\r\n        return 1;\r\n    }\r\n\r\n    /// @custom:oz-upgrades-unsafe-allow constructor\r\n    constructor() {\r\n        _disableInitializers();\r\n    }\r\n\r\n    function initialize() initializer public {\r\n        __ERC721_init(\"AiToken\", \"AIT\");\r\n        __ERC721URIStorage_init();\r\n        __Ownable_init();\r\n        __UUPSUpgradeable_init();\r\n    }\r\n\r\n    function setBaseUri(string memory uri) onlyOwner public {\r\n        baseUri = uri;\r\n    }\r\n\r\n    function setB3(IERC1155 nft) onlyOwner public {\r\n        b3 = nft;\r\n    }\r\n\r\n    function convertB3Nft(uint256 id) public {\r\n        uint256 amount = b3.balanceOf(msg.sender, id);\r\n        for(uint i=0; i<amount; i++) {\r\n            safeMint(msg.sender, baseUri);\r\n        }\r\n        b3.safeTransferFrom(msg.sender, address(this), id, amount, \"\");\r\n    }\r\n\r\n    function safeMint(address to, string memory uri) public onlyOwner {\r\n        uint256 tokenId = _tokenIdCounter.current();\r\n        _tokenIdCounter.increment();\r\n        _safeMint(to, tokenId);\r\n        _setTokenURI(tokenId, uri);\r\n    }\r\n\r\n    function _authorizeUpgrade(address newImplementation)\r\n        internal\r\n        onlyOwner\r\n        override\r\n    {}\r\n\r\n    // The following functions are overrides required by Solidity.\r\n\r\n    function _burn(uint256 tokenId)\r\n        internal\r\n        override(ERC721Upgradeable, ERC721URIStorageUpgradeable)\r\n    {\r\n        super._burn(tokenId);\r\n    }\r\n\r\n    function tokenURI(uint256 tokenId)\r\n        public\r\n        view\r\n        override(ERC721Upgradeable, ERC721URIStorageUpgradeable)\r\n        returns (string memory)\r\n    {\r\n        return super.tokenURI(tokenId);\r\n    }\r\n\r\n    function onERC1155Received(\r\n        address operator,\r\n        address from,\r\n        uint256 id,\r\n        uint256 value,\r\n        bytes calldata data\r\n    ) public virtual override returns (bytes4) {\r\n        return this.onERC1155Received.selector;\r\n    }\r\n\r\n    function onERC1155BatchReceived(\r\n        address operator,\r\n        address from,\r\n        uint256[] calldata ids,\r\n        uint256[] calldata values,\r\n        bytes calldata data\r\n    ) public virtual override returns (bytes4) {\r\n        return this.onERC1155BatchReceived.selector;\r\n    }\r\n\r\n    function supportsInterface(bytes4 interfaceId)\r\n        public\r\n        view\r\n        override(ERC721Upgradeable, IERC165)\r\n        returns (bool)\r\n    {\r\n        return super.supportsInterface(interfaceId);\r\n    }\r\n}",
  "sourcePath": "C:\\linden\\eth-contracts\\nftExchange\\contracts\\AiToken721.sol",
  "compiler": {
    "name": "solc",
    "version": "0.8.13+commit.abaa5c0e.Emscripten.clang"
  },
  "schemaVersion": "3.4.8",
  "updatedAt": "2023-03-14T15:52:25.342Z",
  "networkType": "ethereum",
  "devdoc": {
    "kind": "dev",
    "methods": {
      "approve(address,uint256)": {
        "details": "See {IERC721-approve}."
      },
      "balanceOf(address)": {
        "details": "See {IERC721-balanceOf}."
      },
      "constructor": {
        "custom:oz-upgrades-unsafe-allow": "constructor"
      },
      "getApproved(uint256)": {
        "details": "See {IERC721-getApproved}."
      },
      "isApprovedForAll(address,address)": {
        "details": "See {IERC721-isApprovedForAll}."
      },
      "name()": {
        "details": "See {IERC721Metadata-name}."
      },
      "onERC1155BatchReceived(address,address,uint256[],uint256[],bytes)": {
        "details": "Handles the receipt of a multiple ERC1155 token types. This function is called at the end of a `safeBatchTransferFrom` after the balances have been updated. NOTE: To accept the transfer(s), this must return `bytes4(keccak256(\"onERC1155BatchReceived(address,address,uint256[],uint256[],bytes)\"))` (i.e. 0xbc197c81, or its own function selector).",
        "params": {
          "data": "Additional data with no specified format",
          "from": "The address which previously owned the token",
          "ids": "An array containing ids of each token being transferred (order and length must match values array)",
          "operator": "The address which initiated the batch transfer (i.e. msg.sender)",
          "values": "An array containing amounts of each token being transferred (order and length must match ids array)"
        },
        "returns": {
          "_0": "`bytes4(keccak256(\"onERC1155BatchReceived(address,address,uint256[],uint256[],bytes)\"))` if transfer is allowed"
        }
      },
      "onERC1155Received(address,address,uint256,uint256,bytes)": {
        "details": "Handles the receipt of a single ERC1155 token type. This function is called at the end of a `safeTransferFrom` after the balance has been updated. NOTE: To accept the transfer, this must return `bytes4(keccak256(\"onERC1155Received(address,address,uint256,uint256,bytes)\"))` (i.e. 0xf23a6e61, or its own function selector).",
        "params": {
          "data": "Additional data with no specified format",
          "from": "The address which previously owned the token",
          "id": "The ID of the token being transferred",
          "operator": "The address which initiated the transfer (i.e. msg.sender)",
          "value": "The amount of tokens being transferred"
        },
        "returns": {
          "_0": "`bytes4(keccak256(\"onERC1155Received(address,address,uint256,uint256,bytes)\"))` if transfer is allowed"
        }
      },
      "owner()": {
        "details": "Returns the address of the current owner."
      },
      "ownerOf(uint256)": {
        "details": "See {IERC721-ownerOf}."
      },
      "proxiableUUID()": {
        "details": "Implementation of the ERC1822 {proxiableUUID} function. This returns the storage slot used by the implementation. It is used to validate that the this implementation remains valid after an upgrade. IMPORTANT: A proxy pointing at a proxiable contract should not be considered proxiable itself, because this risks bricking a proxy that upgrades to it, by delegating to itself until out of gas. Thus it is critical that this function revert if invoked through a proxy. This is guaranteed by the `notDelegated` modifier."
      },
      "renounceOwnership()": {
        "details": "Leaves the contract without owner. It will not be possible to call `onlyOwner` functions anymore. Can only be called by the current owner. NOTE: Renouncing ownership will leave the contract without an owner, thereby removing any functionality that is only available to the owner."
      },
      "safeTransferFrom(address,address,uint256)": {
        "details": "See {IERC721-safeTransferFrom}."
      },
      "safeTransferFrom(address,address,uint256,bytes)": {
        "details": "See {IERC721-safeTransferFrom}."
      },
      "setApprovalForAll(address,bool)": {
        "details": "See {IERC721-setApprovalForAll}."
      },
      "symbol()": {
        "details": "See {IERC721Metadata-symbol}."
      },
      "transferFrom(address,address,uint256)": {
        "details": "See {IERC721-transferFrom}."
      },
      "transferOwnership(address)": {
        "details": "Transfers ownership of the contract to a new account (`newOwner`). Can only be called by the current owner."
      },
      "upgradeTo(address)": {
        "details": "Upgrade the implementation of the proxy to `newImplementation`. Calls {_authorizeUpgrade}. Emits an {Upgraded} event."
      },
      "upgradeToAndCall(address,bytes)": {
        "details": "Upgrade the implementation of the proxy to `newImplementation`, and subsequently execute the function call encoded in `data`. Calls {_authorizeUpgrade}. Emits an {Upgraded} event."
      }
    },
    "version": 1
  },
  "userdoc": {
    "kind": "user",
    "methods": {},
    "version": 1
  }
}