{
  "contractName": "B3Token",
  "abi": [
    {
      "inputs": [],
      "stateMutability": "nonpayable",
      "type": "constructor"
    },
    {
      "anonymous": false,
      "inputs": [
        {
          "indexed": false,
          "internalType": "address",
          "name": "previousAdmin",
          "type": "address"
        },
        {
          "indexed": false,
          "internalType": "address",
          "name": "newAdmin",
          "type": "address"
        }
      ],
      "name": "AdminChanged",
      "type": "event"
    },
    {
      "anonymous": false,
      "inputs": [
        {
          "indexed": true,
          "internalType": "address",
          "name": "account",
          "type": "address"
        },
        {
          "indexed": true,
          "internalType": "address",
          "name": "operator",
          "type": "address"
        },
        {
          "indexed": false,
          "internalType": "bool",
          "name": "approved",
          "type": "bool"
        }
      ],
      "name": "ApprovalForAll",
      "type": "event"
    },
    {
      "anonymous": false,
      "inputs": [
        {
          "indexed": true,
          "internalType": "address",
          "name": "beacon",
          "type": "address"
        }
      ],
      "name": "BeaconUpgraded",
      "type": "event"
    },
    {
      "anonymous": false,
      "inputs": [
        {
          "indexed": false,
          "internalType": "uint8",
          "name": "version",
          "type": "uint8"
        }
      ],
      "name": "Initialized",
      "type": "event"
    },
    {
      "anonymous": false,
      "inputs": [
        {
          "indexed": true,
          "internalType": "address",
          "name": "previousOwner",
          "type": "address"
        },
        {
          "indexed": true,
          "internalType": "address",
          "name": "newOwner",
          "type": "address"
        }
      ],
      "name": "OwnershipTransferred",
      "type": "event"
    },
    {
      "anonymous": false,
      "inputs": [
        {
          "indexed": true,
          "internalType": "address",
          "name": "operator",
          "type": "address"
        },
        {
          "indexed": true,
          "internalType": "address",
          "name": "from",
          "type": "address"
        },
        {
          "indexed": true,
          "internalType": "address",
          "name": "to",
          "type": "address"
        },
        {
          "indexed": false,
          "internalType": "uint256[]",
          "name": "ids",
          "type": "uint256[]"
        },
        {
          "indexed": false,
          "internalType": "uint256[]",
          "name": "values",
          "type": "uint256[]"
        }
      ],
      "name": "TransferBatch",
      "type": "event"
    },
    {
      "anonymous": false,
      "inputs": [
        {
          "indexed": true,
          "internalType": "address",
          "name": "operator",
          "type": "address"
        },
        {
          "indexed": true,
          "internalType": "address",
          "name": "from",
          "type": "address"
        },
        {
          "indexed": true,
          "internalType": "address",
          "name": "to",
          "type": "address"
        },
        {
          "indexed": false,
          "internalType": "uint256",
          "name": "id",
          "type": "uint256"
        },
        {
          "indexed": false,
          "internalType": "uint256",
          "name": "value",
          "type": "uint256"
        }
      ],
      "name": "TransferSingle",
      "type": "event"
    },
    {
      "anonymous": false,
      "inputs": [
        {
          "indexed": false,
          "internalType": "string",
          "name": "value",
          "type": "string"
        },
        {
          "indexed": true,
          "internalType": "uint256",
          "name": "id",
          "type": "uint256"
        }
      ],
      "name": "URI",
      "type": "event"
    },
    {
      "anonymous": false,
      "inputs": [
        {
          "indexed": true,
          "internalType": "address",
          "name": "implementation",
          "type": "address"
        }
      ],
      "name": "Upgraded",
      "type": "event"
    },
    {
      "inputs": [
        {
          "internalType": "address",
          "name": "account",
          "type": "address"
        },
        {
          "internalType": "uint256",
          "name": "id",
          "type": "uint256"
        }
      ],
      "name": "balanceOf",
      "outputs": [
        {
          "internalType": "uint256",
          "name": "",
          "type": "uint256"
        }
      ],
      "stateMutability": "view",
      "type": "function",
      "constant": true
    },
    {
      "inputs": [
        {
          "internalType": "address[]",
          "name": "accounts",
          "type": "address[]"
        },
        {
          "internalType": "uint256[]",
          "name": "ids",
          "type": "uint256[]"
        }
      ],
      "name": "balanceOfBatch",
      "outputs": [
        {
          "internalType": "uint256[]",
          "name": "",
          "type": "uint256[]"
        }
      ],
      "stateMutability": "view",
      "type": "function",
      "constant": true
    },
    {
      "inputs": [
        {
          "internalType": "address",
          "name": "account",
          "type": "address"
        },
        {
          "internalType": "address",
          "name": "operator",
          "type": "address"
        }
      ],
      "name": "isApprovedForAll",
      "outputs": [
        {
          "internalType": "bool",
          "name": "",
          "type": "bool"
        }
      ],
      "stateMutability": "view",
      "type": "function",
      "constant": true
    },
    {
      "inputs": [],
      "name": "owner",
      "outputs": [
        {
          "internalType": "address",
          "name": "",
          "type": "address"
        }
      ],
      "stateMutability": "view",
      "type": "function",
      "constant": true
    },
    {
      "inputs": [],
      "name": "proxiableUUID",
      "outputs": [
        {
          "internalType": "bytes32",
          "name": "",
          "type": "bytes32"
        }
      ],
      "stateMutability": "view",
      "type": "function",
      "constant": true
    },
    {
      "inputs": [],
      "name": "renounceOwnership",
      "outputs": [],
      "stateMutability": "nonpayable",
      "type": "function"
    },
    {
      "inputs": [
        {
          "internalType": "address",
          "name": "from",
          "type": "address"
        },
        {
          "internalType": "address",
          "name": "to",
          "type": "address"
        },
        {
          "internalType": "uint256[]",
          "name": "ids",
          "type": "uint256[]"
        },
        {
          "internalType": "uint256[]",
          "name": "amounts",
          "type": "uint256[]"
        },
        {
          "internalType": "bytes",
          "name": "data",
          "type": "bytes"
        }
      ],
      "name": "safeBatchTransferFrom",
      "outputs": [],
      "stateMutability": "nonpayable",
      "type": "function"
    },
    {
      "inputs": [
        {
          "internalType": "address",
          "name": "from",
          "type": "address"
        },
        {
          "internalType": "address",
          "name": "to",
          "type": "address"
        },
        {
          "internalType": "uint256",
          "name": "id",
          "type": "uint256"
        },
        {
          "internalType": "uint256",
          "name": "amount",
          "type": "uint256"
        },
        {
          "internalType": "bytes",
          "name": "data",
          "type": "bytes"
        }
      ],
      "name": "safeTransferFrom",
      "outputs": [],
      "stateMutability": "nonpayable",
      "type": "function"
    },
    {
      "inputs": [
        {
          "internalType": "address",
          "name": "operator",
          "type": "address"
        },
        {
          "internalType": "bool",
          "name": "approved",
          "type": "bool"
        }
      ],
      "name": "setApprovalForAll",
      "outputs": [],
      "stateMutability": "nonpayable",
      "type": "function"
    },
    {
      "inputs": [
        {
          "internalType": "bytes4",
          "name": "interfaceId",
          "type": "bytes4"
        }
      ],
      "name": "supportsInterface",
      "outputs": [
        {
          "internalType": "bool",
          "name": "",
          "type": "bool"
        }
      ],
      "stateMutability": "view",
      "type": "function",
      "constant": true
    },
    {
      "inputs": [
        {
          "internalType": "address",
          "name": "newOwner",
          "type": "address"
        }
      ],
      "name": "transferOwnership",
      "outputs": [],
      "stateMutability": "nonpayable",
      "type": "function"
    },
    {
      "inputs": [
        {
          "internalType": "address",
          "name": "newImplementation",
          "type": "address"
        }
      ],
      "name": "upgradeTo",
      "outputs": [],
      "stateMutability": "nonpayable",
      "type": "function"
    },
    {
      "inputs": [
        {
          "internalType": "address",
          "name": "newImplementation",
          "type": "address"
        },
        {
          "internalType": "bytes",
          "name": "data",
          "type": "bytes"
        }
      ],
      "name": "upgradeToAndCall",
      "outputs": [],
      "stateMutability": "payable",
      "type": "function",
      "payable": true
    },
    {
      "inputs": [
        {
          "internalType": "uint256",
          "name": "",
          "type": "uint256"
        }
      ],
      "name": "uri",
      "outputs": [
        {
          "internalType": "string",
          "name": "",
          "type": "string"
        }
      ],
      "stateMutability": "view",
      "type": "function",
      "constant": true
    },
    {
      "inputs": [],
      "name": "initialize",
      "outputs": [],
      "stateMutability": "nonpayable",
      "type": "function"
    },
    {
      "inputs": [],
      "name": "getVersion",
      "outputs": [
        {
          "internalType": "uint256",
          "name": "version",
          "type": "uint256"
        }
      ],
      "stateMutability": "pure",
      "type": "function",
      "constant": true
    },
    {
      "inputs": [
        {
          "internalType": "string",
          "name": "newuri",
          "type": "string"
        }
      ],
      "name": "setURI",
      "outputs": [],
      "stateMutability": "nonpayable",
      "type": "function"
    },
    {
      "inputs": [
        {
          "internalType": "address",
          "name": "account",
          "type": "address"
        },
        {
          "internalType": "uint256",
          "name": "id",
          "type": "uint256"
        },
        {
          "internalType": "uint256",
          "name": "amount",
          "type": "uint256"
        },
        {
          "internalType": "bytes",
          "name": "data",
          "type": "bytes"
        }
      ],
      "name": "mint",
      "outputs": [],
      "stateMutability": "nonpayable",
      "type": "function"
    },
    {
      "inputs": [
        {
          "internalType": "address",
          "name": "to",
          "type": "address"
        },
        {
          "internalType": "uint256[]",
          "name": "ids",
          "type": "uint256[]"
        },
        {
          "internalType": "uint256[]",
          "name": "amounts",
          "type": "uint256[]"
        },
        {
          "internalType": "bytes",
          "name": "data",
          "type": "bytes"
        }
      ],
      "name": "mintBatch",
      "outputs": [],
      "stateMutability": "nonpayable",
      "type": "function"
    }
  ],
  "bytecode": "0x60a06040523073ffffffffffffffffffffffffffffffffffffffff1660809073ffffffffffffffffffffffffffffffffffffffff168152503480156200004457600080fd5b50620000556200005b60201b60201c565b62000206565b600060019054906101000a900460ff1615620000ae576040517f08c379a0000000000000000000000000000000000000000000000000000000008152600401620000a590620001a9565b60405180910390fd5b60ff801660008054906101000a900460ff1660ff161015620001205760ff6000806101000a81548160ff021916908360ff1602179055507f7f26b83ff96e1f2b6a682f133852f6798a09c465da95921460cefb384740249860ff604051620001179190620001e9565b60405180910390a15b565b600082825260208201905092915050565b7f496e697469616c697a61626c653a20636f6e747261637420697320696e69746960008201527f616c697a696e6700000000000000000000000000000000000000000000000000602082015250565b60006200019160278362000122565b91506200019e8262000133565b604082019050919050565b60006020820190508181036000830152620001c48162000182565b9050919050565b600060ff82169050919050565b620001e381620001cb565b82525050565b6000602082019050620002006000830184620001d8565b92915050565b6080516144976200023e600039600081816107750152818161080301528181610a1601528181610aa40152610b5401526144976000f3fe6080604052600436106101135760003560e01c80634f1ef286116100a05780638da5cb5b116100645780638da5cb5b14610379578063a22cb465146103a4578063e985e9c5146103cd578063f242432a1461040a578063f2fde38b1461043357610113565b80634f1ef286146102db57806352d1902d146102f7578063715018a614610322578063731133e9146103395780638129fc1c1461036257610113565b80630e89341c116100e75780630e89341c146101e65780631f7fdffa146102235780632eb2c2d61461024c5780633659cfe6146102755780634e1273f41461029e57610113565b8062fdd58e1461011857806301ffc9a71461015557806302fe5305146101925780630d8e6e2c146101bb575b600080fd5b34801561012457600080fd5b5061013f600480360381019061013a9190612833565b61045c565b60405161014c9190612882565b60405180910390f35b34801561016157600080fd5b5061017c600480360381019061017791906128f5565b610525565b604051610189919061293d565b60405180910390f35b34801561019e57600080fd5b506101b960048036038101906101b49190612a9e565b610607565b005b3480156101c757600080fd5b506101d061061b565b6040516101dd9190612882565b60405180910390f35b3480156101f257600080fd5b5061020d60048036038101906102089190612ae7565b610624565b60405161021a9190612b9c565b60405180910390f35b34801561022f57600080fd5b5061024a60048036038101906102459190612d27565b6106b8565b005b34801561025857600080fd5b50610273600480360381019061026e9190612de2565b6106d2565b005b34801561028157600080fd5b5061029c60048036038101906102979190612eb1565b610773565b005b3480156102aa57600080fd5b506102c560048036038101906102c09190612fa1565b6108fb565b6040516102d291906130d7565b60405180910390f35b6102f560048036038101906102f091906130f9565b610a14565b005b34801561030357600080fd5b5061030c610b50565b604051610319919061316e565b60405180910390f35b34801561032e57600080fd5b50610337610c09565b005b34801561034557600080fd5b50610360600480360381019061035b9190613189565b610c1d565b005b34801561036e57600080fd5b50610377610c37565b005b34801561038557600080fd5b5061038e610d95565b60405161039b919061321b565b60405180910390f35b3480156103b057600080fd5b506103cb60048036038101906103c69190613262565b610dbf565b005b3480156103d957600080fd5b506103f460048036038101906103ef91906132a2565b610dd5565b604051610401919061293d565b60405180910390f35b34801561041657600080fd5b50610431600480360381019061042c91906132e2565b610e69565b005b34801561043f57600080fd5b5061045a60048036038101906104559190612eb1565b610f0a565b005b60008073ffffffffffffffffffffffffffffffffffffffff168373ffffffffffffffffffffffffffffffffffffffff16036104cc576040517f08c379a00000000000000000000000000000000000000000000000000000000081526004016104c3906133eb565b60405180910390fd5b6065600083815260200190815260200160002060008473ffffffffffffffffffffffffffffffffffffffff1673ffffffffffffffffffffffffffffffffffffffff16815260200190815260200160002054905092915050565b60007fd9b67a26000000000000000000000000000000000000000000000000000000007bffffffffffffffffffffffffffffffffffffffffffffffffffffffff1916827bffffffffffffffffffffffffffffffffffffffffffffffffffffffff191614806105f057507f0e89341c000000000000000000000000000000000000000000000000000000007bffffffffffffffffffffffffffffffffffffffffffffffffffffffff1916827bffffffffffffffffffffffffffffffffffffffffffffffffffffffff1916145b8061060057506105ff82610f8d565b5b9050919050565b61060f610ff7565b61061881611075565b50565b60006001905090565b6060606780546106339061343a565b80601f016020809104026020016040519081016040528092919081815260200182805461065f9061343a565b80156106ac5780601f10610681576101008083540402835291602001916106ac565b820191906000526020600020905b81548152906001019060200180831161068f57829003601f168201915b50505050509050919050565b6106c0610ff7565b6106cc8484848461108f565b50505050565b6106da6112bc565b73ffffffffffffffffffffffffffffffffffffffff168573ffffffffffffffffffffffffffffffffffffffff161480610720575061071f8561071a6112bc565b610dd5565b5b61075f576040517f08c379a0000000000000000000000000000000000000000000000000000000008152600401610756906134dd565b60405180910390fd5b61076c85858585856112c4565b5050505050565b7f000000000000000000000000000000000000000000000000000000000000000073ffffffffffffffffffffffffffffffffffffffff163073ffffffffffffffffffffffffffffffffffffffff1603610801576040517f08c379a00000000000000000000000000000000000000000000000000000000081526004016107f89061356f565b60405180910390fd5b7f000000000000000000000000000000000000000000000000000000000000000073ffffffffffffffffffffffffffffffffffffffff166108406115e8565b73ffffffffffffffffffffffffffffffffffffffff1614610896576040517f08c379a000000000000000000000000000000000000000000000000000000000815260040161088d90613601565b60405180910390fd5b61089f8161163f565b6108f881600067ffffffffffffffff8111156108be576108bd612973565b5b6040519080825280601f01601f1916602001820160405280156108f05781602001600182028036833780820191505090505b50600061164a565b50565b60608151835114610941576040517f08c379a000000000000000000000000000000000000000000000000000000000815260040161093890613693565b60405180910390fd5b6000835167ffffffffffffffff81111561095e5761095d612973565b5b60405190808252806020026020018201604052801561098c5781602001602082028036833780820191505090505b50905060005b8451811015610a09576109d98582815181106109b1576109b06136b3565b5b60200260200101518583815181106109cc576109cb6136b3565b5b602002602001015161045c565b8282815181106109ec576109eb6136b3565b5b60200260200101818152505080610a0290613711565b9050610992565b508091505092915050565b7f000000000000000000000000000000000000000000000000000000000000000073ffffffffffffffffffffffffffffffffffffffff163073ffffffffffffffffffffffffffffffffffffffff1603610aa2576040517f08c379a0000000000000000000000000000000000000000000000000000000008152600401610a999061356f565b60405180910390fd5b7f000000000000000000000000000000000000000000000000000000000000000073ffffffffffffffffffffffffffffffffffffffff16610ae16115e8565b73ffffffffffffffffffffffffffffffffffffffff1614610b37576040517f08c379a0000000000000000000000000000000000000000000000000000000008152600401610b2e90613601565b60405180910390fd5b610b408261163f565b610b4c8282600161164a565b5050565b60007f000000000000000000000000000000000000000000000000000000000000000073ffffffffffffffffffffffffffffffffffffffff163073ffffffffffffffffffffffffffffffffffffffff1614610be0576040517f08c379a0000000000000000000000000000000000000000000000000000000008152600401610bd7906137cb565b60405180910390fd5b7f360894a13ba1a3210667c828492db98dca3e2076cc3735a920a3ca505d382bbc60001b905090565b610c11610ff7565b610c1b60006117b8565b565b610c25610ff7565b610c318484848461187e565b50505050565b60008060019054906101000a900460ff16159050808015610c685750600160008054906101000a900460ff1660ff16105b80610c955750610c7730611a2f565b158015610c945750600160008054906101000a900460ff1660ff16145b5b610cd4576040517f08c379a0000000000000000000000000000000000000000000000000000000008152600401610ccb9061385d565b60405180910390fd5b60016000806101000a81548160ff021916908360ff1602179055508015610d11576001600060016101000a81548160ff0219169083151502179055505b610d2960405180602001604052806000815250611a52565b610d31611aad565b610d39611b06565b8015610d925760008060016101000a81548160ff0219169083151502179055507f7f26b83ff96e1f2b6a682f133852f6798a09c465da95921460cefb38474024986001604051610d8991906138cf565b60405180910390a15b50565b6000609760009054906101000a900473ffffffffffffffffffffffffffffffffffffffff16905090565b610dd1610dca6112bc565b8383611b57565b5050565b6000606660008473ffffffffffffffffffffffffffffffffffffffff1673ffffffffffffffffffffffffffffffffffffffff16815260200190815260200160002060008373ffffffffffffffffffffffffffffffffffffffff1673ffffffffffffffffffffffffffffffffffffffff16815260200190815260200160002060009054906101000a900460ff16905092915050565b610e716112bc565b73ffffffffffffffffffffffffffffffffffffffff168573ffffffffffffffffffffffffffffffffffffffff161480610eb75750610eb685610eb16112bc565b610dd5565b5b610ef6576040517f08c379a0000000000000000000000000000000000000000000000000000000008152600401610eed906134dd565b60405180910390fd5b610f038585858585611cc3565b5050505050565b610f12610ff7565b600073ffffffffffffffffffffffffffffffffffffffff168173ffffffffffffffffffffffffffffffffffffffff1603610f81576040517f08c379a0000000000000000000000000000000000000000000000000000000008152600401610f789061395c565b60405180910390fd5b610f8a816117b8565b50565b60007f01ffc9a7000000000000000000000000000000000000000000000000000000007bffffffffffffffffffffffffffffffffffffffffffffffffffffffff1916827bffffffffffffffffffffffffffffffffffffffffffffffffffffffff1916149050919050565b610fff6112bc565b73ffffffffffffffffffffffffffffffffffffffff1661101d610d95565b73ffffffffffffffffffffffffffffffffffffffff1614611073576040517f08c379a000000000000000000000000000000000000000000000000000000000815260040161106a906139c8565b60405180910390fd5b565b806067908051906020019061108b9291906126e8565b5050565b600073ffffffffffffffffffffffffffffffffffffffff168473ffffffffffffffffffffffffffffffffffffffff16036110fe576040517f08c379a00000000000000000000000000000000000000000000000000000000081526004016110f590613a5a565b60405180910390fd5b8151835114611142576040517f08c379a000000000000000000000000000000000000000000000000000000000815260040161113990613aec565b60405180910390fd5b600061114c6112bc565b905061115d81600087878787611f61565b60005b84518110156112175783818151811061117c5761117b6136b3565b5b60200260200101516065600087848151811061119b5761119a6136b3565b5b6020026020010151815260200190815260200160002060008873ffffffffffffffffffffffffffffffffffffffff1673ffffffffffffffffffffffffffffffffffffffff16815260200190815260200160002060008282546111fd9190613b0c565b92505081905550808061120f90613711565b915050611160565b508473ffffffffffffffffffffffffffffffffffffffff16600073ffffffffffffffffffffffffffffffffffffffff168273ffffffffffffffffffffffffffffffffffffffff167f4a39dc06d4c0dbc64b70af90fd698a233a518aa5d07e595d983b8c0526c8f7fb878760405161128f929190613b62565b60405180910390a46112a681600087878787611f69565b6112b581600087878787611f71565b5050505050565b600033905090565b8151835114611308576040517f08c379a00000000000000000000000000000000000000000000000000000000081526004016112ff90613aec565b60405180910390fd5b600073ffffffffffffffffffffffffffffffffffffffff168473ffffffffffffffffffffffffffffffffffffffff1603611377576040517f08c379a000000000000000000000000000000000000000000000000000000000815260040161136e90613c0b565b60405180910390fd5b60006113816112bc565b9050611391818787878787611f61565b60005b84518110156115455760008582815181106113b2576113b16136b3565b5b6020026020010151905060008583815181106113d1576113d06136b3565b5b6020026020010151905060006065600084815260200190815260200160002060008b73ffffffffffffffffffffffffffffffffffffffff1673ffffffffffffffffffffffffffffffffffffffff16815260200190815260200160002054905081811015611473576040517f08c379a000000000000000000000000000000000000000000000000000000000815260040161146a90613c9d565b60405180910390fd5b8181036065600085815260200190815260200160002060008c73ffffffffffffffffffffffffffffffffffffffff1673ffffffffffffffffffffffffffffffffffffffff16815260200190815260200160002081905550816065600085815260200190815260200160002060008b73ffffffffffffffffffffffffffffffffffffffff1673ffffffffffffffffffffffffffffffffffffffff168152602001908152602001600020600082825461152a9190613b0c565b925050819055505050508061153e90613711565b9050611394565b508473ffffffffffffffffffffffffffffffffffffffff168673ffffffffffffffffffffffffffffffffffffffff168273ffffffffffffffffffffffffffffffffffffffff167f4a39dc06d4c0dbc64b70af90fd698a233a518aa5d07e595d983b8c0526c8f7fb87876040516115bc929190613b62565b60405180910390a46115d2818787878787611f69565b6115e0818787878787611f71565b505050505050565b60006116167f360894a13ba1a3210667c828492db98dca3e2076cc3735a920a3ca505d382bbc60001b612148565b60000160009054906101000a900473ffffffffffffffffffffffffffffffffffffffff16905090565b611647610ff7565b50565b6116767f4910fdfa16fed3260ed0e7147f7cc6da11a60208b5b9406d12a635614ffd914360001b612152565b60000160009054906101000a900460ff161561169a576116958361215c565b6117b3565b8273ffffffffffffffffffffffffffffffffffffffff166352d1902d6040518163ffffffff1660e01b8152600401602060405180830381865afa92505050801561170257506040513d601f19601f820116820180604052508101906116ff9190613ce9565b60015b611741576040517f08c379a000000000000000000000000000000000000000000000000000000000815260040161173890613d88565b60405180910390fd5b7f360894a13ba1a3210667c828492db98dca3e2076cc3735a920a3ca505d382bbc60001b81146117a6576040517f08c379a000000000000000000000000000000000000000000000000000000000815260040161179d90613e1a565b60405180910390fd5b506117b2838383612215565b5b505050565b6000609760009054906101000a900473ffffffffffffffffffffffffffffffffffffffff16905081609760006101000a81548173ffffffffffffffffffffffffffffffffffffffff021916908373ffffffffffffffffffffffffffffffffffffffff1602179055508173ffffffffffffffffffffffffffffffffffffffff168173ffffffffffffffffffffffffffffffffffffffff167f8be0079c531659141344cd1fd0a4f28419497f9722a3daafe3b4186f6b6457e060405160405180910390a35050565b600073ffffffffffffffffffffffffffffffffffffffff168473ffffffffffffffffffffffffffffffffffffffff16036118ed576040517f08c379a00000000000000000000000000000000000000000000000000000000081526004016118e490613a5a565b60405180910390fd5b60006118f76112bc565b9050600061190485612241565b9050600061191185612241565b905061192283600089858589611f61565b846065600088815260200190815260200160002060008973ffffffffffffffffffffffffffffffffffffffff1673ffffffffffffffffffffffffffffffffffffffff16815260200190815260200160002060008282546119829190613b0c565b925050819055508673ffffffffffffffffffffffffffffffffffffffff16600073ffffffffffffffffffffffffffffffffffffffff168473ffffffffffffffffffffffffffffffffffffffff167fc3d58168c5ae7397731d063d5bbf3d657854427343f4c083240f7aacaa2d0f628989604051611a00929190613e3a565b60405180910390a4611a1783600089858589611f69565b611a26836000898989896122bb565b50505050505050565b6000808273ffffffffffffffffffffffffffffffffffffffff163b119050919050565b600060019054906101000a900460ff16611aa1576040517f08c379a0000000000000000000000000000000000000000000000000000000008152600401611a9890613ed5565b60405180910390fd5b611aaa81612492565b50565b600060019054906101000a900460ff16611afc576040517f08c379a0000000000000000000000000000000000000000000000000000000008152600401611af390613ed5565b60405180910390fd5b611b046124ed565b565b600060019054906101000a900460ff16611b55576040517f08c379a0000000000000000000000000000000000000000000000000000000008152600401611b4c90613ed5565b60405180910390fd5b565b8173ffffffffffffffffffffffffffffffffffffffff168373ffffffffffffffffffffffffffffffffffffffff1603611bc5576040517f08c379a0000000000000000000000000000000000000000000000000000000008152600401611bbc90613f67565b60405180910390fd5b80606660008573ffffffffffffffffffffffffffffffffffffffff1673ffffffffffffffffffffffffffffffffffffffff16815260200190815260200160002060008473ffffffffffffffffffffffffffffffffffffffff1673ffffffffffffffffffffffffffffffffffffffff16815260200190815260200160002060006101000a81548160ff0219169083151502179055508173ffffffffffffffffffffffffffffffffffffffff168373ffffffffffffffffffffffffffffffffffffffff167f17307eab39ab6107e8899845ad3d59bd9653f200f220920489ca2b5937696c3183604051611cb6919061293d565b60405180910390a3505050565b600073ffffffffffffffffffffffffffffffffffffffff168473ffffffffffffffffffffffffffffffffffffffff1603611d32576040517f08c379a0000000000000000000000000000000000000000000000000000000008152600401611d2990613c0b565b60405180910390fd5b6000611d3c6112bc565b90506000611d4985612241565b90506000611d5685612241565b9050611d66838989858589611f61565b60006065600088815260200190815260200160002060008a73ffffffffffffffffffffffffffffffffffffffff1673ffffffffffffffffffffffffffffffffffffffff16815260200190815260200160002054905085811015611dfe576040517f08c379a0000000000000000000000000000000000000000000000000000000008152600401611df590613c9d565b60405180910390fd5b8581036065600089815260200190815260200160002060008b73ffffffffffffffffffffffffffffffffffffffff1673ffffffffffffffffffffffffffffffffffffffff16815260200190815260200160002081905550856065600089815260200190815260200160002060008a73ffffffffffffffffffffffffffffffffffffffff1673ffffffffffffffffffffffffffffffffffffffff1681526020019081526020016000206000828254611eb59190613b0c565b925050819055508773ffffffffffffffffffffffffffffffffffffffff168973ffffffffffffffffffffffffffffffffffffffff168573ffffffffffffffffffffffffffffffffffffffff167fc3d58168c5ae7397731d063d5bbf3d657854427343f4c083240f7aacaa2d0f628a8a604051611f32929190613e3a565b60405180910390a4611f48848a8a86868a611f69565b611f56848a8a8a8a8a6122bb565b505050505050505050565b505050505050565b505050505050565b611f908473ffffffffffffffffffffffffffffffffffffffff16611a2f565b15612140578373ffffffffffffffffffffffffffffffffffffffff1663bc197c8187878686866040518663ffffffff1660e01b8152600401611fd6959493929190613fdc565b6020604051808303816000875af192505050801561201257506040513d601f19601f8201168201806040525081019061200f9190614059565b60015b6120b75761201e614093565b806308c379a00361207a57506120326140b5565b8061203d575061207c565b806040517f08c379a00000000000000000000000000000000000000000000000000000000081526004016120719190612b9c565b60405180910390fd5b505b6040517f08c379a00000000000000000000000000000000000000000000000000000000081526004016120ae906141b7565b60405180910390fd5b63bc197c8160e01b7bffffffffffffffffffffffffffffffffffffffffffffffffffffffff1916817bffffffffffffffffffffffffffffffffffffffffffffffffffffffff19161461213e576040517f08c379a000000000000000000000000000000000000000000000000000000000815260040161213590614249565b60405180910390fd5b505b505050505050565b6000819050919050565b6000819050919050565b61216581611a2f565b6121a4576040517f08c379a000000000000000000000000000000000000000000000000000000000815260040161219b906142db565b60405180910390fd5b806121d17f360894a13ba1a3210667c828492db98dca3e2076cc3735a920a3ca505d382bbc60001b612148565b60000160006101000a81548173ffffffffffffffffffffffffffffffffffffffff021916908373ffffffffffffffffffffffffffffffffffffffff16021790555050565b61221e8361254e565b60008251118061222b5750805b1561223c5761223a838361259d565b505b505050565b60606000600167ffffffffffffffff8111156122605761225f612973565b5b60405190808252806020026020018201604052801561228e5781602001602082028036833780820191505090505b50905082816000815181106122a6576122a56136b3565b5b60200260200101818152505080915050919050565b6122da8473ffffffffffffffffffffffffffffffffffffffff16611a2f565b1561248a578373ffffffffffffffffffffffffffffffffffffffff1663f23a6e6187878686866040518663ffffffff1660e01b81526004016123209594939291906142fb565b6020604051808303816000875af192505050801561235c57506040513d601f19601f820116820180604052508101906123599190614059565b60015b61240157612368614093565b806308c379a0036123c4575061237c6140b5565b8061238757506123c6565b806040517f08c379a00000000000000000000000000000000000000000000000000000000081526004016123bb9190612b9c565b60405180910390fd5b505b6040517f08c379a00000000000000000000000000000000000000000000000000000000081526004016123f8906141b7565b60405180910390fd5b63f23a6e6160e01b7bffffffffffffffffffffffffffffffffffffffffffffffffffffffff1916817bffffffffffffffffffffffffffffffffffffffffffffffffffffffff191614612488576040517f08c379a000000000000000000000000000000000000000000000000000000000815260040161247f90614249565b60405180910390fd5b505b505050505050565b600060019054906101000a900460ff166124e1576040517f08c379a00000000000000000000000000000000000000000000000000000000081526004016124d890613ed5565b60405180910390fd5b6124ea81611075565b50565b600060019054906101000a900460ff1661253c576040517f08c379a000000000000000000000000000000000000000000000000000000000815260040161253390613ed5565b60405180910390fd5b61254c6125476112bc565b6117b8565b565b6125578161215c565b8073ffffffffffffffffffffffffffffffffffffffff167fbc7cd75a20ee27fd9adebab32041f755214dbc6bffa90cc0225b39da2e5c2d3b60405160405180910390a250565b60606125a883611a2f565b6125e7576040517f08c379a00000000000000000000000000000000000000000000000000000000081526004016125de906143c7565b60405180910390fd5b6000808473ffffffffffffffffffffffffffffffffffffffff168460405161260f9190614423565b600060405180830381855af49150503d806000811461264a576040519150601f19603f3d011682016040523d82523d6000602084013e61264f565b606091505b5091509150612677828260405180606001604052806027815260200161443b60279139612681565b9250505092915050565b60608315612691578290506126e1565b6000835111156126a45782518084602001fd5b816040517f08c379a00000000000000000000000000000000000000000000000000000000081526004016126d89190612b9c565b60405180910390fd5b9392505050565b8280546126f49061343a565b90600052602060002090601f016020900481019282612716576000855561275d565b82601f1061272f57805160ff191683800117855561275d565b8280016001018555821561275d579182015b8281111561275c578251825591602001919060010190612741565b5b50905061276a919061276e565b5090565b5b8082111561278757600081600090555060010161276f565b5090565b6000604051905090565b600080fd5b600080fd5b600073ffffffffffffffffffffffffffffffffffffffff82169050919050565b60006127ca8261279f565b9050919050565b6127da816127bf565b81146127e557600080fd5b50565b6000813590506127f7816127d1565b92915050565b6000819050919050565b612810816127fd565b811461281b57600080fd5b50565b60008135905061282d81612807565b92915050565b6000806040838503121561284a57612849612795565b5b6000612858858286016127e8565b92505060206128698582860161281e565b9150509250929050565b61287c816127fd565b82525050565b60006020820190506128976000830184612873565b92915050565b60007fffffffff0000000000000000000000000000000000000000000000000000000082169050919050565b6128d28161289d565b81146128dd57600080fd5b50565b6000813590506128ef816128c9565b92915050565b60006020828403121561290b5761290a612795565b5b6000612919848285016128e0565b91505092915050565b60008115159050919050565b61293781612922565b82525050565b6000602082019050612952600083018461292e565b92915050565b600080fd5b600080fd5b6000601f19601f8301169050919050565b7f4e487b7100000000000000000000000000000000000000000000000000000000600052604160045260246000fd5b6129ab82612962565b810181811067ffffffffffffffff821117156129ca576129c9612973565b5b80604052505050565b60006129dd61278b565b90506129e982826129a2565b919050565b600067ffffffffffffffff821115612a0957612a08612973565b5b612a1282612962565b9050602081019050919050565b82818337600083830152505050565b6000612a41612a3c846129ee565b6129d3565b905082815260208101848484011115612a5d57612a5c61295d565b5b612a68848285612a1f565b509392505050565b600082601f830112612a8557612a84612958565b5b8135612a95848260208601612a2e565b91505092915050565b600060208284031215612ab457612ab3612795565b5b600082013567ffffffffffffffff811115612ad257612ad161279a565b5b612ade84828501612a70565b91505092915050565b600060208284031215612afd57612afc612795565b5b6000612b0b8482850161281e565b91505092915050565b600081519050919050565b600082825260208201905092915050565b60005b83811015612b4e578082015181840152602081019050612b33565b83811115612b5d576000848401525b50505050565b6000612b6e82612b14565b612b788185612b1f565b9350612b88818560208601612b30565b612b9181612962565b840191505092915050565b60006020820190508181036000830152612bb68184612b63565b905092915050565b600067ffffffffffffffff821115612bd957612bd8612973565b5b602082029050602081019050919050565b600080fd5b6000612c02612bfd84612bbe565b6129d3565b90508083825260208201905060208402830185811115612c2557612c24612bea565b5b835b81811015612c4e5780612c3a888261281e565b845260208401935050602081019050612c27565b5050509392505050565b600082601f830112612c6d57612c6c612958565b5b8135612c7d848260208601612bef565b91505092915050565b600067ffffffffffffffff821115612ca157612ca0612973565b5b612caa82612962565b9050602081019050919050565b6000612cca612cc584612c86565b6129d3565b905082815260208101848484011115612ce657612ce561295d565b5b612cf1848285612a1f565b509392505050565b600082601f830112612d0e57612d0d612958565b5b8135612d1e848260208601612cb7565b91505092915050565b60008060008060808587031215612d4157612d40612795565b5b6000612d4f878288016127e8565b945050602085013567ffffffffffffffff811115612d7057612d6f61279a565b5b612d7c87828801612c58565b935050604085013567ffffffffffffffff811115612d9d57612d9c61279a565b5b612da987828801612c58565b925050606085013567ffffffffffffffff811115612dca57612dc961279a565b5b612dd687828801612cf9565b91505092959194509250565b600080600080600060a08688031215612dfe57612dfd612795565b5b6000612e0c888289016127e8565b9550506020612e1d888289016127e8565b945050604086013567ffffffffffffffff811115612e3e57612e3d61279a565b5b612e4a88828901612c58565b935050606086013567ffffffffffffffff811115612e6b57612e6a61279a565b5b612e7788828901612c58565b925050608086013567ffffffffffffffff811115612e9857612e9761279a565b5b612ea488828901612cf9565b9150509295509295909350565b600060208284031215612ec757612ec6612795565b5b6000612ed5848285016127e8565b91505092915050565b600067ffffffffffffffff821115612ef957612ef8612973565b5b602082029050602081019050919050565b6000612f1d612f1884612ede565b6129d3565b90508083825260208201905060208402830185811115612f4057612f3f612bea565b5b835b81811015612f695780612f5588826127e8565b845260208401935050602081019050612f42565b5050509392505050565b600082601f830112612f8857612f87612958565b5b8135612f98848260208601612f0a565b91505092915050565b60008060408385031215612fb857612fb7612795565b5b600083013567ffffffffffffffff811115612fd657612fd561279a565b5b612fe285828601612f73565b925050602083013567ffffffffffffffff8111156130035761300261279a565b5b61300f85828601612c58565b9150509250929050565b600081519050919050565b600082825260208201905092915050565b6000819050602082019050919050565b61304e816127fd565b82525050565b60006130608383613045565b60208301905092915050565b6000602082019050919050565b600061308482613019565b61308e8185613024565b935061309983613035565b8060005b838110156130ca5781516130b18882613054565b97506130bc8361306c565b92505060018101905061309d565b5085935050505092915050565b600060208201905081810360008301526130f18184613079565b905092915050565b600080604083850312156131105761310f612795565b5b600061311e858286016127e8565b925050602083013567ffffffffffffffff81111561313f5761313e61279a565b5b61314b85828601612cf9565b9150509250929050565b6000819050919050565b61316881613155565b82525050565b6000602082019050613183600083018461315f565b92915050565b600080600080608085870312156131a3576131a2612795565b5b60006131b1878288016127e8565b94505060206131c28782880161281e565b93505060406131d38782880161281e565b925050606085013567ffffffffffffffff8111156131f4576131f361279a565b5b61320087828801612cf9565b91505092959194509250565b613215816127bf565b82525050565b6000602082019050613230600083018461320c565b92915050565b61323f81612922565b811461324a57600080fd5b50565b60008135905061325c81613236565b92915050565b6000806040838503121561327957613278612795565b5b6000613287858286016127e8565b92505060206132988582860161324d565b9150509250929050565b600080604083850312156132b9576132b8612795565b5b60006132c7858286016127e8565b92505060206132d8858286016127e8565b9150509250929050565b600080600080600060a086880312156132fe576132fd612795565b5b600061330c888289016127e8565b955050602061331d888289016127e8565b945050604061332e8882890161281e565b935050606061333f8882890161281e565b925050608086013567ffffffffffffffff8111156133605761335f61279a565b5b61336c88828901612cf9565b9150509295509295909350565b7f455243313135353a2061646472657373207a65726f206973206e6f742061207660008201527f616c6964206f776e657200000000000000000000000000000000000000000000602082015250565b60006133d5602a83612b1f565b91506133e082613379565b604082019050919050565b60006020820190508181036000830152613404816133c8565b9050919050565b7f4e487b7100000000000000000000000000000000000000000000000000000000600052602260045260246000fd5b6000600282049050600182168061345257607f821691505b6020821081036134655761346461340b565b5b50919050565b7f455243313135353a2063616c6c6572206973206e6f7420746f6b656e206f776e60008201527f6572206e6f7220617070726f7665640000000000000000000000000000000000602082015250565b60006134c7602f83612b1f565b91506134d28261346b565b604082019050919050565b600060208201905081810360008301526134f6816134ba565b9050919050565b7f46756e6374696f6e206d7573742062652063616c6c6564207468726f7567682060008201527f64656c656761746563616c6c0000000000000000000000000000000000000000602082015250565b6000613559602c83612b1f565b9150613564826134fd565b604082019050919050565b600060208201905081810360008301526135888161354c565b9050919050565b7f46756e6374696f6e206d7573742062652063616c6c6564207468726f7567682060008201527f6163746976652070726f78790000000000000000000000000000000000000000602082015250565b60006135eb602c83612b1f565b91506135f68261358f565b604082019050919050565b6000602082019050818103600083015261361a816135de565b9050919050565b7f455243313135353a206163636f756e747320616e6420696473206c656e67746860008201527f206d69736d617463680000000000000000000000000000000000000000000000602082015250565b600061367d602983612b1f565b915061368882613621565b604082019050919050565b600060208201905081810360008301526136ac81613670565b9050919050565b7f4e487b7100000000000000000000000000000000000000000000000000000000600052603260045260246000fd5b7f4e487b7100000000000000000000000000000000000000000000000000000000600052601160045260246000fd5b600061371c826127fd565b91507fffffffffffffffffffffffffffffffffffffffffffffffffffffffffffffffff820361374e5761374d6136e2565b5b600182019050919050565b7f555550535570677261646561626c653a206d757374206e6f742062652063616c60008201527f6c6564207468726f7567682064656c656761746563616c6c0000000000000000602082015250565b60006137b5603883612b1f565b91506137c082613759565b604082019050919050565b600060208201905081810360008301526137e4816137a8565b9050919050565b7f496e697469616c697a61626c653a20636f6e747261637420697320616c72656160008201527f647920696e697469616c697a6564000000000000000000000000000000000000602082015250565b6000613847602e83612b1f565b9150613852826137eb565b604082019050919050565b600060208201905081810360008301526138768161383a565b9050919050565b6000819050919050565b600060ff82169050919050565b6000819050919050565b60006138b96138b46138af8461387d565b613894565b613887565b9050919050565b6138c98161389e565b82525050565b60006020820190506138e460008301846138c0565b92915050565b7f4f776e61626c653a206e6577206f776e657220697320746865207a65726f206160008201527f6464726573730000000000000000000000000000000000000000000000000000602082015250565b6000613946602683612b1f565b9150613951826138ea565b604082019050919050565b6000602082019050818103600083015261397581613939565b9050919050565b7f4f776e61626c653a2063616c6c6572206973206e6f7420746865206f776e6572600082015250565b60006139b2602083612b1f565b91506139bd8261397c565b602082019050919050565b600060208201905081810360008301526139e1816139a5565b9050919050565b7f455243313135353a206d696e7420746f20746865207a65726f2061646472657360008201527f7300000000000000000000000000000000000000000000000000000000000000602082015250565b6000613a44602183612b1f565b9150613a4f826139e8565b604082019050919050565b60006020820190508181036000830152613a7381613a37565b9050919050565b7f455243313135353a2069647320616e6420616d6f756e7473206c656e6774682060008201527f6d69736d61746368000000000000000000000000000000000000000000000000602082015250565b6000613ad6602883612b1f565b9150613ae182613a7a565b604082019050919050565b60006020820190508181036000830152613b0581613ac9565b9050919050565b6000613b17826127fd565b9150613b22836127fd565b9250827fffffffffffffffffffffffffffffffffffffffffffffffffffffffffffffffff03821115613b5757613b566136e2565b5b828201905092915050565b60006040820190508181036000830152613b7c8185613079565b90508181036020830152613b908184613079565b90509392505050565b7f455243313135353a207472616e7366657220746f20746865207a65726f20616460008201527f6472657373000000000000000000000000000000000000000000000000000000602082015250565b6000613bf5602583612b1f565b9150613c0082613b99565b604082019050919050565b60006020820190508181036000830152613c2481613be8565b9050919050565b7f455243313135353a20696e73756666696369656e742062616c616e636520666f60008201527f72207472616e7366657200000000000000000000000000000000000000000000602082015250565b6000613c87602a83612b1f565b9150613c9282613c2b565b604082019050919050565b60006020820190508181036000830152613cb681613c7a565b9050919050565b613cc681613155565b8114613cd157600080fd5b50565b600081519050613ce381613cbd565b92915050565b600060208284031215613cff57613cfe612795565b5b6000613d0d84828501613cd4565b91505092915050565b7f45524331393637557067726164653a206e657720696d706c656d656e7461746960008201527f6f6e206973206e6f742055555053000000000000000000000000000000000000602082015250565b6000613d72602e83612b1f565b9150613d7d82613d16565b604082019050919050565b60006020820190508181036000830152613da181613d65565b9050919050565b7f45524331393637557067726164653a20756e737570706f727465642070726f7860008201527f6961626c65555549440000000000000000000000000000000000000000000000602082015250565b6000613e04602983612b1f565b9150613e0f82613da8565b604082019050919050565b60006020820190508181036000830152613e3381613df7565b9050919050565b6000604082019050613e4f6000830185612873565b613e5c6020830184612873565b9392505050565b7f496e697469616c697a61626c653a20636f6e7472616374206973206e6f74206960008201527f6e697469616c697a696e67000000000000000000000000000000000000000000602082015250565b6000613ebf602b83612b1f565b9150613eca82613e63565b604082019050919050565b60006020820190508181036000830152613eee81613eb2565b9050919050565b7f455243313135353a2073657474696e6720617070726f76616c2073746174757360008201527f20666f722073656c660000000000000000000000000000000000000000000000602082015250565b6000613f51602983612b1f565b9150613f5c82613ef5565b604082019050919050565b60006020820190508181036000830152613f8081613f44565b9050919050565b600081519050919050565b600082825260208201905092915050565b6000613fae82613f87565b613fb88185613f92565b9350613fc8818560208601612b30565b613fd181612962565b840191505092915050565b600060a082019050613ff1600083018861320c565b613ffe602083018761320c565b81810360408301526140108186613079565b905081810360608301526140248185613079565b905081810360808301526140388184613fa3565b90509695505050505050565b600081519050614053816128c9565b92915050565b60006020828403121561406f5761406e612795565b5b600061407d84828501614044565b91505092915050565b60008160e01c9050919050565b600060033d11156140b25760046000803e6140af600051614086565b90505b90565b600060443d10614142576140c761278b565b60043d036004823e80513d602482011167ffffffffffffffff821117156140ef575050614142565b808201805167ffffffffffffffff81111561410d5750505050614142565b80602083010160043d03850181111561412a575050505050614142565b614139826020018501866129a2565b82955050505050505b90565b7f455243313135353a207472616e7366657220746f206e6f6e204552433131353560008201527f526563656976657220696d706c656d656e746572000000000000000000000000602082015250565b60006141a1603483612b1f565b91506141ac82614145565b604082019050919050565b600060208201905081810360008301526141d081614194565b9050919050565b7f455243313135353a204552433131353552656365697665722072656a6563746560008201527f6420746f6b656e73000000000000000000000000000000000000000000000000602082015250565b6000614233602883612b1f565b915061423e826141d7565b604082019050919050565b6000602082019050818103600083015261426281614226565b9050919050565b7f455243313936373a206e657720696d706c656d656e746174696f6e206973206e60008201527f6f74206120636f6e747261637400000000000000000000000000000000000000602082015250565b60006142c5602d83612b1f565b91506142d082614269565b604082019050919050565b600060208201905081810360008301526142f4816142b8565b9050919050565b600060a082019050614310600083018861320c565b61431d602083018761320c565b61432a6040830186612873565b6143376060830185612873565b81810360808301526143498184613fa3565b90509695505050505050565b7f416464726573733a2064656c65676174652063616c6c20746f206e6f6e2d636f60008201527f6e74726163740000000000000000000000000000000000000000000000000000602082015250565b60006143b1602683612b1f565b91506143bc82614355565b604082019050919050565b600060208201905081810360008301526143e0816143a4565b9050919050565b600081905092915050565b60006143fd82613f87565b61440781856143e7565b9350614417818560208601612b30565b80840191505092915050565b600061442f82846143f2565b91508190509291505056fe416464726573733a206c6f772d6c6576656c2064656c65676174652063616c6c206661696c6564a264697066735822122010c30cb3892c6f8724fbf45e04944e2ad0d76026041aa7094bd1d03c227be49d64736f6c634300080d0033",
  "immutableReferences": {
    "1115": [
      {
        "length": 32,
        "start": 1909
      },
      {
        "length": 32,
        "start": 2051
      },
      {
        "length": 32,
        "start": 2582
      },
      {
        "length": 32,
        "start": 2724
      },
      {
        "length": 32,
        "start": 2900
      }
    ]
  },
  "source": "// SPDX-License-Identifier: MIT\r\npragma solidity ^0.8.9;\r\n\r\nimport \"@openzeppelin/contracts-upgradeable/token/ERC1155/ERC1155Upgradeable.sol\";\r\nimport \"@openzeppelin/contracts-upgradeable/access/OwnableUpgradeable.sol\";\r\nimport \"@openzeppelin/contracts-upgradeable/proxy/utils/Initializable.sol\";\r\nimport \"@openzeppelin/contracts-upgradeable/proxy/utils/UUPSUpgradeable.sol\";\r\n\r\ncontract B3Token is Initializable, ERC1155Upgradeable, OwnableUpgradeable, UUPSUpgradeable {\r\n    /// @custom:oz-upgrades-unsafe-allow constructor\r\n    constructor() {\r\n        _disableInitializers();\r\n    }\r\n\r\n    function initialize() initializer public {\r\n        __ERC1155_init(\"\");\r\n        __Ownable_init();\r\n        __UUPSUpgradeable_init();\r\n    }\r\n\r\n    function getVersion() public pure returns (uint256 version) {\r\n        return 1;\r\n    }\r\n\r\n    function setURI(string memory newuri) public onlyOwner {\r\n        _setURI(newuri);\r\n    }\r\n\r\n    function mint(address account, uint256 id, uint256 amount, bytes memory data)\r\n        public\r\n        onlyOwner\r\n    {\r\n        _mint(account, id, amount, data);\r\n    }\r\n\r\n    function mintBatch(address to, uint256[] memory ids, uint256[] memory amounts, bytes memory data)\r\n        public\r\n        onlyOwner\r\n    {\r\n        _mintBatch(to, ids, amounts, data);\r\n    }\r\n\r\n    function _authorizeUpgrade(address newImplementation)\r\n        internal\r\n        onlyOwner\r\n        override\r\n    {}\r\n}",
  "sourcePath": "C:\\linden\\eth-contracts\\nftExchange\\contracts\\B3Token1155.sol",
  "compiler": {
    "name": "solc",
    "version": "0.8.13+commit.abaa5c0e.Emscripten.clang"
  },
  "schemaVersion": "3.4.8",
  "updatedAt": "2023-03-14T15:51:42.446Z",
  "networkType": "ethereum",
  "devdoc": {
    "kind": "dev",
    "methods": {
      "balanceOf(address,uint256)": {
        "details": "See {IERC1155-balanceOf}. Requirements: - `account` cannot be the zero address."
      },
      "balanceOfBatch(address[],uint256[])": {
        "details": "See {IERC1155-balanceOfBatch}. Requirements: - `accounts` and `ids` must have the same length."
      },
      "constructor": {
        "custom:oz-upgrades-unsafe-allow": "constructor"
      },
      "isApprovedForAll(address,address)": {
        "details": "See {IERC1155-isApprovedForAll}."
      },
      "owner()": {
        "details": "Returns the address of the current owner."
      },
      "proxiableUUID()": {
        "details": "Implementation of the ERC1822 {proxiableUUID} function. This returns the storage slot used by the implementation. It is used to validate that the this implementation remains valid after an upgrade. IMPORTANT: A proxy pointing at a proxiable contract should not be considered proxiable itself, because this risks bricking a proxy that upgrades to it, by delegating to itself until out of gas. Thus it is critical that this function revert if invoked through a proxy. This is guaranteed by the `notDelegated` modifier."
      },
      "renounceOwnership()": {
        "details": "Leaves the contract without owner. It will not be possible to call `onlyOwner` functions anymore. Can only be called by the current owner. NOTE: Renouncing ownership will leave the contract without an owner, thereby removing any functionality that is only available to the owner."
      },
      "safeBatchTransferFrom(address,address,uint256[],uint256[],bytes)": {
        "details": "See {IERC1155-safeBatchTransferFrom}."
      },
      "safeTransferFrom(address,address,uint256,uint256,bytes)": {
        "details": "See {IERC1155-safeTransferFrom}."
      },
      "setApprovalForAll(address,bool)": {
        "details": "See {IERC1155-setApprovalForAll}."
      },
      "supportsInterface(bytes4)": {
        "details": "See {IERC165-supportsInterface}."
      },
      "transferOwnership(address)": {
        "details": "Transfers ownership of the contract to a new account (`newOwner`). Can only be called by the current owner."
      },
      "upgradeTo(address)": {
        "details": "Upgrade the implementation of the proxy to `newImplementation`. Calls {_authorizeUpgrade}. Emits an {Upgraded} event."
      },
      "upgradeToAndCall(address,bytes)": {
        "details": "Upgrade the implementation of the proxy to `newImplementation`, and subsequently execute the function call encoded in `data`. Calls {_authorizeUpgrade}. Emits an {Upgraded} event."
      },
      "uri(uint256)": {
        "details": "See {IERC1155MetadataURI-uri}. This implementation returns the same URI for *all* token types. It relies on the token type ID substitution mechanism https://eips.ethereum.org/EIPS/eip-1155#metadata[defined in the EIP]. Clients calling this function must replace the `\\{id\\}` substring with the actual token type ID."
      }
    },
    "version": 1
  },
  "userdoc": {
    "kind": "user",
    "methods": {},
    "version": 1
  }
}