{
  "contractName": "CataDidNFT",
  "abi": [
    {
      "anonymous": false,
      "inputs": [
        {
          "indexed": false,
          "internalType": "address",
          "name": "previousAdmin",
          "type": "address"
        },
        {
          "indexed": false,
          "internalType": "address",
          "name": "newAdmin",
          "type": "address"
        }
      ],
      "name": "AdminChanged",
      "type": "event"
    },
    {
      "anonymous": false,
      "inputs": [
        {
          "indexed": true,
          "internalType": "address",
          "name": "owner",
          "type": "address"
        },
        {
          "indexed": true,
          "internalType": "address",
          "name": "approved",
          "type": "address"
        },
        {
          "indexed": true,
          "internalType": "uint256",
          "name": "tokenId",
          "type": "uint256"
        }
      ],
      "name": "Approval",
      "type": "event"
    },
    {
      "anonymous": false,
      "inputs": [
        {
          "indexed": true,
          "internalType": "address",
          "name": "owner",
          "type": "address"
        },
        {
          "indexed": true,
          "internalType": "address",
          "name": "operator",
          "type": "address"
        },
        {
          "indexed": false,
          "internalType": "bool",
          "name": "approved",
          "type": "bool"
        }
      ],
      "name": "ApprovalForAll",
      "type": "event"
    },
    {
      "anonymous": false,
      "inputs": [
        {
          "indexed": true,
          "internalType": "address",
          "name": "beacon",
          "type": "address"
        }
      ],
      "name": "BeaconUpgraded",
      "type": "event"
    },
    {
      "anonymous": false,
      "inputs": [
        {
          "indexed": false,
          "internalType": "uint8",
          "name": "version",
          "type": "uint8"
        }
      ],
      "name": "Initialized",
      "type": "event"
    },
    {
      "anonymous": false,
      "inputs": [
        {
          "indexed": false,
          "internalType": "address",
          "name": "creator",
          "type": "address"
        },
        {
          "indexed": false,
          "internalType": "address",
          "name": "to",
          "type": "address"
        },
        {
          "indexed": false,
          "internalType": "uint256",
          "name": "tokenId",
          "type": "uint256"
        },
        {
          "indexed": false,
          "internalType": "string",
          "name": "did",
          "type": "string"
        }
      ],
      "name": "MintDid",
      "type": "event"
    },
    {
      "anonymous": false,
      "inputs": [
        {
          "indexed": true,
          "internalType": "bytes32",
          "name": "role",
          "type": "bytes32"
        },
        {
          "indexed": true,
          "internalType": "bytes32",
          "name": "previousAdminRole",
          "type": "bytes32"
        },
        {
          "indexed": true,
          "internalType": "bytes32",
          "name": "newAdminRole",
          "type": "bytes32"
        }
      ],
      "name": "RoleAdminChanged",
      "type": "event"
    },
    {
      "anonymous": false,
      "inputs": [
        {
          "indexed": true,
          "internalType": "bytes32",
          "name": "role",
          "type": "bytes32"
        },
        {
          "indexed": true,
          "internalType": "address",
          "name": "account",
          "type": "address"
        },
        {
          "indexed": true,
          "internalType": "address",
          "name": "sender",
          "type": "address"
        }
      ],
      "name": "RoleGranted",
      "type": "event"
    },
    {
      "anonymous": false,
      "inputs": [
        {
          "indexed": true,
          "internalType": "bytes32",
          "name": "role",
          "type": "bytes32"
        },
        {
          "indexed": true,
          "internalType": "address",
          "name": "account",
          "type": "address"
        },
        {
          "indexed": true,
          "internalType": "address",
          "name": "sender",
          "type": "address"
        }
      ],
      "name": "RoleRevoked",
      "type": "event"
    },
    {
      "anonymous": false,
      "inputs": [
        {
          "indexed": true,
          "internalType": "address",
          "name": "from",
          "type": "address"
        },
        {
          "indexed": true,
          "internalType": "address",
          "name": "to",
          "type": "address"
        },
        {
          "indexed": true,
          "internalType": "uint256",
          "name": "tokenId",
          "type": "uint256"
        }
      ],
      "name": "Transfer",
      "type": "event"
    },
    {
      "anonymous": false,
      "inputs": [
        {
          "indexed": false,
          "internalType": "address",
          "name": "from",
          "type": "address"
        },
        {
          "indexed": false,
          "internalType": "address",
          "name": "to",
          "type": "address"
        },
        {
          "indexed": false,
          "internalType": "uint256",
          "name": "tokenId",
          "type": "uint256"
        },
        {
          "indexed": false,
          "internalType": "string",
          "name": "did",
          "type": "string"
        }
      ],
      "name": "TransferDid",
      "type": "event"
    },
    {
      "anonymous": false,
      "inputs": [
        {
          "indexed": true,
          "internalType": "address",
          "name": "implementation",
          "type": "address"
        }
      ],
      "name": "Upgraded",
      "type": "event"
    },
    {
      "inputs": [],
      "name": "DEFAULT_ADMIN_ROLE",
      "outputs": [
        {
          "internalType": "bytes32",
          "name": "",
          "type": "bytes32"
        }
      ],
      "stateMutability": "view",
      "type": "function"
    },
    {
      "inputs": [],
      "name": "MINTER_ROLE",
      "outputs": [
        {
          "internalType": "bytes32",
          "name": "",
          "type": "bytes32"
        }
      ],
      "stateMutability": "view",
      "type": "function"
    },
    {
      "inputs": [],
      "name": "UPGRADER_ROLE",
      "outputs": [
        {
          "internalType": "bytes32",
          "name": "",
          "type": "bytes32"
        }
      ],
      "stateMutability": "view",
      "type": "function"
    },
    {
      "inputs": [
        {
          "internalType": "address",
          "name": "to",
          "type": "address"
        },
        {
          "internalType": "uint256",
          "name": "tokenId",
          "type": "uint256"
        }
      ],
      "name": "approve",
      "outputs": [],
      "stateMutability": "nonpayable",
      "type": "function"
    },
    {
      "inputs": [
        {
          "internalType": "address",
          "name": "owner",
          "type": "address"
        }
      ],
      "name": "balanceOf",
      "outputs": [
        {
          "internalType": "uint256",
          "name": "",
          "type": "uint256"
        }
      ],
      "stateMutability": "view",
      "type": "function"
    },
    {
      "inputs": [
        {
          "internalType": "uint256",
          "name": "tokenId",
          "type": "uint256"
        }
      ],
      "name": "getApproved",
      "outputs": [
        {
          "internalType": "address",
          "name": "",
          "type": "address"
        }
      ],
      "stateMutability": "view",
      "type": "function"
    },
    {
      "inputs": [
        {
          "internalType": "bytes32",
          "name": "role",
          "type": "bytes32"
        }
      ],
      "name": "getRoleAdmin",
      "outputs": [
        {
          "internalType": "bytes32",
          "name": "",
          "type": "bytes32"
        }
      ],
      "stateMutability": "view",
      "type": "function"
    },
    {
      "inputs": [
        {
          "internalType": "bytes32",
          "name": "role",
          "type": "bytes32"
        },
        {
          "internalType": "address",
          "name": "account",
          "type": "address"
        }
      ],
      "name": "grantRole",
      "outputs": [],
      "stateMutability": "nonpayable",
      "type": "function"
    },
    {
      "inputs": [
        {
          "internalType": "bytes32",
          "name": "role",
          "type": "bytes32"
        },
        {
          "internalType": "address",
          "name": "account",
          "type": "address"
        }
      ],
      "name": "hasRole",
      "outputs": [
        {
          "internalType": "bool",
          "name": "",
          "type": "bool"
        }
      ],
      "stateMutability": "view",
      "type": "function"
    },
    {
      "inputs": [
        {
          "internalType": "address",
          "name": "owner",
          "type": "address"
        },
        {
          "internalType": "address",
          "name": "operator",
          "type": "address"
        }
      ],
      "name": "isApprovedForAll",
      "outputs": [
        {
          "internalType": "bool",
          "name": "",
          "type": "bool"
        }
      ],
      "stateMutability": "view",
      "type": "function"
    },
    {
      "inputs": [],
      "name": "name",
      "outputs": [
        {
          "internalType": "string",
          "name": "",
          "type": "string"
        }
      ],
      "stateMutability": "view",
      "type": "function"
    },
    {
      "inputs": [
        {
          "internalType": "uint256",
          "name": "tokenId",
          "type": "uint256"
        }
      ],
      "name": "ownerOf",
      "outputs": [
        {
          "internalType": "address",
          "name": "",
          "type": "address"
        }
      ],
      "stateMutability": "view",
      "type": "function"
    },
    {
      "inputs": [],
      "name": "proxiableUUID",
      "outputs": [
        {
          "internalType": "bytes32",
          "name": "",
          "type": "bytes32"
        }
      ],
      "stateMutability": "view",
      "type": "function"
    },
    {
      "inputs": [
        {
          "internalType": "bytes32",
          "name": "role",
          "type": "bytes32"
        },
        {
          "internalType": "address",
          "name": "account",
          "type": "address"
        }
      ],
      "name": "renounceRole",
      "outputs": [],
      "stateMutability": "nonpayable",
      "type": "function"
    },
    {
      "inputs": [
        {
          "internalType": "bytes32",
          "name": "role",
          "type": "bytes32"
        },
        {
          "internalType": "address",
          "name": "account",
          "type": "address"
        }
      ],
      "name": "revokeRole",
      "outputs": [],
      "stateMutability": "nonpayable",
      "type": "function"
    },
    {
      "inputs": [
        {
          "internalType": "address",
          "name": "from",
          "type": "address"
        },
        {
          "internalType": "address",
          "name": "to",
          "type": "address"
        },
        {
          "internalType": "uint256",
          "name": "tokenId",
          "type": "uint256"
        }
      ],
      "name": "safeTransferFrom",
      "outputs": [],
      "stateMutability": "nonpayable",
      "type": "function"
    },
    {
      "inputs": [
        {
          "internalType": "address",
          "name": "from",
          "type": "address"
        },
        {
          "internalType": "address",
          "name": "to",
          "type": "address"
        },
        {
          "internalType": "uint256",
          "name": "tokenId",
          "type": "uint256"
        },
        {
          "internalType": "bytes",
          "name": "data",
          "type": "bytes"
        }
      ],
      "name": "safeTransferFrom",
      "outputs": [],
      "stateMutability": "nonpayable",
      "type": "function"
    },
    {
      "inputs": [
        {
          "internalType": "address",
          "name": "operator",
          "type": "address"
        },
        {
          "internalType": "bool",
          "name": "approved",
          "type": "bool"
        }
      ],
      "name": "setApprovalForAll",
      "outputs": [],
      "stateMutability": "nonpayable",
      "type": "function"
    },
    {
      "inputs": [],
      "name": "symbol",
      "outputs": [
        {
          "internalType": "string",
          "name": "",
          "type": "string"
        }
      ],
      "stateMutability": "view",
      "type": "function"
    },
    {
      "inputs": [
        {
          "internalType": "address",
          "name": "from",
          "type": "address"
        },
        {
          "internalType": "address",
          "name": "to",
          "type": "address"
        },
        {
          "internalType": "uint256",
          "name": "tokenId",
          "type": "uint256"
        }
      ],
      "name": "transferFrom",
      "outputs": [],
      "stateMutability": "nonpayable",
      "type": "function"
    },
    {
      "inputs": [
        {
          "internalType": "address",
          "name": "newImplementation",
          "type": "address"
        }
      ],
      "name": "upgradeTo",
      "outputs": [],
      "stateMutability": "nonpayable",
      "type": "function"
    },
    {
      "inputs": [
        {
          "internalType": "address",
          "name": "newImplementation",
          "type": "address"
        },
        {
          "internalType": "bytes",
          "name": "data",
          "type": "bytes"
        }
      ],
      "name": "upgradeToAndCall",
      "outputs": [],
      "stateMutability": "payable",
      "type": "function"
    },
    {
      "inputs": [],
      "name": "getVersion",
      "outputs": [
        {
          "internalType": "uint256",
          "name": "version",
          "type": "uint256"
        }
      ],
      "stateMutability": "pure",
      "type": "function"
    },
    {
      "inputs": [],
      "name": "initialize",
      "outputs": [],
      "stateMutability": "nonpayable",
      "type": "function"
    },
    {
      "inputs": [
        {
          "internalType": "address",
          "name": "to",
          "type": "address"
        },
        {
          "internalType": "string",
          "name": "uri",
          "type": "string"
        }
      ],
      "name": "safeMint",
      "outputs": [],
      "stateMutability": "nonpayable",
      "type": "function"
    },
    {
      "inputs": [
        {
          "internalType": "uint256",
          "name": "tokenId",
          "type": "uint256"
        }
      ],
      "name": "tokenURI",
      "outputs": [
        {
          "internalType": "string",
          "name": "",
          "type": "string"
        }
      ],
      "stateMutability": "view",
      "type": "function"
    },
    {
      "inputs": [
        {
          "internalType": "bytes4",
          "name": "interfaceId",
          "type": "bytes4"
        }
      ],
      "name": "supportsInterface",
      "outputs": [
        {
          "internalType": "bool",
          "name": "",
          "type": "bool"
        }
      ],
      "stateMutability": "view",
      "type": "function"
    },
    {
      "inputs": [
        {
          "internalType": "string",
          "name": "did",
          "type": "string"
        }
      ],
      "name": "didOwner",
      "outputs": [
        {
          "internalType": "address",
          "name": "",
          "type": "address"
        }
      ],
      "stateMutability": "view",
      "type": "function"
    },
    {
      "inputs": [
        {
          "internalType": "address",
          "name": "owner",
          "type": "address"
        }
      ],
      "name": "getDids",
      "outputs": [
        {
          "internalType": "string",
          "name": "",
          "type": "string"
        }
      ],
      "stateMutability": "view",
      "type": "function"
    },
    {
      "inputs": [
        {
          "internalType": "address",
          "name": "to",
          "type": "address"
        },
        {
          "internalType": "string",
          "name": "did",
          "type": "string"
        }
      ],
      "name": "mintDid",
      "outputs": [],
      "stateMutability": "nonpayable",
      "type": "function"
    },
    {
      "inputs": [
        {
          "internalType": "address",
          "name": "from",
          "type": "address"
        },
        {
          "internalType": "address",
          "name": "to",
          "type": "address"
        },
        {
          "internalType": "string",
          "name": "did",
          "type": "string"
        }
      ],
      "name": "transferDid",
      "outputs": [],
      "stateMutability": "nonpayable",
      "type": "function"
    }
  ],
  "bytecode": "0x60a06040523073ffffffffffffffffffffffffffffffffffffffff1660809073ffffffffffffffffffffffffffffffffffffffff1681525034801561004357600080fd5b506080516157136200007c60003960008181610abb01528181610b4901528181610db601528181610e440152610ef401526157136000f3fe6080604052600436106101d85760003560e01c80636352211e11610102578063c0868acd11610095578063d539139311610064578063d5391393146106cf578063d547741f146106fa578063e985e9c514610723578063f72c0d8b14610760576101d8565b8063c0868acd14610603578063c87b56dd14610640578063d204c45e1461067d578063d49f3def146106a6576101d8565b806395d89b41116100d157806395d89b411461055b578063a217fddf14610586578063a22cb465146105b1578063b88d4fde146105da576101d8565b80636352211e1461048d57806370a08231146104ca5780638129fc1c1461050757806391d148541461051e576101d8565b80632f2ff15d1161017a57806342842e0e1161014957806342842e0e146103e05780634f1ef2861461040957806352d1902d1461042557806355f1340a14610450576101d8565b80632f2ff15d1461033c57806336568abe146103655780633659cfe61461038e57806342054309146103b7576101d8565b8063095ea7b3116101b6578063095ea7b3146102825780630d8e6e2c146102ab57806323b872dd146102d6578063248a9ca3146102ff576101d8565b806301ffc9a7146101dd57806306fdde031461021a578063081812fc14610245575b600080fd5b3480156101e957600080fd5b5061020460048036038101906101ff9190613a44565b61078b565b6040516102119190613a8c565b60405180910390f35b34801561022657600080fd5b5061022f61079d565b60405161023c9190613b40565b60405180910390f35b34801561025157600080fd5b5061026c60048036038101906102679190613b98565b61082f565b6040516102799190613c06565b60405180910390f35b34801561028e57600080fd5b506102a960048036038101906102a49190613c4d565b610875565b005b3480156102b757600080fd5b506102c061098c565b6040516102cd9190613c9c565b60405180910390f35b3480156102e257600080fd5b506102fd60048036038101906102f89190613cb7565b610995565b005b34801561030b57600080fd5b5061032660048036038101906103219190613d40565b6109f5565b6040516103339190613d7c565b60405180910390f35b34801561034857600080fd5b50610363600480360381019061035e9190613d97565b610a15565b005b34801561037157600080fd5b5061038c60048036038101906103879190613d97565b610a36565b005b34801561039a57600080fd5b506103b560048036038101906103b09190613dd7565b610ab9565b005b3480156103c357600080fd5b506103de60048036038101906103d99190613f39565b610c41565b005b3480156103ec57600080fd5b5061040760048036038101906104029190613cb7565b610d94565b005b610423600480360381019061041e9190614036565b610db4565b005b34801561043157600080fd5b5061043a610ef0565b6040516104479190613d7c565b60405180910390f35b34801561045c57600080fd5b5061047760048036038101906104729190613dd7565b610fa9565b6040516104849190613b40565b60405180910390f35b34801561049957600080fd5b506104b460048036038101906104af9190613b98565b6111e0565b6040516104c19190613c06565b60405180910390f35b3480156104d657600080fd5b506104f160048036038101906104ec9190613dd7565b611291565b6040516104fe9190613c9c565b60405180910390f35b34801561051357600080fd5b5061051c611348565b005b34801561052a57600080fd5b5061054560048036038101906105409190613d97565b611576565b6040516105529190613a8c565b60405180910390f35b34801561056757600080fd5b506105706115e1565b60405161057d9190613b40565b60405180910390f35b34801561059257600080fd5b5061059b611673565b6040516105a89190613d7c565b60405180910390f35b3480156105bd57600080fd5b506105d860048036038101906105d391906140be565b61167a565b005b3480156105e657600080fd5b5061060160048036038101906105fc91906140fe565b611690565b005b34801561060f57600080fd5b5061062a60048036038101906106259190614181565b6116f2565b6040516106379190613c06565b60405180910390f35b34801561064c57600080fd5b5061066760048036038101906106629190613b98565b611728565b6040516106749190613b40565b60405180910390f35b34801561068957600080fd5b506106a4600480360381019061069f9190613f39565b61173a565b005b3480156106b257600080fd5b506106cd60048036038101906106c891906141ca565b611773565b005b3480156106db57600080fd5b506106e46117a8565b6040516106f19190613d7c565b60405180910390f35b34801561070657600080fd5b50610721600480360381019061071c9190613d97565b6117cc565b005b34801561072f57600080fd5b5061074a60048036038101906107459190614239565b6117ed565b6040516107579190613a8c565b60405180910390f35b34801561076c57600080fd5b50610775611881565b6040516107829190613d7c565b60405180910390f35b6000610796826118a5565b9050919050565b6060606580546107ac906142a8565b80601f01602080910402602001604051908101604052809291908181526020018280546107d8906142a8565b80156108255780601f106107fa57610100808354040283529160200191610825565b820191906000526020600020905b81548152906001019060200180831161080857829003601f168201915b5050505050905090565b600061083a8261191f565b6069600083815260200190815260200160002060009054906101000a900473ffffffffffffffffffffffffffffffffffffffff169050919050565b6000610880826111e0565b90508073ffffffffffffffffffffffffffffffffffffffff168373ffffffffffffffffffffffffffffffffffffffff16036108f0576040517f08c379a00000000000000000000000000000000000000000000000000000000081526004016108e79061434b565b60405180910390fd5b8073ffffffffffffffffffffffffffffffffffffffff1661090f61196a565b73ffffffffffffffffffffffffffffffffffffffff16148061093e575061093d8161093861196a565b6117ed565b5b61097d576040517f08c379a0000000000000000000000000000000000000000000000000000000008152600401610974906143dd565b60405180910390fd5b6109878383611972565b505050565b60006003905090565b6109a66109a061196a565b82611a2b565b6109e5576040517f08c379a00000000000000000000000000000000000000000000000000000000081526004016109dc9061446f565b60405180910390fd5b6109f0838383611ac0565b505050565b600060c96000838152602001908152602001600020600101549050919050565b610a1e826109f5565b610a2781611b29565b610a318383611b3d565b505050565b610a3e61196a565b73ffffffffffffffffffffffffffffffffffffffff168173ffffffffffffffffffffffffffffffffffffffff1614610aab576040517f08c379a0000000000000000000000000000000000000000000000000000000008152600401610aa290614501565b60405180910390fd5b610ab58282611c1e565b5050565b7f000000000000000000000000000000000000000000000000000000000000000073ffffffffffffffffffffffffffffffffffffffff163073ffffffffffffffffffffffffffffffffffffffff1603610b47576040517f08c379a0000000000000000000000000000000000000000000000000000000008152600401610b3e90614593565b60405180910390fd5b7f000000000000000000000000000000000000000000000000000000000000000073ffffffffffffffffffffffffffffffffffffffff16610b86611d00565b73ffffffffffffffffffffffffffffffffffffffff1614610bdc576040517f08c379a0000000000000000000000000000000000000000000000000000000008152600401610bd390614625565b60405180910390fd5b610be581611d57565b610c3e81600067ffffffffffffffff811115610c0457610c03613e0e565b5b6040519080825280601f01601f191660200182016040528015610c365781602001600182028036833780820191505090505b506000611d85565b50565b6000610c4c82611ef3565b9050600061016160003373ffffffffffffffffffffffffffffffffffffffff1673ffffffffffffffffffffffffffffffffffffffff168152602001908152602001600020805480602002602001604051908101604052809291908181526020018280548015610cda57602002820191906000526020600020905b815481526020019060010190808311610cc6575b505050505090506000805b8251811015610d42576000610d13848381518110610d0657610d05614645565b5b6020026020010151611728565b9050610d1f8582612004565b15610d2e576001925050610d42565b508080610d3a906146a3565b915050610ce5565b5080610d83576040517f08c379a0000000000000000000000000000000000000000000000000000000008152600401610d7a90614737565b60405180910390fd5b610d8d8585612070565b5050505050565b610daf83838360405180602001604052806000815250611690565b505050565b7f000000000000000000000000000000000000000000000000000000000000000073ffffffffffffffffffffffffffffffffffffffff163073ffffffffffffffffffffffffffffffffffffffff1603610e42576040517f08c379a0000000000000000000000000000000000000000000000000000000008152600401610e3990614593565b60405180910390fd5b7f000000000000000000000000000000000000000000000000000000000000000073ffffffffffffffffffffffffffffffffffffffff16610e81611d00565b73ffffffffffffffffffffffffffffffffffffffff1614610ed7576040517f08c379a0000000000000000000000000000000000000000000000000000000008152600401610ece90614625565b60405180910390fd5b610ee082611d57565b610eec82826001611d85565b5050565b60007f000000000000000000000000000000000000000000000000000000000000000073ffffffffffffffffffffffffffffffffffffffff163073ffffffffffffffffffffffffffffffffffffffff1614610f80576040517f08c379a0000000000000000000000000000000000000000000000000000000008152600401610f77906147c9565b60405180910390fd5b7f360894a13ba1a3210667c828492db98dca3e2076cc3735a920a3ca505d382bbc60001b905090565b6060600061016160008473ffffffffffffffffffffffffffffffffffffffff1673ffffffffffffffffffffffffffffffffffffffff16815260200190815260200160002080548060200260200160405190810160405280929190818152602001828054801561103757602002820191906000526020600020905b815481526020019060010190808311611023575b5050505050905060006040518060400160405280600181526020017f5b00000000000000000000000000000000000000000000000000000000000000815250905060005b82518110156111975760006110a984838151811061109c5761109b614645565b5b6020026020010151611728565b9050600082146110f5576110f2836040518060400160405280600181526020017f2c000000000000000000000000000000000000000000000000000000000000008152506120f4565b92505b611134836040518060400160405280600181526020017f22000000000000000000000000000000000000000000000000000000000000008152506120f4565b925061114083826120f4565b9250611181836040518060400160405280600181526020017f22000000000000000000000000000000000000000000000000000000000000008152506120f4565b925050808061118f906146a3565b91505061107b565b506111d7816040518060400160405280600181526020017f5d000000000000000000000000000000000000000000000000000000000000008152506120f4565b92505050919050565b6000806067600084815260200190815260200160002060009054906101000a900473ffffffffffffffffffffffffffffffffffffffff169050600073ffffffffffffffffffffffffffffffffffffffff168173ffffffffffffffffffffffffffffffffffffffff1603611288576040517f08c379a000000000000000000000000000000000000000000000000000000000815260040161127f90614835565b60405180910390fd5b80915050919050565b60008073ffffffffffffffffffffffffffffffffffffffff168273ffffffffffffffffffffffffffffffffffffffff1603611301576040517f08c379a00000000000000000000000000000000000000000000000000000000081526004016112f8906148c7565b60405180910390fd5b606860008373ffffffffffffffffffffffffffffffffffffffff1673ffffffffffffffffffffffffffffffffffffffff168152602001908152602001600020549050919050565b60008060019054906101000a900460ff161590508080156113795750600160008054906101000a900460ff1660ff16105b806113a6575061138830612120565b1580156113a55750600160008054906101000a900460ff1660ff16145b5b6113e5576040517f08c379a00000000000000000000000000000000000000000000000000000000081526004016113dc90614959565b60405180910390fd5b60016000806101000a81548160ff021916908360ff1602179055508015611422576001600060016101000a81548160ff0219169083151502179055505b6114966040518060400160405280600a81526020017f436174614469644e4654000000000000000000000000000000000000000000008152506040518060400160405280600381526020017f4449440000000000000000000000000000000000000000000000000000000000815250612143565b61149e6121a0565b6114a66121f1565b6114ae612242565b6114bb6000801b33611b3d565b6114e57f9f2df0fed2c77648de5860a4cc508cd0818c85b8b8a1ab4ceeef8d981c8956a633611b3d565b61150f7f189ab7a9244df0848122154315af71fe140f3db0fe014031783b0946b8c9d2e333611b3d565b61151a61015f612293565b80156115735760008060016101000a81548160ff0219169083151502179055507f7f26b83ff96e1f2b6a682f133852f6798a09c465da95921460cefb3847402498600160405161156a91906149cb565b60405180910390a15b50565b600060c9600084815260200190815260200160002060000160008373ffffffffffffffffffffffffffffffffffffffff1673ffffffffffffffffffffffffffffffffffffffff16815260200190815260200160002060009054906101000a900460ff16905092915050565b6060606680546115f0906142a8565b80601f016020809104026020016040519081016040528092919081815260200182805461161c906142a8565b80156116695780601f1061163e57610100808354040283529160200191611669565b820191906000526020600020905b81548152906001019060200180831161164c57829003601f168201915b5050505050905090565b6000801b81565b61168c61168561196a565b83836122a9565b5050565b6116a161169b61196a565b83611a2b565b6116e0576040517f08c379a00000000000000000000000000000000000000000000000000000000081526004016116d79061446f565b60405180910390fd5b6116ec84848484612415565b50505050565b600080610160836040516117069190614a22565b9081526020016040518091039020549050611720816111e0565b915050919050565b606061173382612471565b9050919050565b7f9f2df0fed2c77648de5860a4cc508cd0818c85b8b8a1ab4ceeef8d981c8956a661176481611b29565b61176e8383612070565b505050565b6000610160826040516117869190614a22565b90815260200160405180910390205490506117a2848483610d94565b50505050565b7f9f2df0fed2c77648de5860a4cc508cd0818c85b8b8a1ab4ceeef8d981c8956a681565b6117d5826109f5565b6117de81611b29565b6117e88383611c1e565b505050565b6000606a60008473ffffffffffffffffffffffffffffffffffffffff1673ffffffffffffffffffffffffffffffffffffffff16815260200190815260200160002060008373ffffffffffffffffffffffffffffffffffffffff1673ffffffffffffffffffffffffffffffffffffffff16815260200190815260200160002060009054906101000a900460ff16905092915050565b7f189ab7a9244df0848122154315af71fe140f3db0fe014031783b0946b8c9d2e381565b60007f7965db0b000000000000000000000000000000000000000000000000000000007bffffffffffffffffffffffffffffffffffffffffffffffffffffffff1916827bffffffffffffffffffffffffffffffffffffffffffffffffffffffff191614806119185750611917826125c9565b5b9050919050565b611928816126ab565b611967576040517f08c379a000000000000000000000000000000000000000000000000000000000815260040161195e90614835565b60405180910390fd5b50565b600033905090565b816069600083815260200190815260200160002060006101000a81548173ffffffffffffffffffffffffffffffffffffffff021916908373ffffffffffffffffffffffffffffffffffffffff160217905550808273ffffffffffffffffffffffffffffffffffffffff166119e5836111e0565b73ffffffffffffffffffffffffffffffffffffffff167f8c5be1e5ebec7d5bd14f71427d1e84f3dd0314c0f7b2291e5b200ac8c7c3b92560405160405180910390a45050565b600080611a37836111e0565b90508073ffffffffffffffffffffffffffffffffffffffff168473ffffffffffffffffffffffffffffffffffffffff161480611a795750611a7881856117ed565b5b80611ab757508373ffffffffffffffffffffffffffffffffffffffff16611a9f8461082f565b73ffffffffffffffffffffffffffffffffffffffff16145b91505092915050565b611acb838383612717565b611ad5838261297d565b611adf8282612a92565b7f7ef3fbd0bc744d3c6aae5ea5c7d850716ea3247bcee1e2edd4aa1aa6c182e3c5838383611b0c85611728565b604051611b1c9493929190614a39565b60405180910390a1505050565b611b3a81611b3561196a565b612afd565b50565b611b478282611576565b611c1a57600160c9600084815260200190815260200160002060000160008373ffffffffffffffffffffffffffffffffffffffff1673ffffffffffffffffffffffffffffffffffffffff16815260200190815260200160002060006101000a81548160ff021916908315150217905550611bbf61196a565b73ffffffffffffffffffffffffffffffffffffffff168173ffffffffffffffffffffffffffffffffffffffff16837f2f8788117e7eff1d82e926ec794901d17c78024a50270940304540a733656f0d60405160405180910390a45b5050565b611c288282611576565b15611cfc57600060c9600084815260200190815260200160002060000160008373ffffffffffffffffffffffffffffffffffffffff1673ffffffffffffffffffffffffffffffffffffffff16815260200190815260200160002060006101000a81548160ff021916908315150217905550611ca161196a565b73ffffffffffffffffffffffffffffffffffffffff168173ffffffffffffffffffffffffffffffffffffffff16837ff6391f5c32d9c69d2a47ea670b442974b53935d1edc7fd64eb21e047a839171b60405160405180910390a45b5050565b6000611d2e7f360894a13ba1a3210667c828492db98dca3e2076cc3735a920a3ca505d382bbc60001b612b9a565b60000160009054906101000a900473ffffffffffffffffffffffffffffffffffffffff16905090565b7f189ab7a9244df0848122154315af71fe140f3db0fe014031783b0946b8c9d2e3611d8181611b29565b5050565b611db17f4910fdfa16fed3260ed0e7147f7cc6da11a60208b5b9406d12a635614ffd914360001b612ba4565b60000160009054906101000a900460ff1615611dd557611dd083612bae565b611eee565b8273ffffffffffffffffffffffffffffffffffffffff166352d1902d6040518163ffffffff1660e01b8152600401602060405180830381865afa925050508015611e3d57506040513d601f19601f82011682018060405250810190611e3a9190614a9a565b60015b611e7c576040517f08c379a0000000000000000000000000000000000000000000000000000000008152600401611e7390614b39565b60405180910390fd5b7f360894a13ba1a3210667c828492db98dca3e2076cc3735a920a3ca505d382bbc60001b8114611ee1576040517f08c379a0000000000000000000000000000000000000000000000000000000008152600401611ed890614bcb565b60405180910390fd5b50611eed838383612c67565b5b505050565b6060600082905060008151905060005b8251811015611fee576040518060400160405280600181526020017f2e00000000000000000000000000000000000000000000000000000000000000815250600081518110611f5557611f54614645565b5b602001015160f81c60f81b7effffffffffffffffffffffffffffffffffffffffffffffffffffffffffffff1916838281518110611f9557611f94614645565b5b602001015160f81c60f81b7effffffffffffffffffffffffffffffffffffffffffffffffffffffffffffff191603611fdb57600181611fd49190614beb565b9150611fee565b8080611fe6906146a3565b915050611f03565b50611ffb84828451612c93565b92505050919050565b60008151835114612018576000905061206a565b816040516020016120299190614a22565b60405160208183030381529060405280519060200120836040516020016120509190614a22565b604051602081830303815290604052805190602001201490505b92915050565b600061207d61015f612d8f565b905061208a61015f612293565b6120948382612d9d565b61209e8183612dbb565b6120a88282612e2f565b6120b28382612a92565b7f4e55e13c39d6e62f1bf31cfcf4914883960489edd96d1ea8a2cf5b9211ef317a338483856040516120e79493929190614a39565b60405180910390a1505050565b60608282604051602001612109929190614c41565b604051602081830303815290604052905092915050565b6000808273ffffffffffffffffffffffffffffffffffffffff163b119050919050565b600060019054906101000a900460ff16612192576040517f08c379a000000000000000000000000000000000000000000000000000000000815260040161218990614cd7565b60405180910390fd5b61219c8282612eb9565b5050565b600060019054906101000a900460ff166121ef576040517f08c379a00000000000000000000000000000000000000000000000000000000081526004016121e690614cd7565b60405180910390fd5b565b600060019054906101000a900460ff16612240576040517f08c379a000000000000000000000000000000000000000000000000000000000815260040161223790614cd7565b60405180910390fd5b565b600060019054906101000a900460ff16612291576040517f08c379a000000000000000000000000000000000000000000000000000000000815260040161228890614cd7565b60405180910390fd5b565b6001816000016000828254019250508190555050565b8173ffffffffffffffffffffffffffffffffffffffff168373ffffffffffffffffffffffffffffffffffffffff1603612317576040517f08c379a000000000000000000000000000000000000000000000000000000000815260040161230e90614d43565b60405180910390fd5b80606a60008573ffffffffffffffffffffffffffffffffffffffff1673ffffffffffffffffffffffffffffffffffffffff16815260200190815260200160002060008473ffffffffffffffffffffffffffffffffffffffff1673ffffffffffffffffffffffffffffffffffffffff16815260200190815260200160002060006101000a81548160ff0219169083151502179055508173ffffffffffffffffffffffffffffffffffffffff168373ffffffffffffffffffffffffffffffffffffffff167f17307eab39ab6107e8899845ad3d59bd9653f200f220920489ca2b5937696c31836040516124089190613a8c565b60405180910390a3505050565b612420848484611ac0565b61242c84848484612f3a565b61246b576040517f08c379a000000000000000000000000000000000000000000000000000000000815260040161246290614dd5565b60405180910390fd5b50505050565b606061247c826126ab565b6124bb576040517f08c379a00000000000000000000000000000000000000000000000000000000081526004016124b290614e67565b60405180910390fd5b60006097600084815260200190815260200160002080546124db906142a8565b80601f0160208091040260200160405190810160405280929190818152602001828054612507906142a8565b80156125545780601f1061252957610100808354040283529160200191612554565b820191906000526020600020905b81548152906001019060200180831161253757829003601f168201915b5050505050905060006125656130c1565b9050600081510361257a5781925050506125c4565b6000825111156125b65761258c6130d8565b8260405160200161259e929190614c41565b604051602081830303815290604052925050506125c4565b6125bf846130ef565b925050505b919050565b60007f80ac58cd000000000000000000000000000000000000000000000000000000007bffffffffffffffffffffffffffffffffffffffffffffffffffffffff1916827bffffffffffffffffffffffffffffffffffffffffffffffffffffffff1916148061269457507f5b5e139f000000000000000000000000000000000000000000000000000000007bffffffffffffffffffffffffffffffffffffffffffffffffffffffff1916827bffffffffffffffffffffffffffffffffffffffffffffffffffffffff1916145b806126a457506126a382613157565b5b9050919050565b60008073ffffffffffffffffffffffffffffffffffffffff166067600084815260200190815260200160002060009054906101000a900473ffffffffffffffffffffffffffffffffffffffff1673ffffffffffffffffffffffffffffffffffffffff1614159050919050565b8273ffffffffffffffffffffffffffffffffffffffff16612737826111e0565b73ffffffffffffffffffffffffffffffffffffffff161461278d576040517f08c379a000000000000000000000000000000000000000000000000000000000815260040161278490614ef9565b60405180910390fd5b600073ffffffffffffffffffffffffffffffffffffffff168273ffffffffffffffffffffffffffffffffffffffff16036127fc576040517f08c379a00000000000000000000000000000000000000000000000000000000081526004016127f390614f8b565b60405180910390fd5b6128078383836131c1565b612812600082611972565b6001606860008573ffffffffffffffffffffffffffffffffffffffff1673ffffffffffffffffffffffffffffffffffffffff16815260200190815260200160002060008282546128629190614fab565b925050819055506001606860008473ffffffffffffffffffffffffffffffffffffffff1673ffffffffffffffffffffffffffffffffffffffff16815260200190815260200160002060008282546128b99190614beb565b92505081905550816067600083815260200190815260200160002060006101000a81548173ffffffffffffffffffffffffffffffffffffffff021916908373ffffffffffffffffffffffffffffffffffffffff160217905550808273ffffffffffffffffffffffffffffffffffffffff168473ffffffffffffffffffffffffffffffffffffffff167fddf252ad1be2c89b69c2b068fc378daa952ba7f163c4a11628f55a4df523b3ef60405160405180910390a46129788383836131c6565b505050565b600061016160008473ffffffffffffffffffffffffffffffffffffffff1673ffffffffffffffffffffffffffffffffffffffff16815260200190815260200160002090506000805b8280549050811015612a64578115612a27578281815481106129ea576129e9614645565b5b906000526020600020015483600183612a039190614fab565b81548110612a1457612a13614645565b5b9060005260206000200181905550612a51565b83838281548110612a3b57612a3a614645565b5b906000526020600020015403612a5057600191505b5b8080612a5c906146a3565b9150506129c5565b5081805480612a7657612a75614fdf565b5b6001900381819060005260206000200160009055905550505050565b61016160008373ffffffffffffffffffffffffffffffffffffffff1673ffffffffffffffffffffffffffffffffffffffff1681526020019081526020016000208190806001815401808255809150506001900390600052602060002001600090919091909150555050565b612b078282611576565b612b9657612b2c8173ffffffffffffffffffffffffffffffffffffffff1660146131cb565b612b3a8360001c60206131cb565b604051602001612b4b9291906150a6565b6040516020818303038152906040526040517f08c379a0000000000000000000000000000000000000000000000000000000008152600401612b8d9190613b40565b60405180910390fd5b5050565b6000819050919050565b6000819050919050565b612bb781612120565b612bf6576040517f08c379a0000000000000000000000000000000000000000000000000000000008152600401612bed90615152565b60405180910390fd5b80612c237f360894a13ba1a3210667c828492db98dca3e2076cc3735a920a3ca505d382bbc60001b612b9a565b60000160006101000a81548173ffffffffffffffffffffffffffffffffffffffff021916908373ffffffffffffffffffffffffffffffffffffffff16021790555050565b612c7083613407565b600082511180612c7d5750805b15612c8e57612c8c8383613456565b505b505050565b6060600084905060008484612ca89190614fab565b67ffffffffffffffff811115612cc157612cc0613e0e565b5b6040519080825280601f01601f191660200182016040528015612cf35781602001600182028036833780820191505090505b50905060008590505b84811015612d8257828181518110612d1757612d16614645565b5b602001015160f81c60f81b828783612d2f9190614fab565b81518110612d4057612d3f614645565b5b60200101907effffffffffffffffffffffffffffffffffffffffffffffffffffffffffffff1916908160001a9053508080612d7a906146a3565b915050612cfc565b5080925050509392505050565b600081600001549050919050565b612db782826040518060200160405280600081525061353a565b5050565b612dc4826126ab565b612e03576040517f08c379a0000000000000000000000000000000000000000000000000000000008152600401612dfa906151e4565b60405180910390fd5b80609760008481526020019081526020016000209080519060200190612e2a929190613935565b505050565b600061016083604051612e429190614a22565b90815260200160405180910390205414612e91576040517f08c379a0000000000000000000000000000000000000000000000000000000008152600401612e8890615276565b60405180910390fd5b8061016083604051612ea39190614a22565b9081526020016040518091039020819055505050565b600060019054906101000a900460ff16612f08576040517f08c379a0000000000000000000000000000000000000000000000000000000008152600401612eff90614cd7565b60405180910390fd5b8160659080519060200190612f1e929190613935565b508060669080519060200190612f35929190613935565b505050565b6000612f5b8473ffffffffffffffffffffffffffffffffffffffff16612120565b156130b4578373ffffffffffffffffffffffffffffffffffffffff1663150b7a02612f8461196a565b8786866040518563ffffffff1660e01b8152600401612fa694939291906152eb565b6020604051808303816000875af1925050508015612fe257506040513d601f19601f82011682018060405250810190612fdf919061534c565b60015b613064573d8060008114613012576040519150601f19603f3d011682016040523d82523d6000602084013e613017565b606091505b50600081510361305c576040517f08c379a000000000000000000000000000000000000000000000000000000000815260040161305390614dd5565b60405180910390fd5b805181602001fd5b63150b7a0260e01b7bffffffffffffffffffffffffffffffffffffffffffffffffffffffff1916817bffffffffffffffffffffffffffffffffffffffffffffffffffffffff1916149150506130b9565b600190505b949350505050565b606060405180602001604052806000815250905090565b606060405180602001604052806000815250905090565b60606130fa8261191f565b60006131046130c1565b90506000815111613124576040518060200160405280600081525061314f565b8061312e84613595565b60405160200161313f929190614c41565b6040516020818303038152906040525b915050919050565b60007f01ffc9a7000000000000000000000000000000000000000000000000000000007bffffffffffffffffffffffffffffffffffffffffffffffffffffffff1916827bffffffffffffffffffffffffffffffffffffffffffffffffffffffff1916149050919050565b505050565b505050565b6060600060028360026131de9190615379565b6131e89190614beb565b67ffffffffffffffff81111561320157613200613e0e565b5b6040519080825280601f01601f1916602001820160405280156132335781602001600182028036833780820191505090505b5090507f30000000000000000000000000000000000000000000000000000000000000008160008151811061326b5761326a614645565b5b60200101907effffffffffffffffffffffffffffffffffffffffffffffffffffffffffffff1916908160001a9053507f7800000000000000000000000000000000000000000000000000000000000000816001815181106132cf576132ce614645565b5b60200101907effffffffffffffffffffffffffffffffffffffffffffffffffffffffffffff1916908160001a9053506000600184600261330f9190615379565b6133199190614beb565b90505b60018111156133b9577f3031323334353637383961626364656600000000000000000000000000000000600f86166010811061335b5761335a614645565b5b1a60f81b82828151811061337257613371614645565b5b60200101907effffffffffffffffffffffffffffffffffffffffffffffffffffffffffffff1916908160001a905350600485901c9450806133b2906153d3565b905061331c565b50600084146133fd576040517f08c379a00000000000000000000000000000000000000000000000000000000081526004016133f490615448565b60405180910390fd5b8091505092915050565b61341081612bae565b8073ffffffffffffffffffffffffffffffffffffffff167fbc7cd75a20ee27fd9adebab32041f755214dbc6bffa90cc0225b39da2e5c2d3b60405160405180910390a250565b606061346183612120565b6134a0576040517f08c379a0000000000000000000000000000000000000000000000000000000008152600401613497906154da565b60405180910390fd5b6000808473ffffffffffffffffffffffffffffffffffffffff16846040516134c89190615536565b600060405180830381855af49150503d8060008114613503576040519150601f19603f3d011682016040523d82523d6000602084013e613508565b606091505b509150915061353082826040518060600160405280602781526020016156b7602791396136f5565b9250505092915050565b613544838361375c565b6135516000848484612f3a565b613590576040517f08c379a000000000000000000000000000000000000000000000000000000000815260040161358790614dd5565b60405180910390fd5b505050565b6060600082036135dc576040518060400160405280600181526020017f300000000000000000000000000000000000000000000000000000000000000081525090506136f0565b600082905060005b6000821461360e5780806135f7906146a3565b915050600a82613607919061557c565b91506135e4565b60008167ffffffffffffffff81111561362a57613629613e0e565b5b6040519080825280601f01601f19166020018201604052801561365c5781602001600182028036833780820191505090505b5090505b600085146136e9576001826136759190614fab565b9150600a8561368491906155ad565b60306136909190614beb565b60f81b8183815181106136a6576136a5614645565b5b60200101907effffffffffffffffffffffffffffffffffffffffffffffffffffffffffffff1916908160001a905350600a856136e2919061557c565b9450613660565b8093505050505b919050565b6060831561370557829050613755565b6000835111156137185782518084602001fd5b816040517f08c379a000000000000000000000000000000000000000000000000000000000815260040161374c9190613b40565b60405180910390fd5b9392505050565b600073ffffffffffffffffffffffffffffffffffffffff168273ffffffffffffffffffffffffffffffffffffffff16036137cb576040517f08c379a00000000000000000000000000000000000000000000000000000000081526004016137c29061562a565b60405180910390fd5b6137d4816126ab565b15613814576040517f08c379a000000000000000000000000000000000000000000000000000000000815260040161380b90615696565b60405180910390fd5b613820600083836131c1565b6001606860008473ffffffffffffffffffffffffffffffffffffffff1673ffffffffffffffffffffffffffffffffffffffff16815260200190815260200160002060008282546138709190614beb565b92505081905550816067600083815260200190815260200160002060006101000a81548173ffffffffffffffffffffffffffffffffffffffff021916908373ffffffffffffffffffffffffffffffffffffffff160217905550808273ffffffffffffffffffffffffffffffffffffffff16600073ffffffffffffffffffffffffffffffffffffffff167fddf252ad1be2c89b69c2b068fc378daa952ba7f163c4a11628f55a4df523b3ef60405160405180910390a4613931600083836131c6565b5050565b828054613941906142a8565b90600052602060002090601f01602090048101928261396357600085556139aa565b82601f1061397c57805160ff19168380011785556139aa565b828001600101855582156139aa579182015b828111156139a957825182559160200191906001019061398e565b5b5090506139b791906139bb565b5090565b5b808211156139d45760008160009055506001016139bc565b5090565b6000604051905090565b600080fd5b600080fd5b60007fffffffff0000000000000000000000000000000000000000000000000000000082169050919050565b613a21816139ec565b8114613a2c57600080fd5b50565b600081359050613a3e81613a18565b92915050565b600060208284031215613a5a57613a596139e2565b5b6000613a6884828501613a2f565b91505092915050565b60008115159050919050565b613a8681613a71565b82525050565b6000602082019050613aa16000830184613a7d565b92915050565b600081519050919050565b600082825260208201905092915050565b60005b83811015613ae1578082015181840152602081019050613ac6565b83811115613af0576000848401525b50505050565b6000601f19601f8301169050919050565b6000613b1282613aa7565b613b1c8185613ab2565b9350613b2c818560208601613ac3565b613b3581613af6565b840191505092915050565b60006020820190508181036000830152613b5a8184613b07565b905092915050565b6000819050919050565b613b7581613b62565b8114613b8057600080fd5b50565b600081359050613b9281613b6c565b92915050565b600060208284031215613bae57613bad6139e2565b5b6000613bbc84828501613b83565b91505092915050565b600073ffffffffffffffffffffffffffffffffffffffff82169050919050565b6000613bf082613bc5565b9050919050565b613c0081613be5565b82525050565b6000602082019050613c1b6000830184613bf7565b92915050565b613c2a81613be5565b8114613c3557600080fd5b50565b600081359050613c4781613c21565b92915050565b60008060408385031215613c6457613c636139e2565b5b6000613c7285828601613c38565b9250506020613c8385828601613b83565b9150509250929050565b613c9681613b62565b82525050565b6000602082019050613cb16000830184613c8d565b92915050565b600080600060608486031215613cd057613ccf6139e2565b5b6000613cde86828701613c38565b9350506020613cef86828701613c38565b9250506040613d0086828701613b83565b9150509250925092565b6000819050919050565b613d1d81613d0a565b8114613d2857600080fd5b50565b600081359050613d3a81613d14565b92915050565b600060208284031215613d5657613d556139e2565b5b6000613d6484828501613d2b565b91505092915050565b613d7681613d0a565b82525050565b6000602082019050613d916000830184613d6d565b92915050565b60008060408385031215613dae57613dad6139e2565b5b6000613dbc85828601613d2b565b9250506020613dcd85828601613c38565b9150509250929050565b600060208284031215613ded57613dec6139e2565b5b6000613dfb84828501613c38565b91505092915050565b600080fd5b600080fd5b7f4e487b7100000000000000000000000000000000000000000000000000000000600052604160045260246000fd5b613e4682613af6565b810181811067ffffffffffffffff82111715613e6557613e64613e0e565b5b80604052505050565b6000613e786139d8565b9050613e848282613e3d565b919050565b600067ffffffffffffffff821115613ea457613ea3613e0e565b5b613ead82613af6565b9050602081019050919050565b82818337600083830152505050565b6000613edc613ed784613e89565b613e6e565b905082815260208101848484011115613ef857613ef7613e09565b5b613f03848285613eba565b509392505050565b600082601f830112613f2057613f1f613e04565b5b8135613f30848260208601613ec9565b91505092915050565b60008060408385031215613f5057613f4f6139e2565b5b6000613f5e85828601613c38565b925050602083013567ffffffffffffffff811115613f7f57613f7e6139e7565b5b613f8b85828601613f0b565b9150509250929050565b600067ffffffffffffffff821115613fb057613faf613e0e565b5b613fb982613af6565b9050602081019050919050565b6000613fd9613fd484613f95565b613e6e565b905082815260208101848484011115613ff557613ff4613e09565b5b614000848285613eba565b509392505050565b600082601f83011261401d5761401c613e04565b5b813561402d848260208601613fc6565b91505092915050565b6000806040838503121561404d5761404c6139e2565b5b600061405b85828601613c38565b925050602083013567ffffffffffffffff81111561407c5761407b6139e7565b5b61408885828601614008565b9150509250929050565b61409b81613a71565b81146140a657600080fd5b50565b6000813590506140b881614092565b92915050565b600080604083850312156140d5576140d46139e2565b5b60006140e385828601613c38565b92505060206140f4858286016140a9565b9150509250929050565b60008060008060808587031215614118576141176139e2565b5b600061412687828801613c38565b945050602061413787828801613c38565b935050604061414887828801613b83565b925050606085013567ffffffffffffffff811115614169576141686139e7565b5b61417587828801614008565b91505092959194509250565b600060208284031215614197576141966139e2565b5b600082013567ffffffffffffffff8111156141b5576141b46139e7565b5b6141c184828501613f0b565b91505092915050565b6000806000606084860312156141e3576141e26139e2565b5b60006141f186828701613c38565b935050602061420286828701613c38565b925050604084013567ffffffffffffffff811115614223576142226139e7565b5b61422f86828701613f0b565b9150509250925092565b600080604083850312156142505761424f6139e2565b5b600061425e85828601613c38565b925050602061426f85828601613c38565b9150509250929050565b7f4e487b7100000000000000000000000000000000000000000000000000000000600052602260045260246000fd5b600060028204905060018216806142c057607f821691505b6020821081036142d3576142d2614279565b5b50919050565b7f4552433732313a20617070726f76616c20746f2063757272656e74206f776e6560008201527f7200000000000000000000000000000000000000000000000000000000000000602082015250565b6000614335602183613ab2565b9150614340826142d9565b604082019050919050565b6000602082019050818103600083015261436481614328565b9050919050565b7f4552433732313a20617070726f76652063616c6c6572206973206e6f7420746f60008201527f6b656e206f776e6572206e6f7220617070726f76656420666f7220616c6c0000602082015250565b60006143c7603e83613ab2565b91506143d28261436b565b604082019050919050565b600060208201905081810360008301526143f6816143ba565b9050919050565b7f4552433732313a2063616c6c6572206973206e6f7420746f6b656e206f776e6560008201527f72206e6f7220617070726f766564000000000000000000000000000000000000602082015250565b6000614459602e83613ab2565b9150614464826143fd565b604082019050919050565b600060208201905081810360008301526144888161444c565b9050919050565b7f416363657373436f6e74726f6c3a2063616e206f6e6c792072656e6f756e636560008201527f20726f6c657320666f722073656c660000000000000000000000000000000000602082015250565b60006144eb602f83613ab2565b91506144f68261448f565b604082019050919050565b6000602082019050818103600083015261451a816144de565b9050919050565b7f46756e6374696f6e206d7573742062652063616c6c6564207468726f7567682060008201527f64656c656761746563616c6c0000000000000000000000000000000000000000602082015250565b600061457d602c83613ab2565b915061458882614521565b604082019050919050565b600060208201905081810360008301526145ac81614570565b9050919050565b7f46756e6374696f6e206d7573742062652063616c6c6564207468726f7567682060008201527f6163746976652070726f78790000000000000000000000000000000000000000602082015250565b600061460f602c83613ab2565b915061461a826145b3565b604082019050919050565b6000602082019050818103600083015261463e81614602565b9050919050565b7f4e487b7100000000000000000000000000000000000000000000000000000000600052603260045260246000fd5b7f4e487b7100000000000000000000000000000000000000000000000000000000600052601160045260246000fd5b60006146ae82613b62565b91507fffffffffffffffffffffffffffffffffffffffffffffffffffffffffffffffff82036146e0576146df614674565b5b600182019050919050565b7f436174614469644e46543a20496e76616c6964206469642e0000000000000000600082015250565b6000614721601883613ab2565b915061472c826146eb565b602082019050919050565b6000602082019050818103600083015261475081614714565b9050919050565b7f555550535570677261646561626c653a206d757374206e6f742062652063616c60008201527f6c6564207468726f7567682064656c656761746563616c6c0000000000000000602082015250565b60006147b3603883613ab2565b91506147be82614757565b604082019050919050565b600060208201905081810360008301526147e2816147a6565b9050919050565b7f4552433732313a20696e76616c696420746f6b656e2049440000000000000000600082015250565b600061481f601883613ab2565b915061482a826147e9565b602082019050919050565b6000602082019050818103600083015261484e81614812565b9050919050565b7f4552433732313a2061646472657373207a65726f206973206e6f74206120766160008201527f6c6964206f776e65720000000000000000000000000000000000000000000000602082015250565b60006148b1602983613ab2565b91506148bc82614855565b604082019050919050565b600060208201905081810360008301526148e0816148a4565b9050919050565b7f496e697469616c697a61626c653a20636f6e747261637420697320616c72656160008201527f647920696e697469616c697a6564000000000000000000000000000000000000602082015250565b6000614943602e83613ab2565b915061494e826148e7565b604082019050919050565b6000602082019050818103600083015261497281614936565b9050919050565b6000819050919050565b600060ff82169050919050565b6000819050919050565b60006149b56149b06149ab84614979565b614990565b614983565b9050919050565b6149c58161499a565b82525050565b60006020820190506149e060008301846149bc565b92915050565b600081905092915050565b60006149fc82613aa7565b614a0681856149e6565b9350614a16818560208601613ac3565b80840191505092915050565b6000614a2e82846149f1565b915081905092915050565b6000608082019050614a4e6000830187613bf7565b614a5b6020830186613bf7565b614a686040830185613c8d565b8181036060830152614a7a8184613b07565b905095945050505050565b600081519050614a9481613d14565b92915050565b600060208284031215614ab057614aaf6139e2565b5b6000614abe84828501614a85565b91505092915050565b7f45524331393637557067726164653a206e657720696d706c656d656e7461746960008201527f6f6e206973206e6f742055555053000000000000000000000000000000000000602082015250565b6000614b23602e83613ab2565b9150614b2e82614ac7565b604082019050919050565b60006020820190508181036000830152614b5281614b16565b9050919050565b7f45524331393637557067726164653a20756e737570706f727465642070726f7860008201527f6961626c65555549440000000000000000000000000000000000000000000000602082015250565b6000614bb5602983613ab2565b9150614bc082614b59565b604082019050919050565b60006020820190508181036000830152614be481614ba8565b9050919050565b6000614bf682613b62565b9150614c0183613b62565b9250827fffffffffffffffffffffffffffffffffffffffffffffffffffffffffffffffff03821115614c3657614c35614674565b5b828201905092915050565b6000614c4d82856149f1565b9150614c5982846149f1565b91508190509392505050565b7f496e697469616c697a61626c653a20636f6e7472616374206973206e6f74206960008201527f6e697469616c697a696e67000000000000000000000000000000000000000000602082015250565b6000614cc1602b83613ab2565b9150614ccc82614c65565b604082019050919050565b60006020820190508181036000830152614cf081614cb4565b9050919050565b7f4552433732313a20617070726f766520746f2063616c6c657200000000000000600082015250565b6000614d2d601983613ab2565b9150614d3882614cf7565b602082019050919050565b60006020820190508181036000830152614d5c81614d20565b9050919050565b7f4552433732313a207472616e7366657220746f206e6f6e20455243373231526560008201527f63656976657220696d706c656d656e7465720000000000000000000000000000602082015250565b6000614dbf603283613ab2565b9150614dca82614d63565b604082019050919050565b60006020820190508181036000830152614dee81614db2565b9050919050565b7f45524337323155524953746f726167653a2055524920717565727920666f722060008201527f6e6f6e6578697374656e7420746f6b656e000000000000000000000000000000602082015250565b6000614e51603183613ab2565b9150614e5c82614df5565b604082019050919050565b60006020820190508181036000830152614e8081614e44565b9050919050565b7f4552433732313a207472616e736665722066726f6d20696e636f72726563742060008201527f6f776e6572000000000000000000000000000000000000000000000000000000602082015250565b6000614ee3602583613ab2565b9150614eee82614e87565b604082019050919050565b60006020820190508181036000830152614f1281614ed6565b9050919050565b7f4552433732313a207472616e7366657220746f20746865207a65726f2061646460008201527f7265737300000000000000000000000000000000000000000000000000000000602082015250565b6000614f75602483613ab2565b9150614f8082614f19565b604082019050919050565b60006020820190508181036000830152614fa481614f68565b9050919050565b6000614fb682613b62565b9150614fc183613b62565b925082821015614fd457614fd3614674565b5b828203905092915050565b7f4e487b7100000000000000000000000000000000000000000000000000000000600052603160045260246000fd5b7f416363657373436f6e74726f6c3a206163636f756e7420000000000000000000600082015250565b60006150446017836149e6565b915061504f8261500e565b601782019050919050565b7f206973206d697373696e6720726f6c6520000000000000000000000000000000600082015250565b60006150906011836149e6565b915061509b8261505a565b601182019050919050565b60006150b182615037565b91506150bd82856149f1565b91506150c882615083565b91506150d482846149f1565b91508190509392505050565b7f455243313936373a206e657720696d706c656d656e746174696f6e206973206e60008201527f6f74206120636f6e747261637400000000000000000000000000000000000000602082015250565b600061513c602d83613ab2565b9150615147826150e0565b604082019050919050565b6000602082019050818103600083015261516b8161512f565b9050919050565b7f45524337323155524953746f726167653a2055524920736574206f66206e6f6e60008201527f6578697374656e7420746f6b656e000000000000000000000000000000000000602082015250565b60006151ce602e83613ab2565b91506151d982615172565b604082019050919050565b600060208201905081810360008301526151fd816151c1565b9050919050565b7f436174614469644e46543a20546869732064696420616c72656164792065786960008201527f7374732e00000000000000000000000000000000000000000000000000000000602082015250565b6000615260602483613ab2565b915061526b82615204565b604082019050919050565b6000602082019050818103600083015261528f81615253565b9050919050565b600081519050919050565b600082825260208201905092915050565b60006152bd82615296565b6152c781856152a1565b93506152d7818560208601613ac3565b6152e081613af6565b840191505092915050565b60006080820190506153006000830187613bf7565b61530d6020830186613bf7565b61531a6040830185613c8d565b818103606083015261532c81846152b2565b905095945050505050565b60008151905061534681613a18565b92915050565b600060208284031215615362576153616139e2565b5b600061537084828501615337565b91505092915050565b600061538482613b62565b915061538f83613b62565b9250817fffffffffffffffffffffffffffffffffffffffffffffffffffffffffffffffff04831182151516156153c8576153c7614674565b5b828202905092915050565b60006153de82613b62565b9150600082036153f1576153f0614674565b5b600182039050919050565b7f537472696e67733a20686578206c656e67746820696e73756666696369656e74600082015250565b6000615432602083613ab2565b915061543d826153fc565b602082019050919050565b6000602082019050818103600083015261546181615425565b9050919050565b7f416464726573733a2064656c65676174652063616c6c20746f206e6f6e2d636f60008201527f6e74726163740000000000000000000000000000000000000000000000000000602082015250565b60006154c4602683613ab2565b91506154cf82615468565b604082019050919050565b600060208201905081810360008301526154f3816154b7565b9050919050565b600081905092915050565b600061551082615296565b61551a81856154fa565b935061552a818560208601613ac3565b80840191505092915050565b60006155428284615505565b915081905092915050565b7f4e487b7100000000000000000000000000000000000000000000000000000000600052601260045260246000fd5b600061558782613b62565b915061559283613b62565b9250826155a2576155a161554d565b5b828204905092915050565b60006155b882613b62565b91506155c383613b62565b9250826155d3576155d261554d565b5b828206905092915050565b7f4552433732313a206d696e7420746f20746865207a65726f2061646472657373600082015250565b6000615614602083613ab2565b915061561f826155de565b602082019050919050565b6000602082019050818103600083015261564381615607565b9050919050565b7f4552433732313a20746f6b656e20616c7265616479206d696e74656400000000600082015250565b6000615680601c83613ab2565b915061568b8261564a565b602082019050919050565b600060208201905081810360008301526156af81615673565b905091905056fe416464726573733a206c6f772d6c6576656c2064656c65676174652063616c6c206661696c6564a2646970667358221220a5bc2a71b02d9b567ababb3bf6b2590afdab66b62eb1628fda15f3752f43d66f64736f6c634300080d0033",
  "immutableReferences": {
    "1115": [
      {
        "length": 32,
        "start": 2747
      },
      {
        "length": 32,
        "start": 2889
      },
      {
        "length": 32,
        "start": 3510
      },
      {
        "length": 32,
        "start": 3652
      },
      {
        "length": 32,
        "start": 3828
      }
    ]
  },
  "source": "// SPDX-License-Identifier: MIT\r\npragma solidity ^0.8.12;\r\n\r\nimport \"@openzeppelin/contracts-upgradeable/token/ERC721/ERC721Upgradeable.sol\";\r\nimport \"@openzeppelin/contracts-upgradeable/token/ERC721/extensions/ERC721URIStorageUpgradeable.sol\";\r\nimport \"@openzeppelin/contracts-upgradeable/access/AccessControlUpgradeable.sol\";\r\nimport \"@openzeppelin/contracts-upgradeable/proxy/utils/Initializable.sol\";\r\nimport \"@openzeppelin/contracts-upgradeable/proxy/utils/UUPSUpgradeable.sol\";\r\nimport \"@openzeppelin/contracts-upgradeable/utils/CountersUpgradeable.sol\";\r\n\r\ncontract CataDidNFT is\r\n    Initializable,\r\n    ERC721Upgradeable,\r\n    ERC721URIStorageUpgradeable,\r\n    AccessControlUpgradeable,\r\n    UUPSUpgradeable\r\n{\r\n    using CountersUpgradeable for CountersUpgradeable.Counter;\r\n\r\n    bytes32 public constant MINTER_ROLE = keccak256(\"MINTER_ROLE\");\r\n    CountersUpgradeable.Counter private _tokenIdCounter;\r\n    bytes32 public constant UPGRADER_ROLE = keccak256(\"UPGRADER_ROLE\");\r\n\r\n    mapping(string => uint256) private _did2tokenId;\r\n    mapping(address => uint256[]) private _address2tokenId;\r\n\r\n    event MintDid(address creator, address to, uint256 tokenId, string did);\r\n    event TransferDid(address from, address to, uint256 tokenId, string did);\r\n\r\n    function getVersion() public pure returns (uint256 version) {\r\n        return 3;\r\n    }\r\n\r\n    function initialize() public initializer {\r\n        __ERC721_init(\"CataDidNFT\", \"DID\");\r\n        __ERC721URIStorage_init();\r\n        __AccessControl_init();\r\n        __UUPSUpgradeable_init();\r\n\r\n        _grantRole(DEFAULT_ADMIN_ROLE, msg.sender);\r\n        _grantRole(MINTER_ROLE, msg.sender);\r\n        _grantRole(UPGRADER_ROLE, msg.sender);\r\n        _tokenIdCounter.increment();\r\n    }\r\n\r\n    function safeMint(address to, string memory uri)\r\n        public\r\n        onlyRole(MINTER_ROLE)\r\n    {\r\n        _mintDid(to, uri);\r\n    }\r\n\r\n    function _mintDid(address to, string memory uri) internal {\r\n        uint256 tokenId = _tokenIdCounter.current();\r\n        _tokenIdCounter.increment();\r\n        _safeMint(to, tokenId);\r\n        _setTokenURI(tokenId, uri);\r\n        _setDid(uri, tokenId);\r\n        _setOwner(to, tokenId);\r\n        emit MintDid(msg.sender, to, tokenId, uri);\r\n    }\r\n\r\n    function _authorizeUpgrade(address newImplementation)\r\n        internal\r\n        override\r\n        onlyRole(UPGRADER_ROLE)\r\n    {}\r\n\r\n    // The following functions are overrides required by Solidity.\r\n\r\n    function _burn(uint256 tokenId)\r\n        internal\r\n        override(ERC721Upgradeable, ERC721URIStorageUpgradeable)\r\n    {\r\n        address owner = ownerOf(tokenId);\r\n        _rmTokenId(owner, tokenId);\r\n        super._burn(tokenId);\r\n    }\r\n\r\n    function _transfer(\r\n        address from,\r\n        address to,\r\n        uint256 tokenId\r\n    ) internal override(ERC721Upgradeable) {\r\n        super._transfer(from, to, tokenId);\r\n        _rmTokenId(from, tokenId);\r\n        _setOwner(to, tokenId);\r\n        emit TransferDid(from, to, tokenId, tokenURI(tokenId));\r\n    }\r\n\r\n    function tokenURI(uint256 tokenId)\r\n        public\r\n        view\r\n        override(ERC721Upgradeable, ERC721URIStorageUpgradeable)\r\n        returns (string memory)\r\n    {\r\n        return super.tokenURI(tokenId);\r\n    }\r\n\r\n    function supportsInterface(bytes4 interfaceId)\r\n        public\r\n        view\r\n        override(ERC721Upgradeable, AccessControlUpgradeable)\r\n        returns (bool)\r\n    {\r\n        return super.supportsInterface(interfaceId);\r\n    }\r\n\r\n    // about DID\r\n    function _setDid(string memory did, uint256 tokenId) internal virtual {\r\n        require(_did2tokenId[did] == 0, \"CataDidNFT: This did already exists.\");\r\n        _did2tokenId[did] = tokenId;\r\n    }\r\n\r\n    function _setOwner(address owner, uint256 tokenId) internal virtual {\r\n        _address2tokenId[owner].push(tokenId);\r\n    }\r\n\r\n    function didOwner(string memory did) public view virtual returns (address) {\r\n        uint256 tokenId = _did2tokenId[did];\r\n        return ownerOf(tokenId);\r\n    }\r\n\r\n    function getDids(address owner)\r\n        public\r\n        view\r\n        virtual\r\n        returns (string memory)\r\n    {\r\n        uint256[] memory tokenIds = _address2tokenId[owner];\r\n        string memory dids = \"[\";\r\n        for (uint256 i = 0; i < tokenIds.length; i++) {\r\n            string memory did = tokenURI(tokenIds[i]);\r\n            if (i != 0) {\r\n                dids = concat(dids, \",\");\r\n            }\r\n            dids = concat(dids, '\"');\r\n            dids = concat(dids, did);\r\n            dids = concat(dids, '\"');\r\n        }\r\n        return concat(dids, \"]\");\r\n    }\r\n\r\n    function mintDid(address to, string memory did) public {\r\n        string memory baseDid = getBaseUri(did);\r\n        uint256[] memory tokenIds = _address2tokenId[msg.sender];\r\n        bool access = false;\r\n        for (uint256 i = 0; i < tokenIds.length; i++) {\r\n            string memory rootDid = tokenURI(tokenIds[i]);\r\n            if (hashCompareWithLengthCheck(baseDid, rootDid)) {\r\n                access = true;\r\n                break;\r\n            }\r\n        }\r\n        require(access, \"CataDidNFT: Invalid did.\");\r\n        _mintDid(to, did);\r\n    }\r\n\r\n    function transferDid(address from, address to, string memory did) public {\r\n        uint256 tokenId = _did2tokenId[did];\r\n        safeTransferFrom(from, to, tokenId);\r\n    }\r\n\r\n    function concat(string memory a, string memory b)\r\n        internal\r\n        pure\r\n        returns (string memory)\r\n    {\r\n        return string.concat(a, b);\r\n    }\r\n\r\n    function substring(\r\n        string memory str,\r\n        uint256 startIndex,\r\n        uint256 endIndex\r\n    ) internal pure returns (string memory) {\r\n        bytes memory strBytes = bytes(str);\r\n        bytes memory result = new bytes(endIndex - startIndex);\r\n        for (uint256 i = startIndex; i < endIndex; i++) {\r\n            result[i - startIndex] = strBytes[i];\r\n        }\r\n        return string(result);\r\n    }\r\n\r\n    function hashCompareWithLengthCheck(string memory a, string memory b)\r\n        internal\r\n        pure\r\n        returns (bool)\r\n    {\r\n        if (bytes(a).length != bytes(b).length) {\r\n            return false;\r\n        } else {\r\n            return\r\n                keccak256(abi.encodePacked(a)) ==\r\n                keccak256(abi.encodePacked(b));\r\n        }\r\n    }\r\n\r\n    function getBaseUri(string memory did)\r\n        internal\r\n        pure\r\n        returns (string memory)\r\n    {\r\n        bytes memory strBytes = bytes(did);\r\n        uint256 index = strBytes.length;\r\n        for (uint256 i = 0; i < strBytes.length; i++) {\r\n            if (strBytes[i] == bytes(\".\")[0]) {\r\n                index = i + 1;\r\n                break;\r\n            }\r\n        }\r\n        return substring(did, index, strBytes.length);\r\n    }\r\n\r\n    function _rmTokenId(address owner, uint256 tokenId) internal {\r\n        uint256[] storage tokenIds = _address2tokenId[owner];\r\n        bool finded = false;\r\n        for (uint256 i = 0; i < tokenIds.length; i++) {\r\n            if (finded) {\r\n                tokenIds[i - 1] = tokenIds[i];\r\n            } else if (tokenIds[i] == tokenId) {\r\n                finded = true;\r\n            }\r\n        }\r\n        tokenIds.pop();\r\n    }\r\n}\r\n",
  "sourcePath": "C:\\linden\\eth-contracts\\nftExchange\\contracts\\CataDidNFT.sol",
  "compiler": {
    "name": "solc",
    "version": "0.8.13+commit.abaa5c0e.Emscripten.clang"
  },
  "schemaVersion": "3.4.8",
  "updatedAt": "2023-03-15T03:55:08.207Z",
  "networkType": "ethereum",
  "devdoc": {
    "kind": "dev",
    "methods": {
      "approve(address,uint256)": {
        "details": "See {IERC721-approve}."
      },
      "balanceOf(address)": {
        "details": "See {IERC721-balanceOf}."
      },
      "getApproved(uint256)": {
        "details": "See {IERC721-getApproved}."
      },
      "getRoleAdmin(bytes32)": {
        "details": "Returns the admin role that controls `role`. See {grantRole} and {revokeRole}. To change a role's admin, use {_setRoleAdmin}."
      },
      "grantRole(bytes32,address)": {
        "details": "Grants `role` to `account`. If `account` had not been already granted `role`, emits a {RoleGranted} event. Requirements: - the caller must have ``role``'s admin role. May emit a {RoleGranted} event."
      },
      "hasRole(bytes32,address)": {
        "details": "Returns `true` if `account` has been granted `role`."
      },
      "isApprovedForAll(address,address)": {
        "details": "See {IERC721-isApprovedForAll}."
      },
      "name()": {
        "details": "See {IERC721Metadata-name}."
      },
      "ownerOf(uint256)": {
        "details": "See {IERC721-ownerOf}."
      },
      "proxiableUUID()": {
        "details": "Implementation of the ERC1822 {proxiableUUID} function. This returns the storage slot used by the implementation. It is used to validate that the this implementation remains valid after an upgrade. IMPORTANT: A proxy pointing at a proxiable contract should not be considered proxiable itself, because this risks bricking a proxy that upgrades to it, by delegating to itself until out of gas. Thus it is critical that this function revert if invoked through a proxy. This is guaranteed by the `notDelegated` modifier."
      },
      "renounceRole(bytes32,address)": {
        "details": "Revokes `role` from the calling account. Roles are often managed via {grantRole} and {revokeRole}: this function's purpose is to provide a mechanism for accounts to lose their privileges if they are compromised (such as when a trusted device is misplaced). If the calling account had been revoked `role`, emits a {RoleRevoked} event. Requirements: - the caller must be `account`. May emit a {RoleRevoked} event."
      },
      "revokeRole(bytes32,address)": {
        "details": "Revokes `role` from `account`. If `account` had been granted `role`, emits a {RoleRevoked} event. Requirements: - the caller must have ``role``'s admin role. May emit a {RoleRevoked} event."
      },
      "safeTransferFrom(address,address,uint256)": {
        "details": "See {IERC721-safeTransferFrom}."
      },
      "safeTransferFrom(address,address,uint256,bytes)": {
        "details": "See {IERC721-safeTransferFrom}."
      },
      "setApprovalForAll(address,bool)": {
        "details": "See {IERC721-setApprovalForAll}."
      },
      "symbol()": {
        "details": "See {IERC721Metadata-symbol}."
      },
      "transferFrom(address,address,uint256)": {
        "details": "See {IERC721-transferFrom}."
      },
      "upgradeTo(address)": {
        "details": "Upgrade the implementation of the proxy to `newImplementation`. Calls {_authorizeUpgrade}. Emits an {Upgraded} event."
      },
      "upgradeToAndCall(address,bytes)": {
        "details": "Upgrade the implementation of the proxy to `newImplementation`, and subsequently execute the function call encoded in `data`. Calls {_authorizeUpgrade}. Emits an {Upgraded} event."
      }
    },
    "version": 1
  },
  "userdoc": {
    "kind": "user",
    "methods": {},
    "version": 1
  }
}