{
  "contractName": "CataDidNFT",
  "abi": [
    {
      "anonymous": false,
      "inputs": [
        {
          "indexed": false,
          "internalType": "address",
          "name": "previousAdmin",
          "type": "address"
        },
        {
          "indexed": false,
          "internalType": "address",
          "name": "newAdmin",
          "type": "address"
        }
      ],
      "name": "AdminChanged",
      "type": "event"
    },
    {
      "anonymous": false,
      "inputs": [
        {
          "indexed": true,
          "internalType": "address",
          "name": "owner",
          "type": "address"
        },
        {
          "indexed": true,
          "internalType": "address",
          "name": "approved",
          "type": "address"
        },
        {
          "indexed": true,
          "internalType": "uint256",
          "name": "tokenId",
          "type": "uint256"
        }
      ],
      "name": "Approval",
      "type": "event"
    },
    {
      "anonymous": false,
      "inputs": [
        {
          "indexed": true,
          "internalType": "address",
          "name": "owner",
          "type": "address"
        },
        {
          "indexed": true,
          "internalType": "address",
          "name": "operator",
          "type": "address"
        },
        {
          "indexed": false,
          "internalType": "bool",
          "name": "approved",
          "type": "bool"
        }
      ],
      "name": "ApprovalForAll",
      "type": "event"
    },
    {
      "anonymous": false,
      "inputs": [
        {
          "indexed": true,
          "internalType": "address",
          "name": "beacon",
          "type": "address"
        }
      ],
      "name": "BeaconUpgraded",
      "type": "event"
    },
    {
      "anonymous": false,
      "inputs": [
        {
          "indexed": false,
          "internalType": "address",
          "name": "creator",
          "type": "address"
        },
        {
          "indexed": false,
          "internalType": "address",
          "name": "to",
          "type": "address"
        },
        {
          "indexed": false,
          "internalType": "uint256",
          "name": "tokenId",
          "type": "uint256"
        },
        {
          "indexed": false,
          "internalType": "string",
          "name": "did",
          "type": "string"
        }
      ],
      "name": "MintDid",
      "type": "event"
    },
    {
      "anonymous": false,
      "inputs": [
        {
          "indexed": true,
          "internalType": "bytes32",
          "name": "role",
          "type": "bytes32"
        },
        {
          "indexed": true,
          "internalType": "bytes32",
          "name": "previousAdminRole",
          "type": "bytes32"
        },
        {
          "indexed": true,
          "internalType": "bytes32",
          "name": "newAdminRole",
          "type": "bytes32"
        }
      ],
      "name": "RoleAdminChanged",
      "type": "event"
    },
    {
      "anonymous": false,
      "inputs": [
        {
          "indexed": true,
          "internalType": "bytes32",
          "name": "role",
          "type": "bytes32"
        },
        {
          "indexed": true,
          "internalType": "address",
          "name": "account",
          "type": "address"
        },
        {
          "indexed": true,
          "internalType": "address",
          "name": "sender",
          "type": "address"
        }
      ],
      "name": "RoleGranted",
      "type": "event"
    },
    {
      "anonymous": false,
      "inputs": [
        {
          "indexed": true,
          "internalType": "bytes32",
          "name": "role",
          "type": "bytes32"
        },
        {
          "indexed": true,
          "internalType": "address",
          "name": "account",
          "type": "address"
        },
        {
          "indexed": true,
          "internalType": "address",
          "name": "sender",
          "type": "address"
        }
      ],
      "name": "RoleRevoked",
      "type": "event"
    },
    {
      "anonymous": false,
      "inputs": [
        {
          "indexed": true,
          "internalType": "address",
          "name": "from",
          "type": "address"
        },
        {
          "indexed": true,
          "internalType": "address",
          "name": "to",
          "type": "address"
        },
        {
          "indexed": true,
          "internalType": "uint256",
          "name": "tokenId",
          "type": "uint256"
        }
      ],
      "name": "Transfer",
      "type": "event"
    },
    {
      "anonymous": false,
      "inputs": [
        {
          "indexed": false,
          "internalType": "address",
          "name": "from",
          "type": "address"
        },
        {
          "indexed": false,
          "internalType": "address",
          "name": "to",
          "type": "address"
        },
        {
          "indexed": false,
          "internalType": "uint256",
          "name": "tokenId",
          "type": "uint256"
        },
        {
          "indexed": false,
          "internalType": "string",
          "name": "did",
          "type": "string"
        }
      ],
      "name": "TransferDid",
      "type": "event"
    },
    {
      "anonymous": false,
      "inputs": [
        {
          "indexed": true,
          "internalType": "address",
          "name": "implementation",
          "type": "address"
        }
      ],
      "name": "Upgraded",
      "type": "event"
    },
    {
      "inputs": [],
      "name": "DEFAULT_ADMIN_ROLE",
      "outputs": [
        {
          "internalType": "bytes32",
          "name": "",
          "type": "bytes32"
        }
      ],
      "stateMutability": "view",
      "type": "function",
      "constant": true
    },
    {
      "inputs": [],
      "name": "MINTER_ROLE",
      "outputs": [
        {
          "internalType": "bytes32",
          "name": "",
          "type": "bytes32"
        }
      ],
      "stateMutability": "view",
      "type": "function",
      "constant": true
    },
    {
      "inputs": [],
      "name": "UPGRADER_ROLE",
      "outputs": [
        {
          "internalType": "bytes32",
          "name": "",
          "type": "bytes32"
        }
      ],
      "stateMutability": "view",
      "type": "function",
      "constant": true
    },
    {
      "inputs": [
        {
          "internalType": "address",
          "name": "to",
          "type": "address"
        },
        {
          "internalType": "uint256",
          "name": "tokenId",
          "type": "uint256"
        }
      ],
      "name": "approve",
      "outputs": [],
      "stateMutability": "nonpayable",
      "type": "function"
    },
    {
      "inputs": [
        {
          "internalType": "address",
          "name": "owner",
          "type": "address"
        }
      ],
      "name": "balanceOf",
      "outputs": [
        {
          "internalType": "uint256",
          "name": "",
          "type": "uint256"
        }
      ],
      "stateMutability": "view",
      "type": "function",
      "constant": true
    },
    {
      "inputs": [
        {
          "internalType": "uint256",
          "name": "tokenId",
          "type": "uint256"
        }
      ],
      "name": "getApproved",
      "outputs": [
        {
          "internalType": "address",
          "name": "",
          "type": "address"
        }
      ],
      "stateMutability": "view",
      "type": "function",
      "constant": true
    },
    {
      "inputs": [
        {
          "internalType": "bytes32",
          "name": "role",
          "type": "bytes32"
        }
      ],
      "name": "getRoleAdmin",
      "outputs": [
        {
          "internalType": "bytes32",
          "name": "",
          "type": "bytes32"
        }
      ],
      "stateMutability": "view",
      "type": "function",
      "constant": true
    },
    {
      "inputs": [
        {
          "internalType": "bytes32",
          "name": "role",
          "type": "bytes32"
        },
        {
          "internalType": "address",
          "name": "account",
          "type": "address"
        }
      ],
      "name": "grantRole",
      "outputs": [],
      "stateMutability": "nonpayable",
      "type": "function"
    },
    {
      "inputs": [
        {
          "internalType": "bytes32",
          "name": "role",
          "type": "bytes32"
        },
        {
          "internalType": "address",
          "name": "account",
          "type": "address"
        }
      ],
      "name": "hasRole",
      "outputs": [
        {
          "internalType": "bool",
          "name": "",
          "type": "bool"
        }
      ],
      "stateMutability": "view",
      "type": "function",
      "constant": true
    },
    {
      "inputs": [
        {
          "internalType": "address",
          "name": "owner",
          "type": "address"
        },
        {
          "internalType": "address",
          "name": "operator",
          "type": "address"
        }
      ],
      "name": "isApprovedForAll",
      "outputs": [
        {
          "internalType": "bool",
          "name": "",
          "type": "bool"
        }
      ],
      "stateMutability": "view",
      "type": "function",
      "constant": true
    },
    {
      "inputs": [],
      "name": "name",
      "outputs": [
        {
          "internalType": "string",
          "name": "",
          "type": "string"
        }
      ],
      "stateMutability": "view",
      "type": "function",
      "constant": true
    },
    {
      "inputs": [
        {
          "internalType": "uint256",
          "name": "tokenId",
          "type": "uint256"
        }
      ],
      "name": "ownerOf",
      "outputs": [
        {
          "internalType": "address",
          "name": "",
          "type": "address"
        }
      ],
      "stateMutability": "view",
      "type": "function",
      "constant": true
    },
    {
      "inputs": [],
      "name": "proxiableUUID",
      "outputs": [
        {
          "internalType": "bytes32",
          "name": "",
          "type": "bytes32"
        }
      ],
      "stateMutability": "view",
      "type": "function",
      "constant": true
    },
    {
      "inputs": [
        {
          "internalType": "bytes32",
          "name": "role",
          "type": "bytes32"
        },
        {
          "internalType": "address",
          "name": "account",
          "type": "address"
        }
      ],
      "name": "renounceRole",
      "outputs": [],
      "stateMutability": "nonpayable",
      "type": "function"
    },
    {
      "inputs": [
        {
          "internalType": "bytes32",
          "name": "role",
          "type": "bytes32"
        },
        {
          "internalType": "address",
          "name": "account",
          "type": "address"
        }
      ],
      "name": "revokeRole",
      "outputs": [],
      "stateMutability": "nonpayable",
      "type": "function"
    },
    {
      "inputs": [
        {
          "internalType": "address",
          "name": "from",
          "type": "address"
        },
        {
          "internalType": "address",
          "name": "to",
          "type": "address"
        },
        {
          "internalType": "uint256",
          "name": "tokenId",
          "type": "uint256"
        }
      ],
      "name": "safeTransferFrom",
      "outputs": [],
      "stateMutability": "nonpayable",
      "type": "function"
    },
    {
      "inputs": [
        {
          "internalType": "address",
          "name": "from",
          "type": "address"
        },
        {
          "internalType": "address",
          "name": "to",
          "type": "address"
        },
        {
          "internalType": "uint256",
          "name": "tokenId",
          "type": "uint256"
        },
        {
          "internalType": "bytes",
          "name": "_data",
          "type": "bytes"
        }
      ],
      "name": "safeTransferFrom",
      "outputs": [],
      "stateMutability": "nonpayable",
      "type": "function"
    },
    {
      "inputs": [
        {
          "internalType": "address",
          "name": "operator",
          "type": "address"
        },
        {
          "internalType": "bool",
          "name": "approved",
          "type": "bool"
        }
      ],
      "name": "setApprovalForAll",
      "outputs": [],
      "stateMutability": "nonpayable",
      "type": "function"
    },
    {
      "inputs": [],
      "name": "symbol",
      "outputs": [
        {
          "internalType": "string",
          "name": "",
          "type": "string"
        }
      ],
      "stateMutability": "view",
      "type": "function",
      "constant": true
    },
    {
      "inputs": [
        {
          "internalType": "address",
          "name": "from",
          "type": "address"
        },
        {
          "internalType": "address",
          "name": "to",
          "type": "address"
        },
        {
          "internalType": "uint256",
          "name": "tokenId",
          "type": "uint256"
        }
      ],
      "name": "transferFrom",
      "outputs": [],
      "stateMutability": "nonpayable",
      "type": "function"
    },
    {
      "inputs": [
        {
          "internalType": "address",
          "name": "newImplementation",
          "type": "address"
        }
      ],
      "name": "upgradeTo",
      "outputs": [],
      "stateMutability": "nonpayable",
      "type": "function"
    },
    {
      "inputs": [
        {
          "internalType": "address",
          "name": "newImplementation",
          "type": "address"
        },
        {
          "internalType": "bytes",
          "name": "data",
          "type": "bytes"
        }
      ],
      "name": "upgradeToAndCall",
      "outputs": [],
      "stateMutability": "payable",
      "type": "function",
      "payable": true
    },
    {
      "inputs": [],
      "name": "getVersion",
      "outputs": [
        {
          "internalType": "uint256",
          "name": "version",
          "type": "uint256"
        }
      ],
      "stateMutability": "pure",
      "type": "function",
      "constant": true
    },
    {
      "inputs": [],
      "name": "initialize",
      "outputs": [],
      "stateMutability": "nonpayable",
      "type": "function"
    },
    {
      "inputs": [
        {
          "internalType": "address",
          "name": "to",
          "type": "address"
        },
        {
          "internalType": "string",
          "name": "uri",
          "type": "string"
        }
      ],
      "name": "safeMint",
      "outputs": [],
      "stateMutability": "nonpayable",
      "type": "function"
    },
    {
      "inputs": [
        {
          "internalType": "uint256",
          "name": "tokenId",
          "type": "uint256"
        }
      ],
      "name": "tokenURI",
      "outputs": [
        {
          "internalType": "string",
          "name": "",
          "type": "string"
        }
      ],
      "stateMutability": "view",
      "type": "function",
      "constant": true
    },
    {
      "inputs": [
        {
          "internalType": "bytes4",
          "name": "interfaceId",
          "type": "bytes4"
        }
      ],
      "name": "supportsInterface",
      "outputs": [
        {
          "internalType": "bool",
          "name": "",
          "type": "bool"
        }
      ],
      "stateMutability": "view",
      "type": "function",
      "constant": true
    },
    {
      "inputs": [
        {
          "internalType": "string",
          "name": "did",
          "type": "string"
        }
      ],
      "name": "didOwner",
      "outputs": [
        {
          "internalType": "address",
          "name": "",
          "type": "address"
        }
      ],
      "stateMutability": "view",
      "type": "function",
      "constant": true
    },
    {
      "inputs": [
        {
          "internalType": "address",
          "name": "owner",
          "type": "address"
        }
      ],
      "name": "getDids",
      "outputs": [
        {
          "internalType": "string",
          "name": "",
          "type": "string"
        }
      ],
      "stateMutability": "view",
      "type": "function",
      "constant": true
    },
    {
      "inputs": [
        {
          "internalType": "address",
          "name": "to",
          "type": "address"
        },
        {
          "internalType": "string",
          "name": "did",
          "type": "string"
        }
      ],
      "name": "mintDid",
      "outputs": [],
      "stateMutability": "nonpayable",
      "type": "function"
    },
    {
      "inputs": [
        {
          "internalType": "address",
          "name": "from",
          "type": "address"
        },
        {
          "internalType": "address",
          "name": "to",
          "type": "address"
        },
        {
          "internalType": "string",
          "name": "did",
          "type": "string"
        }
      ],
      "name": "transferDid",
      "outputs": [],
      "stateMutability": "nonpayable",
      "type": "function"
    }
  ],
  "bytecode": "0x60a06040523073ffffffffffffffffffffffffffffffffffffffff1660809073ffffffffffffffffffffffffffffffffffffffff1681525034801561004357600080fd5b506080516158c96200007c60003960008181610b0201528181610b9001528181610dfd01528181610e8b0152610f3b01526158c96000f3fe6080604052600436106101d85760003560e01c80636352211e11610102578063c0868acd11610095578063d539139311610064578063d5391393146106cf578063d547741f146106fa578063e985e9c514610723578063f72c0d8b14610760576101d8565b8063c0868acd14610603578063c87b56dd14610640578063d204c45e1461067d578063d49f3def146106a6576101d8565b806395d89b41116100d157806395d89b411461055b578063a217fddf14610586578063a22cb465146105b1578063b88d4fde146105da576101d8565b80636352211e1461048d57806370a08231146104ca5780638129fc1c1461050757806391d148541461051e576101d8565b80632f2ff15d1161017a57806342842e0e1161014957806342842e0e146103e05780634f1ef2861461040957806352d1902d1461042557806355f1340a14610450576101d8565b80632f2ff15d1461033c57806336568abe146103655780633659cfe61461038e57806342054309146103b7576101d8565b8063095ea7b3116101b6578063095ea7b3146102825780630d8e6e2c146102ab57806323b872dd146102d6578063248a9ca3146102ff576101d8565b806301ffc9a7146101dd57806306fdde031461021a578063081812fc14610245575b600080fd5b3480156101e957600080fd5b5061020460048036038101906101ff9190613a8b565b61078b565b6040516102119190613ad3565b60405180910390f35b34801561022657600080fd5b5061022f61079d565b60405161023c9190613b87565b60405180910390f35b34801561025157600080fd5b5061026c60048036038101906102679190613bdf565b61082f565b6040516102799190613c4d565b60405180910390f35b34801561028e57600080fd5b506102a960048036038101906102a49190613c94565b6108b4565b005b3480156102b757600080fd5b506102c06109cb565b6040516102cd9190613ce3565b60405180910390f35b3480156102e257600080fd5b506102fd60048036038101906102f89190613cfe565b6109d4565b005b34801561030b57600080fd5b5061032660048036038101906103219190613d87565b610a34565b6040516103339190613dc3565b60405180910390f35b34801561034857600080fd5b50610363600480360381019061035e9190613dde565b610a54565b005b34801561037157600080fd5b5061038c60048036038101906103879190613dde565b610a7d565b005b34801561039a57600080fd5b506103b560048036038101906103b09190613e1e565b610b00565b005b3480156103c357600080fd5b506103de60048036038101906103d99190613f80565b610c88565b005b3480156103ec57600080fd5b5061040760048036038101906104029190613cfe565b610ddb565b005b610423600480360381019061041e919061407d565b610dfb565b005b34801561043157600080fd5b5061043a610f37565b6040516104479190613dc3565b60405180910390f35b34801561045c57600080fd5b5061047760048036038101906104729190613e1e565b610ff0565b6040516104849190613b87565b60405180910390f35b34801561049957600080fd5b506104b460048036038101906104af9190613bdf565b611227565b6040516104c19190613c4d565b60405180910390f35b3480156104d657600080fd5b506104f160048036038101906104ec9190613e1e565b6112d8565b6040516104fe9190613ce3565b60405180910390f35b34801561051357600080fd5b5061051c61138f565b005b34801561052a57600080fd5b5061054560048036038101906105409190613dde565b61156b565b6040516105529190613ad3565b60405180910390f35b34801561056757600080fd5b506105706115d6565b60405161057d9190613b87565b60405180910390f35b34801561059257600080fd5b5061059b611668565b6040516105a89190613dc3565b60405180910390f35b3480156105bd57600080fd5b506105d860048036038101906105d39190614105565b61166f565b005b3480156105e657600080fd5b5061060160048036038101906105fc9190614145565b611685565b005b34801561060f57600080fd5b5061062a600480360381019061062591906141c8565b6116e7565b6040516106379190613c4d565b60405180910390f35b34801561064c57600080fd5b5061066760048036038101906106629190613bdf565b61171d565b6040516106749190613b87565b60405180910390f35b34801561068957600080fd5b506106a4600480360381019061069f9190613f80565b61172f565b005b3480156106b257600080fd5b506106cd60048036038101906106c89190614211565b611770565b005b3480156106db57600080fd5b506106e46117a5565b6040516106f19190613dc3565b60405180910390f35b34801561070657600080fd5b50610721600480360381019061071c9190613dde565b6117c9565b005b34801561072f57600080fd5b5061074a60048036038101906107459190614280565b6117f2565b6040516107579190613ad3565b60405180910390f35b34801561076c57600080fd5b50610775611886565b6040516107829190613dc3565b60405180910390f35b6000610796826118aa565b9050919050565b6060606580546107ac906142ef565b80601f01602080910402602001604051908101604052809291908181526020018280546107d8906142ef565b80156108255780601f106107fa57610100808354040283529160200191610825565b820191906000526020600020905b81548152906001019060200180831161080857829003601f168201915b5050505050905090565b600061083a82611924565b610879576040517f08c379a000000000000000000000000000000000000000000000000000000000815260040161087090614392565b60405180910390fd5b6069600083815260200190815260200160002060009054906101000a900473ffffffffffffffffffffffffffffffffffffffff169050919050565b60006108bf82611227565b90508073ffffffffffffffffffffffffffffffffffffffff168373ffffffffffffffffffffffffffffffffffffffff160361092f576040517f08c379a000000000000000000000000000000000000000000000000000000000815260040161092690614424565b60405180910390fd5b8073ffffffffffffffffffffffffffffffffffffffff1661094e611990565b73ffffffffffffffffffffffffffffffffffffffff16148061097d575061097c81610977611990565b6117f2565b5b6109bc576040517f08c379a00000000000000000000000000000000000000000000000000000000081526004016109b3906144b6565b60405180910390fd5b6109c68383611998565b505050565b60006001905090565b6109e56109df611990565b82611a51565b610a24576040517f08c379a0000000000000000000000000000000000000000000000000000000008152600401610a1b90614548565b60405180910390fd5b610a2f838383611b2f565b505050565b600060c96000838152602001908152602001600020600101549050919050565b610a5d82610a34565b610a6e81610a69611990565b611b98565b610a788383611c35565b505050565b610a85611990565b73ffffffffffffffffffffffffffffffffffffffff168173ffffffffffffffffffffffffffffffffffffffff1614610af2576040517f08c379a0000000000000000000000000000000000000000000000000000000008152600401610ae9906145da565b60405180910390fd5b610afc8282611d16565b5050565b7f000000000000000000000000000000000000000000000000000000000000000073ffffffffffffffffffffffffffffffffffffffff163073ffffffffffffffffffffffffffffffffffffffff1603610b8e576040517f08c379a0000000000000000000000000000000000000000000000000000000008152600401610b859061466c565b60405180910390fd5b7f000000000000000000000000000000000000000000000000000000000000000073ffffffffffffffffffffffffffffffffffffffff16610bcd611df8565b73ffffffffffffffffffffffffffffffffffffffff1614610c23576040517f08c379a0000000000000000000000000000000000000000000000000000000008152600401610c1a906146fe565b60405180910390fd5b610c2c81611e4f565b610c8581600067ffffffffffffffff811115610c4b57610c4a613e55565b5b6040519080825280601f01601f191660200182016040528015610c7d5781602001600182028036833780820191505090505b506000611e85565b50565b6000610c9382611ff3565b9050600061016160003373ffffffffffffffffffffffffffffffffffffffff1673ffffffffffffffffffffffffffffffffffffffff168152602001908152602001600020805480602002602001604051908101604052809291908181526020018280548015610d2157602002820191906000526020600020905b815481526020019060010190808311610d0d575b505050505090506000805b8251811015610d89576000610d5a848381518110610d4d57610d4c61471e565b5b602002602001015161171d565b9050610d668582612104565b15610d75576001925050610d89565b508080610d819061477c565b915050610d2c565b5080610dca576040517f08c379a0000000000000000000000000000000000000000000000000000000008152600401610dc190614810565b60405180910390fd5b610dd48585612170565b5050505050565b610df683838360405180602001604052806000815250611685565b505050565b7f000000000000000000000000000000000000000000000000000000000000000073ffffffffffffffffffffffffffffffffffffffff163073ffffffffffffffffffffffffffffffffffffffff1603610e89576040517f08c379a0000000000000000000000000000000000000000000000000000000008152600401610e809061466c565b60405180910390fd5b7f000000000000000000000000000000000000000000000000000000000000000073ffffffffffffffffffffffffffffffffffffffff16610ec8611df8565b73ffffffffffffffffffffffffffffffffffffffff1614610f1e576040517f08c379a0000000000000000000000000000000000000000000000000000000008152600401610f15906146fe565b60405180910390fd5b610f2782611e4f565b610f3382826001611e85565b5050565b60007f000000000000000000000000000000000000000000000000000000000000000073ffffffffffffffffffffffffffffffffffffffff163073ffffffffffffffffffffffffffffffffffffffff1614610fc7576040517f08c379a0000000000000000000000000000000000000000000000000000000008152600401610fbe906148a2565b60405180910390fd5b7f360894a13ba1a3210667c828492db98dca3e2076cc3735a920a3ca505d382bbc60001b905090565b6060600061016160008473ffffffffffffffffffffffffffffffffffffffff1673ffffffffffffffffffffffffffffffffffffffff16815260200190815260200160002080548060200260200160405190810160405280929190818152602001828054801561107e57602002820191906000526020600020905b81548152602001906001019080831161106a575b5050505050905060006040518060400160405280600181526020017f5b00000000000000000000000000000000000000000000000000000000000000815250905060005b82518110156111de5760006110f08483815181106110e3576110e261471e565b5b602002602001015161171d565b90506000821461113c57611139836040518060400160405280600181526020017f2c000000000000000000000000000000000000000000000000000000000000008152506121f4565b92505b61117b836040518060400160405280600181526020017f22000000000000000000000000000000000000000000000000000000000000008152506121f4565b925061118783826121f4565b92506111c8836040518060400160405280600181526020017f22000000000000000000000000000000000000000000000000000000000000008152506121f4565b92505080806111d69061477c565b9150506110c2565b5061121e816040518060400160405280600181526020017f5d000000000000000000000000000000000000000000000000000000000000008152506121f4565b92505050919050565b6000806067600084815260200190815260200160002060009054906101000a900473ffffffffffffffffffffffffffffffffffffffff169050600073ffffffffffffffffffffffffffffffffffffffff168173ffffffffffffffffffffffffffffffffffffffff16036112cf576040517f08c379a00000000000000000000000000000000000000000000000000000000081526004016112c690614934565b60405180910390fd5b80915050919050565b60008073ffffffffffffffffffffffffffffffffffffffff168273ffffffffffffffffffffffffffffffffffffffff1603611348576040517f08c379a000000000000000000000000000000000000000000000000000000000815260040161133f906149c6565b60405180910390fd5b606860008373ffffffffffffffffffffffffffffffffffffffff1673ffffffffffffffffffffffffffffffffffffffff168152602001908152602001600020549050919050565b600060019054906101000a900460ff166113b75760008054906101000a900460ff16156113c0565b6113bf612220565b5b6113ff576040517f08c379a00000000000000000000000000000000000000000000000000000000081526004016113f690614a58565b60405180910390fd5b60008060019054906101000a900460ff16159050801561144f576001600060016101000a81548160ff02191690831515021790555060016000806101000a81548160ff0219169083151502179055505b6114c36040518060400160405280600a81526020017f436174614469644e4654000000000000000000000000000000000000000000008152506040518060400160405280600381526020017f4449440000000000000000000000000000000000000000000000000000000000815250612231565b6114cb61228e565b6114d36122df565b6114db612330565b6114e86000801b33611c35565b6115127f9f2df0fed2c77648de5860a4cc508cd0818c85b8b8a1ab4ceeef8d981c8956a633611c35565b61153c7f189ab7a9244df0848122154315af71fe140f3db0fe014031783b0946b8c9d2e333611c35565b61154761015f612381565b80156115685760008060016101000a81548160ff0219169083151502179055505b50565b600060c9600084815260200190815260200160002060000160008373ffffffffffffffffffffffffffffffffffffffff1673ffffffffffffffffffffffffffffffffffffffff16815260200190815260200160002060009054906101000a900460ff16905092915050565b6060606680546115e5906142ef565b80601f0160208091040260200160405190810160405280929190818152602001828054611611906142ef565b801561165e5780601f106116335761010080835404028352916020019161165e565b820191906000526020600020905b81548152906001019060200180831161164157829003601f168201915b5050505050905090565b6000801b81565b61168161167a611990565b8383612397565b5050565b611696611690611990565b83611a51565b6116d5576040517f08c379a00000000000000000000000000000000000000000000000000000000081526004016116cc90614548565b60405180910390fd5b6116e184848484612503565b50505050565b600080610160836040516116fb9190614ab4565b908152602001604051809103902054905061171581611227565b915050919050565b60606117288261255f565b9050919050565b7f9f2df0fed2c77648de5860a4cc508cd0818c85b8b8a1ab4ceeef8d981c8956a66117618161175c611990565b611b98565b61176b8383612170565b505050565b6000610160826040516117839190614ab4565b908152602001604051809103902054905061179f848483610ddb565b50505050565b7f9f2df0fed2c77648de5860a4cc508cd0818c85b8b8a1ab4ceeef8d981c8956a681565b6117d282610a34565b6117e3816117de611990565b611b98565b6117ed8383611d16565b505050565b6000606a60008473ffffffffffffffffffffffffffffffffffffffff1673ffffffffffffffffffffffffffffffffffffffff16815260200190815260200160002060008373ffffffffffffffffffffffffffffffffffffffff1673ffffffffffffffffffffffffffffffffffffffff16815260200190815260200160002060009054906101000a900460ff16905092915050565b7f189ab7a9244df0848122154315af71fe140f3db0fe014031783b0946b8c9d2e381565b60007f7965db0b000000000000000000000000000000000000000000000000000000007bffffffffffffffffffffffffffffffffffffffffffffffffffffffff1916827bffffffffffffffffffffffffffffffffffffffffffffffffffffffff1916148061191d575061191c826126b7565b5b9050919050565b60008073ffffffffffffffffffffffffffffffffffffffff166067600084815260200190815260200160002060009054906101000a900473ffffffffffffffffffffffffffffffffffffffff1673ffffffffffffffffffffffffffffffffffffffff1614159050919050565b600033905090565b816069600083815260200190815260200160002060006101000a81548173ffffffffffffffffffffffffffffffffffffffff021916908373ffffffffffffffffffffffffffffffffffffffff160217905550808273ffffffffffffffffffffffffffffffffffffffff16611a0b83611227565b73ffffffffffffffffffffffffffffffffffffffff167f8c5be1e5ebec7d5bd14f71427d1e84f3dd0314c0f7b2291e5b200ac8c7c3b92560405160405180910390a45050565b6000611a5c82611924565b611a9b576040517f08c379a0000000000000000000000000000000000000000000000000000000008152600401611a9290614b3d565b60405180910390fd5b6000611aa683611227565b90508073ffffffffffffffffffffffffffffffffffffffff168473ffffffffffffffffffffffffffffffffffffffff161480611b1557508373ffffffffffffffffffffffffffffffffffffffff16611afd8461082f565b73ffffffffffffffffffffffffffffffffffffffff16145b80611b265750611b2581856117f2565b5b91505092915050565b611b3a838383612799565b611b4483826129ff565b611b4e8282612b14565b7f7ef3fbd0bc744d3c6aae5ea5c7d850716ea3247bcee1e2edd4aa1aa6c182e3c5838383611b7b8561171d565b604051611b8b9493929190614b5d565b60405180910390a1505050565b611ba2828261156b565b611c3157611bc78173ffffffffffffffffffffffffffffffffffffffff166014612b7f565b611bd58360001c6020612b7f565b604051602001611be6929190614c41565b6040516020818303038152906040526040517f08c379a0000000000000000000000000000000000000000000000000000000008152600401611c289190613b87565b60405180910390fd5b5050565b611c3f828261156b565b611d1257600160c9600084815260200190815260200160002060000160008373ffffffffffffffffffffffffffffffffffffffff1673ffffffffffffffffffffffffffffffffffffffff16815260200190815260200160002060006101000a81548160ff021916908315150217905550611cb7611990565b73ffffffffffffffffffffffffffffffffffffffff168173ffffffffffffffffffffffffffffffffffffffff16837f2f8788117e7eff1d82e926ec794901d17c78024a50270940304540a733656f0d60405160405180910390a45b5050565b611d20828261156b565b15611df457600060c9600084815260200190815260200160002060000160008373ffffffffffffffffffffffffffffffffffffffff1673ffffffffffffffffffffffffffffffffffffffff16815260200190815260200160002060006101000a81548160ff021916908315150217905550611d99611990565b73ffffffffffffffffffffffffffffffffffffffff168173ffffffffffffffffffffffffffffffffffffffff16837ff6391f5c32d9c69d2a47ea670b442974b53935d1edc7fd64eb21e047a839171b60405160405180910390a45b5050565b6000611e267f360894a13ba1a3210667c828492db98dca3e2076cc3735a920a3ca505d382bbc60001b612dbb565b60000160009054906101000a900473ffffffffffffffffffffffffffffffffffffffff16905090565b7f189ab7a9244df0848122154315af71fe140f3db0fe014031783b0946b8c9d2e3611e8181611e7c611990565b611b98565b5050565b611eb17f4910fdfa16fed3260ed0e7147f7cc6da11a60208b5b9406d12a635614ffd914360001b612dc5565b60000160009054906101000a900460ff1615611ed557611ed083612dcf565b611fee565b8273ffffffffffffffffffffffffffffffffffffffff166352d1902d6040518163ffffffff1660e01b8152600401602060405180830381865afa925050508015611f3d57506040513d601f19601f82011682018060405250810190611f3a9190614c90565b60015b611f7c576040517f08c379a0000000000000000000000000000000000000000000000000000000008152600401611f7390614d2f565b60405180910390fd5b7f360894a13ba1a3210667c828492db98dca3e2076cc3735a920a3ca505d382bbc60001b8114611fe1576040517f08c379a0000000000000000000000000000000000000000000000000000000008152600401611fd890614dc1565b60405180910390fd5b50611fed838383612e88565b5b505050565b6060600082905060008151905060005b82518110156120ee576040518060400160405280600181526020017f2e000000000000000000000000000000000000000000000000000000000000008152506000815181106120555761205461471e565b5b602001015160f81c60f81b7effffffffffffffffffffffffffffffffffffffffffffffffffffffffffffff19168382815181106120955761209461471e565b5b602001015160f81c60f81b7effffffffffffffffffffffffffffffffffffffffffffffffffffffffffffff1916036120db576001816120d49190614de1565b91506120ee565b80806120e69061477c565b915050612003565b506120fb84828451612eb4565b92505050919050565b60008151835114612118576000905061216a565b816040516020016121299190614ab4565b60405160208183030381529060405280519060200120836040516020016121509190614ab4565b604051602081830303815290604052805190602001201490505b92915050565b600061217d61015f612fb0565b905061218a61015f612381565b6121948382612fbe565b61219e8183612fdc565b6121a88282613050565b6121b28382612b14565b7f4e55e13c39d6e62f1bf31cfcf4914883960489edd96d1ea8a2cf5b9211ef317a338483856040516121e79493929190614b5d565b60405180910390a1505050565b60608282604051602001612209929190614e37565b604051602081830303815290604052905092915050565b600061222b306130da565b15905090565b600060019054906101000a900460ff16612280576040517f08c379a000000000000000000000000000000000000000000000000000000000815260040161227790614ecd565b60405180910390fd5b61228a82826130fd565b5050565b600060019054906101000a900460ff166122dd576040517f08c379a00000000000000000000000000000000000000000000000000000000081526004016122d490614ecd565b60405180910390fd5b565b600060019054906101000a900460ff1661232e576040517f08c379a000000000000000000000000000000000000000000000000000000000815260040161232590614ecd565b60405180910390fd5b565b600060019054906101000a900460ff1661237f576040517f08c379a000000000000000000000000000000000000000000000000000000000815260040161237690614ecd565b60405180910390fd5b565b6001816000016000828254019250508190555050565b8173ffffffffffffffffffffffffffffffffffffffff168373ffffffffffffffffffffffffffffffffffffffff1603612405576040517f08c379a00000000000000000000000000000000000000000000000000000000081526004016123fc90614f39565b60405180910390fd5b80606a60008573ffffffffffffffffffffffffffffffffffffffff1673ffffffffffffffffffffffffffffffffffffffff16815260200190815260200160002060008473ffffffffffffffffffffffffffffffffffffffff1673ffffffffffffffffffffffffffffffffffffffff16815260200190815260200160002060006101000a81548160ff0219169083151502179055508173ffffffffffffffffffffffffffffffffffffffff168373ffffffffffffffffffffffffffffffffffffffff167f17307eab39ab6107e8899845ad3d59bd9653f200f220920489ca2b5937696c31836040516124f69190613ad3565b60405180910390a3505050565b61250e848484611b2f565b61251a8484848461317e565b612559576040517f08c379a000000000000000000000000000000000000000000000000000000000815260040161255090614fcb565b60405180910390fd5b50505050565b606061256a82611924565b6125a9576040517f08c379a00000000000000000000000000000000000000000000000000000000081526004016125a09061505d565b60405180910390fd5b60006097600084815260200190815260200160002080546125c9906142ef565b80601f01602080910402602001604051908101604052809291908181526020018280546125f5906142ef565b80156126425780601f1061261757610100808354040283529160200191612642565b820191906000526020600020905b81548152906001019060200180831161262557829003601f168201915b505050505090506000612653613305565b905060008151036126685781925050506126b2565b6000825111156126a45761267a61331c565b8260405160200161268c929190614e37565b604051602081830303815290604052925050506126b2565b6126ad84613333565b925050505b919050565b60007f80ac58cd000000000000000000000000000000000000000000000000000000007bffffffffffffffffffffffffffffffffffffffffffffffffffffffff1916827bffffffffffffffffffffffffffffffffffffffffffffffffffffffff1916148061278257507f5b5e139f000000000000000000000000000000000000000000000000000000007bffffffffffffffffffffffffffffffffffffffffffffffffffffffff1916827bffffffffffffffffffffffffffffffffffffffffffffffffffffffff1916145b806127925750612791826133da565b5b9050919050565b8273ffffffffffffffffffffffffffffffffffffffff166127b982611227565b73ffffffffffffffffffffffffffffffffffffffff161461280f576040517f08c379a0000000000000000000000000000000000000000000000000000000008152600401612806906150ef565b60405180910390fd5b600073ffffffffffffffffffffffffffffffffffffffff168273ffffffffffffffffffffffffffffffffffffffff160361287e576040517f08c379a000000000000000000000000000000000000000000000000000000000815260040161287590615181565b60405180910390fd5b612889838383613444565b612894600082611998565b6001606860008573ffffffffffffffffffffffffffffffffffffffff1673ffffffffffffffffffffffffffffffffffffffff16815260200190815260200160002060008282546128e491906151a1565b925050819055506001606860008473ffffffffffffffffffffffffffffffffffffffff1673ffffffffffffffffffffffffffffffffffffffff168152602001908152602001600020600082825461293b9190614de1565b92505081905550816067600083815260200190815260200160002060006101000a81548173ffffffffffffffffffffffffffffffffffffffff021916908373ffffffffffffffffffffffffffffffffffffffff160217905550808273ffffffffffffffffffffffffffffffffffffffff168473ffffffffffffffffffffffffffffffffffffffff167fddf252ad1be2c89b69c2b068fc378daa952ba7f163c4a11628f55a4df523b3ef60405160405180910390a46129fa838383613449565b505050565b600061016160008473ffffffffffffffffffffffffffffffffffffffff1673ffffffffffffffffffffffffffffffffffffffff16815260200190815260200160002090506000805b8280549050811015612ae6578115612aa957828181548110612a6c57612a6b61471e565b5b906000526020600020015483600183612a8591906151a1565b81548110612a9657612a9561471e565b5b9060005260206000200181905550612ad3565b83838281548110612abd57612abc61471e565b5b906000526020600020015403612ad257600191505b5b8080612ade9061477c565b915050612a47565b5081805480612af857612af76151d5565b5b6001900381819060005260206000200160009055905550505050565b61016160008373ffffffffffffffffffffffffffffffffffffffff1673ffffffffffffffffffffffffffffffffffffffff1681526020019081526020016000208190806001815401808255809150506001900390600052602060002001600090919091909150555050565b606060006002836002612b929190615204565b612b9c9190614de1565b67ffffffffffffffff811115612bb557612bb4613e55565b5b6040519080825280601f01601f191660200182016040528015612be75781602001600182028036833780820191505090505b5090507f300000000000000000000000000000000000000000000000000000000000000081600081518110612c1f57612c1e61471e565b5b60200101907effffffffffffffffffffffffffffffffffffffffffffffffffffffffffffff1916908160001a9053507f780000000000000000000000000000000000000000000000000000000000000081600181518110612c8357612c8261471e565b5b60200101907effffffffffffffffffffffffffffffffffffffffffffffffffffffffffffff1916908160001a90535060006001846002612cc39190615204565b612ccd9190614de1565b90505b6001811115612d6d577f3031323334353637383961626364656600000000000000000000000000000000600f861660108110612d0f57612d0e61471e565b5b1a60f81b828281518110612d2657612d2561471e565b5b60200101907effffffffffffffffffffffffffffffffffffffffffffffffffffffffffffff1916908160001a905350600485901c945080612d669061525e565b9050612cd0565b5060008414612db1576040517f08c379a0000000000000000000000000000000000000000000000000000000008152600401612da8906152d3565b60405180910390fd5b8091505092915050565b6000819050919050565b6000819050919050565b612dd8816130da565b612e17576040517f08c379a0000000000000000000000000000000000000000000000000000000008152600401612e0e90615365565b60405180910390fd5b80612e447f360894a13ba1a3210667c828492db98dca3e2076cc3735a920a3ca505d382bbc60001b612dbb565b60000160006101000a81548173ffffffffffffffffffffffffffffffffffffffff021916908373ffffffffffffffffffffffffffffffffffffffff16021790555050565b612e918361344e565b600082511180612e9e5750805b15612eaf57612ead838361349d565b505b505050565b6060600084905060008484612ec991906151a1565b67ffffffffffffffff811115612ee257612ee1613e55565b5b6040519080825280601f01601f191660200182016040528015612f145781602001600182028036833780820191505090505b50905060008590505b84811015612fa357828181518110612f3857612f3761471e565b5b602001015160f81c60f81b828783612f5091906151a1565b81518110612f6157612f6061471e565b5b60200101907effffffffffffffffffffffffffffffffffffffffffffffffffffffffffffff1916908160001a9053508080612f9b9061477c565b915050612f1d565b5080925050509392505050565b600081600001549050919050565b612fd8828260405180602001604052806000815250613581565b5050565b612fe582611924565b613024576040517f08c379a000000000000000000000000000000000000000000000000000000000815260040161301b906153f7565b60405180910390fd5b8060976000848152602001908152602001600020908051906020019061304b92919061397c565b505050565b6000610160836040516130639190614ab4565b908152602001604051809103902054146130b2576040517f08c379a00000000000000000000000000000000000000000000000000000000081526004016130a990615489565b60405180910390fd5b80610160836040516130c49190614ab4565b9081526020016040518091039020819055505050565b6000808273ffffffffffffffffffffffffffffffffffffffff163b119050919050565b600060019054906101000a900460ff1661314c576040517f08c379a000000000000000000000000000000000000000000000000000000000815260040161314390614ecd565b60405180910390fd5b816065908051906020019061316292919061397c565b50806066908051906020019061317992919061397c565b505050565b600061319f8473ffffffffffffffffffffffffffffffffffffffff166130da565b156132f8578373ffffffffffffffffffffffffffffffffffffffff1663150b7a026131c8611990565b8786866040518563ffffffff1660e01b81526004016131ea94939291906154fe565b6020604051808303816000875af192505050801561322657506040513d601f19601f82011682018060405250810190613223919061555f565b60015b6132a8573d8060008114613256576040519150601f19603f3d011682016040523d82523d6000602084013e61325b565b606091505b5060008151036132a0576040517f08c379a000000000000000000000000000000000000000000000000000000000815260040161329790614fcb565b60405180910390fd5b805181602001fd5b63150b7a0260e01b7bffffffffffffffffffffffffffffffffffffffffffffffffffffffff1916817bffffffffffffffffffffffffffffffffffffffffffffffffffffffff1916149150506132fd565b600190505b949350505050565b606060405180602001604052806000815250905090565b606060405180602001604052806000815250905090565b606061333e82611924565b61337d576040517f08c379a0000000000000000000000000000000000000000000000000000000008152600401613374906155fe565b60405180910390fd5b6000613387613305565b905060008151116133a757604051806020016040528060008152506133d2565b806133b1846135dc565b6040516020016133c2929190614e37565b6040516020818303038152906040525b915050919050565b60007f01ffc9a7000000000000000000000000000000000000000000000000000000007bffffffffffffffffffffffffffffffffffffffffffffffffffffffff1916827bffffffffffffffffffffffffffffffffffffffffffffffffffffffff1916149050919050565b505050565b505050565b61345781612dcf565b8073ffffffffffffffffffffffffffffffffffffffff167fbc7cd75a20ee27fd9adebab32041f755214dbc6bffa90cc0225b39da2e5c2d3b60405160405180910390a250565b60606134a8836130da565b6134e7576040517f08c379a00000000000000000000000000000000000000000000000000000000081526004016134de90615690565b60405180910390fd5b6000808473ffffffffffffffffffffffffffffffffffffffff168460405161350f91906156ec565b600060405180830381855af49150503d806000811461354a576040519150601f19603f3d011682016040523d82523d6000602084013e61354f565b606091505b5091509150613577828260405180606001604052806027815260200161586d6027913961373c565b9250505092915050565b61358b83836137a3565b613598600084848461317e565b6135d7576040517f08c379a00000000000000000000000000000000000000000000000000000000081526004016135ce90614fcb565b60405180910390fd5b505050565b606060008203613623576040518060400160405280600181526020017f30000000000000000000000000000000000000000000000000000000000000008152509050613737565b600082905060005b6000821461365557808061363e9061477c565b915050600a8261364e9190615732565b915061362b565b60008167ffffffffffffffff81111561367157613670613e55565b5b6040519080825280601f01601f1916602001820160405280156136a35781602001600182028036833780820191505090505b5090505b60008514613730576001826136bc91906151a1565b9150600a856136cb9190615763565b60306136d79190614de1565b60f81b8183815181106136ed576136ec61471e565b5b60200101907effffffffffffffffffffffffffffffffffffffffffffffffffffffffffffff1916908160001a905350600a856137299190615732565b94506136a7565b8093505050505b919050565b6060831561374c5782905061379c565b60008351111561375f5782518084602001fd5b816040517f08c379a00000000000000000000000000000000000000000000000000000000081526004016137939190613b87565b60405180910390fd5b9392505050565b600073ffffffffffffffffffffffffffffffffffffffff168273ffffffffffffffffffffffffffffffffffffffff1603613812576040517f08c379a0000000000000000000000000000000000000000000000000000000008152600401613809906157e0565b60405180910390fd5b61381b81611924565b1561385b576040517f08c379a00000000000000000000000000000000000000000000000000000000081526004016138529061584c565b60405180910390fd5b61386760008383613444565b6001606860008473ffffffffffffffffffffffffffffffffffffffff1673ffffffffffffffffffffffffffffffffffffffff16815260200190815260200160002060008282546138b79190614de1565b92505081905550816067600083815260200190815260200160002060006101000a81548173ffffffffffffffffffffffffffffffffffffffff021916908373ffffffffffffffffffffffffffffffffffffffff160217905550808273ffffffffffffffffffffffffffffffffffffffff16600073ffffffffffffffffffffffffffffffffffffffff167fddf252ad1be2c89b69c2b068fc378daa952ba7f163c4a11628f55a4df523b3ef60405160405180910390a461397860008383613449565b5050565b828054613988906142ef565b90600052602060002090601f0160209004810192826139aa57600085556139f1565b82601f106139c357805160ff19168380011785556139f1565b828001600101855582156139f1579182015b828111156139f05782518255916020019190600101906139d5565b5b5090506139fe9190613a02565b5090565b5b80821115613a1b576000816000905550600101613a03565b5090565b6000604051905090565b600080fd5b600080fd5b60007fffffffff0000000000000000000000000000000000000000000000000000000082169050919050565b613a6881613a33565b8114613a7357600080fd5b50565b600081359050613a8581613a5f565b92915050565b600060208284031215613aa157613aa0613a29565b5b6000613aaf84828501613a76565b91505092915050565b60008115159050919050565b613acd81613ab8565b82525050565b6000602082019050613ae86000830184613ac4565b92915050565b600081519050919050565b600082825260208201905092915050565b60005b83811015613b28578082015181840152602081019050613b0d565b83811115613b37576000848401525b50505050565b6000601f19601f8301169050919050565b6000613b5982613aee565b613b638185613af9565b9350613b73818560208601613b0a565b613b7c81613b3d565b840191505092915050565b60006020820190508181036000830152613ba18184613b4e565b905092915050565b6000819050919050565b613bbc81613ba9565b8114613bc757600080fd5b50565b600081359050613bd981613bb3565b92915050565b600060208284031215613bf557613bf4613a29565b5b6000613c0384828501613bca565b91505092915050565b600073ffffffffffffffffffffffffffffffffffffffff82169050919050565b6000613c3782613c0c565b9050919050565b613c4781613c2c565b82525050565b6000602082019050613c626000830184613c3e565b92915050565b613c7181613c2c565b8114613c7c57600080fd5b50565b600081359050613c8e81613c68565b92915050565b60008060408385031215613cab57613caa613a29565b5b6000613cb985828601613c7f565b9250506020613cca85828601613bca565b9150509250929050565b613cdd81613ba9565b82525050565b6000602082019050613cf86000830184613cd4565b92915050565b600080600060608486031215613d1757613d16613a29565b5b6000613d2586828701613c7f565b9350506020613d3686828701613c7f565b9250506040613d4786828701613bca565b9150509250925092565b6000819050919050565b613d6481613d51565b8114613d6f57600080fd5b50565b600081359050613d8181613d5b565b92915050565b600060208284031215613d9d57613d9c613a29565b5b6000613dab84828501613d72565b91505092915050565b613dbd81613d51565b82525050565b6000602082019050613dd86000830184613db4565b92915050565b60008060408385031215613df557613df4613a29565b5b6000613e0385828601613d72565b9250506020613e1485828601613c7f565b9150509250929050565b600060208284031215613e3457613e33613a29565b5b6000613e4284828501613c7f565b91505092915050565b600080fd5b600080fd5b7f4e487b7100000000000000000000000000000000000000000000000000000000600052604160045260246000fd5b613e8d82613b3d565b810181811067ffffffffffffffff82111715613eac57613eab613e55565b5b80604052505050565b6000613ebf613a1f565b9050613ecb8282613e84565b919050565b600067ffffffffffffffff821115613eeb57613eea613e55565b5b613ef482613b3d565b9050602081019050919050565b82818337600083830152505050565b6000613f23613f1e84613ed0565b613eb5565b905082815260208101848484011115613f3f57613f3e613e50565b5b613f4a848285613f01565b509392505050565b600082601f830112613f6757613f66613e4b565b5b8135613f77848260208601613f10565b91505092915050565b60008060408385031215613f9757613f96613a29565b5b6000613fa585828601613c7f565b925050602083013567ffffffffffffffff811115613fc657613fc5613a2e565b5b613fd285828601613f52565b9150509250929050565b600067ffffffffffffffff821115613ff757613ff6613e55565b5b61400082613b3d565b9050602081019050919050565b600061402061401b84613fdc565b613eb5565b90508281526020810184848401111561403c5761403b613e50565b5b614047848285613f01565b509392505050565b600082601f83011261406457614063613e4b565b5b813561407484826020860161400d565b91505092915050565b6000806040838503121561409457614093613a29565b5b60006140a285828601613c7f565b925050602083013567ffffffffffffffff8111156140c3576140c2613a2e565b5b6140cf8582860161404f565b9150509250929050565b6140e281613ab8565b81146140ed57600080fd5b50565b6000813590506140ff816140d9565b92915050565b6000806040838503121561411c5761411b613a29565b5b600061412a85828601613c7f565b925050602061413b858286016140f0565b9150509250929050565b6000806000806080858703121561415f5761415e613a29565b5b600061416d87828801613c7f565b945050602061417e87828801613c7f565b935050604061418f87828801613bca565b925050606085013567ffffffffffffffff8111156141b0576141af613a2e565b5b6141bc8782880161404f565b91505092959194509250565b6000602082840312156141de576141dd613a29565b5b600082013567ffffffffffffffff8111156141fc576141fb613a2e565b5b61420884828501613f52565b91505092915050565b60008060006060848603121561422a57614229613a29565b5b600061423886828701613c7f565b935050602061424986828701613c7f565b925050604084013567ffffffffffffffff81111561426a57614269613a2e565b5b61427686828701613f52565b9150509250925092565b6000806040838503121561429757614296613a29565b5b60006142a585828601613c7f565b92505060206142b685828601613c7f565b9150509250929050565b7f4e487b7100000000000000000000000000000000000000000000000000000000600052602260045260246000fd5b6000600282049050600182168061430757607f821691505b60208210810361431a576143196142c0565b5b50919050565b7f4552433732313a20617070726f76656420717565727920666f72206e6f6e657860008201527f697374656e7420746f6b656e0000000000000000000000000000000000000000602082015250565b600061437c602c83613af9565b915061438782614320565b604082019050919050565b600060208201905081810360008301526143ab8161436f565b9050919050565b7f4552433732313a20617070726f76616c20746f2063757272656e74206f776e6560008201527f7200000000000000000000000000000000000000000000000000000000000000602082015250565b600061440e602183613af9565b9150614419826143b2565b604082019050919050565b6000602082019050818103600083015261443d81614401565b9050919050565b7f4552433732313a20617070726f76652063616c6c6572206973206e6f74206f7760008201527f6e6572206e6f7220617070726f76656420666f7220616c6c0000000000000000602082015250565b60006144a0603883613af9565b91506144ab82614444565b604082019050919050565b600060208201905081810360008301526144cf81614493565b9050919050565b7f4552433732313a207472616e736665722063616c6c6572206973206e6f74206f60008201527f776e6572206e6f7220617070726f766564000000000000000000000000000000602082015250565b6000614532603183613af9565b915061453d826144d6565b604082019050919050565b6000602082019050818103600083015261456181614525565b9050919050565b7f416363657373436f6e74726f6c3a2063616e206f6e6c792072656e6f756e636560008201527f20726f6c657320666f722073656c660000000000000000000000000000000000602082015250565b60006145c4602f83613af9565b91506145cf82614568565b604082019050919050565b600060208201905081810360008301526145f3816145b7565b9050919050565b7f46756e6374696f6e206d7573742062652063616c6c6564207468726f7567682060008201527f64656c656761746563616c6c0000000000000000000000000000000000000000602082015250565b6000614656602c83613af9565b9150614661826145fa565b604082019050919050565b6000602082019050818103600083015261468581614649565b9050919050565b7f46756e6374696f6e206d7573742062652063616c6c6564207468726f7567682060008201527f6163746976652070726f78790000000000000000000000000000000000000000602082015250565b60006146e8602c83613af9565b91506146f38261468c565b604082019050919050565b60006020820190508181036000830152614717816146db565b9050919050565b7f4e487b7100000000000000000000000000000000000000000000000000000000600052603260045260246000fd5b7f4e487b7100000000000000000000000000000000000000000000000000000000600052601160045260246000fd5b600061478782613ba9565b91507fffffffffffffffffffffffffffffffffffffffffffffffffffffffffffffffff82036147b9576147b861474d565b5b600182019050919050565b7f436174614469644e46543a20496e76616c6964206469642e0000000000000000600082015250565b60006147fa601883613af9565b9150614805826147c4565b602082019050919050565b60006020820190508181036000830152614829816147ed565b9050919050565b7f555550535570677261646561626c653a206d757374206e6f742062652063616c60008201527f6c6564207468726f7567682064656c656761746563616c6c0000000000000000602082015250565b600061488c603883613af9565b915061489782614830565b604082019050919050565b600060208201905081810360008301526148bb8161487f565b9050919050565b7f4552433732313a206f776e657220717565727920666f72206e6f6e657869737460008201527f656e7420746f6b656e0000000000000000000000000000000000000000000000602082015250565b600061491e602983613af9565b9150614929826148c2565b604082019050919050565b6000602082019050818103600083015261494d81614911565b9050919050565b7f4552433732313a2062616c616e636520717565727920666f7220746865207a6560008201527f726f206164647265737300000000000000000000000000000000000000000000602082015250565b60006149b0602a83613af9565b91506149bb82614954565b604082019050919050565b600060208201905081810360008301526149df816149a3565b9050919050565b7f496e697469616c697a61626c653a20636f6e747261637420697320616c72656160008201527f647920696e697469616c697a6564000000000000000000000000000000000000602082015250565b6000614a42602e83613af9565b9150614a4d826149e6565b604082019050919050565b60006020820190508181036000830152614a7181614a35565b9050919050565b600081905092915050565b6000614a8e82613aee565b614a988185614a78565b9350614aa8818560208601613b0a565b80840191505092915050565b6000614ac08284614a83565b915081905092915050565b7f4552433732313a206f70657261746f7220717565727920666f72206e6f6e657860008201527f697374656e7420746f6b656e0000000000000000000000000000000000000000602082015250565b6000614b27602c83613af9565b9150614b3282614acb565b604082019050919050565b60006020820190508181036000830152614b5681614b1a565b9050919050565b6000608082019050614b726000830187613c3e565b614b7f6020830186613c3e565b614b8c6040830185613cd4565b8181036060830152614b9e8184613b4e565b905095945050505050565b7f416363657373436f6e74726f6c3a206163636f756e7420000000000000000000600082015250565b6000614bdf601783614a78565b9150614bea82614ba9565b601782019050919050565b7f206973206d697373696e6720726f6c6520000000000000000000000000000000600082015250565b6000614c2b601183614a78565b9150614c3682614bf5565b601182019050919050565b6000614c4c82614bd2565b9150614c588285614a83565b9150614c6382614c1e565b9150614c6f8284614a83565b91508190509392505050565b600081519050614c8a81613d5b565b92915050565b600060208284031215614ca657614ca5613a29565b5b6000614cb484828501614c7b565b91505092915050565b7f45524331393637557067726164653a206e657720696d706c656d656e7461746960008201527f6f6e206973206e6f742055555053000000000000000000000000000000000000602082015250565b6000614d19602e83613af9565b9150614d2482614cbd565b604082019050919050565b60006020820190508181036000830152614d4881614d0c565b9050919050565b7f45524331393637557067726164653a20756e737570706f727465642070726f7860008201527f6961626c65555549440000000000000000000000000000000000000000000000602082015250565b6000614dab602983613af9565b9150614db682614d4f565b604082019050919050565b60006020820190508181036000830152614dda81614d9e565b9050919050565b6000614dec82613ba9565b9150614df783613ba9565b9250827fffffffffffffffffffffffffffffffffffffffffffffffffffffffffffffffff03821115614e2c57614e2b61474d565b5b828201905092915050565b6000614e438285614a83565b9150614e4f8284614a83565b91508190509392505050565b7f496e697469616c697a61626c653a20636f6e7472616374206973206e6f74206960008201527f6e697469616c697a696e67000000000000000000000000000000000000000000602082015250565b6000614eb7602b83613af9565b9150614ec282614e5b565b604082019050919050565b60006020820190508181036000830152614ee681614eaa565b9050919050565b7f4552433732313a20617070726f766520746f2063616c6c657200000000000000600082015250565b6000614f23601983613af9565b9150614f2e82614eed565b602082019050919050565b60006020820190508181036000830152614f5281614f16565b9050919050565b7f4552433732313a207472616e7366657220746f206e6f6e20455243373231526560008201527f63656976657220696d706c656d656e7465720000000000000000000000000000602082015250565b6000614fb5603283613af9565b9150614fc082614f59565b604082019050919050565b60006020820190508181036000830152614fe481614fa8565b9050919050565b7f45524337323155524953746f726167653a2055524920717565727920666f722060008201527f6e6f6e6578697374656e7420746f6b656e000000000000000000000000000000602082015250565b6000615047603183613af9565b915061505282614feb565b604082019050919050565b600060208201905081810360008301526150768161503a565b9050919050565b7f4552433732313a207472616e736665722066726f6d20696e636f72726563742060008201527f6f776e6572000000000000000000000000000000000000000000000000000000602082015250565b60006150d9602583613af9565b91506150e48261507d565b604082019050919050565b60006020820190508181036000830152615108816150cc565b9050919050565b7f4552433732313a207472616e7366657220746f20746865207a65726f2061646460008201527f7265737300000000000000000000000000000000000000000000000000000000602082015250565b600061516b602483613af9565b91506151768261510f565b604082019050919050565b6000602082019050818103600083015261519a8161515e565b9050919050565b60006151ac82613ba9565b91506151b783613ba9565b9250828210156151ca576151c961474d565b5b828203905092915050565b7f4e487b7100000000000000000000000000000000000000000000000000000000600052603160045260246000fd5b600061520f82613ba9565b915061521a83613ba9565b9250817fffffffffffffffffffffffffffffffffffffffffffffffffffffffffffffffff04831182151516156152535761525261474d565b5b828202905092915050565b600061526982613ba9565b91506000820361527c5761527b61474d565b5b600182039050919050565b7f537472696e67733a20686578206c656e67746820696e73756666696369656e74600082015250565b60006152bd602083613af9565b91506152c882615287565b602082019050919050565b600060208201905081810360008301526152ec816152b0565b9050919050565b7f455243313936373a206e657720696d706c656d656e746174696f6e206973206e60008201527f6f74206120636f6e747261637400000000000000000000000000000000000000602082015250565b600061534f602d83613af9565b915061535a826152f3565b604082019050919050565b6000602082019050818103600083015261537e81615342565b9050919050565b7f45524337323155524953746f726167653a2055524920736574206f66206e6f6e60008201527f6578697374656e7420746f6b656e000000000000000000000000000000000000602082015250565b60006153e1602e83613af9565b91506153ec82615385565b604082019050919050565b60006020820190508181036000830152615410816153d4565b9050919050565b7f436174614469644e46543a20546869732064696420616c72656164792065786960008201527f7374732e00000000000000000000000000000000000000000000000000000000602082015250565b6000615473602483613af9565b915061547e82615417565b604082019050919050565b600060208201905081810360008301526154a281615466565b9050919050565b600081519050919050565b600082825260208201905092915050565b60006154d0826154a9565b6154da81856154b4565b93506154ea818560208601613b0a565b6154f381613b3d565b840191505092915050565b60006080820190506155136000830187613c3e565b6155206020830186613c3e565b61552d6040830185613cd4565b818103606083015261553f81846154c5565b905095945050505050565b60008151905061555981613a5f565b92915050565b60006020828403121561557557615574613a29565b5b60006155838482850161554a565b91505092915050565b7f4552433732314d657461646174613a2055524920717565727920666f72206e6f60008201527f6e6578697374656e7420746f6b656e0000000000000000000000000000000000602082015250565b60006155e8602f83613af9565b91506155f38261558c565b604082019050919050565b60006020820190508181036000830152615617816155db565b9050919050565b7f416464726573733a2064656c65676174652063616c6c20746f206e6f6e2d636f60008201527f6e74726163740000000000000000000000000000000000000000000000000000602082015250565b600061567a602683613af9565b91506156858261561e565b604082019050919050565b600060208201905081810360008301526156a98161566d565b9050919050565b600081905092915050565b60006156c6826154a9565b6156d081856156b0565b93506156e0818560208601613b0a565b80840191505092915050565b60006156f882846156bb565b915081905092915050565b7f4e487b7100000000000000000000000000000000000000000000000000000000600052601260045260246000fd5b600061573d82613ba9565b915061574883613ba9565b92508261575857615757615703565b5b828204905092915050565b600061576e82613ba9565b915061577983613ba9565b92508261578957615788615703565b5b828206905092915050565b7f4552433732313a206d696e7420746f20746865207a65726f2061646472657373600082015250565b60006157ca602083613af9565b91506157d582615794565b602082019050919050565b600060208201905081810360008301526157f9816157bd565b9050919050565b7f4552433732313a20746f6b656e20616c7265616479206d696e74656400000000600082015250565b6000615836601c83613af9565b915061584182615800565b602082019050919050565b6000602082019050818103600083015261586581615829565b905091905056fe416464726573733a206c6f772d6c6576656c2064656c65676174652063616c6c206661696c6564a26469706673582212209c74eb2f21de5bcd201fe5f75cc22c33a604815abb9dcee8b7eaa38ce056c9c764736f6c634300080d0033",
  "immutableReferences": {
    "895": [
      {
        "length": 32,
        "start": 2818
      },
      {
        "length": 32,
        "start": 2960
      },
      {
        "length": 32,
        "start": 3581
      },
      {
        "length": 32,
        "start": 3723
      },
      {
        "length": 32,
        "start": 3899
      }
    ]
  },
  "source": "// SPDX-License-Identifier: MIT\r\npragma solidity ^0.8.12;\r\n\r\nimport \"@openzeppelin/contracts-upgradeable/token/ERC721/ERC721Upgradeable.sol\";\r\nimport \"@openzeppelin/contracts-upgradeable/token/ERC721/extensions/ERC721URIStorageUpgradeable.sol\";\r\nimport \"@openzeppelin/contracts-upgradeable/access/AccessControlUpgradeable.sol\";\r\nimport \"@openzeppelin/contracts-upgradeable/proxy/utils/Initializable.sol\";\r\nimport \"@openzeppelin/contracts-upgradeable/proxy/utils/UUPSUpgradeable.sol\";\r\nimport \"@openzeppelin/contracts-upgradeable/utils/CountersUpgradeable.sol\";\r\n\r\ncontract CataDidNFT is\r\n    Initializable,\r\n    ERC721Upgradeable,\r\n    ERC721URIStorageUpgradeable,\r\n    AccessControlUpgradeable,\r\n    UUPSUpgradeable\r\n{\r\n    using CountersUpgradeable for CountersUpgradeable.Counter;\r\n\r\n    bytes32 public constant MINTER_ROLE = keccak256(\"MINTER_ROLE\");\r\n    CountersUpgradeable.Counter private _tokenIdCounter;\r\n    bytes32 public constant UPGRADER_ROLE = keccak256(\"UPGRADER_ROLE\");\r\n\r\n    mapping(string => uint256) private _did2tokenId;\r\n    mapping(address => uint256[]) private _address2tokenId;\r\n\r\n    event MintDid(address creator, address to, uint256 tokenId, string did);\r\n    event TransferDid(address from, address to, uint256 tokenId, string did);\r\n\r\n    function getVersion() public pure returns (uint256 version) {\r\n        return 1;\r\n    }\r\n\r\n    function initialize() public initializer {\r\n        __ERC721_init(\"CataDidNFT\", \"DID\");\r\n        __ERC721URIStorage_init();\r\n        __AccessControl_init();\r\n        __UUPSUpgradeable_init();\r\n\r\n        _grantRole(DEFAULT_ADMIN_ROLE, msg.sender);\r\n        _grantRole(MINTER_ROLE, msg.sender);\r\n        _grantRole(UPGRADER_ROLE, msg.sender);\r\n        _tokenIdCounter.increment();\r\n    }\r\n\r\n    function safeMint(address to, string memory uri)\r\n        public\r\n        onlyRole(MINTER_ROLE)\r\n    {\r\n        _mintDid(to, uri);\r\n    }\r\n\r\n    function _mintDid(address to, string memory uri) internal {\r\n        uint256 tokenId = _tokenIdCounter.current();\r\n        _tokenIdCounter.increment();\r\n        _safeMint(to, tokenId);\r\n        _setTokenURI(tokenId, uri);\r\n        _setDid(uri, tokenId);\r\n        _setOwner(to, tokenId);\r\n        emit MintDid(msg.sender, to, tokenId, uri);\r\n    }\r\n\r\n    function _authorizeUpgrade(address newImplementation)\r\n        internal\r\n        override\r\n        onlyRole(UPGRADER_ROLE)\r\n    {}\r\n\r\n    // The following functions are overrides required by Solidity.\r\n\r\n    function _burn(uint256 tokenId)\r\n        internal\r\n        override(ERC721Upgradeable, ERC721URIStorageUpgradeable)\r\n    {\r\n        address owner = ownerOf(tokenId);\r\n        _rmTokenId(owner, tokenId);\r\n        super._burn(tokenId);\r\n    }\r\n\r\n    function _transfer(\r\n        address from,\r\n        address to,\r\n        uint256 tokenId\r\n    ) internal override(ERC721Upgradeable) {\r\n        super._transfer(from, to, tokenId);\r\n        _rmTokenId(from, tokenId);\r\n        _setOwner(to, tokenId);\r\n        emit TransferDid(from, to, tokenId, tokenURI(tokenId));\r\n    }\r\n\r\n    function tokenURI(uint256 tokenId)\r\n        public\r\n        view\r\n        override(ERC721Upgradeable, ERC721URIStorageUpgradeable)\r\n        returns (string memory)\r\n    {\r\n        return super.tokenURI(tokenId);\r\n    }\r\n\r\n    function supportsInterface(bytes4 interfaceId)\r\n        public\r\n        view\r\n        override(ERC721Upgradeable, AccessControlUpgradeable)\r\n        returns (bool)\r\n    {\r\n        return super.supportsInterface(interfaceId);\r\n    }\r\n\r\n    // about DID\r\n    function _setDid(string memory did, uint256 tokenId) internal virtual {\r\n        require(_did2tokenId[did] == 0, \"CataDidNFT: This did already exists.\");\r\n        _did2tokenId[did] = tokenId;\r\n    }\r\n\r\n    function _setOwner(address owner, uint256 tokenId) internal virtual {\r\n        _address2tokenId[owner].push(tokenId);\r\n    }\r\n\r\n    function didOwner(string memory did) public view virtual returns (address) {\r\n        uint256 tokenId = _did2tokenId[did];\r\n        return ownerOf(tokenId);\r\n    }\r\n\r\n    function getDids(address owner)\r\n        public\r\n        view\r\n        virtual\r\n        returns (string memory)\r\n    {\r\n        uint256[] memory tokenIds = _address2tokenId[owner];\r\n        string memory dids = \"[\";\r\n        for (uint256 i = 0; i < tokenIds.length; i++) {\r\n            string memory did = tokenURI(tokenIds[i]);\r\n            if (i != 0) {\r\n                dids = concat(dids, \",\");\r\n            }\r\n            dids = concat(dids, '\"');\r\n            dids = concat(dids, did);\r\n            dids = concat(dids, '\"');\r\n        }\r\n        return concat(dids, \"]\");\r\n    }\r\n\r\n    function mintDid(address to, string memory did) public {\r\n        string memory baseDid = getBaseUri(did);\r\n        uint256[] memory tokenIds = _address2tokenId[msg.sender];\r\n        bool access = false;\r\n        for (uint256 i = 0; i < tokenIds.length; i++) {\r\n            string memory rootDid = tokenURI(tokenIds[i]);\r\n            if (hashCompareWithLengthCheck(baseDid, rootDid)) {\r\n                access = true;\r\n                break;\r\n            }\r\n        }\r\n        require(access, \"CataDidNFT: Invalid did.\");\r\n        _mintDid(to, did);\r\n    }\r\n\r\n    function transferDid(address from, address to, string memory did) public {\r\n        uint256 tokenId = _did2tokenId[did];\r\n        safeTransferFrom(from, to, tokenId);\r\n    }\r\n\r\n    function concat(string memory a, string memory b)\r\n        internal\r\n        pure\r\n        returns (string memory)\r\n    {\r\n        return string.concat(a, b);\r\n    }\r\n\r\n    function substring(\r\n        string memory str,\r\n        uint256 startIndex,\r\n        uint256 endIndex\r\n    ) internal pure returns (string memory) {\r\n        bytes memory strBytes = bytes(str);\r\n        bytes memory result = new bytes(endIndex - startIndex);\r\n        for (uint256 i = startIndex; i < endIndex; i++) {\r\n            result[i - startIndex] = strBytes[i];\r\n        }\r\n        return string(result);\r\n    }\r\n\r\n    function hashCompareWithLengthCheck(string memory a, string memory b)\r\n        internal\r\n        pure\r\n        returns (bool)\r\n    {\r\n        if (bytes(a).length != bytes(b).length) {\r\n            return false;\r\n        } else {\r\n            return\r\n                keccak256(abi.encodePacked(a)) ==\r\n                keccak256(abi.encodePacked(b));\r\n        }\r\n    }\r\n\r\n    function getBaseUri(string memory did)\r\n        internal\r\n        pure\r\n        returns (string memory)\r\n    {\r\n        bytes memory strBytes = bytes(did);\r\n        uint256 index = strBytes.length;\r\n        for (uint256 i = 0; i < strBytes.length; i++) {\r\n            if (strBytes[i] == bytes(\".\")[0]) {\r\n                index = i + 1;\r\n                break;\r\n            }\r\n        }\r\n        return substring(did, index, strBytes.length);\r\n    }\r\n\r\n    function _rmTokenId(address owner, uint256 tokenId) internal {\r\n        uint256[] storage tokenIds = _address2tokenId[owner];\r\n        bool finded = false;\r\n        for (uint256 i = 0; i < tokenIds.length; i++) {\r\n            if (finded) {\r\n                tokenIds[i - 1] = tokenIds[i];\r\n            } else if (tokenIds[i] == tokenId) {\r\n                finded = true;\r\n            }\r\n        }\r\n        tokenIds.pop();\r\n    }\r\n}\r\n",
  "sourcePath": "D:\\linden\\eth-contracts\\nftExchange\\contracts\\CataDidNFT.sol",
  "compiler": {
    "name": "solc",
    "version": "0.8.13+commit.abaa5c0e.Emscripten.clang"
  },
  "schemaVersion": "3.4.7",
  "updatedAt": "2022-07-08T10:00:27.821Z",
  "networkType": "ethereum",
  "devdoc": {
    "kind": "dev",
    "methods": {
      "approve(address,uint256)": {
        "details": "See {IERC721-approve}."
      },
      "balanceOf(address)": {
        "details": "See {IERC721-balanceOf}."
      },
      "getApproved(uint256)": {
        "details": "See {IERC721-getApproved}."
      },
      "getRoleAdmin(bytes32)": {
        "details": "Returns the admin role that controls `role`. See {grantRole} and {revokeRole}. To change a role's admin, use {_setRoleAdmin}."
      },
      "grantRole(bytes32,address)": {
        "details": "Grants `role` to `account`. If `account` had not been already granted `role`, emits a {RoleGranted} event. Requirements: - the caller must have ``role``'s admin role."
      },
      "hasRole(bytes32,address)": {
        "details": "Returns `true` if `account` has been granted `role`."
      },
      "isApprovedForAll(address,address)": {
        "details": "See {IERC721-isApprovedForAll}."
      },
      "name()": {
        "details": "See {IERC721Metadata-name}."
      },
      "ownerOf(uint256)": {
        "details": "See {IERC721-ownerOf}."
      },
      "proxiableUUID()": {
        "details": "Implementation of the ERC1822 {proxiableUUID} function. This returns the storage slot used by the implementation. It is used to validate that the this implementation remains valid after an upgrade. IMPORTANT: A proxy pointing at a proxiable contract should not be considered proxiable itself, because this risks bricking a proxy that upgrades to it, by delegating to itself until out of gas. Thus it is critical that this function revert if invoked through a proxy. This is guaranteed by the `notDelegated` modifier."
      },
      "renounceRole(bytes32,address)": {
        "details": "Revokes `role` from the calling account. Roles are often managed via {grantRole} and {revokeRole}: this function's purpose is to provide a mechanism for accounts to lose their privileges if they are compromised (such as when a trusted device is misplaced). If the calling account had been revoked `role`, emits a {RoleRevoked} event. Requirements: - the caller must be `account`."
      },
      "revokeRole(bytes32,address)": {
        "details": "Revokes `role` from `account`. If `account` had been granted `role`, emits a {RoleRevoked} event. Requirements: - the caller must have ``role``'s admin role."
      },
      "safeTransferFrom(address,address,uint256)": {
        "details": "See {IERC721-safeTransferFrom}."
      },
      "safeTransferFrom(address,address,uint256,bytes)": {
        "details": "See {IERC721-safeTransferFrom}."
      },
      "setApprovalForAll(address,bool)": {
        "details": "See {IERC721-setApprovalForAll}."
      },
      "symbol()": {
        "details": "See {IERC721Metadata-symbol}."
      },
      "transferFrom(address,address,uint256)": {
        "details": "See {IERC721-transferFrom}."
      },
      "upgradeTo(address)": {
        "details": "Upgrade the implementation of the proxy to `newImplementation`. Calls {_authorizeUpgrade}. Emits an {Upgraded} event."
      },
      "upgradeToAndCall(address,bytes)": {
        "details": "Upgrade the implementation of the proxy to `newImplementation`, and subsequently execute the function call encoded in `data`. Calls {_authorizeUpgrade}. Emits an {Upgraded} event."
      }
    },
    "version": 1
  },
  "userdoc": {
    "kind": "user",
    "methods": {},
    "version": 1
  }
}