{
  "contractName": "METANFT",
  "abi": [
    {
      "anonymous": false,
      "inputs": [
        {
          "indexed": false,
          "internalType": "address",
          "name": "previousAdmin",
          "type": "address"
        },
        {
          "indexed": false,
          "internalType": "address",
          "name": "newAdmin",
          "type": "address"
        }
      ],
      "name": "AdminChanged",
      "type": "event"
    },
    {
      "anonymous": false,
      "inputs": [
        {
          "indexed": true,
          "internalType": "address",
          "name": "owner",
          "type": "address"
        },
        {
          "indexed": true,
          "internalType": "address",
          "name": "approved",
          "type": "address"
        },
        {
          "indexed": true,
          "internalType": "uint256",
          "name": "tokenId",
          "type": "uint256"
        }
      ],
      "name": "Approval",
      "type": "event"
    },
    {
      "anonymous": false,
      "inputs": [
        {
          "indexed": true,
          "internalType": "address",
          "name": "owner",
          "type": "address"
        },
        {
          "indexed": true,
          "internalType": "address",
          "name": "operator",
          "type": "address"
        },
        {
          "indexed": false,
          "internalType": "bool",
          "name": "approved",
          "type": "bool"
        }
      ],
      "name": "ApprovalForAll",
      "type": "event"
    },
    {
      "anonymous": false,
      "inputs": [
        {
          "indexed": true,
          "internalType": "address",
          "name": "beacon",
          "type": "address"
        }
      ],
      "name": "BeaconUpgraded",
      "type": "event"
    },
    {
      "anonymous": false,
      "inputs": [
        {
          "indexed": true,
          "internalType": "bytes32",
          "name": "role",
          "type": "bytes32"
        },
        {
          "indexed": true,
          "internalType": "bytes32",
          "name": "previousAdminRole",
          "type": "bytes32"
        },
        {
          "indexed": true,
          "internalType": "bytes32",
          "name": "newAdminRole",
          "type": "bytes32"
        }
      ],
      "name": "RoleAdminChanged",
      "type": "event"
    },
    {
      "anonymous": false,
      "inputs": [
        {
          "indexed": true,
          "internalType": "bytes32",
          "name": "role",
          "type": "bytes32"
        },
        {
          "indexed": true,
          "internalType": "address",
          "name": "account",
          "type": "address"
        },
        {
          "indexed": true,
          "internalType": "address",
          "name": "sender",
          "type": "address"
        }
      ],
      "name": "RoleGranted",
      "type": "event"
    },
    {
      "anonymous": false,
      "inputs": [
        {
          "indexed": true,
          "internalType": "bytes32",
          "name": "role",
          "type": "bytes32"
        },
        {
          "indexed": true,
          "internalType": "address",
          "name": "account",
          "type": "address"
        },
        {
          "indexed": true,
          "internalType": "address",
          "name": "sender",
          "type": "address"
        }
      ],
      "name": "RoleRevoked",
      "type": "event"
    },
    {
      "anonymous": false,
      "inputs": [
        {
          "indexed": true,
          "internalType": "address",
          "name": "from",
          "type": "address"
        },
        {
          "indexed": true,
          "internalType": "address",
          "name": "to",
          "type": "address"
        },
        {
          "indexed": true,
          "internalType": "uint256",
          "name": "tokenId",
          "type": "uint256"
        }
      ],
      "name": "Transfer",
      "type": "event"
    },
    {
      "anonymous": false,
      "inputs": [
        {
          "indexed": true,
          "internalType": "address",
          "name": "implementation",
          "type": "address"
        }
      ],
      "name": "Upgraded",
      "type": "event"
    },
    {
      "inputs": [],
      "name": "DEFAULT_ADMIN_ROLE",
      "outputs": [
        {
          "internalType": "bytes32",
          "name": "",
          "type": "bytes32"
        }
      ],
      "stateMutability": "view",
      "type": "function"
    },
    {
      "inputs": [],
      "name": "MINTER_ROLE",
      "outputs": [
        {
          "internalType": "bytes32",
          "name": "",
          "type": "bytes32"
        }
      ],
      "stateMutability": "view",
      "type": "function"
    },
    {
      "inputs": [],
      "name": "UPGRADER_ROLE",
      "outputs": [
        {
          "internalType": "bytes32",
          "name": "",
          "type": "bytes32"
        }
      ],
      "stateMutability": "view",
      "type": "function"
    },
    {
      "inputs": [
        {
          "internalType": "address",
          "name": "to",
          "type": "address"
        },
        {
          "internalType": "uint256",
          "name": "tokenId",
          "type": "uint256"
        }
      ],
      "name": "approve",
      "outputs": [],
      "stateMutability": "nonpayable",
      "type": "function"
    },
    {
      "inputs": [
        {
          "internalType": "address",
          "name": "owner",
          "type": "address"
        }
      ],
      "name": "balanceOf",
      "outputs": [
        {
          "internalType": "uint256",
          "name": "",
          "type": "uint256"
        }
      ],
      "stateMutability": "view",
      "type": "function"
    },
    {
      "inputs": [
        {
          "internalType": "uint256",
          "name": "tokenId",
          "type": "uint256"
        }
      ],
      "name": "getApproved",
      "outputs": [
        {
          "internalType": "address",
          "name": "",
          "type": "address"
        }
      ],
      "stateMutability": "view",
      "type": "function"
    },
    {
      "inputs": [
        {
          "internalType": "bytes32",
          "name": "role",
          "type": "bytes32"
        }
      ],
      "name": "getRoleAdmin",
      "outputs": [
        {
          "internalType": "bytes32",
          "name": "",
          "type": "bytes32"
        }
      ],
      "stateMutability": "view",
      "type": "function"
    },
    {
      "inputs": [
        {
          "internalType": "bytes32",
          "name": "role",
          "type": "bytes32"
        },
        {
          "internalType": "address",
          "name": "account",
          "type": "address"
        }
      ],
      "name": "grantRole",
      "outputs": [],
      "stateMutability": "nonpayable",
      "type": "function"
    },
    {
      "inputs": [
        {
          "internalType": "bytes32",
          "name": "role",
          "type": "bytes32"
        },
        {
          "internalType": "address",
          "name": "account",
          "type": "address"
        }
      ],
      "name": "hasRole",
      "outputs": [
        {
          "internalType": "bool",
          "name": "",
          "type": "bool"
        }
      ],
      "stateMutability": "view",
      "type": "function"
    },
    {
      "inputs": [
        {
          "internalType": "address",
          "name": "owner",
          "type": "address"
        },
        {
          "internalType": "address",
          "name": "operator",
          "type": "address"
        }
      ],
      "name": "isApprovedForAll",
      "outputs": [
        {
          "internalType": "bool",
          "name": "",
          "type": "bool"
        }
      ],
      "stateMutability": "view",
      "type": "function"
    },
    {
      "inputs": [],
      "name": "name",
      "outputs": [
        {
          "internalType": "string",
          "name": "",
          "type": "string"
        }
      ],
      "stateMutability": "view",
      "type": "function"
    },
    {
      "inputs": [
        {
          "internalType": "uint256",
          "name": "tokenId",
          "type": "uint256"
        }
      ],
      "name": "ownerOf",
      "outputs": [
        {
          "internalType": "address",
          "name": "",
          "type": "address"
        }
      ],
      "stateMutability": "view",
      "type": "function"
    },
    {
      "inputs": [],
      "name": "proxiableUUID",
      "outputs": [
        {
          "internalType": "bytes32",
          "name": "",
          "type": "bytes32"
        }
      ],
      "stateMutability": "view",
      "type": "function"
    },
    {
      "inputs": [
        {
          "internalType": "bytes32",
          "name": "role",
          "type": "bytes32"
        },
        {
          "internalType": "address",
          "name": "account",
          "type": "address"
        }
      ],
      "name": "renounceRole",
      "outputs": [],
      "stateMutability": "nonpayable",
      "type": "function"
    },
    {
      "inputs": [
        {
          "internalType": "bytes32",
          "name": "role",
          "type": "bytes32"
        },
        {
          "internalType": "address",
          "name": "account",
          "type": "address"
        }
      ],
      "name": "revokeRole",
      "outputs": [],
      "stateMutability": "nonpayable",
      "type": "function"
    },
    {
      "inputs": [
        {
          "internalType": "address",
          "name": "from",
          "type": "address"
        },
        {
          "internalType": "address",
          "name": "to",
          "type": "address"
        },
        {
          "internalType": "uint256",
          "name": "tokenId",
          "type": "uint256"
        }
      ],
      "name": "safeTransferFrom",
      "outputs": [],
      "stateMutability": "nonpayable",
      "type": "function"
    },
    {
      "inputs": [
        {
          "internalType": "address",
          "name": "from",
          "type": "address"
        },
        {
          "internalType": "address",
          "name": "to",
          "type": "address"
        },
        {
          "internalType": "uint256",
          "name": "tokenId",
          "type": "uint256"
        },
        {
          "internalType": "bytes",
          "name": "_data",
          "type": "bytes"
        }
      ],
      "name": "safeTransferFrom",
      "outputs": [],
      "stateMutability": "nonpayable",
      "type": "function"
    },
    {
      "inputs": [
        {
          "internalType": "address",
          "name": "operator",
          "type": "address"
        },
        {
          "internalType": "bool",
          "name": "approved",
          "type": "bool"
        }
      ],
      "name": "setApprovalForAll",
      "outputs": [],
      "stateMutability": "nonpayable",
      "type": "function"
    },
    {
      "inputs": [],
      "name": "symbol",
      "outputs": [
        {
          "internalType": "string",
          "name": "",
          "type": "string"
        }
      ],
      "stateMutability": "view",
      "type": "function"
    },
    {
      "inputs": [
        {
          "internalType": "address",
          "name": "from",
          "type": "address"
        },
        {
          "internalType": "address",
          "name": "to",
          "type": "address"
        },
        {
          "internalType": "uint256",
          "name": "tokenId",
          "type": "uint256"
        }
      ],
      "name": "transferFrom",
      "outputs": [],
      "stateMutability": "nonpayable",
      "type": "function"
    },
    {
      "inputs": [
        {
          "internalType": "address",
          "name": "newImplementation",
          "type": "address"
        }
      ],
      "name": "upgradeTo",
      "outputs": [],
      "stateMutability": "nonpayable",
      "type": "function"
    },
    {
      "inputs": [
        {
          "internalType": "address",
          "name": "newImplementation",
          "type": "address"
        },
        {
          "internalType": "bytes",
          "name": "data",
          "type": "bytes"
        }
      ],
      "name": "upgradeToAndCall",
      "outputs": [],
      "stateMutability": "payable",
      "type": "function"
    },
    {
      "inputs": [],
      "name": "getVersion",
      "outputs": [
        {
          "internalType": "uint256",
          "name": "version",
          "type": "uint256"
        }
      ],
      "stateMutability": "pure",
      "type": "function"
    },
    {
      "inputs": [],
      "name": "initialize",
      "outputs": [],
      "stateMutability": "nonpayable",
      "type": "function"
    },
    {
      "inputs": [
        {
          "internalType": "address",
          "name": "to",
          "type": "address"
        },
        {
          "internalType": "uint256",
          "name": "tokenId",
          "type": "uint256"
        }
      ],
      "name": "safeMint",
      "outputs": [],
      "stateMutability": "nonpayable",
      "type": "function"
    },
    {
      "inputs": [
        {
          "internalType": "address",
          "name": "to",
          "type": "address"
        },
        {
          "internalType": "uint256",
          "name": "tokenId",
          "type": "uint256"
        },
        {
          "internalType": "string",
          "name": "uri",
          "type": "string"
        }
      ],
      "name": "safeMint",
      "outputs": [],
      "stateMutability": "nonpayable",
      "type": "function"
    },
    {
      "inputs": [
        {
          "internalType": "uint256",
          "name": "tokenId",
          "type": "uint256"
        }
      ],
      "name": "tokenURI",
      "outputs": [
        {
          "internalType": "string",
          "name": "",
          "type": "string"
        }
      ],
      "stateMutability": "view",
      "type": "function"
    },
    {
      "inputs": [
        {
          "internalType": "bytes4",
          "name": "interfaceId",
          "type": "bytes4"
        }
      ],
      "name": "supportsInterface",
      "outputs": [
        {
          "internalType": "bool",
          "name": "",
          "type": "bool"
        }
      ],
      "stateMutability": "view",
      "type": "function"
    }
  ],
  "bytecode": "0x60a06040523073ffffffffffffffffffffffffffffffffffffffff1660809073ffffffffffffffffffffffffffffffffffffffff1681525034801561004357600080fd5b50608051614cbf61007b60003960008181610a3e01528181610acc01528181610be601528181610c740152610d240152614cbf6000f3fe6080604052600436106101b75760003560e01c806370a08231116100ec578063b88d4fde1161008a578063d539139311610064578063d53913931461060b578063d547741f14610636578063e985e9c51461065f578063f72c0d8b1461069c576101b7565b8063b88d4fde1461057c578063c87b56dd146105a5578063cd279c7c146105e2576101b7565b806395d89b41116100c657806395d89b41146104d4578063a1448194146104ff578063a217fddf14610528578063a22cb46514610553576101b7565b806370a08231146104435780638129fc1c1461048057806391d1485414610497576101b7565b80632f2ff15d1161015957806342842e0e1161013357806342842e0e146103965780634f1ef286146103bf57806352d1902d146103db5780636352211e14610406576101b7565b80632f2ff15d1461031b57806336568abe146103445780633659cfe61461036d576101b7565b8063095ea7b311610195578063095ea7b3146102615780630d8e6e2c1461028a57806323b872dd146102b5578063248a9ca3146102de576101b7565b806301ffc9a7146101bc57806306fdde03146101f9578063081812fc14610224575b600080fd5b3480156101c857600080fd5b506101e360048036038101906101de919061304f565b6106c7565b6040516101f09190613097565b60405180910390f35b34801561020557600080fd5b5061020e6106d9565b60405161021b919061314b565b60405180910390f35b34801561023057600080fd5b5061024b600480360381019061024691906131a3565b61076b565b6040516102589190613211565b60405180910390f35b34801561026d57600080fd5b5061028860048036038101906102839190613258565b6107f0565b005b34801561029657600080fd5b5061029f610907565b6040516102ac91906132a7565b60405180910390f35b3480156102c157600080fd5b506102dc60048036038101906102d791906132c2565b610910565b005b3480156102ea57600080fd5b506103056004803603810190610300919061334b565b610970565b6040516103129190613387565b60405180910390f35b34801561032757600080fd5b50610342600480360381019061033d91906133a2565b610990565b005b34801561035057600080fd5b5061036b600480360381019061036691906133a2565b6109b9565b005b34801561037957600080fd5b50610394600480360381019061038f91906133e2565b610a3c565b005b3480156103a257600080fd5b506103bd60048036038101906103b891906132c2565b610bc4565b005b6103d960048036038101906103d49190613544565b610be4565b005b3480156103e757600080fd5b506103f0610d20565b6040516103fd9190613387565b60405180910390f35b34801561041257600080fd5b5061042d600480360381019061042891906131a3565b610dd9565b60405161043a9190613211565b60405180910390f35b34801561044f57600080fd5b5061046a600480360381019061046591906133e2565b610e8a565b60405161047791906132a7565b60405180910390f35b34801561048c57600080fd5b50610495610f41565b005b3480156104a357600080fd5b506104be60048036038101906104b991906133a2565b611112565b6040516104cb9190613097565b60405180910390f35b3480156104e057600080fd5b506104e961117d565b6040516104f6919061314b565b60405180910390f35b34801561050b57600080fd5b5061052660048036038101906105219190613258565b61120f565b005b34801561053457600080fd5b5061053d611250565b60405161054a9190613387565b60405180910390f35b34801561055f57600080fd5b5061057a600480360381019061057591906135cc565b611257565b005b34801561058857600080fd5b506105a3600480360381019061059e919061360c565b61126d565b005b3480156105b157600080fd5b506105cc60048036038101906105c791906131a3565b6112cf565b6040516105d9919061314b565b60405180910390f35b3480156105ee57600080fd5b5061060960048036038101906106049190613730565b6112e1565b005b34801561061757600080fd5b506106206112fa565b60405161062d9190613387565b60405180910390f35b34801561064257600080fd5b5061065d600480360381019061065891906133a2565b61131e565b005b34801561066b57600080fd5b506106866004803603810190610681919061379f565b611347565b6040516106939190613097565b60405180910390f35b3480156106a857600080fd5b506106b16113db565b6040516106be9190613387565b60405180910390f35b60006106d2826113ff565b9050919050565b6060606580546106e89061380e565b80601f01602080910402602001604051908101604052809291908181526020018280546107149061380e565b80156107615780601f1061073657610100808354040283529160200191610761565b820191906000526020600020905b81548152906001019060200180831161074457829003601f168201915b5050505050905090565b600061077682611479565b6107b5576040517f08c379a00000000000000000000000000000000000000000000000000000000081526004016107ac906138b1565b60405180910390fd5b6069600083815260200190815260200160002060009054906101000a900473ffffffffffffffffffffffffffffffffffffffff169050919050565b60006107fb82610dd9565b90508073ffffffffffffffffffffffffffffffffffffffff168373ffffffffffffffffffffffffffffffffffffffff160361086b576040517f08c379a000000000000000000000000000000000000000000000000000000000815260040161086290613943565b60405180910390fd5b8073ffffffffffffffffffffffffffffffffffffffff1661088a6114e5565b73ffffffffffffffffffffffffffffffffffffffff1614806108b957506108b8816108b36114e5565b611347565b5b6108f8576040517f08c379a00000000000000000000000000000000000000000000000000000000081526004016108ef906139d5565b60405180910390fd5b61090283836114ed565b505050565b60006003905090565b61092161091b6114e5565b826115a6565b610960576040517f08c379a000000000000000000000000000000000000000000000000000000000815260040161095790613a67565b60405180910390fd5b61096b838383611684565b505050565b600060c96000838152602001908152602001600020600101549050919050565b61099982610970565b6109aa816109a56114e5565b6118ea565b6109b48383611987565b505050565b6109c16114e5565b73ffffffffffffffffffffffffffffffffffffffff168173ffffffffffffffffffffffffffffffffffffffff1614610a2e576040517f08c379a0000000000000000000000000000000000000000000000000000000008152600401610a2590613af9565b60405180910390fd5b610a388282611a68565b5050565b7f000000000000000000000000000000000000000000000000000000000000000073ffffffffffffffffffffffffffffffffffffffff163073ffffffffffffffffffffffffffffffffffffffff1603610aca576040517f08c379a0000000000000000000000000000000000000000000000000000000008152600401610ac190613b8b565b60405180910390fd5b7f000000000000000000000000000000000000000000000000000000000000000073ffffffffffffffffffffffffffffffffffffffff16610b09611b4a565b73ffffffffffffffffffffffffffffffffffffffff1614610b5f576040517f08c379a0000000000000000000000000000000000000000000000000000000008152600401610b5690613c1d565b60405180910390fd5b610b6881611ba1565b610bc181600067ffffffffffffffff811115610b8757610b86613419565b5b6040519080825280601f01601f191660200182016040528015610bb95781602001600182028036833780820191505090505b506000611bd7565b50565b610bdf8383836040518060200160405280600081525061126d565b505050565b7f000000000000000000000000000000000000000000000000000000000000000073ffffffffffffffffffffffffffffffffffffffff163073ffffffffffffffffffffffffffffffffffffffff1603610c72576040517f08c379a0000000000000000000000000000000000000000000000000000000008152600401610c6990613b8b565b60405180910390fd5b7f000000000000000000000000000000000000000000000000000000000000000073ffffffffffffffffffffffffffffffffffffffff16610cb1611b4a565b73ffffffffffffffffffffffffffffffffffffffff1614610d07576040517f08c379a0000000000000000000000000000000000000000000000000000000008152600401610cfe90613c1d565b60405180910390fd5b610d1082611ba1565b610d1c82826001611bd7565b5050565b60007f000000000000000000000000000000000000000000000000000000000000000073ffffffffffffffffffffffffffffffffffffffff163073ffffffffffffffffffffffffffffffffffffffff1614610db0576040517f08c379a0000000000000000000000000000000000000000000000000000000008152600401610da790613caf565b60405180910390fd5b7f360894a13ba1a3210667c828492db98dca3e2076cc3735a920a3ca505d382bbc60001b905090565b6000806067600084815260200190815260200160002060009054906101000a900473ffffffffffffffffffffffffffffffffffffffff169050600073ffffffffffffffffffffffffffffffffffffffff168173ffffffffffffffffffffffffffffffffffffffff1603610e81576040517f08c379a0000000000000000000000000000000000000000000000000000000008152600401610e7890613d41565b60405180910390fd5b80915050919050565b60008073ffffffffffffffffffffffffffffffffffffffff168273ffffffffffffffffffffffffffffffffffffffff1603610efa576040517f08c379a0000000000000000000000000000000000000000000000000000000008152600401610ef190613dd3565b60405180910390fd5b606860008373ffffffffffffffffffffffffffffffffffffffff1673ffffffffffffffffffffffffffffffffffffffff168152602001908152602001600020549050919050565b600060019054906101000a900460ff16610f695760008054906101000a900460ff1615610f72565b610f71611d45565b5b610fb1576040517f08c379a0000000000000000000000000000000000000000000000000000000008152600401610fa890613e65565b60405180910390fd5b60008060019054906101000a900460ff161590508015611001576001600060016101000a81548160ff02191690831515021790555060016000806101000a81548160ff0219169083151502179055505b6110756040518060400160405280600781526020017f4d4554414e4654000000000000000000000000000000000000000000000000008152506040518060400160405280600481526020017f4d4e465400000000000000000000000000000000000000000000000000000000815250611d56565b61107d611db3565b611085611e04565b61108d611e55565b61109a6000801b33611987565b6110c47f9f2df0fed2c77648de5860a4cc508cd0818c85b8b8a1ab4ceeef8d981c8956a633611987565b6110ee7f189ab7a9244df0848122154315af71fe140f3db0fe014031783b0946b8c9d2e333611987565b801561110f5760008060016101000a81548160ff0219169083151502179055505b50565b600060c9600084815260200190815260200160002060000160008373ffffffffffffffffffffffffffffffffffffffff1673ffffffffffffffffffffffffffffffffffffffff16815260200190815260200160002060009054906101000a900460ff16905092915050565b60606066805461118c9061380e565b80601f01602080910402602001604051908101604052809291908181526020018280546111b89061380e565b80156112055780601f106111da57610100808354040283529160200191611205565b820191906000526020600020905b8154815290600101906020018083116111e857829003601f168201915b5050505050905090565b7f9f2df0fed2c77648de5860a4cc508cd0818c85b8b8a1ab4ceeef8d981c8956a66112418161123c6114e5565b6118ea565b61124b8383611ea6565b505050565b6000801b81565b6112696112626114e5565b8383611ec4565b5050565b61127e6112786114e5565b836115a6565b6112bd576040517f08c379a00000000000000000000000000000000000000000000000000000000081526004016112b490613a67565b60405180910390fd5b6112c984848484612030565b50505050565b60606112da8261208c565b9050919050565b6112eb8383611ea6565b6112f582826121e4565b505050565b7f9f2df0fed2c77648de5860a4cc508cd0818c85b8b8a1ab4ceeef8d981c8956a681565b61132782610970565b611338816113336114e5565b6118ea565b6113428383611a68565b505050565b6000606a60008473ffffffffffffffffffffffffffffffffffffffff1673ffffffffffffffffffffffffffffffffffffffff16815260200190815260200160002060008373ffffffffffffffffffffffffffffffffffffffff1673ffffffffffffffffffffffffffffffffffffffff16815260200190815260200160002060009054906101000a900460ff16905092915050565b7f189ab7a9244df0848122154315af71fe140f3db0fe014031783b0946b8c9d2e381565b60007f7965db0b000000000000000000000000000000000000000000000000000000007bffffffffffffffffffffffffffffffffffffffffffffffffffffffff1916827bffffffffffffffffffffffffffffffffffffffffffffffffffffffff19161480611472575061147182612258565b5b9050919050565b60008073ffffffffffffffffffffffffffffffffffffffff166067600084815260200190815260200160002060009054906101000a900473ffffffffffffffffffffffffffffffffffffffff1673ffffffffffffffffffffffffffffffffffffffff1614159050919050565b600033905090565b816069600083815260200190815260200160002060006101000a81548173ffffffffffffffffffffffffffffffffffffffff021916908373ffffffffffffffffffffffffffffffffffffffff160217905550808273ffffffffffffffffffffffffffffffffffffffff1661156083610dd9565b73ffffffffffffffffffffffffffffffffffffffff167f8c5be1e5ebec7d5bd14f71427d1e84f3dd0314c0f7b2291e5b200ac8c7c3b92560405160405180910390a45050565b60006115b182611479565b6115f0576040517f08c379a00000000000000000000000000000000000000000000000000000000081526004016115e790613ef7565b60405180910390fd5b60006115fb83610dd9565b90508073ffffffffffffffffffffffffffffffffffffffff168473ffffffffffffffffffffffffffffffffffffffff16148061166a57508373ffffffffffffffffffffffffffffffffffffffff166116528461076b565b73ffffffffffffffffffffffffffffffffffffffff16145b8061167b575061167a8185611347565b5b91505092915050565b8273ffffffffffffffffffffffffffffffffffffffff166116a482610dd9565b73ffffffffffffffffffffffffffffffffffffffff16146116fa576040517f08c379a00000000000000000000000000000000000000000000000000000000081526004016116f190613f89565b60405180910390fd5b600073ffffffffffffffffffffffffffffffffffffffff168273ffffffffffffffffffffffffffffffffffffffff1603611769576040517f08c379a00000000000000000000000000000000000000000000000000000000081526004016117609061401b565b60405180910390fd5b61177483838361233a565b61177f6000826114ed565b6001606860008573ffffffffffffffffffffffffffffffffffffffff1673ffffffffffffffffffffffffffffffffffffffff16815260200190815260200160002060008282546117cf919061406a565b925050819055506001606860008473ffffffffffffffffffffffffffffffffffffffff1673ffffffffffffffffffffffffffffffffffffffff1681526020019081526020016000206000828254611826919061409e565b92505081905550816067600083815260200190815260200160002060006101000a81548173ffffffffffffffffffffffffffffffffffffffff021916908373ffffffffffffffffffffffffffffffffffffffff160217905550808273ffffffffffffffffffffffffffffffffffffffff168473ffffffffffffffffffffffffffffffffffffffff167fddf252ad1be2c89b69c2b068fc378daa952ba7f163c4a11628f55a4df523b3ef60405160405180910390a46118e583838361233f565b505050565b6118f48282611112565b611983576119198173ffffffffffffffffffffffffffffffffffffffff166014612344565b6119278360001c6020612344565b6040516020016119389291906141c8565b6040516020818303038152906040526040517f08c379a000000000000000000000000000000000000000000000000000000000815260040161197a919061314b565b60405180910390fd5b5050565b6119918282611112565b611a6457600160c9600084815260200190815260200160002060000160008373ffffffffffffffffffffffffffffffffffffffff1673ffffffffffffffffffffffffffffffffffffffff16815260200190815260200160002060006101000a81548160ff021916908315150217905550611a096114e5565b73ffffffffffffffffffffffffffffffffffffffff168173ffffffffffffffffffffffffffffffffffffffff16837f2f8788117e7eff1d82e926ec794901d17c78024a50270940304540a733656f0d60405160405180910390a45b5050565b611a728282611112565b15611b4657600060c9600084815260200190815260200160002060000160008373ffffffffffffffffffffffffffffffffffffffff1673ffffffffffffffffffffffffffffffffffffffff16815260200190815260200160002060006101000a81548160ff021916908315150217905550611aeb6114e5565b73ffffffffffffffffffffffffffffffffffffffff168173ffffffffffffffffffffffffffffffffffffffff16837ff6391f5c32d9c69d2a47ea670b442974b53935d1edc7fd64eb21e047a839171b60405160405180910390a45b5050565b6000611b787f360894a13ba1a3210667c828492db98dca3e2076cc3735a920a3ca505d382bbc60001b612580565b60000160009054906101000a900473ffffffffffffffffffffffffffffffffffffffff16905090565b7f189ab7a9244df0848122154315af71fe140f3db0fe014031783b0946b8c9d2e3611bd381611bce6114e5565b6118ea565b5050565b611c037f4910fdfa16fed3260ed0e7147f7cc6da11a60208b5b9406d12a635614ffd914360001b61258a565b60000160009054906101000a900460ff1615611c2757611c2283612594565b611d40565b8273ffffffffffffffffffffffffffffffffffffffff166352d1902d6040518163ffffffff1660e01b8152600401602060405180830381865afa925050508015611c8f57506040513d601f19601f82011682018060405250810190611c8c9190614217565b60015b611cce576040517f08c379a0000000000000000000000000000000000000000000000000000000008152600401611cc5906142b6565b60405180910390fd5b7f360894a13ba1a3210667c828492db98dca3e2076cc3735a920a3ca505d382bbc60001b8114611d33576040517f08c379a0000000000000000000000000000000000000000000000000000000008152600401611d2a90614348565b60405180910390fd5b50611d3f83838361264d565b5b505050565b6000611d5030612679565b15905090565b600060019054906101000a900460ff16611da5576040517f08c379a0000000000000000000000000000000000000000000000000000000008152600401611d9c906143da565b60405180910390fd5b611daf828261269c565b5050565b600060019054906101000a900460ff16611e02576040517f08c379a0000000000000000000000000000000000000000000000000000000008152600401611df9906143da565b60405180910390fd5b565b600060019054906101000a900460ff16611e53576040517f08c379a0000000000000000000000000000000000000000000000000000000008152600401611e4a906143da565b60405180910390fd5b565b600060019054906101000a900460ff16611ea4576040517f08c379a0000000000000000000000000000000000000000000000000000000008152600401611e9b906143da565b60405180910390fd5b565b611ec082826040518060200160405280600081525061271d565b5050565b8173ffffffffffffffffffffffffffffffffffffffff168373ffffffffffffffffffffffffffffffffffffffff1603611f32576040517f08c379a0000000000000000000000000000000000000000000000000000000008152600401611f2990614446565b60405180910390fd5b80606a60008573ffffffffffffffffffffffffffffffffffffffff1673ffffffffffffffffffffffffffffffffffffffff16815260200190815260200160002060008473ffffffffffffffffffffffffffffffffffffffff1673ffffffffffffffffffffffffffffffffffffffff16815260200190815260200160002060006101000a81548160ff0219169083151502179055508173ffffffffffffffffffffffffffffffffffffffff168373ffffffffffffffffffffffffffffffffffffffff167f17307eab39ab6107e8899845ad3d59bd9653f200f220920489ca2b5937696c31836040516120239190613097565b60405180910390a3505050565b61203b848484611684565b61204784848484612778565b612086576040517f08c379a000000000000000000000000000000000000000000000000000000000815260040161207d906144d8565b60405180910390fd5b50505050565b606061209782611479565b6120d6576040517f08c379a00000000000000000000000000000000000000000000000000000000081526004016120cd9061456a565b60405180910390fd5b60006097600084815260200190815260200160002080546120f69061380e565b80601f01602080910402602001604051908101604052809291908181526020018280546121229061380e565b801561216f5780601f106121445761010080835404028352916020019161216f565b820191906000526020600020905b81548152906001019060200180831161215257829003601f168201915b5050505050905060006121806128ff565b905060008151036121955781925050506121df565b6000825111156121d1576121a761291f565b826040516020016121b992919061458a565b604051602081830303815290604052925050506121df565b6121da8461295c565b925050505b919050565b6121ed82611479565b61222c576040517f08c379a000000000000000000000000000000000000000000000000000000000815260040161222390614620565b60405180910390fd5b80609760008481526020019081526020016000209080519060200190612253929190612f40565b505050565b60007f80ac58cd000000000000000000000000000000000000000000000000000000007bffffffffffffffffffffffffffffffffffffffffffffffffffffffff1916827bffffffffffffffffffffffffffffffffffffffffffffffffffffffff1916148061232357507f5b5e139f000000000000000000000000000000000000000000000000000000007bffffffffffffffffffffffffffffffffffffffffffffffffffffffff1916827bffffffffffffffffffffffffffffffffffffffffffffffffffffffff1916145b80612333575061233282612a03565b5b9050919050565b505050565b505050565b6060600060028360026123579190614640565b612361919061409e565b67ffffffffffffffff81111561237a57612379613419565b5b6040519080825280601f01601f1916602001820160405280156123ac5781602001600182028036833780820191505090505b5090507f3000000000000000000000000000000000000000000000000000000000000000816000815181106123e4576123e361469a565b5b60200101907effffffffffffffffffffffffffffffffffffffffffffffffffffffffffffff1916908160001a9053507f7800000000000000000000000000000000000000000000000000000000000000816001815181106124485761244761469a565b5b60200101907effffffffffffffffffffffffffffffffffffffffffffffffffffffffffffff1916908160001a905350600060018460026124889190614640565b612492919061409e565b90505b6001811115612532577f3031323334353637383961626364656600000000000000000000000000000000600f8616601081106124d4576124d361469a565b5b1a60f81b8282815181106124eb576124ea61469a565b5b60200101907effffffffffffffffffffffffffffffffffffffffffffffffffffffffffffff1916908160001a905350600485901c94508061252b906146c9565b9050612495565b5060008414612576576040517f08c379a000000000000000000000000000000000000000000000000000000000815260040161256d9061473e565b60405180910390fd5b8091505092915050565b6000819050919050565b6000819050919050565b61259d81612679565b6125dc576040517f08c379a00000000000000000000000000000000000000000000000000000000081526004016125d3906147d0565b60405180910390fd5b806126097f360894a13ba1a3210667c828492db98dca3e2076cc3735a920a3ca505d382bbc60001b612580565b60000160006101000a81548173ffffffffffffffffffffffffffffffffffffffff021916908373ffffffffffffffffffffffffffffffffffffffff16021790555050565b61265683612a6d565b6000825111806126635750805b15612674576126728383612abc565b505b505050565b6000808273ffffffffffffffffffffffffffffffffffffffff163b119050919050565b600060019054906101000a900460ff166126eb576040517f08c379a00000000000000000000000000000000000000000000000000000000081526004016126e2906143da565b60405180910390fd5b8160659080519060200190612701929190612f40565b508060669080519060200190612718929190612f40565b505050565b6127278383612ba0565b6127346000848484612778565b612773576040517f08c379a000000000000000000000000000000000000000000000000000000000815260040161276a906144d8565b60405180910390fd5b505050565b60006127998473ffffffffffffffffffffffffffffffffffffffff16612679565b156128f2578373ffffffffffffffffffffffffffffffffffffffff1663150b7a026127c26114e5565b8786866040518563ffffffff1660e01b81526004016127e49493929190614845565b6020604051808303816000875af192505050801561282057506040513d601f19601f8201168201806040525081019061281d91906148a6565b60015b6128a2573d8060008114612850576040519150601f19603f3d011682016040523d82523d6000602084013e612855565b606091505b50600081510361289a576040517f08c379a0000000000000000000000000000000000000000000000000000000008152600401612891906144d8565b60405180910390fd5b805181602001fd5b63150b7a0260e01b7bffffffffffffffffffffffffffffffffffffffffffffffffffffffff1916817bffffffffffffffffffffffffffffffffffffffffffffffffffffffff1916149150506128f7565b600190505b949350505050565b60606040518060a0016040528060678152602001614bfc60679139905090565b60606040518060400160405280601f81526020017f68747470733a2f2f647765622e6c696e64656e7379732e636e2f697066732f00815250905090565b606061296782611479565b6129a6576040517f08c379a000000000000000000000000000000000000000000000000000000000815260040161299d90614945565b60405180910390fd5b60006129b06128ff565b905060008151116129d057604051806020016040528060008152506129fb565b806129da84612d79565b6040516020016129eb92919061458a565b6040516020818303038152906040525b915050919050565b60007f01ffc9a7000000000000000000000000000000000000000000000000000000007bffffffffffffffffffffffffffffffffffffffffffffffffffffffff1916827bffffffffffffffffffffffffffffffffffffffffffffffffffffffff1916149050919050565b612a7681612594565b8073ffffffffffffffffffffffffffffffffffffffff167fbc7cd75a20ee27fd9adebab32041f755214dbc6bffa90cc0225b39da2e5c2d3b60405160405180910390a250565b6060612ac783612679565b612b06576040517f08c379a0000000000000000000000000000000000000000000000000000000008152600401612afd906149d7565b60405180910390fd5b6000808473ffffffffffffffffffffffffffffffffffffffff1684604051612b2e9190614a33565b600060405180830381855af49150503d8060008114612b69576040519150601f19603f3d011682016040523d82523d6000602084013e612b6e565b606091505b5091509150612b968282604051806060016040528060278152602001614c6360279139612ed9565b9250505092915050565b600073ffffffffffffffffffffffffffffffffffffffff168273ffffffffffffffffffffffffffffffffffffffff1603612c0f576040517f08c379a0000000000000000000000000000000000000000000000000000000008152600401612c0690614a96565b60405180910390fd5b612c1881611479565b15612c58576040517f08c379a0000000000000000000000000000000000000000000000000000000008152600401612c4f90614b02565b60405180910390fd5b612c646000838361233a565b6001606860008473ffffffffffffffffffffffffffffffffffffffff1673ffffffffffffffffffffffffffffffffffffffff1681526020019081526020016000206000828254612cb4919061409e565b92505081905550816067600083815260200190815260200160002060006101000a81548173ffffffffffffffffffffffffffffffffffffffff021916908373ffffffffffffffffffffffffffffffffffffffff160217905550808273ffffffffffffffffffffffffffffffffffffffff16600073ffffffffffffffffffffffffffffffffffffffff167fddf252ad1be2c89b69c2b068fc378daa952ba7f163c4a11628f55a4df523b3ef60405160405180910390a4612d756000838361233f565b5050565b606060008203612dc0576040518060400160405280600181526020017f30000000000000000000000000000000000000000000000000000000000000008152509050612ed4565b600082905060005b60008214612df2578080612ddb90614b22565b915050600a82612deb9190614b99565b9150612dc8565b60008167ffffffffffffffff811115612e0e57612e0d613419565b5b6040519080825280601f01601f191660200182016040528015612e405781602001600182028036833780820191505090505b5090505b60008514612ecd57600182612e59919061406a565b9150600a85612e689190614bca565b6030612e74919061409e565b60f81b818381518110612e8a57612e8961469a565b5b60200101907effffffffffffffffffffffffffffffffffffffffffffffffffffffffffffff1916908160001a905350600a85612ec69190614b99565b9450612e44565b8093505050505b919050565b60608315612ee957829050612f39565b600083511115612efc5782518084602001fd5b816040517f08c379a0000000000000000000000000000000000000000000000000000000008152600401612f30919061314b565b60405180910390fd5b9392505050565b828054612f4c9061380e565b90600052602060002090601f016020900481019282612f6e5760008555612fb5565b82601f10612f8757805160ff1916838001178555612fb5565b82800160010185558215612fb5579182015b82811115612fb4578251825591602001919060010190612f99565b5b509050612fc29190612fc6565b5090565b5b80821115612fdf576000816000905550600101612fc7565b5090565b6000604051905090565b600080fd5b600080fd5b60007fffffffff0000000000000000000000000000000000000000000000000000000082169050919050565b61302c81612ff7565b811461303757600080fd5b50565b60008135905061304981613023565b92915050565b60006020828403121561306557613064612fed565b5b60006130738482850161303a565b91505092915050565b60008115159050919050565b6130918161307c565b82525050565b60006020820190506130ac6000830184613088565b92915050565b600081519050919050565b600082825260208201905092915050565b60005b838110156130ec5780820151818401526020810190506130d1565b838111156130fb576000848401525b50505050565b6000601f19601f8301169050919050565b600061311d826130b2565b61312781856130bd565b93506131378185602086016130ce565b61314081613101565b840191505092915050565b600060208201905081810360008301526131658184613112565b905092915050565b6000819050919050565b6131808161316d565b811461318b57600080fd5b50565b60008135905061319d81613177565b92915050565b6000602082840312156131b9576131b8612fed565b5b60006131c78482850161318e565b91505092915050565b600073ffffffffffffffffffffffffffffffffffffffff82169050919050565b60006131fb826131d0565b9050919050565b61320b816131f0565b82525050565b60006020820190506132266000830184613202565b92915050565b613235816131f0565b811461324057600080fd5b50565b6000813590506132528161322c565b92915050565b6000806040838503121561326f5761326e612fed565b5b600061327d85828601613243565b925050602061328e8582860161318e565b9150509250929050565b6132a18161316d565b82525050565b60006020820190506132bc6000830184613298565b92915050565b6000806000606084860312156132db576132da612fed565b5b60006132e986828701613243565b93505060206132fa86828701613243565b925050604061330b8682870161318e565b9150509250925092565b6000819050919050565b61332881613315565b811461333357600080fd5b50565b6000813590506133458161331f565b92915050565b60006020828403121561336157613360612fed565b5b600061336f84828501613336565b91505092915050565b61338181613315565b82525050565b600060208201905061339c6000830184613378565b92915050565b600080604083850312156133b9576133b8612fed565b5b60006133c785828601613336565b92505060206133d885828601613243565b9150509250929050565b6000602082840312156133f8576133f7612fed565b5b600061340684828501613243565b91505092915050565b600080fd5b600080fd5b7f4e487b7100000000000000000000000000000000000000000000000000000000600052604160045260246000fd5b61345182613101565b810181811067ffffffffffffffff821117156134705761346f613419565b5b80604052505050565b6000613483612fe3565b905061348f8282613448565b919050565b600067ffffffffffffffff8211156134af576134ae613419565b5b6134b882613101565b9050602081019050919050565b82818337600083830152505050565b60006134e76134e284613494565b613479565b90508281526020810184848401111561350357613502613414565b5b61350e8482856134c5565b509392505050565b600082601f83011261352b5761352a61340f565b5b813561353b8482602086016134d4565b91505092915050565b6000806040838503121561355b5761355a612fed565b5b600061356985828601613243565b925050602083013567ffffffffffffffff81111561358a57613589612ff2565b5b61359685828601613516565b9150509250929050565b6135a98161307c565b81146135b457600080fd5b50565b6000813590506135c6816135a0565b92915050565b600080604083850312156135e3576135e2612fed565b5b60006135f185828601613243565b9250506020613602858286016135b7565b9150509250929050565b6000806000806080858703121561362657613625612fed565b5b600061363487828801613243565b945050602061364587828801613243565b93505060406136568782880161318e565b925050606085013567ffffffffffffffff81111561367757613676612ff2565b5b61368387828801613516565b91505092959194509250565b600067ffffffffffffffff8211156136aa576136a9613419565b5b6136b382613101565b9050602081019050919050565b60006136d36136ce8461368f565b613479565b9050828152602081018484840111156136ef576136ee613414565b5b6136fa8482856134c5565b509392505050565b600082601f8301126137175761371661340f565b5b81356137278482602086016136c0565b91505092915050565b60008060006060848603121561374957613748612fed565b5b600061375786828701613243565b93505060206137688682870161318e565b925050604084013567ffffffffffffffff81111561378957613788612ff2565b5b61379586828701613702565b9150509250925092565b600080604083850312156137b6576137b5612fed565b5b60006137c485828601613243565b92505060206137d585828601613243565b9150509250929050565b7f4e487b7100000000000000000000000000000000000000000000000000000000600052602260045260246000fd5b6000600282049050600182168061382657607f821691505b602082108103613839576138386137df565b5b50919050565b7f4552433732313a20617070726f76656420717565727920666f72206e6f6e657860008201527f697374656e7420746f6b656e0000000000000000000000000000000000000000602082015250565b600061389b602c836130bd565b91506138a68261383f565b604082019050919050565b600060208201905081810360008301526138ca8161388e565b9050919050565b7f4552433732313a20617070726f76616c20746f2063757272656e74206f776e6560008201527f7200000000000000000000000000000000000000000000000000000000000000602082015250565b600061392d6021836130bd565b9150613938826138d1565b604082019050919050565b6000602082019050818103600083015261395c81613920565b9050919050565b7f4552433732313a20617070726f76652063616c6c6572206973206e6f74206f7760008201527f6e6572206e6f7220617070726f76656420666f7220616c6c0000000000000000602082015250565b60006139bf6038836130bd565b91506139ca82613963565b604082019050919050565b600060208201905081810360008301526139ee816139b2565b9050919050565b7f4552433732313a207472616e736665722063616c6c6572206973206e6f74206f60008201527f776e6572206e6f7220617070726f766564000000000000000000000000000000602082015250565b6000613a516031836130bd565b9150613a5c826139f5565b604082019050919050565b60006020820190508181036000830152613a8081613a44565b9050919050565b7f416363657373436f6e74726f6c3a2063616e206f6e6c792072656e6f756e636560008201527f20726f6c657320666f722073656c660000000000000000000000000000000000602082015250565b6000613ae3602f836130bd565b9150613aee82613a87565b604082019050919050565b60006020820190508181036000830152613b1281613ad6565b9050919050565b7f46756e6374696f6e206d7573742062652063616c6c6564207468726f7567682060008201527f64656c656761746563616c6c0000000000000000000000000000000000000000602082015250565b6000613b75602c836130bd565b9150613b8082613b19565b604082019050919050565b60006020820190508181036000830152613ba481613b68565b9050919050565b7f46756e6374696f6e206d7573742062652063616c6c6564207468726f7567682060008201527f6163746976652070726f78790000000000000000000000000000000000000000602082015250565b6000613c07602c836130bd565b9150613c1282613bab565b604082019050919050565b60006020820190508181036000830152613c3681613bfa565b9050919050565b7f555550535570677261646561626c653a206d757374206e6f742062652063616c60008201527f6c6564207468726f7567682064656c656761746563616c6c0000000000000000602082015250565b6000613c996038836130bd565b9150613ca482613c3d565b604082019050919050565b60006020820190508181036000830152613cc881613c8c565b9050919050565b7f4552433732313a206f776e657220717565727920666f72206e6f6e657869737460008201527f656e7420746f6b656e0000000000000000000000000000000000000000000000602082015250565b6000613d2b6029836130bd565b9150613d3682613ccf565b604082019050919050565b60006020820190508181036000830152613d5a81613d1e565b9050919050565b7f4552433732313a2062616c616e636520717565727920666f7220746865207a6560008201527f726f206164647265737300000000000000000000000000000000000000000000602082015250565b6000613dbd602a836130bd565b9150613dc882613d61565b604082019050919050565b60006020820190508181036000830152613dec81613db0565b9050919050565b7f496e697469616c697a61626c653a20636f6e747261637420697320616c72656160008201527f647920696e697469616c697a6564000000000000000000000000000000000000602082015250565b6000613e4f602e836130bd565b9150613e5a82613df3565b604082019050919050565b60006020820190508181036000830152613e7e81613e42565b9050919050565b7f4552433732313a206f70657261746f7220717565727920666f72206e6f6e657860008201527f697374656e7420746f6b656e0000000000000000000000000000000000000000602082015250565b6000613ee1602c836130bd565b9150613eec82613e85565b604082019050919050565b60006020820190508181036000830152613f1081613ed4565b9050919050565b7f4552433732313a207472616e736665722066726f6d20696e636f72726563742060008201527f6f776e6572000000000000000000000000000000000000000000000000000000602082015250565b6000613f736025836130bd565b9150613f7e82613f17565b604082019050919050565b60006020820190508181036000830152613fa281613f66565b9050919050565b7f4552433732313a207472616e7366657220746f20746865207a65726f2061646460008201527f7265737300000000000000000000000000000000000000000000000000000000602082015250565b60006140056024836130bd565b915061401082613fa9565b604082019050919050565b6000602082019050818103600083015261403481613ff8565b9050919050565b7f4e487b7100000000000000000000000000000000000000000000000000000000600052601160045260246000fd5b60006140758261316d565b91506140808361316d565b9250828210156140935761409261403b565b5b828203905092915050565b60006140a98261316d565b91506140b48361316d565b9250827fffffffffffffffffffffffffffffffffffffffffffffffffffffffffffffffff038211156140e9576140e861403b565b5b828201905092915050565b600081905092915050565b7f416363657373436f6e74726f6c3a206163636f756e7420000000000000000000600082015250565b60006141356017836140f4565b9150614140826140ff565b601782019050919050565b6000614156826130b2565b61416081856140f4565b93506141708185602086016130ce565b80840191505092915050565b7f206973206d697373696e6720726f6c6520000000000000000000000000000000600082015250565b60006141b26011836140f4565b91506141bd8261417c565b601182019050919050565b60006141d382614128565b91506141df828561414b565b91506141ea826141a5565b91506141f6828461414b565b91508190509392505050565b6000815190506142118161331f565b92915050565b60006020828403121561422d5761422c612fed565b5b600061423b84828501614202565b91505092915050565b7f45524331393637557067726164653a206e657720696d706c656d656e7461746960008201527f6f6e206973206e6f742055555053000000000000000000000000000000000000602082015250565b60006142a0602e836130bd565b91506142ab82614244565b604082019050919050565b600060208201905081810360008301526142cf81614293565b9050919050565b7f45524331393637557067726164653a20756e737570706f727465642070726f7860008201527f6961626c65555549440000000000000000000000000000000000000000000000602082015250565b60006143326029836130bd565b915061433d826142d6565b604082019050919050565b6000602082019050818103600083015261436181614325565b9050919050565b7f496e697469616c697a61626c653a20636f6e7472616374206973206e6f74206960008201527f6e697469616c697a696e67000000000000000000000000000000000000000000602082015250565b60006143c4602b836130bd565b91506143cf82614368565b604082019050919050565b600060208201905081810360008301526143f3816143b7565b9050919050565b7f4552433732313a20617070726f766520746f2063616c6c657200000000000000600082015250565b60006144306019836130bd565b915061443b826143fa565b602082019050919050565b6000602082019050818103600083015261445f81614423565b9050919050565b7f4552433732313a207472616e7366657220746f206e6f6e20455243373231526560008201527f63656976657220696d706c656d656e7465720000000000000000000000000000602082015250565b60006144c26032836130bd565b91506144cd82614466565b604082019050919050565b600060208201905081810360008301526144f1816144b5565b9050919050565b7f45524337323155524953746f726167653a2055524920717565727920666f722060008201527f6e6f6e6578697374656e7420746f6b656e000000000000000000000000000000602082015250565b60006145546031836130bd565b915061455f826144f8565b604082019050919050565b6000602082019050818103600083015261458381614547565b9050919050565b6000614596828561414b565b91506145a2828461414b565b91508190509392505050565b7f45524337323155524953746f726167653a2055524920736574206f66206e6f6e60008201527f6578697374656e7420746f6b656e000000000000000000000000000000000000602082015250565b600061460a602e836130bd565b9150614615826145ae565b604082019050919050565b60006020820190508181036000830152614639816145fd565b9050919050565b600061464b8261316d565b91506146568361316d565b9250817fffffffffffffffffffffffffffffffffffffffffffffffffffffffffffffffff048311821515161561468f5761468e61403b565b5b828202905092915050565b7f4e487b7100000000000000000000000000000000000000000000000000000000600052603260045260246000fd5b60006146d48261316d565b9150600082036146e7576146e661403b565b5b600182039050919050565b7f537472696e67733a20686578206c656e67746820696e73756666696369656e74600082015250565b60006147286020836130bd565b9150614733826146f2565b602082019050919050565b600060208201905081810360008301526147578161471b565b9050919050565b7f455243313936373a206e657720696d706c656d656e746174696f6e206973206e60008201527f6f74206120636f6e747261637400000000000000000000000000000000000000602082015250565b60006147ba602d836130bd565b91506147c58261475e565b604082019050919050565b600060208201905081810360008301526147e9816147ad565b9050919050565b600081519050919050565b600082825260208201905092915050565b6000614817826147f0565b61482181856147fb565b93506148318185602086016130ce565b61483a81613101565b840191505092915050565b600060808201905061485a6000830187613202565b6148676020830186613202565b6148746040830185613298565b8181036060830152614886818461480c565b905095945050505050565b6000815190506148a081613023565b92915050565b6000602082840312156148bc576148bb612fed565b5b60006148ca84828501614891565b91505092915050565b7f4552433732314d657461646174613a2055524920717565727920666f72206e6f60008201527f6e6578697374656e7420746f6b656e0000000000000000000000000000000000602082015250565b600061492f602f836130bd565b915061493a826148d3565b604082019050919050565b6000602082019050818103600083015261495e81614922565b9050919050565b7f416464726573733a2064656c65676174652063616c6c20746f206e6f6e2d636f60008201527f6e74726163740000000000000000000000000000000000000000000000000000602082015250565b60006149c16026836130bd565b91506149cc82614965565b604082019050919050565b600060208201905081810360008301526149f0816149b4565b9050919050565b600081905092915050565b6000614a0d826147f0565b614a1781856149f7565b9350614a278185602086016130ce565b80840191505092915050565b6000614a3f8284614a02565b915081905092915050565b7f4552433732313a206d696e7420746f20746865207a65726f2061646472657373600082015250565b6000614a806020836130bd565b9150614a8b82614a4a565b602082019050919050565b60006020820190508181036000830152614aaf81614a73565b9050919050565b7f4552433732313a20746f6b656e20616c7265616479206d696e74656400000000600082015250565b6000614aec601c836130bd565b9150614af782614ab6565b602082019050919050565b60006020820190508181036000830152614b1b81614adf565b9050919050565b6000614b2d8261316d565b91507fffffffffffffffffffffffffffffffffffffffffffffffffffffffffffffffff8203614b5f57614b5e61403b565b5b600182019050919050565b7f4e487b7100000000000000000000000000000000000000000000000000000000600052601260045260246000fd5b6000614ba48261316d565b9150614baf8361316d565b925082614bbf57614bbe614b6a565b5b828204905092915050565b6000614bd58261316d565b9150614be08361316d565b925082614bf057614bef614b6a565b5b82820690509291505056fe68747470733a2f2f647765622e6c696e64656e7379732e636e2f69706e732f6b3531717a69357571753564697671726f6b306765743131306f64617461783074763875716833666f727a70317a686f78793766743763756131383867742f626162616f66616e2f416464726573733a206c6f772d6c6576656c2064656c65676174652063616c6c206661696c6564a2646970667358221220b89c24f5aa5cb3533f3f59479a516e349f6b1db3de3117e6726996a7a6f1189564736f6c634300080d0033",
  "immutableReferences": {
    "895": [
      {
        "length": 32,
        "start": 2622
      },
      {
        "length": 32,
        "start": 2764
      },
      {
        "length": 32,
        "start": 3046
      },
      {
        "length": 32,
        "start": 3188
      },
      {
        "length": 32,
        "start": 3364
      }
    ]
  },
  "source": "// SPDX-License-Identifier: MIT\r\npragma solidity ^0.8.4;\r\n\r\nimport \"@openzeppelin/contracts-upgradeable/token/ERC721/ERC721Upgradeable.sol\";\r\nimport \"@openzeppelin/contracts-upgradeable/token/ERC721/extensions/ERC721URIStorageUpgradeable.sol\";\r\nimport \"@openzeppelin/contracts-upgradeable/access/AccessControlUpgradeable.sol\";\r\nimport \"@openzeppelin/contracts-upgradeable/proxy/utils/Initializable.sol\";\r\nimport \"@openzeppelin/contracts-upgradeable/proxy/utils/UUPSUpgradeable.sol\";\r\n\r\ncontract METANFT is\r\n    Initializable,\r\n    ERC721Upgradeable,\r\n    ERC721URIStorageUpgradeable,\r\n    AccessControlUpgradeable,\r\n    UUPSUpgradeable\r\n{\r\n    bytes32 public constant MINTER_ROLE = keccak256(\"MINTER_ROLE\");\r\n    bytes32 public constant UPGRADER_ROLE = keccak256(\"UPGRADER_ROLE\");\r\n\r\n    function getVersion() public pure returns (uint256 version) {\r\n        return 3;\r\n    }\r\n\r\n    function initialize() public initializer {\r\n        __ERC721_init(\"METANFT\", \"MNFT\");\r\n        __ERC721URIStorage_init();\r\n        __AccessControl_init();\r\n        __UUPSUpgradeable_init();\r\n\r\n        _grantRole(DEFAULT_ADMIN_ROLE, msg.sender);\r\n        _grantRole(MINTER_ROLE, msg.sender);\r\n        _grantRole(UPGRADER_ROLE, msg.sender);\r\n    }\r\n\r\n    function _baseURI() internal pure override returns (string memory) {\r\n        return\r\n            \"https://dweb.lindensys.cn/ipns/k51qzi5uqu5divqrok0get110odatax0tv8uqh3forzp1zhoxy7ft7cua188gt/babaofan/\";\r\n    }\r\n\r\n    function _ipfsGateway() internal pure override returns (string memory) {\r\n        return\r\n            \"https://dweb.lindensys.cn/ipfs/\";\r\n    }\r\n\r\n    function safeMint(\r\n        address to,\r\n        uint256 tokenId\r\n    ) public onlyRole(MINTER_ROLE) {\r\n        _safeMint(to, tokenId);\r\n    }\r\n\r\n    function safeMint(\r\n        address to,\r\n        uint256 tokenId,\r\n        string memory uri\r\n    ) public {\r\n        _safeMint(to, tokenId);\r\n        _setTokenURI(tokenId, uri);\r\n    }\r\n\r\n    function _authorizeUpgrade(address newImplementation)\r\n        internal\r\n        override\r\n        onlyRole(UPGRADER_ROLE)\r\n    {}\r\n\r\n    // The following functions are overrides required by Solidity.\r\n\r\n    function _burn(uint256 tokenId)\r\n        internal\r\n        override(ERC721Upgradeable, ERC721URIStorageUpgradeable)\r\n    {\r\n        super._burn(tokenId);\r\n    }\r\n\r\n    function tokenURI(uint256 tokenId)\r\n        public\r\n        view\r\n        override(ERC721Upgradeable, ERC721URIStorageUpgradeable)\r\n        returns (string memory)\r\n    {\r\n        return super.tokenURI(tokenId);\r\n    }\r\n\r\n    function supportsInterface(bytes4 interfaceId)\r\n        public\r\n        view\r\n        override(ERC721Upgradeable, AccessControlUpgradeable)\r\n        returns (bool)\r\n    {\r\n        return super.supportsInterface(interfaceId);\r\n    }\r\n}",
  "sourcePath": "D:\\linden\\eth-contracts\\nftExchange\\contracts\\METANFT.sol",
  "compiler": {
    "name": "solc",
    "version": "0.8.13+commit.abaa5c0e.Emscripten.clang"
  },
  "schemaVersion": "3.4.7",
  "updatedAt": "2022-07-08T10:00:07.188Z",
  "networkType": "ethereum",
  "devdoc": {
    "kind": "dev",
    "methods": {
      "approve(address,uint256)": {
        "details": "See {IERC721-approve}."
      },
      "balanceOf(address)": {
        "details": "See {IERC721-balanceOf}."
      },
      "getApproved(uint256)": {
        "details": "See {IERC721-getApproved}."
      },
      "getRoleAdmin(bytes32)": {
        "details": "Returns the admin role that controls `role`. See {grantRole} and {revokeRole}. To change a role's admin, use {_setRoleAdmin}."
      },
      "grantRole(bytes32,address)": {
        "details": "Grants `role` to `account`. If `account` had not been already granted `role`, emits a {RoleGranted} event. Requirements: - the caller must have ``role``'s admin role."
      },
      "hasRole(bytes32,address)": {
        "details": "Returns `true` if `account` has been granted `role`."
      },
      "isApprovedForAll(address,address)": {
        "details": "See {IERC721-isApprovedForAll}."
      },
      "name()": {
        "details": "See {IERC721Metadata-name}."
      },
      "ownerOf(uint256)": {
        "details": "See {IERC721-ownerOf}."
      },
      "proxiableUUID()": {
        "details": "Implementation of the ERC1822 {proxiableUUID} function. This returns the storage slot used by the implementation. It is used to validate that the this implementation remains valid after an upgrade. IMPORTANT: A proxy pointing at a proxiable contract should not be considered proxiable itself, because this risks bricking a proxy that upgrades to it, by delegating to itself until out of gas. Thus it is critical that this function revert if invoked through a proxy. This is guaranteed by the `notDelegated` modifier."
      },
      "renounceRole(bytes32,address)": {
        "details": "Revokes `role` from the calling account. Roles are often managed via {grantRole} and {revokeRole}: this function's purpose is to provide a mechanism for accounts to lose their privileges if they are compromised (such as when a trusted device is misplaced). If the calling account had been revoked `role`, emits a {RoleRevoked} event. Requirements: - the caller must be `account`."
      },
      "revokeRole(bytes32,address)": {
        "details": "Revokes `role` from `account`. If `account` had been granted `role`, emits a {RoleRevoked} event. Requirements: - the caller must have ``role``'s admin role."
      },
      "safeTransferFrom(address,address,uint256)": {
        "details": "See {IERC721-safeTransferFrom}."
      },
      "safeTransferFrom(address,address,uint256,bytes)": {
        "details": "See {IERC721-safeTransferFrom}."
      },
      "setApprovalForAll(address,bool)": {
        "details": "See {IERC721-setApprovalForAll}."
      },
      "symbol()": {
        "details": "See {IERC721Metadata-symbol}."
      },
      "transferFrom(address,address,uint256)": {
        "details": "See {IERC721-transferFrom}."
      },
      "upgradeTo(address)": {
        "details": "Upgrade the implementation of the proxy to `newImplementation`. Calls {_authorizeUpgrade}. Emits an {Upgraded} event."
      },
      "upgradeToAndCall(address,bytes)": {
        "details": "Upgrade the implementation of the proxy to `newImplementation`, and subsequently execute the function call encoded in `data`. Calls {_authorizeUpgrade}. Emits an {Upgraded} event."
      }
    },
    "version": 1
  },
  "userdoc": {
    "kind": "user",
    "methods": {},
    "version": 1
  }
}