{
  "contractName": "METANFT",
  "abi": [
    {
      "anonymous": false,
      "inputs": [
        {
          "indexed": false,
          "internalType": "address",
          "name": "previousAdmin",
          "type": "address"
        },
        {
          "indexed": false,
          "internalType": "address",
          "name": "newAdmin",
          "type": "address"
        }
      ],
      "name": "AdminChanged",
      "type": "event"
    },
    {
      "anonymous": false,
      "inputs": [
        {
          "indexed": true,
          "internalType": "address",
          "name": "owner",
          "type": "address"
        },
        {
          "indexed": true,
          "internalType": "address",
          "name": "approved",
          "type": "address"
        },
        {
          "indexed": true,
          "internalType": "uint256",
          "name": "tokenId",
          "type": "uint256"
        }
      ],
      "name": "Approval",
      "type": "event"
    },
    {
      "anonymous": false,
      "inputs": [
        {
          "indexed": true,
          "internalType": "address",
          "name": "owner",
          "type": "address"
        },
        {
          "indexed": true,
          "internalType": "address",
          "name": "operator",
          "type": "address"
        },
        {
          "indexed": false,
          "internalType": "bool",
          "name": "approved",
          "type": "bool"
        }
      ],
      "name": "ApprovalForAll",
      "type": "event"
    },
    {
      "anonymous": false,
      "inputs": [
        {
          "indexed": true,
          "internalType": "address",
          "name": "beacon",
          "type": "address"
        }
      ],
      "name": "BeaconUpgraded",
      "type": "event"
    },
    {
      "anonymous": false,
      "inputs": [
        {
          "indexed": false,
          "internalType": "uint8",
          "name": "version",
          "type": "uint8"
        }
      ],
      "name": "Initialized",
      "type": "event"
    },
    {
      "anonymous": false,
      "inputs": [
        {
          "indexed": true,
          "internalType": "bytes32",
          "name": "role",
          "type": "bytes32"
        },
        {
          "indexed": true,
          "internalType": "bytes32",
          "name": "previousAdminRole",
          "type": "bytes32"
        },
        {
          "indexed": true,
          "internalType": "bytes32",
          "name": "newAdminRole",
          "type": "bytes32"
        }
      ],
      "name": "RoleAdminChanged",
      "type": "event"
    },
    {
      "anonymous": false,
      "inputs": [
        {
          "indexed": true,
          "internalType": "bytes32",
          "name": "role",
          "type": "bytes32"
        },
        {
          "indexed": true,
          "internalType": "address",
          "name": "account",
          "type": "address"
        },
        {
          "indexed": true,
          "internalType": "address",
          "name": "sender",
          "type": "address"
        }
      ],
      "name": "RoleGranted",
      "type": "event"
    },
    {
      "anonymous": false,
      "inputs": [
        {
          "indexed": true,
          "internalType": "bytes32",
          "name": "role",
          "type": "bytes32"
        },
        {
          "indexed": true,
          "internalType": "address",
          "name": "account",
          "type": "address"
        },
        {
          "indexed": true,
          "internalType": "address",
          "name": "sender",
          "type": "address"
        }
      ],
      "name": "RoleRevoked",
      "type": "event"
    },
    {
      "anonymous": false,
      "inputs": [
        {
          "indexed": true,
          "internalType": "address",
          "name": "from",
          "type": "address"
        },
        {
          "indexed": true,
          "internalType": "address",
          "name": "to",
          "type": "address"
        },
        {
          "indexed": true,
          "internalType": "uint256",
          "name": "tokenId",
          "type": "uint256"
        }
      ],
      "name": "Transfer",
      "type": "event"
    },
    {
      "anonymous": false,
      "inputs": [
        {
          "indexed": true,
          "internalType": "address",
          "name": "implementation",
          "type": "address"
        }
      ],
      "name": "Upgraded",
      "type": "event"
    },
    {
      "inputs": [],
      "name": "DEFAULT_ADMIN_ROLE",
      "outputs": [
        {
          "internalType": "bytes32",
          "name": "",
          "type": "bytes32"
        }
      ],
      "stateMutability": "view",
      "type": "function"
    },
    {
      "inputs": [],
      "name": "MINTER_ROLE",
      "outputs": [
        {
          "internalType": "bytes32",
          "name": "",
          "type": "bytes32"
        }
      ],
      "stateMutability": "view",
      "type": "function"
    },
    {
      "inputs": [],
      "name": "UPGRADER_ROLE",
      "outputs": [
        {
          "internalType": "bytes32",
          "name": "",
          "type": "bytes32"
        }
      ],
      "stateMutability": "view",
      "type": "function"
    },
    {
      "inputs": [
        {
          "internalType": "address",
          "name": "to",
          "type": "address"
        },
        {
          "internalType": "uint256",
          "name": "tokenId",
          "type": "uint256"
        }
      ],
      "name": "approve",
      "outputs": [],
      "stateMutability": "nonpayable",
      "type": "function"
    },
    {
      "inputs": [
        {
          "internalType": "address",
          "name": "owner",
          "type": "address"
        }
      ],
      "name": "balanceOf",
      "outputs": [
        {
          "internalType": "uint256",
          "name": "",
          "type": "uint256"
        }
      ],
      "stateMutability": "view",
      "type": "function"
    },
    {
      "inputs": [
        {
          "internalType": "uint256",
          "name": "tokenId",
          "type": "uint256"
        }
      ],
      "name": "getApproved",
      "outputs": [
        {
          "internalType": "address",
          "name": "",
          "type": "address"
        }
      ],
      "stateMutability": "view",
      "type": "function"
    },
    {
      "inputs": [
        {
          "internalType": "bytes32",
          "name": "role",
          "type": "bytes32"
        }
      ],
      "name": "getRoleAdmin",
      "outputs": [
        {
          "internalType": "bytes32",
          "name": "",
          "type": "bytes32"
        }
      ],
      "stateMutability": "view",
      "type": "function"
    },
    {
      "inputs": [
        {
          "internalType": "bytes32",
          "name": "role",
          "type": "bytes32"
        },
        {
          "internalType": "address",
          "name": "account",
          "type": "address"
        }
      ],
      "name": "grantRole",
      "outputs": [],
      "stateMutability": "nonpayable",
      "type": "function"
    },
    {
      "inputs": [
        {
          "internalType": "bytes32",
          "name": "role",
          "type": "bytes32"
        },
        {
          "internalType": "address",
          "name": "account",
          "type": "address"
        }
      ],
      "name": "hasRole",
      "outputs": [
        {
          "internalType": "bool",
          "name": "",
          "type": "bool"
        }
      ],
      "stateMutability": "view",
      "type": "function"
    },
    {
      "inputs": [
        {
          "internalType": "address",
          "name": "owner",
          "type": "address"
        },
        {
          "internalType": "address",
          "name": "operator",
          "type": "address"
        }
      ],
      "name": "isApprovedForAll",
      "outputs": [
        {
          "internalType": "bool",
          "name": "",
          "type": "bool"
        }
      ],
      "stateMutability": "view",
      "type": "function"
    },
    {
      "inputs": [],
      "name": "name",
      "outputs": [
        {
          "internalType": "string",
          "name": "",
          "type": "string"
        }
      ],
      "stateMutability": "view",
      "type": "function"
    },
    {
      "inputs": [
        {
          "internalType": "uint256",
          "name": "tokenId",
          "type": "uint256"
        }
      ],
      "name": "ownerOf",
      "outputs": [
        {
          "internalType": "address",
          "name": "",
          "type": "address"
        }
      ],
      "stateMutability": "view",
      "type": "function"
    },
    {
      "inputs": [],
      "name": "proxiableUUID",
      "outputs": [
        {
          "internalType": "bytes32",
          "name": "",
          "type": "bytes32"
        }
      ],
      "stateMutability": "view",
      "type": "function"
    },
    {
      "inputs": [
        {
          "internalType": "bytes32",
          "name": "role",
          "type": "bytes32"
        },
        {
          "internalType": "address",
          "name": "account",
          "type": "address"
        }
      ],
      "name": "renounceRole",
      "outputs": [],
      "stateMutability": "nonpayable",
      "type": "function"
    },
    {
      "inputs": [
        {
          "internalType": "bytes32",
          "name": "role",
          "type": "bytes32"
        },
        {
          "internalType": "address",
          "name": "account",
          "type": "address"
        }
      ],
      "name": "revokeRole",
      "outputs": [],
      "stateMutability": "nonpayable",
      "type": "function"
    },
    {
      "inputs": [
        {
          "internalType": "address",
          "name": "from",
          "type": "address"
        },
        {
          "internalType": "address",
          "name": "to",
          "type": "address"
        },
        {
          "internalType": "uint256",
          "name": "tokenId",
          "type": "uint256"
        }
      ],
      "name": "safeTransferFrom",
      "outputs": [],
      "stateMutability": "nonpayable",
      "type": "function"
    },
    {
      "inputs": [
        {
          "internalType": "address",
          "name": "from",
          "type": "address"
        },
        {
          "internalType": "address",
          "name": "to",
          "type": "address"
        },
        {
          "internalType": "uint256",
          "name": "tokenId",
          "type": "uint256"
        },
        {
          "internalType": "bytes",
          "name": "data",
          "type": "bytes"
        }
      ],
      "name": "safeTransferFrom",
      "outputs": [],
      "stateMutability": "nonpayable",
      "type": "function"
    },
    {
      "inputs": [
        {
          "internalType": "address",
          "name": "operator",
          "type": "address"
        },
        {
          "internalType": "bool",
          "name": "approved",
          "type": "bool"
        }
      ],
      "name": "setApprovalForAll",
      "outputs": [],
      "stateMutability": "nonpayable",
      "type": "function"
    },
    {
      "inputs": [],
      "name": "symbol",
      "outputs": [
        {
          "internalType": "string",
          "name": "",
          "type": "string"
        }
      ],
      "stateMutability": "view",
      "type": "function"
    },
    {
      "inputs": [
        {
          "internalType": "address",
          "name": "from",
          "type": "address"
        },
        {
          "internalType": "address",
          "name": "to",
          "type": "address"
        },
        {
          "internalType": "uint256",
          "name": "tokenId",
          "type": "uint256"
        }
      ],
      "name": "transferFrom",
      "outputs": [],
      "stateMutability": "nonpayable",
      "type": "function"
    },
    {
      "inputs": [
        {
          "internalType": "address",
          "name": "newImplementation",
          "type": "address"
        }
      ],
      "name": "upgradeTo",
      "outputs": [],
      "stateMutability": "nonpayable",
      "type": "function"
    },
    {
      "inputs": [
        {
          "internalType": "address",
          "name": "newImplementation",
          "type": "address"
        },
        {
          "internalType": "bytes",
          "name": "data",
          "type": "bytes"
        }
      ],
      "name": "upgradeToAndCall",
      "outputs": [],
      "stateMutability": "payable",
      "type": "function"
    },
    {
      "inputs": [],
      "name": "getVersion",
      "outputs": [
        {
          "internalType": "uint256",
          "name": "version",
          "type": "uint256"
        }
      ],
      "stateMutability": "pure",
      "type": "function"
    },
    {
      "inputs": [],
      "name": "initialize",
      "outputs": [],
      "stateMutability": "nonpayable",
      "type": "function"
    },
    {
      "inputs": [
        {
          "internalType": "address",
          "name": "to",
          "type": "address"
        },
        {
          "internalType": "uint256",
          "name": "tokenId",
          "type": "uint256"
        }
      ],
      "name": "safeMint",
      "outputs": [],
      "stateMutability": "nonpayable",
      "type": "function"
    },
    {
      "inputs": [
        {
          "internalType": "address",
          "name": "to",
          "type": "address"
        },
        {
          "internalType": "uint256",
          "name": "tokenId",
          "type": "uint256"
        },
        {
          "internalType": "string",
          "name": "uri",
          "type": "string"
        }
      ],
      "name": "safeMint",
      "outputs": [],
      "stateMutability": "nonpayable",
      "type": "function"
    },
    {
      "inputs": [
        {
          "internalType": "uint256",
          "name": "tokenId",
          "type": "uint256"
        }
      ],
      "name": "tokenURI",
      "outputs": [
        {
          "internalType": "string",
          "name": "",
          "type": "string"
        }
      ],
      "stateMutability": "view",
      "type": "function"
    },
    {
      "inputs": [
        {
          "internalType": "bytes4",
          "name": "interfaceId",
          "type": "bytes4"
        }
      ],
      "name": "supportsInterface",
      "outputs": [
        {
          "internalType": "bool",
          "name": "",
          "type": "bool"
        }
      ],
      "stateMutability": "view",
      "type": "function"
    }
  ],
  "bytecode": "0x60a06040523073ffffffffffffffffffffffffffffffffffffffff1660809073ffffffffffffffffffffffffffffffffffffffff1681525034801561004357600080fd5b50608051614b0961007b600039600081816109f701528181610a8501528181610b9f01528181610c2d0152610cdd0152614b096000f3fe6080604052600436106101b75760003560e01c806370a08231116100ec578063b88d4fde1161008a578063d539139311610064578063d53913931461060b578063d547741f14610636578063e985e9c51461065f578063f72c0d8b1461069c576101b7565b8063b88d4fde1461057c578063c87b56dd146105a5578063cd279c7c146105e2576101b7565b806395d89b41116100c657806395d89b41146104d4578063a1448194146104ff578063a217fddf14610528578063a22cb46514610553576101b7565b806370a08231146104435780638129fc1c1461048057806391d1485414610497576101b7565b80632f2ff15d1161015957806342842e0e1161013357806342842e0e146103965780634f1ef286146103bf57806352d1902d146103db5780636352211e14610406576101b7565b80632f2ff15d1461031b57806336568abe146103445780633659cfe61461036d576101b7565b8063095ea7b311610195578063095ea7b3146102615780630d8e6e2c1461028a57806323b872dd146102b5578063248a9ca3146102de576101b7565b806301ffc9a7146101bc57806306fdde03146101f9578063081812fc14610224575b600080fd5b3480156101c857600080fd5b506101e360048036038101906101de9190613008565b6106c7565b6040516101f09190613050565b60405180910390f35b34801561020557600080fd5b5061020e6106d9565b60405161021b9190613104565b60405180910390f35b34801561023057600080fd5b5061024b6004803603810190610246919061315c565b61076b565b60405161025891906131ca565b60405180910390f35b34801561026d57600080fd5b5061028860048036038101906102839190613211565b6107b1565b005b34801561029657600080fd5b5061029f6108c8565b6040516102ac9190613260565b60405180910390f35b3480156102c157600080fd5b506102dc60048036038101906102d7919061327b565b6108d1565b005b3480156102ea57600080fd5b5061030560048036038101906103009190613304565b610931565b6040516103129190613340565b60405180910390f35b34801561032757600080fd5b50610342600480360381019061033d919061335b565b610951565b005b34801561035057600080fd5b5061036b6004803603810190610366919061335b565b610972565b005b34801561037957600080fd5b50610394600480360381019061038f919061339b565b6109f5565b005b3480156103a257600080fd5b506103bd60048036038101906103b8919061327b565b610b7d565b005b6103d960048036038101906103d491906134fd565b610b9d565b005b3480156103e757600080fd5b506103f0610cd9565b6040516103fd9190613340565b60405180910390f35b34801561041257600080fd5b5061042d6004803603810190610428919061315c565b610d92565b60405161043a91906131ca565b60405180910390f35b34801561044f57600080fd5b5061046a6004803603810190610465919061339b565b610e43565b6040516104779190613260565b60405180910390f35b34801561048c57600080fd5b50610495610efa565b005b3480156104a357600080fd5b506104be60048036038101906104b9919061335b565b61111d565b6040516104cb9190613050565b60405180910390f35b3480156104e057600080fd5b506104e9611188565b6040516104f69190613104565b60405180910390f35b34801561050b57600080fd5b5061052660048036038101906105219190613211565b61121a565b005b34801561053457600080fd5b5061053d611253565b60405161054a9190613340565b60405180910390f35b34801561055f57600080fd5b5061057a60048036038101906105759190613585565b61125a565b005b34801561058857600080fd5b506105a3600480360381019061059e91906135c5565b611270565b005b3480156105b157600080fd5b506105cc60048036038101906105c7919061315c565b6112d2565b6040516105d99190613104565b60405180910390f35b3480156105ee57600080fd5b50610609600480360381019061060491906136e9565b6112e4565b005b34801561061757600080fd5b506106206112fd565b60405161062d9190613340565b60405180910390f35b34801561064257600080fd5b5061065d6004803603810190610658919061335b565b611321565b005b34801561066b57600080fd5b5061068660048036038101906106819190613758565b611342565b6040516106939190613050565b60405180910390f35b3480156106a857600080fd5b506106b16113d6565b6040516106be9190613340565b60405180910390f35b60006106d2826113fa565b9050919050565b6060606580546106e8906137c7565b80601f0160208091040260200160405190810160405280929190818152602001828054610714906137c7565b80156107615780601f1061073657610100808354040283529160200191610761565b820191906000526020600020905b81548152906001019060200180831161074457829003601f168201915b5050505050905090565b600061077682611474565b6069600083815260200190815260200160002060009054906101000a900473ffffffffffffffffffffffffffffffffffffffff169050919050565b60006107bc82610d92565b90508073ffffffffffffffffffffffffffffffffffffffff168373ffffffffffffffffffffffffffffffffffffffff160361082c576040517f08c379a00000000000000000000000000000000000000000000000000000000081526004016108239061386a565b60405180910390fd5b8073ffffffffffffffffffffffffffffffffffffffff1661084b6114bf565b73ffffffffffffffffffffffffffffffffffffffff16148061087a5750610879816108746114bf565b611342565b5b6108b9576040517f08c379a00000000000000000000000000000000000000000000000000000000081526004016108b0906138fc565b60405180910390fd5b6108c383836114c7565b505050565b60006003905090565b6108e26108dc6114bf565b82611580565b610921576040517f08c379a00000000000000000000000000000000000000000000000000000000081526004016109189061398e565b60405180910390fd5b61092c838383611615565b505050565b600060c96000838152602001908152602001600020600101549050919050565b61095a82610931565b6109638161187b565b61096d838361188f565b505050565b61097a6114bf565b73ffffffffffffffffffffffffffffffffffffffff168173ffffffffffffffffffffffffffffffffffffffff16146109e7576040517f08c379a00000000000000000000000000000000000000000000000000000000081526004016109de90613a20565b60405180910390fd5b6109f18282611970565b5050565b7f000000000000000000000000000000000000000000000000000000000000000073ffffffffffffffffffffffffffffffffffffffff163073ffffffffffffffffffffffffffffffffffffffff1603610a83576040517f08c379a0000000000000000000000000000000000000000000000000000000008152600401610a7a90613ab2565b60405180910390fd5b7f000000000000000000000000000000000000000000000000000000000000000073ffffffffffffffffffffffffffffffffffffffff16610ac2611a52565b73ffffffffffffffffffffffffffffffffffffffff1614610b18576040517f08c379a0000000000000000000000000000000000000000000000000000000008152600401610b0f90613b44565b60405180910390fd5b610b2181611aa9565b610b7a81600067ffffffffffffffff811115610b4057610b3f6133d2565b5b6040519080825280601f01601f191660200182016040528015610b725781602001600182028036833780820191505090505b506000611ad7565b50565b610b9883838360405180602001604052806000815250611270565b505050565b7f000000000000000000000000000000000000000000000000000000000000000073ffffffffffffffffffffffffffffffffffffffff163073ffffffffffffffffffffffffffffffffffffffff1603610c2b576040517f08c379a0000000000000000000000000000000000000000000000000000000008152600401610c2290613ab2565b60405180910390fd5b7f000000000000000000000000000000000000000000000000000000000000000073ffffffffffffffffffffffffffffffffffffffff16610c6a611a52565b73ffffffffffffffffffffffffffffffffffffffff1614610cc0576040517f08c379a0000000000000000000000000000000000000000000000000000000008152600401610cb790613b44565b60405180910390fd5b610cc982611aa9565b610cd582826001611ad7565b5050565b60007f000000000000000000000000000000000000000000000000000000000000000073ffffffffffffffffffffffffffffffffffffffff163073ffffffffffffffffffffffffffffffffffffffff1614610d69576040517f08c379a0000000000000000000000000000000000000000000000000000000008152600401610d6090613bd6565b60405180910390fd5b7f360894a13ba1a3210667c828492db98dca3e2076cc3735a920a3ca505d382bbc60001b905090565b6000806067600084815260200190815260200160002060009054906101000a900473ffffffffffffffffffffffffffffffffffffffff169050600073ffffffffffffffffffffffffffffffffffffffff168173ffffffffffffffffffffffffffffffffffffffff1603610e3a576040517f08c379a0000000000000000000000000000000000000000000000000000000008152600401610e3190613c42565b60405180910390fd5b80915050919050565b60008073ffffffffffffffffffffffffffffffffffffffff168273ffffffffffffffffffffffffffffffffffffffff1603610eb3576040517f08c379a0000000000000000000000000000000000000000000000000000000008152600401610eaa90613cd4565b60405180910390fd5b606860008373ffffffffffffffffffffffffffffffffffffffff1673ffffffffffffffffffffffffffffffffffffffff168152602001908152602001600020549050919050565b60008060019054906101000a900460ff16159050808015610f2b5750600160008054906101000a900460ff1660ff16105b80610f585750610f3a30611c45565b158015610f575750600160008054906101000a900460ff1660ff16145b5b610f97576040517f08c379a0000000000000000000000000000000000000000000000000000000008152600401610f8e90613d66565b60405180910390fd5b60016000806101000a81548160ff021916908360ff1602179055508015610fd4576001600060016101000a81548160ff0219169083151502179055505b6110486040518060400160405280600781526020017f4d4554414e4654000000000000000000000000000000000000000000000000008152506040518060400160405280600481526020017f4d4e465400000000000000000000000000000000000000000000000000000000815250611c68565b611050611cc5565b611058611d16565b611060611d67565b61106d6000801b3361188f565b6110977f9f2df0fed2c77648de5860a4cc508cd0818c85b8b8a1ab4ceeef8d981c8956a63361188f565b6110c17f189ab7a9244df0848122154315af71fe140f3db0fe014031783b0946b8c9d2e33361188f565b801561111a5760008060016101000a81548160ff0219169083151502179055507f7f26b83ff96e1f2b6a682f133852f6798a09c465da95921460cefb384740249860016040516111119190613dd8565b60405180910390a15b50565b600060c9600084815260200190815260200160002060000160008373ffffffffffffffffffffffffffffffffffffffff1673ffffffffffffffffffffffffffffffffffffffff16815260200190815260200160002060009054906101000a900460ff16905092915050565b606060668054611197906137c7565b80601f01602080910402602001604051908101604052809291908181526020018280546111c3906137c7565b80156112105780601f106111e557610100808354040283529160200191611210565b820191906000526020600020905b8154815290600101906020018083116111f357829003601f168201915b5050505050905090565b7f9f2df0fed2c77648de5860a4cc508cd0818c85b8b8a1ab4ceeef8d981c8956a66112448161187b565b61124e8383611db8565b505050565b6000801b81565b61126c6112656114bf565b8383611dd6565b5050565b61128161127b6114bf565b83611580565b6112c0576040517f08c379a00000000000000000000000000000000000000000000000000000000081526004016112b79061398e565b60405180910390fd5b6112cc84848484611f42565b50505050565b60606112dd82611f9e565b9050919050565b6112ee8383611db8565b6112f882826120f6565b505050565b7f9f2df0fed2c77648de5860a4cc508cd0818c85b8b8a1ab4ceeef8d981c8956a681565b61132a82610931565b6113338161187b565b61133d8383611970565b505050565b6000606a60008473ffffffffffffffffffffffffffffffffffffffff1673ffffffffffffffffffffffffffffffffffffffff16815260200190815260200160002060008373ffffffffffffffffffffffffffffffffffffffff1673ffffffffffffffffffffffffffffffffffffffff16815260200190815260200160002060009054906101000a900460ff16905092915050565b7f189ab7a9244df0848122154315af71fe140f3db0fe014031783b0946b8c9d2e381565b60007f7965db0b000000000000000000000000000000000000000000000000000000007bffffffffffffffffffffffffffffffffffffffffffffffffffffffff1916827bffffffffffffffffffffffffffffffffffffffffffffffffffffffff1916148061146d575061146c8261216a565b5b9050919050565b61147d8161224c565b6114bc576040517f08c379a00000000000000000000000000000000000000000000000000000000081526004016114b390613c42565b60405180910390fd5b50565b600033905090565b816069600083815260200190815260200160002060006101000a81548173ffffffffffffffffffffffffffffffffffffffff021916908373ffffffffffffffffffffffffffffffffffffffff160217905550808273ffffffffffffffffffffffffffffffffffffffff1661153a83610d92565b73ffffffffffffffffffffffffffffffffffffffff167f8c5be1e5ebec7d5bd14f71427d1e84f3dd0314c0f7b2291e5b200ac8c7c3b92560405160405180910390a45050565b60008061158c83610d92565b90508073ffffffffffffffffffffffffffffffffffffffff168473ffffffffffffffffffffffffffffffffffffffff1614806115ce57506115cd8185611342565b5b8061160c57508373ffffffffffffffffffffffffffffffffffffffff166115f48461076b565b73ffffffffffffffffffffffffffffffffffffffff16145b91505092915050565b8273ffffffffffffffffffffffffffffffffffffffff1661163582610d92565b73ffffffffffffffffffffffffffffffffffffffff161461168b576040517f08c379a000000000000000000000000000000000000000000000000000000000815260040161168290613e65565b60405180910390fd5b600073ffffffffffffffffffffffffffffffffffffffff168273ffffffffffffffffffffffffffffffffffffffff16036116fa576040517f08c379a00000000000000000000000000000000000000000000000000000000081526004016116f190613ef7565b60405180910390fd5b6117058383836122b8565b6117106000826114c7565b6001606860008573ffffffffffffffffffffffffffffffffffffffff1673ffffffffffffffffffffffffffffffffffffffff16815260200190815260200160002060008282546117609190613f46565b925050819055506001606860008473ffffffffffffffffffffffffffffffffffffffff1673ffffffffffffffffffffffffffffffffffffffff16815260200190815260200160002060008282546117b79190613f7a565b92505081905550816067600083815260200190815260200160002060006101000a81548173ffffffffffffffffffffffffffffffffffffffff021916908373ffffffffffffffffffffffffffffffffffffffff160217905550808273ffffffffffffffffffffffffffffffffffffffff168473ffffffffffffffffffffffffffffffffffffffff167fddf252ad1be2c89b69c2b068fc378daa952ba7f163c4a11628f55a4df523b3ef60405160405180910390a46118768383836122bd565b505050565b61188c816118876114bf565b6122c2565b50565b611899828261111d565b61196c57600160c9600084815260200190815260200160002060000160008373ffffffffffffffffffffffffffffffffffffffff1673ffffffffffffffffffffffffffffffffffffffff16815260200190815260200160002060006101000a81548160ff0219169083151502179055506119116114bf565b73ffffffffffffffffffffffffffffffffffffffff168173ffffffffffffffffffffffffffffffffffffffff16837f2f8788117e7eff1d82e926ec794901d17c78024a50270940304540a733656f0d60405160405180910390a45b5050565b61197a828261111d565b15611a4e57600060c9600084815260200190815260200160002060000160008373ffffffffffffffffffffffffffffffffffffffff1673ffffffffffffffffffffffffffffffffffffffff16815260200190815260200160002060006101000a81548160ff0219169083151502179055506119f36114bf565b73ffffffffffffffffffffffffffffffffffffffff168173ffffffffffffffffffffffffffffffffffffffff16837ff6391f5c32d9c69d2a47ea670b442974b53935d1edc7fd64eb21e047a839171b60405160405180910390a45b5050565b6000611a807f360894a13ba1a3210667c828492db98dca3e2076cc3735a920a3ca505d382bbc60001b61235f565b60000160009054906101000a900473ffffffffffffffffffffffffffffffffffffffff16905090565b7f189ab7a9244df0848122154315af71fe140f3db0fe014031783b0946b8c9d2e3611ad38161187b565b5050565b611b037f4910fdfa16fed3260ed0e7147f7cc6da11a60208b5b9406d12a635614ffd914360001b612369565b60000160009054906101000a900460ff1615611b2757611b2283612373565b611c40565b8273ffffffffffffffffffffffffffffffffffffffff166352d1902d6040518163ffffffff1660e01b8152600401602060405180830381865afa925050508015611b8f57506040513d601f19601f82011682018060405250810190611b8c9190613fe5565b60015b611bce576040517f08c379a0000000000000000000000000000000000000000000000000000000008152600401611bc590614084565b60405180910390fd5b7f360894a13ba1a3210667c828492db98dca3e2076cc3735a920a3ca505d382bbc60001b8114611c33576040517f08c379a0000000000000000000000000000000000000000000000000000000008152600401611c2a90614116565b60405180910390fd5b50611c3f83838361242c565b5b505050565b6000808273ffffffffffffffffffffffffffffffffffffffff163b119050919050565b600060019054906101000a900460ff16611cb7576040517f08c379a0000000000000000000000000000000000000000000000000000000008152600401611cae906141a8565b60405180910390fd5b611cc18282612458565b5050565b600060019054906101000a900460ff16611d14576040517f08c379a0000000000000000000000000000000000000000000000000000000008152600401611d0b906141a8565b60405180910390fd5b565b600060019054906101000a900460ff16611d65576040517f08c379a0000000000000000000000000000000000000000000000000000000008152600401611d5c906141a8565b60405180910390fd5b565b600060019054906101000a900460ff16611db6576040517f08c379a0000000000000000000000000000000000000000000000000000000008152600401611dad906141a8565b60405180910390fd5b565b611dd28282604051806020016040528060008152506124d9565b5050565b8173ffffffffffffffffffffffffffffffffffffffff168373ffffffffffffffffffffffffffffffffffffffff1603611e44576040517f08c379a0000000000000000000000000000000000000000000000000000000008152600401611e3b90614214565b60405180910390fd5b80606a60008573ffffffffffffffffffffffffffffffffffffffff1673ffffffffffffffffffffffffffffffffffffffff16815260200190815260200160002060008473ffffffffffffffffffffffffffffffffffffffff1673ffffffffffffffffffffffffffffffffffffffff16815260200190815260200160002060006101000a81548160ff0219169083151502179055508173ffffffffffffffffffffffffffffffffffffffff168373ffffffffffffffffffffffffffffffffffffffff167f17307eab39ab6107e8899845ad3d59bd9653f200f220920489ca2b5937696c3183604051611f359190613050565b60405180910390a3505050565b611f4d848484611615565b611f5984848484612534565b611f98576040517f08c379a0000000000000000000000000000000000000000000000000000000008152600401611f8f906142a6565b60405180910390fd5b50505050565b6060611fa98261224c565b611fe8576040517f08c379a0000000000000000000000000000000000000000000000000000000008152600401611fdf90614338565b60405180910390fd5b6000609760008481526020019081526020016000208054612008906137c7565b80601f0160208091040260200160405190810160405280929190818152602001828054612034906137c7565b80156120815780601f1061205657610100808354040283529160200191612081565b820191906000526020600020905b81548152906001019060200180831161206457829003601f168201915b5050505050905060006120926126bb565b905060008151036120a75781925050506120f1565b6000825111156120e3576120b96126db565b826040516020016120cb929190614394565b604051602081830303815290604052925050506120f1565b6120ec84612718565b925050505b919050565b6120ff8261224c565b61213e576040517f08c379a00000000000000000000000000000000000000000000000000000000081526004016121359061442a565b60405180910390fd5b80609760008481526020019081526020016000209080519060200190612165929190612ef9565b505050565b60007f80ac58cd000000000000000000000000000000000000000000000000000000007bffffffffffffffffffffffffffffffffffffffffffffffffffffffff1916827bffffffffffffffffffffffffffffffffffffffffffffffffffffffff1916148061223557507f5b5e139f000000000000000000000000000000000000000000000000000000007bffffffffffffffffffffffffffffffffffffffffffffffffffffffff1916827bffffffffffffffffffffffffffffffffffffffffffffffffffffffff1916145b80612245575061224482612780565b5b9050919050565b60008073ffffffffffffffffffffffffffffffffffffffff166067600084815260200190815260200160002060009054906101000a900473ffffffffffffffffffffffffffffffffffffffff1673ffffffffffffffffffffffffffffffffffffffff1614159050919050565b505050565b505050565b6122cc828261111d565b61235b576122f18173ffffffffffffffffffffffffffffffffffffffff1660146127ea565b6122ff8360001c60206127ea565b6040516020016123109291906144e2565b6040516020818303038152906040526040517f08c379a00000000000000000000000000000000000000000000000000000000081526004016123529190613104565b60405180910390fd5b5050565b6000819050919050565b6000819050919050565b61237c81611c45565b6123bb576040517f08c379a00000000000000000000000000000000000000000000000000000000081526004016123b29061458e565b60405180910390fd5b806123e87f360894a13ba1a3210667c828492db98dca3e2076cc3735a920a3ca505d382bbc60001b61235f565b60000160006101000a81548173ffffffffffffffffffffffffffffffffffffffff021916908373ffffffffffffffffffffffffffffffffffffffff16021790555050565b61243583612a26565b6000825111806124425750805b15612453576124518383612a75565b505b505050565b600060019054906101000a900460ff166124a7576040517f08c379a000000000000000000000000000000000000000000000000000000000815260040161249e906141a8565b60405180910390fd5b81606590805190602001906124bd929190612ef9565b5080606690805190602001906124d4929190612ef9565b505050565b6124e38383612b59565b6124f06000848484612534565b61252f576040517f08c379a0000000000000000000000000000000000000000000000000000000008152600401612526906142a6565b60405180910390fd5b505050565b60006125558473ffffffffffffffffffffffffffffffffffffffff16611c45565b156126ae578373ffffffffffffffffffffffffffffffffffffffff1663150b7a0261257e6114bf565b8786866040518563ffffffff1660e01b81526004016125a09493929190614603565b6020604051808303816000875af19250505080156125dc57506040513d601f19601f820116820180604052508101906125d99190614664565b60015b61265e573d806000811461260c576040519150601f19603f3d011682016040523d82523d6000602084013e612611565b606091505b506000815103612656576040517f08c379a000000000000000000000000000000000000000000000000000000000815260040161264d906142a6565b60405180910390fd5b805181602001fd5b63150b7a0260e01b7bffffffffffffffffffffffffffffffffffffffffffffffffffffffff1916817bffffffffffffffffffffffffffffffffffffffffffffffffffffffff1916149150506126b3565b600190505b949350505050565b60606040518060a0016040528060678152602001614a4660679139905090565b60606040518060400160405280601f81526020017f68747470733a2f2f647765622e6c696e64656e7379732e636e2f697066732f00815250905090565b606061272382611474565b600061272d6126bb565b9050600081511161274d5760405180602001604052806000815250612778565b8061275784612d32565b604051602001612768929190614394565b6040516020818303038152906040525b915050919050565b60007f01ffc9a7000000000000000000000000000000000000000000000000000000007bffffffffffffffffffffffffffffffffffffffffffffffffffffffff1916827bffffffffffffffffffffffffffffffffffffffffffffffffffffffff1916149050919050565b6060600060028360026127fd9190614691565b6128079190613f7a565b67ffffffffffffffff8111156128205761281f6133d2565b5b6040519080825280601f01601f1916602001820160405280156128525781602001600182028036833780820191505090505b5090507f30000000000000000000000000000000000000000000000000000000000000008160008151811061288a576128896146eb565b5b60200101907effffffffffffffffffffffffffffffffffffffffffffffffffffffffffffff1916908160001a9053507f7800000000000000000000000000000000000000000000000000000000000000816001815181106128ee576128ed6146eb565b5b60200101907effffffffffffffffffffffffffffffffffffffffffffffffffffffffffffff1916908160001a9053506000600184600261292e9190614691565b6129389190613f7a565b90505b60018111156129d8577f3031323334353637383961626364656600000000000000000000000000000000600f86166010811061297a576129796146eb565b5b1a60f81b828281518110612991576129906146eb565b5b60200101907effffffffffffffffffffffffffffffffffffffffffffffffffffffffffffff1916908160001a905350600485901c9450806129d19061471a565b905061293b565b5060008414612a1c576040517f08c379a0000000000000000000000000000000000000000000000000000000008152600401612a139061478f565b60405180910390fd5b8091505092915050565b612a2f81612373565b8073ffffffffffffffffffffffffffffffffffffffff167fbc7cd75a20ee27fd9adebab32041f755214dbc6bffa90cc0225b39da2e5c2d3b60405160405180910390a250565b6060612a8083611c45565b612abf576040517f08c379a0000000000000000000000000000000000000000000000000000000008152600401612ab690614821565b60405180910390fd5b6000808473ffffffffffffffffffffffffffffffffffffffff1684604051612ae7919061487d565b600060405180830381855af49150503d8060008114612b22576040519150601f19603f3d011682016040523d82523d6000602084013e612b27565b606091505b5091509150612b4f8282604051806060016040528060278152602001614aad60279139612e92565b9250505092915050565b600073ffffffffffffffffffffffffffffffffffffffff168273ffffffffffffffffffffffffffffffffffffffff1603612bc8576040517f08c379a0000000000000000000000000000000000000000000000000000000008152600401612bbf906148e0565b60405180910390fd5b612bd18161224c565b15612c11576040517f08c379a0000000000000000000000000000000000000000000000000000000008152600401612c089061494c565b60405180910390fd5b612c1d600083836122b8565b6001606860008473ffffffffffffffffffffffffffffffffffffffff1673ffffffffffffffffffffffffffffffffffffffff1681526020019081526020016000206000828254612c6d9190613f7a565b92505081905550816067600083815260200190815260200160002060006101000a81548173ffffffffffffffffffffffffffffffffffffffff021916908373ffffffffffffffffffffffffffffffffffffffff160217905550808273ffffffffffffffffffffffffffffffffffffffff16600073ffffffffffffffffffffffffffffffffffffffff167fddf252ad1be2c89b69c2b068fc378daa952ba7f163c4a11628f55a4df523b3ef60405160405180910390a4612d2e600083836122bd565b5050565b606060008203612d79576040518060400160405280600181526020017f30000000000000000000000000000000000000000000000000000000000000008152509050612e8d565b600082905060005b60008214612dab578080612d949061496c565b915050600a82612da491906149e3565b9150612d81565b60008167ffffffffffffffff811115612dc757612dc66133d2565b5b6040519080825280601f01601f191660200182016040528015612df95781602001600182028036833780820191505090505b5090505b60008514612e8657600182612e129190613f46565b9150600a85612e219190614a14565b6030612e2d9190613f7a565b60f81b818381518110612e4357612e426146eb565b5b60200101907effffffffffffffffffffffffffffffffffffffffffffffffffffffffffffff1916908160001a905350600a85612e7f91906149e3565b9450612dfd565b8093505050505b919050565b60608315612ea257829050612ef2565b600083511115612eb55782518084602001fd5b816040517f08c379a0000000000000000000000000000000000000000000000000000000008152600401612ee99190613104565b60405180910390fd5b9392505050565b828054612f05906137c7565b90600052602060002090601f016020900481019282612f275760008555612f6e565b82601f10612f4057805160ff1916838001178555612f6e565b82800160010185558215612f6e579182015b82811115612f6d578251825591602001919060010190612f52565b5b509050612f7b9190612f7f565b5090565b5b80821115612f98576000816000905550600101612f80565b5090565b6000604051905090565b600080fd5b600080fd5b60007fffffffff0000000000000000000000000000000000000000000000000000000082169050919050565b612fe581612fb0565b8114612ff057600080fd5b50565b60008135905061300281612fdc565b92915050565b60006020828403121561301e5761301d612fa6565b5b600061302c84828501612ff3565b91505092915050565b60008115159050919050565b61304a81613035565b82525050565b60006020820190506130656000830184613041565b92915050565b600081519050919050565b600082825260208201905092915050565b60005b838110156130a557808201518184015260208101905061308a565b838111156130b4576000848401525b50505050565b6000601f19601f8301169050919050565b60006130d68261306b565b6130e08185613076565b93506130f0818560208601613087565b6130f9816130ba565b840191505092915050565b6000602082019050818103600083015261311e81846130cb565b905092915050565b6000819050919050565b61313981613126565b811461314457600080fd5b50565b60008135905061315681613130565b92915050565b60006020828403121561317257613171612fa6565b5b600061318084828501613147565b91505092915050565b600073ffffffffffffffffffffffffffffffffffffffff82169050919050565b60006131b482613189565b9050919050565b6131c4816131a9565b82525050565b60006020820190506131df60008301846131bb565b92915050565b6131ee816131a9565b81146131f957600080fd5b50565b60008135905061320b816131e5565b92915050565b6000806040838503121561322857613227612fa6565b5b6000613236858286016131fc565b925050602061324785828601613147565b9150509250929050565b61325a81613126565b82525050565b60006020820190506132756000830184613251565b92915050565b60008060006060848603121561329457613293612fa6565b5b60006132a2868287016131fc565b93505060206132b3868287016131fc565b92505060406132c486828701613147565b9150509250925092565b6000819050919050565b6132e1816132ce565b81146132ec57600080fd5b50565b6000813590506132fe816132d8565b92915050565b60006020828403121561331a57613319612fa6565b5b6000613328848285016132ef565b91505092915050565b61333a816132ce565b82525050565b60006020820190506133556000830184613331565b92915050565b6000806040838503121561337257613371612fa6565b5b6000613380858286016132ef565b9250506020613391858286016131fc565b9150509250929050565b6000602082840312156133b1576133b0612fa6565b5b60006133bf848285016131fc565b91505092915050565b600080fd5b600080fd5b7f4e487b7100000000000000000000000000000000000000000000000000000000600052604160045260246000fd5b61340a826130ba565b810181811067ffffffffffffffff82111715613429576134286133d2565b5b80604052505050565b600061343c612f9c565b90506134488282613401565b919050565b600067ffffffffffffffff821115613468576134676133d2565b5b613471826130ba565b9050602081019050919050565b82818337600083830152505050565b60006134a061349b8461344d565b613432565b9050828152602081018484840111156134bc576134bb6133cd565b5b6134c784828561347e565b509392505050565b600082601f8301126134e4576134e36133c8565b5b81356134f484826020860161348d565b91505092915050565b6000806040838503121561351457613513612fa6565b5b6000613522858286016131fc565b925050602083013567ffffffffffffffff81111561354357613542612fab565b5b61354f858286016134cf565b9150509250929050565b61356281613035565b811461356d57600080fd5b50565b60008135905061357f81613559565b92915050565b6000806040838503121561359c5761359b612fa6565b5b60006135aa858286016131fc565b92505060206135bb85828601613570565b9150509250929050565b600080600080608085870312156135df576135de612fa6565b5b60006135ed878288016131fc565b94505060206135fe878288016131fc565b935050604061360f87828801613147565b925050606085013567ffffffffffffffff8111156136305761362f612fab565b5b61363c878288016134cf565b91505092959194509250565b600067ffffffffffffffff821115613663576136626133d2565b5b61366c826130ba565b9050602081019050919050565b600061368c61368784613648565b613432565b9050828152602081018484840111156136a8576136a76133cd565b5b6136b384828561347e565b509392505050565b600082601f8301126136d0576136cf6133c8565b5b81356136e0848260208601613679565b91505092915050565b60008060006060848603121561370257613701612fa6565b5b6000613710868287016131fc565b935050602061372186828701613147565b925050604084013567ffffffffffffffff81111561374257613741612fab565b5b61374e868287016136bb565b9150509250925092565b6000806040838503121561376f5761376e612fa6565b5b600061377d858286016131fc565b925050602061378e858286016131fc565b9150509250929050565b7f4e487b7100000000000000000000000000000000000000000000000000000000600052602260045260246000fd5b600060028204905060018216806137df57607f821691505b6020821081036137f2576137f1613798565b5b50919050565b7f4552433732313a20617070726f76616c20746f2063757272656e74206f776e6560008201527f7200000000000000000000000000000000000000000000000000000000000000602082015250565b6000613854602183613076565b915061385f826137f8565b604082019050919050565b6000602082019050818103600083015261388381613847565b9050919050565b7f4552433732313a20617070726f76652063616c6c6572206973206e6f7420746f60008201527f6b656e206f776e6572206e6f7220617070726f76656420666f7220616c6c0000602082015250565b60006138e6603e83613076565b91506138f18261388a565b604082019050919050565b60006020820190508181036000830152613915816138d9565b9050919050565b7f4552433732313a2063616c6c6572206973206e6f7420746f6b656e206f776e6560008201527f72206e6f7220617070726f766564000000000000000000000000000000000000602082015250565b6000613978602e83613076565b91506139838261391c565b604082019050919050565b600060208201905081810360008301526139a78161396b565b9050919050565b7f416363657373436f6e74726f6c3a2063616e206f6e6c792072656e6f756e636560008201527f20726f6c657320666f722073656c660000000000000000000000000000000000602082015250565b6000613a0a602f83613076565b9150613a15826139ae565b604082019050919050565b60006020820190508181036000830152613a39816139fd565b9050919050565b7f46756e6374696f6e206d7573742062652063616c6c6564207468726f7567682060008201527f64656c656761746563616c6c0000000000000000000000000000000000000000602082015250565b6000613a9c602c83613076565b9150613aa782613a40565b604082019050919050565b60006020820190508181036000830152613acb81613a8f565b9050919050565b7f46756e6374696f6e206d7573742062652063616c6c6564207468726f7567682060008201527f6163746976652070726f78790000000000000000000000000000000000000000602082015250565b6000613b2e602c83613076565b9150613b3982613ad2565b604082019050919050565b60006020820190508181036000830152613b5d81613b21565b9050919050565b7f555550535570677261646561626c653a206d757374206e6f742062652063616c60008201527f6c6564207468726f7567682064656c656761746563616c6c0000000000000000602082015250565b6000613bc0603883613076565b9150613bcb82613b64565b604082019050919050565b60006020820190508181036000830152613bef81613bb3565b9050919050565b7f4552433732313a20696e76616c696420746f6b656e2049440000000000000000600082015250565b6000613c2c601883613076565b9150613c3782613bf6565b602082019050919050565b60006020820190508181036000830152613c5b81613c1f565b9050919050565b7f4552433732313a2061646472657373207a65726f206973206e6f74206120766160008201527f6c6964206f776e65720000000000000000000000000000000000000000000000602082015250565b6000613cbe602983613076565b9150613cc982613c62565b604082019050919050565b60006020820190508181036000830152613ced81613cb1565b9050919050565b7f496e697469616c697a61626c653a20636f6e747261637420697320616c72656160008201527f647920696e697469616c697a6564000000000000000000000000000000000000602082015250565b6000613d50602e83613076565b9150613d5b82613cf4565b604082019050919050565b60006020820190508181036000830152613d7f81613d43565b9050919050565b6000819050919050565b600060ff82169050919050565b6000819050919050565b6000613dc2613dbd613db884613d86565b613d9d565b613d90565b9050919050565b613dd281613da7565b82525050565b6000602082019050613ded6000830184613dc9565b92915050565b7f4552433732313a207472616e736665722066726f6d20696e636f72726563742060008201527f6f776e6572000000000000000000000000000000000000000000000000000000602082015250565b6000613e4f602583613076565b9150613e5a82613df3565b604082019050919050565b60006020820190508181036000830152613e7e81613e42565b9050919050565b7f4552433732313a207472616e7366657220746f20746865207a65726f2061646460008201527f7265737300000000000000000000000000000000000000000000000000000000602082015250565b6000613ee1602483613076565b9150613eec82613e85565b604082019050919050565b60006020820190508181036000830152613f1081613ed4565b9050919050565b7f4e487b7100000000000000000000000000000000000000000000000000000000600052601160045260246000fd5b6000613f5182613126565b9150613f5c83613126565b925082821015613f6f57613f6e613f17565b5b828203905092915050565b6000613f8582613126565b9150613f9083613126565b9250827fffffffffffffffffffffffffffffffffffffffffffffffffffffffffffffffff03821115613fc557613fc4613f17565b5b828201905092915050565b600081519050613fdf816132d8565b92915050565b600060208284031215613ffb57613ffa612fa6565b5b600061400984828501613fd0565b91505092915050565b7f45524331393637557067726164653a206e657720696d706c656d656e7461746960008201527f6f6e206973206e6f742055555053000000000000000000000000000000000000602082015250565b600061406e602e83613076565b915061407982614012565b604082019050919050565b6000602082019050818103600083015261409d81614061565b9050919050565b7f45524331393637557067726164653a20756e737570706f727465642070726f7860008201527f6961626c65555549440000000000000000000000000000000000000000000000602082015250565b6000614100602983613076565b915061410b826140a4565b604082019050919050565b6000602082019050818103600083015261412f816140f3565b9050919050565b7f496e697469616c697a61626c653a20636f6e7472616374206973206e6f74206960008201527f6e697469616c697a696e67000000000000000000000000000000000000000000602082015250565b6000614192602b83613076565b915061419d82614136565b604082019050919050565b600060208201905081810360008301526141c181614185565b9050919050565b7f4552433732313a20617070726f766520746f2063616c6c657200000000000000600082015250565b60006141fe601983613076565b9150614209826141c8565b602082019050919050565b6000602082019050818103600083015261422d816141f1565b9050919050565b7f4552433732313a207472616e7366657220746f206e6f6e20455243373231526560008201527f63656976657220696d706c656d656e7465720000000000000000000000000000602082015250565b6000614290603283613076565b915061429b82614234565b604082019050919050565b600060208201905081810360008301526142bf81614283565b9050919050565b7f45524337323155524953746f726167653a2055524920717565727920666f722060008201527f6e6f6e6578697374656e7420746f6b656e000000000000000000000000000000602082015250565b6000614322603183613076565b915061432d826142c6565b604082019050919050565b6000602082019050818103600083015261435181614315565b9050919050565b600081905092915050565b600061436e8261306b565b6143788185614358565b9350614388818560208601613087565b80840191505092915050565b60006143a08285614363565b91506143ac8284614363565b91508190509392505050565b7f45524337323155524953746f726167653a2055524920736574206f66206e6f6e60008201527f6578697374656e7420746f6b656e000000000000000000000000000000000000602082015250565b6000614414602e83613076565b915061441f826143b8565b604082019050919050565b6000602082019050818103600083015261444381614407565b9050919050565b7f416363657373436f6e74726f6c3a206163636f756e7420000000000000000000600082015250565b6000614480601783614358565b915061448b8261444a565b601782019050919050565b7f206973206d697373696e6720726f6c6520000000000000000000000000000000600082015250565b60006144cc601183614358565b91506144d782614496565b601182019050919050565b60006144ed82614473565b91506144f98285614363565b9150614504826144bf565b91506145108284614363565b91508190509392505050565b7f455243313936373a206e657720696d706c656d656e746174696f6e206973206e60008201527f6f74206120636f6e747261637400000000000000000000000000000000000000602082015250565b6000614578602d83613076565b91506145838261451c565b604082019050919050565b600060208201905081810360008301526145a78161456b565b9050919050565b600081519050919050565b600082825260208201905092915050565b60006145d5826145ae565b6145df81856145b9565b93506145ef818560208601613087565b6145f8816130ba565b840191505092915050565b600060808201905061461860008301876131bb565b61462560208301866131bb565b6146326040830185613251565b818103606083015261464481846145ca565b905095945050505050565b60008151905061465e81612fdc565b92915050565b60006020828403121561467a57614679612fa6565b5b60006146888482850161464f565b91505092915050565b600061469c82613126565b91506146a783613126565b9250817fffffffffffffffffffffffffffffffffffffffffffffffffffffffffffffffff04831182151516156146e0576146df613f17565b5b828202905092915050565b7f4e487b7100000000000000000000000000000000000000000000000000000000600052603260045260246000fd5b600061472582613126565b91506000820361473857614737613f17565b5b600182039050919050565b7f537472696e67733a20686578206c656e67746820696e73756666696369656e74600082015250565b6000614779602083613076565b915061478482614743565b602082019050919050565b600060208201905081810360008301526147a88161476c565b9050919050565b7f416464726573733a2064656c65676174652063616c6c20746f206e6f6e2d636f60008201527f6e74726163740000000000000000000000000000000000000000000000000000602082015250565b600061480b602683613076565b9150614816826147af565b604082019050919050565b6000602082019050818103600083015261483a816147fe565b9050919050565b600081905092915050565b6000614857826145ae565b6148618185614841565b9350614871818560208601613087565b80840191505092915050565b6000614889828461484c565b915081905092915050565b7f4552433732313a206d696e7420746f20746865207a65726f2061646472657373600082015250565b60006148ca602083613076565b91506148d582614894565b602082019050919050565b600060208201905081810360008301526148f9816148bd565b9050919050565b7f4552433732313a20746f6b656e20616c7265616479206d696e74656400000000600082015250565b6000614936601c83613076565b915061494182614900565b602082019050919050565b6000602082019050818103600083015261496581614929565b9050919050565b600061497782613126565b91507fffffffffffffffffffffffffffffffffffffffffffffffffffffffffffffffff82036149a9576149a8613f17565b5b600182019050919050565b7f4e487b7100000000000000000000000000000000000000000000000000000000600052601260045260246000fd5b60006149ee82613126565b91506149f983613126565b925082614a0957614a086149b4565b5b828204905092915050565b6000614a1f82613126565b9150614a2a83613126565b925082614a3a57614a396149b4565b5b82820690509291505056fe68747470733a2f2f647765622e6c696e64656e7379732e636e2f69706e732f6b3531717a69357571753564697671726f6b306765743131306f64617461783074763875716833666f727a70317a686f78793766743763756131383867742f626162616f66616e2f416464726573733a206c6f772d6c6576656c2064656c65676174652063616c6c206661696c6564a2646970667358221220299bc5a4f638bd8db24f2a8b4fe27245e251bd5814e6d09062bbccb300e07dc764736f6c634300080d0033",
  "immutableReferences": {
    "1115": [
      {
        "length": 32,
        "start": 2551
      },
      {
        "length": 32,
        "start": 2693
      },
      {
        "length": 32,
        "start": 2975
      },
      {
        "length": 32,
        "start": 3117
      },
      {
        "length": 32,
        "start": 3293
      }
    ]
  },
  "source": "// SPDX-License-Identifier: MIT\r\npragma solidity ^0.8.4;\r\n\r\nimport \"@openzeppelin/contracts-upgradeable/token/ERC721/ERC721Upgradeable.sol\";\r\nimport \"@openzeppelin/contracts-upgradeable/token/ERC721/extensions/ERC721URIStorageUpgradeable.sol\";\r\nimport \"@openzeppelin/contracts-upgradeable/access/AccessControlUpgradeable.sol\";\r\nimport \"@openzeppelin/contracts-upgradeable/proxy/utils/Initializable.sol\";\r\nimport \"@openzeppelin/contracts-upgradeable/proxy/utils/UUPSUpgradeable.sol\";\r\n\r\ncontract METANFT is\r\n    Initializable,\r\n    ERC721Upgradeable,\r\n    ERC721URIStorageUpgradeable,\r\n    AccessControlUpgradeable,\r\n    UUPSUpgradeable\r\n{\r\n    bytes32 public constant MINTER_ROLE = keccak256(\"MINTER_ROLE\");\r\n    bytes32 public constant UPGRADER_ROLE = keccak256(\"UPGRADER_ROLE\");\r\n\r\n    function getVersion() public pure returns (uint256 version) {\r\n        return 3;\r\n    }\r\n\r\n    function initialize() public initializer {\r\n        __ERC721_init(\"METANFT\", \"MNFT\");\r\n        __ERC721URIStorage_init();\r\n        __AccessControl_init();\r\n        __UUPSUpgradeable_init();\r\n\r\n        _grantRole(DEFAULT_ADMIN_ROLE, msg.sender);\r\n        _grantRole(MINTER_ROLE, msg.sender);\r\n        _grantRole(UPGRADER_ROLE, msg.sender);\r\n    }\r\n\r\n    function _baseURI() internal pure override returns (string memory) {\r\n        return\r\n            \"https://dweb.lindensys.cn/ipns/k51qzi5uqu5divqrok0get110odatax0tv8uqh3forzp1zhoxy7ft7cua188gt/babaofan/\";\r\n    }\r\n\r\n    function _ipfsGateway() internal pure override returns (string memory) {\r\n        return\r\n            \"https://dweb.lindensys.cn/ipfs/\";\r\n    }\r\n\r\n    function safeMint(\r\n        address to,\r\n        uint256 tokenId\r\n    ) public onlyRole(MINTER_ROLE) {\r\n        _safeMint(to, tokenId);\r\n    }\r\n\r\n    function safeMint(\r\n        address to,\r\n        uint256 tokenId,\r\n        string memory uri\r\n    ) public {\r\n        _safeMint(to, tokenId);\r\n        _setTokenURI(tokenId, uri);\r\n    }\r\n\r\n    function _authorizeUpgrade(address newImplementation)\r\n        internal\r\n        override\r\n        onlyRole(UPGRADER_ROLE)\r\n    {}\r\n\r\n    // The following functions are overrides required by Solidity.\r\n\r\n    function _burn(uint256 tokenId)\r\n        internal\r\n        override(ERC721Upgradeable, ERC721URIStorageUpgradeable)\r\n    {\r\n        super._burn(tokenId);\r\n    }\r\n\r\n    function tokenURI(uint256 tokenId)\r\n        public\r\n        view\r\n        override(ERC721Upgradeable, ERC721URIStorageUpgradeable)\r\n        returns (string memory)\r\n    {\r\n        return super.tokenURI(tokenId);\r\n    }\r\n\r\n    function supportsInterface(bytes4 interfaceId)\r\n        public\r\n        view\r\n        override(ERC721Upgradeable, AccessControlUpgradeable)\r\n        returns (bool)\r\n    {\r\n        return super.supportsInterface(interfaceId);\r\n    }\r\n}",
  "sourcePath": "C:\\linden\\eth-contracts\\nftExchange\\contracts\\METANFT.sol",
  "compiler": {
    "name": "solc",
    "version": "0.8.13+commit.abaa5c0e.Emscripten.clang"
  },
  "schemaVersion": "3.4.8",
  "updatedAt": "2023-03-15T03:54:27.367Z",
  "devdoc": {
    "kind": "dev",
    "methods": {
      "approve(address,uint256)": {
        "details": "See {IERC721-approve}."
      },
      "balanceOf(address)": {
        "details": "See {IERC721-balanceOf}."
      },
      "getApproved(uint256)": {
        "details": "See {IERC721-getApproved}."
      },
      "getRoleAdmin(bytes32)": {
        "details": "Returns the admin role that controls `role`. See {grantRole} and {revokeRole}. To change a role's admin, use {_setRoleAdmin}."
      },
      "grantRole(bytes32,address)": {
        "details": "Grants `role` to `account`. If `account` had not been already granted `role`, emits a {RoleGranted} event. Requirements: - the caller must have ``role``'s admin role. May emit a {RoleGranted} event."
      },
      "hasRole(bytes32,address)": {
        "details": "Returns `true` if `account` has been granted `role`."
      },
      "isApprovedForAll(address,address)": {
        "details": "See {IERC721-isApprovedForAll}."
      },
      "name()": {
        "details": "See {IERC721Metadata-name}."
      },
      "ownerOf(uint256)": {
        "details": "See {IERC721-ownerOf}."
      },
      "proxiableUUID()": {
        "details": "Implementation of the ERC1822 {proxiableUUID} function. This returns the storage slot used by the implementation. It is used to validate that the this implementation remains valid after an upgrade. IMPORTANT: A proxy pointing at a proxiable contract should not be considered proxiable itself, because this risks bricking a proxy that upgrades to it, by delegating to itself until out of gas. Thus it is critical that this function revert if invoked through a proxy. This is guaranteed by the `notDelegated` modifier."
      },
      "renounceRole(bytes32,address)": {
        "details": "Revokes `role` from the calling account. Roles are often managed via {grantRole} and {revokeRole}: this function's purpose is to provide a mechanism for accounts to lose their privileges if they are compromised (such as when a trusted device is misplaced). If the calling account had been revoked `role`, emits a {RoleRevoked} event. Requirements: - the caller must be `account`. May emit a {RoleRevoked} event."
      },
      "revokeRole(bytes32,address)": {
        "details": "Revokes `role` from `account`. If `account` had been granted `role`, emits a {RoleRevoked} event. Requirements: - the caller must have ``role``'s admin role. May emit a {RoleRevoked} event."
      },
      "safeTransferFrom(address,address,uint256)": {
        "details": "See {IERC721-safeTransferFrom}."
      },
      "safeTransferFrom(address,address,uint256,bytes)": {
        "details": "See {IERC721-safeTransferFrom}."
      },
      "setApprovalForAll(address,bool)": {
        "details": "See {IERC721-setApprovalForAll}."
      },
      "symbol()": {
        "details": "See {IERC721Metadata-symbol}."
      },
      "transferFrom(address,address,uint256)": {
        "details": "See {IERC721-transferFrom}."
      },
      "upgradeTo(address)": {
        "details": "Upgrade the implementation of the proxy to `newImplementation`. Calls {_authorizeUpgrade}. Emits an {Upgraded} event."
      },
      "upgradeToAndCall(address,bytes)": {
        "details": "Upgrade the implementation of the proxy to `newImplementation`, and subsequently execute the function call encoded in `data`. Calls {_authorizeUpgrade}. Emits an {Upgraded} event."
      }
    },
    "version": 1
  },
  "userdoc": {
    "kind": "user",
    "methods": {},
    "version": 1
  }
}