{
  "contractName": "NftExchange",
  "abi": [
    {
      "anonymous": false,
      "inputs": [
        {
          "indexed": false,
          "internalType": "address",
          "name": "previousAdmin",
          "type": "address"
        },
        {
          "indexed": false,
          "internalType": "address",
          "name": "newAdmin",
          "type": "address"
        }
      ],
      "name": "AdminChanged",
      "type": "event"
    },
    {
      "anonymous": false,
      "inputs": [
        {
          "indexed": true,
          "internalType": "address",
          "name": "beacon",
          "type": "address"
        }
      ],
      "name": "BeaconUpgraded",
      "type": "event"
    },
    {
      "anonymous": false,
      "inputs": [
        {
          "indexed": false,
          "internalType": "address",
          "name": "owner",
          "type": "address"
        },
        {
          "indexed": false,
          "internalType": "address",
          "name": "nftCode",
          "type": "address"
        },
        {
          "indexed": false,
          "internalType": "uint256",
          "name": "tokenId",
          "type": "uint256"
        },
        {
          "indexed": false,
          "internalType": "uint256",
          "name": "price",
          "type": "uint256"
        },
        {
          "indexed": false,
          "internalType": "uint256",
          "name": "timestamps",
          "type": "uint256"
        }
      ],
      "name": "DoneOnShelf",
      "type": "event"
    },
    {
      "anonymous": false,
      "inputs": [
        {
          "indexed": false,
          "internalType": "address",
          "name": "from",
          "type": "address"
        },
        {
          "indexed": false,
          "internalType": "address",
          "name": "to",
          "type": "address"
        },
        {
          "indexed": false,
          "internalType": "address",
          "name": "nftCode",
          "type": "address"
        },
        {
          "indexed": false,
          "internalType": "uint256",
          "name": "tokenId",
          "type": "uint256"
        },
        {
          "indexed": false,
          "internalType": "uint256",
          "name": "price",
          "type": "uint256"
        }
      ],
      "name": "DonePurchase",
      "type": "event"
    },
    {
      "anonymous": false,
      "inputs": [
        {
          "indexed": false,
          "internalType": "address",
          "name": "to",
          "type": "address"
        },
        {
          "indexed": false,
          "internalType": "uint256",
          "name": "amount",
          "type": "uint256"
        }
      ],
      "name": "DoneWithdraw",
      "type": "event"
    },
    {
      "anonymous": false,
      "inputs": [
        {
          "indexed": true,
          "internalType": "bytes32",
          "name": "role",
          "type": "bytes32"
        },
        {
          "indexed": true,
          "internalType": "bytes32",
          "name": "previousAdminRole",
          "type": "bytes32"
        },
        {
          "indexed": true,
          "internalType": "bytes32",
          "name": "newAdminRole",
          "type": "bytes32"
        }
      ],
      "name": "RoleAdminChanged",
      "type": "event"
    },
    {
      "anonymous": false,
      "inputs": [
        {
          "indexed": true,
          "internalType": "bytes32",
          "name": "role",
          "type": "bytes32"
        },
        {
          "indexed": true,
          "internalType": "address",
          "name": "account",
          "type": "address"
        },
        {
          "indexed": true,
          "internalType": "address",
          "name": "sender",
          "type": "address"
        }
      ],
      "name": "RoleGranted",
      "type": "event"
    },
    {
      "anonymous": false,
      "inputs": [
        {
          "indexed": true,
          "internalType": "bytes32",
          "name": "role",
          "type": "bytes32"
        },
        {
          "indexed": true,
          "internalType": "address",
          "name": "account",
          "type": "address"
        },
        {
          "indexed": true,
          "internalType": "address",
          "name": "sender",
          "type": "address"
        }
      ],
      "name": "RoleRevoked",
      "type": "event"
    },
    {
      "anonymous": false,
      "inputs": [
        {
          "indexed": true,
          "internalType": "address",
          "name": "implementation",
          "type": "address"
        }
      ],
      "name": "Upgraded",
      "type": "event"
    },
    {
      "inputs": [],
      "name": "DEFAULT_ADMIN_ROLE",
      "outputs": [
        {
          "internalType": "bytes32",
          "name": "",
          "type": "bytes32"
        }
      ],
      "stateMutability": "view",
      "type": "function"
    },
    {
      "inputs": [],
      "name": "EXADMIN_ROLE",
      "outputs": [
        {
          "internalType": "bytes32",
          "name": "",
          "type": "bytes32"
        }
      ],
      "stateMutability": "view",
      "type": "function"
    },
    {
      "inputs": [],
      "name": "UPGRADER_ROLE",
      "outputs": [
        {
          "internalType": "bytes32",
          "name": "",
          "type": "bytes32"
        }
      ],
      "stateMutability": "view",
      "type": "function"
    },
    {
      "inputs": [],
      "name": "WITHDRAW_ROLE",
      "outputs": [
        {
          "internalType": "bytes32",
          "name": "",
          "type": "bytes32"
        }
      ],
      "stateMutability": "view",
      "type": "function"
    },
    {
      "inputs": [
        {
          "internalType": "bytes32",
          "name": "role",
          "type": "bytes32"
        }
      ],
      "name": "getRoleAdmin",
      "outputs": [
        {
          "internalType": "bytes32",
          "name": "",
          "type": "bytes32"
        }
      ],
      "stateMutability": "view",
      "type": "function"
    },
    {
      "inputs": [
        {
          "internalType": "bytes32",
          "name": "role",
          "type": "bytes32"
        },
        {
          "internalType": "address",
          "name": "account",
          "type": "address"
        }
      ],
      "name": "grantRole",
      "outputs": [],
      "stateMutability": "nonpayable",
      "type": "function"
    },
    {
      "inputs": [
        {
          "internalType": "bytes32",
          "name": "role",
          "type": "bytes32"
        },
        {
          "internalType": "address",
          "name": "account",
          "type": "address"
        }
      ],
      "name": "hasRole",
      "outputs": [
        {
          "internalType": "bool",
          "name": "",
          "type": "bool"
        }
      ],
      "stateMutability": "view",
      "type": "function"
    },
    {
      "inputs": [],
      "name": "proxiableUUID",
      "outputs": [
        {
          "internalType": "bytes32",
          "name": "",
          "type": "bytes32"
        }
      ],
      "stateMutability": "view",
      "type": "function"
    },
    {
      "inputs": [
        {
          "internalType": "bytes32",
          "name": "role",
          "type": "bytes32"
        },
        {
          "internalType": "address",
          "name": "account",
          "type": "address"
        }
      ],
      "name": "renounceRole",
      "outputs": [],
      "stateMutability": "nonpayable",
      "type": "function"
    },
    {
      "inputs": [
        {
          "internalType": "bytes32",
          "name": "role",
          "type": "bytes32"
        },
        {
          "internalType": "address",
          "name": "account",
          "type": "address"
        }
      ],
      "name": "revokeRole",
      "outputs": [],
      "stateMutability": "nonpayable",
      "type": "function"
    },
    {
      "inputs": [
        {
          "internalType": "address",
          "name": "newImplementation",
          "type": "address"
        }
      ],
      "name": "upgradeTo",
      "outputs": [],
      "stateMutability": "nonpayable",
      "type": "function"
    },
    {
      "inputs": [
        {
          "internalType": "address",
          "name": "newImplementation",
          "type": "address"
        },
        {
          "internalType": "bytes",
          "name": "data",
          "type": "bytes"
        }
      ],
      "name": "upgradeToAndCall",
      "outputs": [],
      "stateMutability": "payable",
      "type": "function"
    },
    {
      "inputs": [],
      "name": "getVersion",
      "outputs": [
        {
          "internalType": "uint256",
          "name": "version",
          "type": "uint256"
        }
      ],
      "stateMutability": "pure",
      "type": "function"
    },
    {
      "inputs": [
        {
          "internalType": "uint256",
          "name": "minDuration",
          "type": "uint256"
        },
        {
          "internalType": "uint256",
          "name": "maxDuration",
          "type": "uint256"
        }
      ],
      "name": "initialize",
      "outputs": [],
      "stateMutability": "nonpayable",
      "type": "function"
    },
    {
      "inputs": [
        {
          "internalType": "bytes4",
          "name": "interfaceId",
          "type": "bytes4"
        }
      ],
      "name": "supportsInterface",
      "outputs": [
        {
          "internalType": "bool",
          "name": "",
          "type": "bool"
        }
      ],
      "stateMutability": "view",
      "type": "function"
    },
    {
      "inputs": [
        {
          "internalType": "uint256",
          "name": "duration",
          "type": "uint256"
        }
      ],
      "name": "setMinDuration",
      "outputs": [],
      "stateMutability": "nonpayable",
      "type": "function"
    },
    {
      "inputs": [],
      "name": "getMinDuration",
      "outputs": [
        {
          "internalType": "uint256",
          "name": "duration",
          "type": "uint256"
        }
      ],
      "stateMutability": "view",
      "type": "function"
    },
    {
      "inputs": [
        {
          "internalType": "uint256",
          "name": "duration",
          "type": "uint256"
        }
      ],
      "name": "setMaxDuration",
      "outputs": [],
      "stateMutability": "nonpayable",
      "type": "function"
    },
    {
      "inputs": [],
      "name": "getMaxDuration",
      "outputs": [
        {
          "internalType": "uint256",
          "name": "duration",
          "type": "uint256"
        }
      ],
      "stateMutability": "view",
      "type": "function"
    },
    {
      "inputs": [
        {
          "internalType": "contract IERC721",
          "name": "nftCode",
          "type": "address"
        }
      ],
      "name": "addNftCode",
      "outputs": [],
      "stateMutability": "nonpayable",
      "type": "function"
    },
    {
      "inputs": [
        {
          "internalType": "contract IERC721",
          "name": "nftCode",
          "type": "address"
        }
      ],
      "name": "rmNftCode",
      "outputs": [],
      "stateMutability": "nonpayable",
      "type": "function"
    },
    {
      "inputs": [],
      "name": "getNftCodes",
      "outputs": [
        {
          "internalType": "contract IERC721[]",
          "name": "nftCodes",
          "type": "address[]"
        }
      ],
      "stateMutability": "view",
      "type": "function"
    },
    {
      "inputs": [
        {
          "internalType": "address",
          "name": "nftCode",
          "type": "address"
        },
        {
          "internalType": "uint256",
          "name": "tokenId",
          "type": "uint256"
        }
      ],
      "name": "getOffShelfTime",
      "outputs": [
        {
          "internalType": "uint256",
          "name": "offShelfTime",
          "type": "uint256"
        }
      ],
      "stateMutability": "view",
      "type": "function"
    },
    {
      "inputs": [
        {
          "internalType": "address",
          "name": "nftCode",
          "type": "address"
        },
        {
          "internalType": "uint256",
          "name": "tokenId",
          "type": "uint256"
        }
      ],
      "name": "getPrices",
      "outputs": [
        {
          "internalType": "uint256",
          "name": "price",
          "type": "uint256"
        }
      ],
      "stateMutability": "view",
      "type": "function"
    },
    {
      "inputs": [
        {
          "internalType": "address",
          "name": "to",
          "type": "address"
        },
        {
          "internalType": "uint256",
          "name": "amount",
          "type": "uint256"
        }
      ],
      "name": "withdraw",
      "outputs": [],
      "stateMutability": "nonpayable",
      "type": "function"
    },
    {
      "inputs": [
        {
          "internalType": "contract IERC721",
          "name": "nftCode",
          "type": "address"
        },
        {
          "internalType": "uint256",
          "name": "tokenId",
          "type": "uint256"
        },
        {
          "internalType": "uint256",
          "name": "price",
          "type": "uint256"
        },
        {
          "internalType": "uint256",
          "name": "offShelfTime",
          "type": "uint256"
        }
      ],
      "name": "sell",
      "outputs": [],
      "stateMutability": "nonpayable",
      "type": "function"
    },
    {
      "inputs": [
        {
          "internalType": "contract IERC721",
          "name": "nftCode",
          "type": "address"
        },
        {
          "internalType": "uint256",
          "name": "tokenId",
          "type": "uint256"
        }
      ],
      "name": "buy",
      "outputs": [],
      "stateMutability": "payable",
      "type": "function"
    }
  ],
  "bytecode": "0x60a06040523073ffffffffffffffffffffffffffffffffffffffff1660809073ffffffffffffffffffffffffffffffffffffffff1681525034801561004357600080fd5b506080516144d061007b600039600081816108110152818161089f01528181610c4901528181610cd70152610d8701526144d06000f3fe60806040526004361061019c5760003560e01c806392cdbac5116100ec578063cf0f34c41161008a578063e02023a111610064578063e02023a1146105a8578063e4a30116146105d3578063f3fef3a3146105fc578063f72c0d8b146106255761019c565b8063cf0f34c414610519578063d547741f14610542578063d5e1a18b1461056b5761019c565b8063b49a2db9116100c6578063b49a2db91461046a578063bd2a625014610495578063cb3382e7146104d2578063cce7ec13146104fd5761019c565b806392cdbac5146103eb5780639ed03b3814610414578063a217fddf1461043f5761019c565b806336568abe116101595780634f1ef286116101335780634f1ef2861461033e57806352d1902d1461035a5780635a090fa51461038557806391d14854146103ae5761019c565b806336568abe146102c35780633659cfe6146102ec57806342d3e346146103155761019c565b806301ffc9a7146101a1578063034d501b146101de5780630d8e6e2c146102095780631674bade14610234578063248a9ca31461025d5780632f2ff15d1461029a575b600080fd5b3480156101ad57600080fd5b506101c860048036038101906101c391906129c8565b610650565b6040516101d59190612a10565b60405180910390f35b3480156101ea57600080fd5b506101f3610662565b6040516102009190612a44565b60405180910390f35b34801561021557600080fd5b5061021e61066c565b60405161022b9190612a44565b60405180910390f35b34801561024057600080fd5b5061025b60048036038101906102569190612a8b565b610675565b005b34801561026957600080fd5b50610284600480360381019061027f9190612aee565b610743565b6040516102919190612b2a565b60405180910390f35b3480156102a657600080fd5b506102c160048036038101906102bc9190612ba3565b610763565b005b3480156102cf57600080fd5b506102ea60048036038101906102e59190612ba3565b61078c565b005b3480156102f857600080fd5b50610313600480360381019061030e9190612be3565b61080f565b005b34801561032157600080fd5b5061033c60048036038101906103379190612c4e565b610997565b005b61035860048036038101906103539190612dc1565b610c47565b005b34801561036657600080fd5b5061036f610d83565b60405161037c9190612b2a565b60405180910390f35b34801561039157600080fd5b506103ac60048036038101906103a79190612c4e565b610e3c565b005b3480156103ba57600080fd5b506103d560048036038101906103d09190612ba3565b610fba565b6040516103e29190612a10565b60405180910390f35b3480156103f757600080fd5b50610412600480360381019061040d9190612e1d565b611025565b005b34801561042057600080fd5b5061042961146e565b6040516104369190612b2a565b60405180910390f35b34801561044b57600080fd5b50610454611492565b6040516104619190612b2a565b60405180910390f35b34801561047657600080fd5b5061047f611499565b60405161048c9190612a44565b60405180910390f35b3480156104a157600080fd5b506104bc60048036038101906104b79190612e84565b6114a3565b6040516104c99190612a44565b60405180910390f35b3480156104de57600080fd5b506104e76114fe565b6040516104f49190612fd2565b60405180910390f35b61051760048036038101906105129190612ff4565b61158c565b005b34801561052557600080fd5b50610540600480360381019061053b9190612a8b565b61197b565b005b34801561054e57600080fd5b5061056960048036038101906105649190612ba3565b611a49565b005b34801561057757600080fd5b50610592600480360381019061058d9190612e84565b611a72565b60405161059f9190612a44565b60405180910390f35b3480156105b457600080fd5b506105bd611ace565b6040516105ca9190612b2a565b60405180910390f35b3480156105df57600080fd5b506105fa60048036038101906105f59190613034565b611af2565b005b34801561060857600080fd5b50610623600480360381019061061e9190612e84565b611c71565b005b34801561063157600080fd5b5061063a611d8e565b6040516106479190612b2a565b60405180910390f35b600061065b82611db2565b9050919050565b600060fd54905090565b60006001905090565b7f51ada25f7cf0859910926228d277aca0add8f50f444c7c5ee9b5b4086760654f6106a7816106a2611e2c565b611e34565b640202fbf0008211156106ef576040517f08c379a00000000000000000000000000000000000000000000000000000000081526004016106e6906130d1565b60405180910390fd5b6106f7611499565b8210610738576040517f08c379a000000000000000000000000000000000000000000000000000000000815260040161072f90613163565b60405180910390fd5b8160fd819055505050565b600060656000838152602001908152602001600020600101549050919050565b61076c82610743565b61077d81610778611e2c565b611e34565b6107878383611ed1565b505050565b610794611e2c565b73ffffffffffffffffffffffffffffffffffffffff168173ffffffffffffffffffffffffffffffffffffffff1614610801576040517f08c379a00000000000000000000000000000000000000000000000000000000081526004016107f8906131f5565b60405180910390fd5b61080b8282611fb2565b5050565b7f000000000000000000000000000000000000000000000000000000000000000073ffffffffffffffffffffffffffffffffffffffff163073ffffffffffffffffffffffffffffffffffffffff160361089d576040517f08c379a000000000000000000000000000000000000000000000000000000000815260040161089490613287565b60405180910390fd5b7f000000000000000000000000000000000000000000000000000000000000000073ffffffffffffffffffffffffffffffffffffffff166108dc612094565b73ffffffffffffffffffffffffffffffffffffffff1614610932576040517f08c379a000000000000000000000000000000000000000000000000000000000815260040161092990613319565b60405180910390fd5b61093b816120eb565b61099481600067ffffffffffffffff81111561095a57610959612c96565b5b6040519080825280601f01601f19166020018201604052801561098c5781602001600182028036833780820191505090505b506000612121565b50565b7f51ada25f7cf0859910926228d277aca0add8f50f444c7c5ee9b5b4086760654f6109c9816109c4611e2c565b611e34565b60fc60008373ffffffffffffffffffffffffffffffffffffffff1673ffffffffffffffffffffffffffffffffffffffff16815260200190815260200160002060009054906101000a900460ff16610a55576040517f08c379a0000000000000000000000000000000000000000000000000000000008152600401610a4c90613385565b60405180910390fd5b6000805b60fb80549050811015610ba2578115610b185760fb8181548110610a8057610a7f6133a5565b5b9060005260206000200160009054906101000a900473ffffffffffffffffffffffffffffffffffffffff1660fb600183610aba9190613403565b81548110610acb57610aca6133a5565b5b9060005260206000200160006101000a81548173ffffffffffffffffffffffffffffffffffffffff021916908373ffffffffffffffffffffffffffffffffffffffff160217905550610b8f565b8373ffffffffffffffffffffffffffffffffffffffff1660fb8281548110610b4357610b426133a5565b5b9060005260206000200160009054906101000a900473ffffffffffffffffffffffffffffffffffffffff1673ffffffffffffffffffffffffffffffffffffffff1603610b8e57600191505b5b8080610b9a90613437565b915050610a59565b5060fb805480610bb557610bb461347f565b5b6001900381819060005260206000200160006101000a81549073ffffffffffffffffffffffffffffffffffffffff02191690559055600060fc60008573ffffffffffffffffffffffffffffffffffffffff1673ffffffffffffffffffffffffffffffffffffffff16815260200190815260200160002060006101000a81548160ff021916908315150217905550505050565b7f000000000000000000000000000000000000000000000000000000000000000073ffffffffffffffffffffffffffffffffffffffff163073ffffffffffffffffffffffffffffffffffffffff1603610cd5576040517f08c379a0000000000000000000000000000000000000000000000000000000008152600401610ccc90613287565b60405180910390fd5b7f000000000000000000000000000000000000000000000000000000000000000073ffffffffffffffffffffffffffffffffffffffff16610d14612094565b73ffffffffffffffffffffffffffffffffffffffff1614610d6a576040517f08c379a0000000000000000000000000000000000000000000000000000000008152600401610d6190613319565b60405180910390fd5b610d73826120eb565b610d7f82826001612121565b5050565b60007f000000000000000000000000000000000000000000000000000000000000000073ffffffffffffffffffffffffffffffffffffffff163073ffffffffffffffffffffffffffffffffffffffff1614610e13576040517f08c379a0000000000000000000000000000000000000000000000000000000008152600401610e0a90613520565b60405180910390fd5b7f360894a13ba1a3210667c828492db98dca3e2076cc3735a920a3ca505d382bbc60001b905090565b7f51ada25f7cf0859910926228d277aca0add8f50f444c7c5ee9b5b4086760654f610e6e81610e69611e2c565b611e34565b60fc60008373ffffffffffffffffffffffffffffffffffffffff1673ffffffffffffffffffffffffffffffffffffffff16815260200190815260200160002060009054906101000a900460ff1615610efb576040517f08c379a0000000000000000000000000000000000000000000000000000000008152600401610ef2906135b2565b60405180910390fd5b60fb829080600181540180825580915050600190039060005260206000200160009091909190916101000a81548173ffffffffffffffffffffffffffffffffffffffff021916908373ffffffffffffffffffffffffffffffffffffffff160217905550600160fc60008473ffffffffffffffffffffffffffffffffffffffff1673ffffffffffffffffffffffffffffffffffffffff16815260200190815260200160002060006101000a81548160ff0219169083151502179055505050565b60006065600084815260200190815260200160002060000160008373ffffffffffffffffffffffffffffffffffffffff1673ffffffffffffffffffffffffffffffffffffffff16815260200190815260200160002060009054906101000a900460ff16905092915050565b60fc60008573ffffffffffffffffffffffffffffffffffffffff1673ffffffffffffffffffffffffffffffffffffffff16815260200190815260200160002060009054906101000a900460ff166110b1576040517f08c379a00000000000000000000000000000000000000000000000000000000081526004016110a890613644565b60405180910390fd5b60008473ffffffffffffffffffffffffffffffffffffffff16636352211e856040518263ffffffff1660e01b81526004016110ec9190612a44565b602060405180830381865afa158015611109573d6000803e3d6000fd5b505050506040513d601f19601f8201168201806040525081019061112d9190613679565b90508073ffffffffffffffffffffffffffffffffffffffff163373ffffffffffffffffffffffffffffffffffffffff161461119d576040517f08c379a000000000000000000000000000000000000000000000000000000000815260040161119490613718565b60405180910390fd5b426111a6610662565b6111b09190613738565b8210156111ce426111bf610662565b6111c99190613738565b61228f565b6040516020016111de919061387a565b6040516020818303038152906040529061122e576040517f08c379a000000000000000000000000000000000000000000000000000000000815260040161122591906138d5565b60405180910390fd5b506000428361123d9190613403565b9050611247610662565b811015801561125d5750611259611499565b8111155b61126d611268610662565b61228f565b61127d611278611499565b61228f565b60405160200161128e92919061398f565b604051602081830303815290604052906112de576040517f08c379a00000000000000000000000000000000000000000000000000000000081526004016112d591906138d5565b60405180910390fd5b5069021e19e06ec7a1c5c00084111561132c576040517f08c379a000000000000000000000000000000000000000000000000000000000815260040161132390613a15565b60405180910390fd5b8260ff60008873ffffffffffffffffffffffffffffffffffffffff1673ffffffffffffffffffffffffffffffffffffffff1681526020019081526020016000206000878152602001908152602001600020819055508361010060008873ffffffffffffffffffffffffffffffffffffffff1673ffffffffffffffffffffffffffffffffffffffff1681526020019081526020016000206000878152602001908152602001600020819055507fd902de5bf909b45e20bb32ac2c845149bd1d52acd91b63205e51bf755834d2928287878760ff60008c73ffffffffffffffffffffffffffffffffffffffff1673ffffffffffffffffffffffffffffffffffffffff16815260200190815260200160002060008b81526020019081526020016000205460405161145e959493929190613a44565b60405180910390a1505050505050565b7f51ada25f7cf0859910926228d277aca0add8f50f444c7c5ee9b5b4086760654f81565b6000801b81565b600060fe54905090565b600060ff60008473ffffffffffffffffffffffffffffffffffffffff1673ffffffffffffffffffffffffffffffffffffffff168152602001908152602001600020600083815260200190815260200160002054905092915050565b606060fb80548060200260200160405190810160405280929190818152602001828054801561158257602002820191906000526020600020905b8160009054906101000a900473ffffffffffffffffffffffffffffffffffffffff1673ffffffffffffffffffffffffffffffffffffffff1681526020019060010190808311611538575b5050505050905090565b60fc60008373ffffffffffffffffffffffffffffffffffffffff1673ffffffffffffffffffffffffffffffffffffffff16815260200190815260200160002060009054906101000a900460ff16611618576040517f08c379a000000000000000000000000000000000000000000000000000000000815260040161160f90613644565b60405180910390fd5b61162282826114a3565b421115611664576040517f08c379a000000000000000000000000000000000000000000000000000000000815260040161165b90613b09565b60405180910390fd5b600061010060008473ffffffffffffffffffffffffffffffffffffffff1673ffffffffffffffffffffffffffffffffffffffff1681526020019081526020016000206000838152602001908152602001600020549050803410156116c78261228f565b6040516020016116d79190613b9b565b60405160208183030381529060405290611727576040517f08c379a000000000000000000000000000000000000000000000000000000000815260040161171e91906138d5565b60405180910390fd5b5060008373ffffffffffffffffffffffffffffffffffffffff16636352211e846040518263ffffffff1660e01b81526004016117639190612a44565b602060405180830381865afa158015611780573d6000803e3d6000fd5b505050506040513d601f19601f820116820180604052508101906117a49190613679565b9050600060626064846117b79190613bec565b6117c19190613c1d565b905060008273ffffffffffffffffffffffffffffffffffffffff16826040516117e990613ca8565b60006040518083038185875af1925050503d8060008114611826576040519150601f19603f3d011682016040523d82523d6000602084013e61182b565b606091505b505090508061186f576040517f08c379a000000000000000000000000000000000000000000000000000000000815260040161186690613d09565b60405180910390fd5b8573ffffffffffffffffffffffffffffffffffffffff166342842e0e8433886040518463ffffffff1660e01b81526004016118ac93929190613d29565b600060405180830381600087803b1580156118c657600080fd5b505af11580156118da573d6000803e3d6000fd5b50505050600060ff60008873ffffffffffffffffffffffffffffffffffffffff1673ffffffffffffffffffffffffffffffffffffffff1681526020019081526020016000206000878152602001908152602001600020819055507f7334929a1a00034bd42f16ada91af47dc1c1c10ebd3e7c3fb222343e252d473e833388888860405161196b959493929190613d60565b60405180910390a1505050505050565b7f51ada25f7cf0859910926228d277aca0add8f50f444c7c5ee9b5b4086760654f6119ad816119a8611e2c565b611e34565b640202fbf0008211156119f5576040517f08c379a00000000000000000000000000000000000000000000000000000000081526004016119ec90613dff565b60405180910390fd5b6119fd610662565b8211611a3e576040517f08c379a0000000000000000000000000000000000000000000000000000000008152600401611a3590613eb7565b60405180910390fd5b8160fe819055505050565b611a5282610743565b611a6381611a5e611e2c565b611e34565b611a6d8383611fb2565b505050565b600061010060008473ffffffffffffffffffffffffffffffffffffffff1673ffffffffffffffffffffffffffffffffffffffff168152602001908152602001600020600083815260200190815260200160002054905092915050565b7f5d8e12c39142ff96d79d04d15d1ba1269e4fe57bb9d26f43523628b34ba108ec81565b600060019054906101000a900460ff16611b1a5760008054906101000a900460ff1615611b23565b611b226123ef565b5b611b62576040517f08c379a0000000000000000000000000000000000000000000000000000000008152600401611b5990613f49565b60405180910390fd5b60008060019054906101000a900460ff161590508015611bb2576001600060016101000a81548160ff02191690831515021790555060016000806101000a81548160ff0219169083151502179055505b8260fd819055508160fe81905550611bcd6000801b33611ed1565b611bf77f51ada25f7cf0859910926228d277aca0add8f50f444c7c5ee9b5b4086760654f33611ed1565b611c217f5d8e12c39142ff96d79d04d15d1ba1269e4fe57bb9d26f43523628b34ba108ec33611ed1565b611c4b7f189ab7a9244df0848122154315af71fe140f3db0fe014031783b0946b8c9d2e333611ed1565b8015611c6c5760008060016101000a81548160ff0219169083151502179055505b505050565b7f5d8e12c39142ff96d79d04d15d1ba1269e4fe57bb9d26f43523628b34ba108ec611ca381611c9e611e2c565b611e34565b60008373ffffffffffffffffffffffffffffffffffffffff1683604051611cc990613ca8565b60006040518083038185875af1925050503d8060008114611d06576040519150601f19603f3d011682016040523d82523d6000602084013e611d0b565b606091505b5050905080611d4f576040517f08c379a0000000000000000000000000000000000000000000000000000000008152600401611d4690613fb5565b60405180910390fd5b7f9698e61c645d6b39d54d12fe323bad02e9dfdbde2487c2ba08ccfe654400623e3384604051611d80929190613fd5565b60405180910390a150505050565b7f189ab7a9244df0848122154315af71fe140f3db0fe014031783b0946b8c9d2e381565b60007f7965db0b000000000000000000000000000000000000000000000000000000007bffffffffffffffffffffffffffffffffffffffffffffffffffffffff1916827bffffffffffffffffffffffffffffffffffffffffffffffffffffffff19161480611e255750611e2482612400565b5b9050919050565b600033905090565b611e3e8282610fba565b611ecd57611e638173ffffffffffffffffffffffffffffffffffffffff16601461246a565b611e718360001c602061246a565b604051602001611e82929190614096565b6040516020818303038152906040526040517f08c379a0000000000000000000000000000000000000000000000000000000008152600401611ec491906138d5565b60405180910390fd5b5050565b611edb8282610fba565b611fae5760016065600084815260200190815260200160002060000160008373ffffffffffffffffffffffffffffffffffffffff1673ffffffffffffffffffffffffffffffffffffffff16815260200190815260200160002060006101000a81548160ff021916908315150217905550611f53611e2c565b73ffffffffffffffffffffffffffffffffffffffff168173ffffffffffffffffffffffffffffffffffffffff16837f2f8788117e7eff1d82e926ec794901d17c78024a50270940304540a733656f0d60405160405180910390a45b5050565b611fbc8282610fba565b156120905760006065600084815260200190815260200160002060000160008373ffffffffffffffffffffffffffffffffffffffff1673ffffffffffffffffffffffffffffffffffffffff16815260200190815260200160002060006101000a81548160ff021916908315150217905550612035611e2c565b73ffffffffffffffffffffffffffffffffffffffff168173ffffffffffffffffffffffffffffffffffffffff16837ff6391f5c32d9c69d2a47ea670b442974b53935d1edc7fd64eb21e047a839171b60405160405180910390a45b5050565b60006120c27f360894a13ba1a3210667c828492db98dca3e2076cc3735a920a3ca505d382bbc60001b6126a6565b60000160009054906101000a900473ffffffffffffffffffffffffffffffffffffffff16905090565b7f189ab7a9244df0848122154315af71fe140f3db0fe014031783b0946b8c9d2e361211d81612118611e2c565b611e34565b5050565b61214d7f4910fdfa16fed3260ed0e7147f7cc6da11a60208b5b9406d12a635614ffd914360001b6126b0565b60000160009054906101000a900460ff16156121715761216c836126ba565b61228a565b8273ffffffffffffffffffffffffffffffffffffffff166352d1902d6040518163ffffffff1660e01b8152600401602060405180830381865afa9250505080156121d957506040513d601f19601f820116820180604052508101906121d691906140e5565b60015b612218576040517f08c379a000000000000000000000000000000000000000000000000000000000815260040161220f90614184565b60405180910390fd5b7f360894a13ba1a3210667c828492db98dca3e2076cc3735a920a3ca505d382bbc60001b811461227d576040517f08c379a000000000000000000000000000000000000000000000000000000000815260040161227490614216565b60405180910390fd5b50612289838383612773565b5b505050565b6060600082036122d6576040518060400160405280600181526020017f300000000000000000000000000000000000000000000000000000000000000081525090506123ea565b600082905060005b600082146123085780806122f190613437565b915050600a826123019190613bec565b91506122de565b60008167ffffffffffffffff81111561232457612323612c96565b5b6040519080825280601f01601f1916602001820160405280156123565781602001600182028036833780820191505090505b5090505b600085146123e35760018261236f9190613403565b9150600a8561237e9190614236565b603061238a9190613738565b60f81b8183815181106123a05761239f6133a5565b5b60200101907effffffffffffffffffffffffffffffffffffffffffffffffffffffffffffff1916908160001a905350600a856123dc9190613bec565b945061235a565b8093505050505b919050565b60006123fa3061279f565b15905090565b60007f01ffc9a7000000000000000000000000000000000000000000000000000000007bffffffffffffffffffffffffffffffffffffffffffffffffffffffff1916827bffffffffffffffffffffffffffffffffffffffffffffffffffffffff1916149050919050565b60606000600283600261247d9190613c1d565b6124879190613738565b67ffffffffffffffff8111156124a05761249f612c96565b5b6040519080825280601f01601f1916602001820160405280156124d25781602001600182028036833780820191505090505b5090507f30000000000000000000000000000000000000000000000000000000000000008160008151811061250a576125096133a5565b5b60200101907effffffffffffffffffffffffffffffffffffffffffffffffffffffffffffff1916908160001a9053507f78000000000000000000000000000000000000000000000000000000000000008160018151811061256e5761256d6133a5565b5b60200101907effffffffffffffffffffffffffffffffffffffffffffffffffffffffffffff1916908160001a905350600060018460026125ae9190613c1d565b6125b89190613738565b90505b6001811115612658577f3031323334353637383961626364656600000000000000000000000000000000600f8616601081106125fa576125f96133a5565b5b1a60f81b828281518110612611576126106133a5565b5b60200101907effffffffffffffffffffffffffffffffffffffffffffffffffffffffffffff1916908160001a905350600485901c94508061265190614267565b90506125bb565b506000841461269c576040517f08c379a0000000000000000000000000000000000000000000000000000000008152600401612693906142dc565b60405180910390fd5b8091505092915050565b6000819050919050565b6000819050919050565b6126c38161279f565b612702576040517f08c379a00000000000000000000000000000000000000000000000000000000081526004016126f99061436e565b60405180910390fd5b8061272f7f360894a13ba1a3210667c828492db98dca3e2076cc3735a920a3ca505d382bbc60001b6126a6565b60000160006101000a81548173ffffffffffffffffffffffffffffffffffffffff021916908373ffffffffffffffffffffffffffffffffffffffff16021790555050565b61277c836127c2565b6000825111806127895750805b1561279a576127988383612811565b505b505050565b6000808273ffffffffffffffffffffffffffffffffffffffff163b119050919050565b6127cb816126ba565b8073ffffffffffffffffffffffffffffffffffffffff167fbc7cd75a20ee27fd9adebab32041f755214dbc6bffa90cc0225b39da2e5c2d3b60405160405180910390a250565b606061281c8361279f565b61285b576040517f08c379a000000000000000000000000000000000000000000000000000000000815260040161285290614400565b60405180910390fd5b6000808473ffffffffffffffffffffffffffffffffffffffff1684604051612883919061445c565b600060405180830381855af49150503d80600081146128be576040519150601f19603f3d011682016040523d82523d6000602084013e6128c3565b606091505b50915091506128eb8282604051806060016040528060278152602001614474602791396128f5565b9250505092915050565b6060831561290557829050612955565b6000835111156129185782518084602001fd5b816040517f08c379a000000000000000000000000000000000000000000000000000000000815260040161294c91906138d5565b60405180910390fd5b9392505050565b6000604051905090565b600080fd5b600080fd5b60007fffffffff0000000000000000000000000000000000000000000000000000000082169050919050565b6129a581612970565b81146129b057600080fd5b50565b6000813590506129c28161299c565b92915050565b6000602082840312156129de576129dd612966565b5b60006129ec848285016129b3565b91505092915050565b60008115159050919050565b612a0a816129f5565b82525050565b6000602082019050612a256000830184612a01565b92915050565b6000819050919050565b612a3e81612a2b565b82525050565b6000602082019050612a596000830184612a35565b92915050565b612a6881612a2b565b8114612a7357600080fd5b50565b600081359050612a8581612a5f565b92915050565b600060208284031215612aa157612aa0612966565b5b6000612aaf84828501612a76565b91505092915050565b6000819050919050565b612acb81612ab8565b8114612ad657600080fd5b50565b600081359050612ae881612ac2565b92915050565b600060208284031215612b0457612b03612966565b5b6000612b1284828501612ad9565b91505092915050565b612b2481612ab8565b82525050565b6000602082019050612b3f6000830184612b1b565b92915050565b600073ffffffffffffffffffffffffffffffffffffffff82169050919050565b6000612b7082612b45565b9050919050565b612b8081612b65565b8114612b8b57600080fd5b50565b600081359050612b9d81612b77565b92915050565b60008060408385031215612bba57612bb9612966565b5b6000612bc885828601612ad9565b9250506020612bd985828601612b8e565b9150509250929050565b600060208284031215612bf957612bf8612966565b5b6000612c0784828501612b8e565b91505092915050565b6000612c1b82612b65565b9050919050565b612c2b81612c10565b8114612c3657600080fd5b50565b600081359050612c4881612c22565b92915050565b600060208284031215612c6457612c63612966565b5b6000612c7284828501612c39565b91505092915050565b600080fd5b600080fd5b6000601f19601f8301169050919050565b7f4e487b7100000000000000000000000000000000000000000000000000000000600052604160045260246000fd5b612cce82612c85565b810181811067ffffffffffffffff82111715612ced57612cec612c96565b5b80604052505050565b6000612d0061295c565b9050612d0c8282612cc5565b919050565b600067ffffffffffffffff821115612d2c57612d2b612c96565b5b612d3582612c85565b9050602081019050919050565b82818337600083830152505050565b6000612d64612d5f84612d11565b612cf6565b905082815260208101848484011115612d8057612d7f612c80565b5b612d8b848285612d42565b509392505050565b600082601f830112612da857612da7612c7b565b5b8135612db8848260208601612d51565b91505092915050565b60008060408385031215612dd857612dd7612966565b5b6000612de685828601612b8e565b925050602083013567ffffffffffffffff811115612e0757612e0661296b565b5b612e1385828601612d93565b9150509250929050565b60008060008060808587031215612e3757612e36612966565b5b6000612e4587828801612c39565b9450506020612e5687828801612a76565b9350506040612e6787828801612a76565b9250506060612e7887828801612a76565b91505092959194509250565b60008060408385031215612e9b57612e9a612966565b5b6000612ea985828601612b8e565b9250506020612eba85828601612a76565b9150509250929050565b600081519050919050565b600082825260208201905092915050565b6000819050602082019050919050565b6000819050919050565b6000612f15612f10612f0b84612b45565b612ef0565b612b45565b9050919050565b6000612f2782612efa565b9050919050565b6000612f3982612f1c565b9050919050565b612f4981612f2e565b82525050565b6000612f5b8383612f40565b60208301905092915050565b6000602082019050919050565b6000612f7f82612ec4565b612f898185612ecf565b9350612f9483612ee0565b8060005b83811015612fc5578151612fac8882612f4f565b9750612fb783612f67565b925050600181019050612f98565b5085935050505092915050565b60006020820190508181036000830152612fec8184612f74565b905092915050565b6000806040838503121561300b5761300a612966565b5b600061301985828601612c39565b925050602061302a85828601612a76565b9150509250929050565b6000806040838503121561304b5761304a612966565b5b600061305985828601612a76565b925050602061306a85828601612a76565b9150509250929050565b600082825260208201905092915050565b7f4e667445786368616e67653a204d696e206475726174696f6e206572726f7221600082015250565b60006130bb602083613074565b91506130c682613085565b602082019050919050565b600060208201905081810360008301526130ea816130ae565b9050919050565b7f4e667445786368616e67653a204d696e206475726174696f6e2073686f756c6460008201527f206265206c657373207468616e20746865206d6178206475726174696f6e2100602082015250565b600061314d603f83613074565b9150613158826130f1565b604082019050919050565b6000602082019050818103600083015261317c81613140565b9050919050565b7f416363657373436f6e74726f6c3a2063616e206f6e6c792072656e6f756e636560008201527f20726f6c657320666f722073656c660000000000000000000000000000000000602082015250565b60006131df602f83613074565b91506131ea82613183565b604082019050919050565b6000602082019050818103600083015261320e816131d2565b9050919050565b7f46756e6374696f6e206d7573742062652063616c6c6564207468726f7567682060008201527f64656c656761746563616c6c0000000000000000000000000000000000000000602082015250565b6000613271602c83613074565b915061327c82613215565b604082019050919050565b600060208201905081810360008301526132a081613264565b9050919050565b7f46756e6374696f6e206d7573742062652063616c6c6564207468726f7567682060008201527f6163746976652070726f78790000000000000000000000000000000000000000602082015250565b6000613303602c83613074565b915061330e826132a7565b604082019050919050565b60006020820190508181036000830152613332816132f6565b9050919050565b7f746865206e6674436f6465206973206e6f7420696e20636f6465206c6973742e600082015250565b600061336f602083613074565b915061337a82613339565b602082019050919050565b6000602082019050818103600083015261339e81613362565b9050919050565b7f4e487b7100000000000000000000000000000000000000000000000000000000600052603260045260246000fd5b7f4e487b7100000000000000000000000000000000000000000000000000000000600052601160045260246000fd5b600061340e82612a2b565b915061341983612a2b565b92508282101561342c5761342b6133d4565b5b828203905092915050565b600061344282612a2b565b91507fffffffffffffffffffffffffffffffffffffffffffffffffffffffffffffffff8203613474576134736133d4565b5b600182019050919050565b7f4e487b7100000000000000000000000000000000000000000000000000000000600052603160045260246000fd5b7f555550535570677261646561626c653a206d757374206e6f742062652063616c60008201527f6c6564207468726f7567682064656c656761746563616c6c0000000000000000602082015250565b600061350a603883613074565b9150613515826134ae565b604082019050919050565b60006020820190508181036000830152613539816134fd565b9050919050565b7f746865206e6674436f646520697320616c726561647920696e20636f6465206c60008201527f6973742e00000000000000000000000000000000000000000000000000000000602082015250565b600061359c602483613074565b91506135a782613540565b604082019050919050565b600060208201905081810360008301526135cb8161358f565b9050919050565b7f706c656173652061646420746865206e6674436f646520696e2074686520636f60008201527f6465206c6973742066697273742e000000000000000000000000000000000000602082015250565b600061362e602e83613074565b9150613639826135d2565b604082019050919050565b6000602082019050818103600083015261365d81613621565b9050919050565b60008151905061367381612b77565b92915050565b60006020828403121561368f5761368e612966565b5b600061369d84828501613664565b91505092915050565b7f4e667445786368616e67653a2073656c6c6572206973206e6f74206e6674206f60008201527f776e657200000000000000000000000000000000000000000000000000000000602082015250565b6000613702602483613074565b915061370d826136a6565b604082019050919050565b60006020820190508181036000830152613731816136f5565b9050919050565b600061374382612a2b565b915061374e83612a2b565b9250827fffffffffffffffffffffffffffffffffffffffffffffffffffffffffffffffff03821115613783576137826133d4565b5b828201905092915050565b600081905092915050565b7f4e667445786368616e67653a206f66665368656c6654696d65206174206c656160008201527f7374202000000000000000000000000000000000000000000000000000000000602082015250565b60006137f560248361378e565b915061380082613799565b602482019050919050565b600081519050919050565b60005b83811015613834578082015181840152602081019050613819565b83811115613843576000848401525b50505050565b60006138548261380b565b61385e818561378e565b935061386e818560208601613816565b80840191505092915050565b6000613885826137e8565b91506138918284613849565b915081905092915050565b60006138a78261380b565b6138b18185613074565b93506138c1818560208601613816565b6138ca81612c85565b840191505092915050565b600060208201905081810360008301526138ef818461389c565b905092915050565b7f4e667445786368616e67653a206475726174696f6e206e6f7420696e20000000600082015250565b600061392d601d8361378e565b9150613938826138f7565b601d82019050919050565b7f2d00000000000000000000000000000000000000000000000000000000000000600082015250565b600061397960018361378e565b915061398482613943565b600182019050919050565b600061399a82613920565b91506139a68285613849565b91506139b18261396c565b91506139bd8284613849565b91508190509392505050565b7f7072696365206d617820697320393939392e3939393900000000000000000000600082015250565b60006139ff601683613074565b9150613a0a826139c9565b602082019050919050565b60006020820190508181036000830152613a2e816139f2565b9050919050565b613a3e81612b65565b82525050565b600060a082019050613a596000830188613a35565b613a666020830187613a35565b613a736040830186612a35565b613a806060830185612a35565b613a8d6080830184612a35565b9695505050505050565b7f4e667445786368616e67653a206e6674206e6f74206f6e20746865207368656c60008201527f6621000000000000000000000000000000000000000000000000000000000000602082015250565b6000613af3602283613074565b9150613afe82613a97565b604082019050919050565b60006020820190508181036000830152613b2281613ae6565b9050919050565b7f4e667445786368616e67653a2076616c7565205175616e74697479206c65737360008201527f207468616e200000000000000000000000000000000000000000000000000000602082015250565b6000613b8560268361378e565b9150613b9082613b29565b602682019050919050565b6000613ba682613b78565b9150613bb28284613849565b915081905092915050565b7f4e487b7100000000000000000000000000000000000000000000000000000000600052601260045260246000fd5b6000613bf782612a2b565b9150613c0283612a2b565b925082613c1257613c11613bbd565b5b828204905092915050565b6000613c2882612a2b565b9150613c3383612a2b565b9250817fffffffffffffffffffffffffffffffffffffffffffffffffffffffffffffffff0483118215151615613c6c57613c6b6133d4565b5b828202905092915050565b600081905092915050565b50565b6000613c92600083613c77565b9150613c9d82613c82565b600082019050919050565b6000613cb382613c85565b9150819050919050565b7f4e667445786368616e67653a207061796d656e74206661696c75726521000000600082015250565b6000613cf3601d83613074565b9150613cfe82613cbd565b602082019050919050565b60006020820190508181036000830152613d2281613ce6565b9050919050565b6000606082019050613d3e6000830186613a35565b613d4b6020830185613a35565b613d586040830184612a35565b949350505050565b600060a082019050613d756000830188613a35565b613d826020830187613a35565b613d8f6040830186613a35565b613d9c6060830185612a35565b613da96080830184612a35565b9695505050505050565b7f4e667445786368616e67653a204d6178206475726174696f6e206572726f7221600082015250565b6000613de9602083613074565b9150613df482613db3565b602082019050919050565b60006020820190508181036000830152613e1881613ddc565b9050919050565b7f4e667445786368616e67653a204d6178206475726174696f6e2073686f756c6460008201527f2062652067726561746572207468616e20746865206d696e206475726174696f60208201527f6e21000000000000000000000000000000000000000000000000000000000000604082015250565b6000613ea1604283613074565b9150613eac82613e1f565b606082019050919050565b60006020820190508181036000830152613ed081613e94565b9050919050565b7f496e697469616c697a61626c653a20636f6e747261637420697320616c72656160008201527f647920696e697469616c697a6564000000000000000000000000000000000000602082015250565b6000613f33602e83613074565b9150613f3e82613ed7565b604082019050919050565b60006020820190508181036000830152613f6281613f26565b9050919050565b7f4e667445786368616e67653a207769746864726177206572726f722100000000600082015250565b6000613f9f601c83613074565b9150613faa82613f69565b602082019050919050565b60006020820190508181036000830152613fce81613f92565b9050919050565b6000604082019050613fea6000830185613a35565b613ff76020830184612a35565b9392505050565b7f416363657373436f6e74726f6c3a206163636f756e7420000000000000000000600082015250565b600061403460178361378e565b915061403f82613ffe565b601782019050919050565b7f206973206d697373696e6720726f6c6520000000000000000000000000000000600082015250565b600061408060118361378e565b915061408b8261404a565b601182019050919050565b60006140a182614027565b91506140ad8285613849565b91506140b882614073565b91506140c48284613849565b91508190509392505050565b6000815190506140df81612ac2565b92915050565b6000602082840312156140fb576140fa612966565b5b6000614109848285016140d0565b91505092915050565b7f45524331393637557067726164653a206e657720696d706c656d656e7461746960008201527f6f6e206973206e6f742055555053000000000000000000000000000000000000602082015250565b600061416e602e83613074565b915061417982614112565b604082019050919050565b6000602082019050818103600083015261419d81614161565b9050919050565b7f45524331393637557067726164653a20756e737570706f727465642070726f7860008201527f6961626c65555549440000000000000000000000000000000000000000000000602082015250565b6000614200602983613074565b915061420b826141a4565b604082019050919050565b6000602082019050818103600083015261422f816141f3565b9050919050565b600061424182612a2b565b915061424c83612a2b565b92508261425c5761425b613bbd565b5b828206905092915050565b600061427282612a2b565b915060008203614285576142846133d4565b5b600182039050919050565b7f537472696e67733a20686578206c656e67746820696e73756666696369656e74600082015250565b60006142c6602083613074565b91506142d182614290565b602082019050919050565b600060208201905081810360008301526142f5816142b9565b9050919050565b7f455243313936373a206e657720696d706c656d656e746174696f6e206973206e60008201527f6f74206120636f6e747261637400000000000000000000000000000000000000602082015250565b6000614358602d83613074565b9150614363826142fc565b604082019050919050565b600060208201905081810360008301526143878161434b565b9050919050565b7f416464726573733a2064656c65676174652063616c6c20746f206e6f6e2d636f60008201527f6e74726163740000000000000000000000000000000000000000000000000000602082015250565b60006143ea602683613074565b91506143f58261438e565b604082019050919050565b60006020820190508181036000830152614419816143dd565b9050919050565b600081519050919050565b600061443682614420565b6144408185613c77565b9350614450818560208601613816565b80840191505092915050565b6000614468828461442b565b91508190509291505056fe416464726573733a206c6f772d6c6576656c2064656c65676174652063616c6c206661696c6564a2646970667358221220ae9f85249085f89a2d21695211b7ab1fb08ef0cfc5e0a9b13ccd1b840137cb8f64736f6c634300080d0033",
  "immutableReferences": {
    "895": [
      {
        "length": 32,
        "start": 2065
      },
      {
        "length": 32,
        "start": 2207
      },
      {
        "length": 32,
        "start": 3145
      },
      {
        "length": 32,
        "start": 3287
      },
      {
        "length": 32,
        "start": 3463
      }
    ]
  },
  "source": "// SPDX-License-Identifier: MIT\r\npragma solidity ^0.8.2;\r\n\r\nimport \"@openzeppelin/contracts-upgradeable/access/AccessControlUpgradeable.sol\";\r\nimport \"@openzeppelin/contracts-upgradeable/proxy/utils/Initializable.sol\";\r\nimport \"@openzeppelin/contracts-upgradeable/proxy/utils/UUPSUpgradeable.sol\";\r\nimport \"@openzeppelin/contracts/token/ERC721/IERC721.sol\";\r\nimport \"@openzeppelin/contracts/utils/Strings.sol\";\r\n\r\ncontract NftExchange is\r\n    Initializable,\r\n    AccessControlUpgradeable,\r\n    UUPSUpgradeable\r\n{\r\n    bytes32 public constant EXADMIN_ROLE = keccak256(\"EXADMIN_ROLE\");\r\n    bytes32 public constant WITHDRAW_ROLE = keccak256(\"WITHDRAW_ROLE\");\r\n    bytes32 public constant UPGRADER_ROLE = keccak256(\"UPGRADER_ROLE\");\r\n\r\n    IERC721[] private _nftCodes;\r\n    mapping(address => bool) _isInCodeList;\r\n    uint256 private _minDuration;\r\n    uint256 private _maxDuration;\r\n    mapping(address => mapping(uint256 => uint256)) private _offShelfTime;\r\n    mapping(address => mapping(uint256 => uint256)) private _prices;\r\n\r\n    function getVersion() public pure returns (uint256 version) {\r\n        return 1;\r\n    }\r\n\r\n    function _authorizeUpgrade(address newImplementation)\r\n        internal\r\n        override\r\n        onlyRole(UPGRADER_ROLE)\r\n    {}\r\n\r\n    // minDuration = 86400\r\n    // maxDuration = 15552000\r\n    function initialize(uint256 minDuration, uint256 maxDuration)\r\n        public\r\n        initializer\r\n    {\r\n        _minDuration = minDuration;\r\n        _maxDuration = maxDuration;\r\n\r\n        _grantRole(DEFAULT_ADMIN_ROLE, msg.sender);\r\n        _grantRole(EXADMIN_ROLE, msg.sender);\r\n        _grantRole(WITHDRAW_ROLE, msg.sender);\r\n        _grantRole(UPGRADER_ROLE, msg.sender);\r\n    }\r\n\r\n    function supportsInterface(bytes4 interfaceId)\r\n        public\r\n        view\r\n        override(AccessControlUpgradeable)\r\n        returns (bool)\r\n    {\r\n        return super.supportsInterface(interfaceId);\r\n    }\r\n\r\n    event DoneOnShelf(\r\n        address owner,\r\n        address nftCode,\r\n        uint256 tokenId,\r\n        uint256 price,\r\n        uint256 timestamps\r\n    );\r\n    event DonePurchase(\r\n        address from,\r\n        address to,\r\n        address nftCode,\r\n        uint256 tokenId,\r\n        uint256 price\r\n    );\r\n    event DoneWithdraw(address to, uint256 amount);\r\n\r\n    function setMinDuration(uint256 duration) public onlyRole(EXADMIN_ROLE) {\r\n        require(duration <= 8640000000, \"NftExchange: Min duration error!\");\r\n        require(\r\n            duration < getMaxDuration(),\r\n            \"NftExchange: Min duration should be less than the max duration!\"\r\n        );\r\n        _minDuration = duration;\r\n    }\r\n\r\n    function getMinDuration() public view returns (uint256 duration) {\r\n        return _minDuration;\r\n    }\r\n\r\n    function setMaxDuration(uint256 duration) public onlyRole(EXADMIN_ROLE) {\r\n        require(duration <= 8640000000, \"NftExchange: Max duration error!\");\r\n        require(\r\n            duration > getMinDuration(),\r\n            \"NftExchange: Max duration should be greater than the min duration!\"\r\n        );\r\n        _maxDuration = duration;\r\n    }\r\n\r\n    function getMaxDuration() public view returns (uint256 duration) {\r\n        return _maxDuration;\r\n    }\r\n\r\n    function addNftCode(IERC721 nftCode) public onlyRole(EXADMIN_ROLE) {\r\n        require(\r\n            !_isInCodeList[address(nftCode)],\r\n            \"the nftCode is already in code list.\"\r\n        );\r\n\r\n        _nftCodes.push(nftCode);\r\n        _isInCodeList[address(nftCode)] = true;\r\n    }\r\n\r\n    function rmNftCode(IERC721 nftCode) public onlyRole(EXADMIN_ROLE) {\r\n        require(\r\n            _isInCodeList[address(nftCode)],\r\n            \"the nftCode is not in code list.\"\r\n        );\r\n\r\n        bool finded = false;\r\n        for (uint256 i = 0; i < _nftCodes.length; i++) {\r\n            if (finded) {\r\n                _nftCodes[i - 1] = _nftCodes[i];\r\n            } else if (_nftCodes[i] == nftCode) {\r\n                finded = true;\r\n            }\r\n        }\r\n        _nftCodes.pop();\r\n        _isInCodeList[address(nftCode)] = false;\r\n    }\r\n\r\n    function getNftCodes() public view returns (IERC721[] memory nftCodes) {\r\n        return _nftCodes;\r\n    }\r\n\r\n    function getOffShelfTime(address nftCode, uint256 tokenId)\r\n        public\r\n        view\r\n        returns (uint256 offShelfTime)\r\n    {\r\n        return _offShelfTime[nftCode][tokenId];\r\n    }\r\n\r\n    function getPrices(address nftCode, uint256 tokenId)\r\n        public\r\n        view\r\n        returns (uint256 price)\r\n    {\r\n        return _prices[nftCode][tokenId];\r\n    }\r\n\r\n    function withdraw(address to, uint256 amount)\r\n        public\r\n        onlyRole(WITHDRAW_ROLE)\r\n    {\r\n        // require(amount <= address(this).balance, \"NftExchange: withdraw amount error!\");\r\n        (bool success, ) = to.call{value: amount}(\"\");\r\n        require(success, \"NftExchange: withdraw error!\");\r\n\r\n        emit DoneWithdraw(msg.sender, amount);\r\n    }\r\n\r\n    function sell(\r\n        IERC721 nftCode,\r\n        uint256 tokenId,\r\n        uint256 price,\r\n        uint256 offShelfTime\r\n    ) public {\r\n        require(\r\n            _isInCodeList[address(nftCode)],\r\n            \"please add the nftCode in the code list first.\"\r\n        );\r\n        address owner = nftCode.ownerOf(tokenId);\r\n        require(msg.sender == owner, \"NftExchange: seller is not nft owner\");\r\n        require(\r\n            offShelfTime >= getMinDuration() + block.timestamp,\r\n            string(\r\n                abi.encodePacked(\r\n                    \"NftExchange: offShelfTime at least  \",\r\n                    Strings.toString(getMinDuration() + block.timestamp)\r\n                )\r\n            )\r\n        );\r\n        uint256 duration = offShelfTime - block.timestamp;\r\n        require(\r\n            duration >= getMinDuration() && duration <= getMaxDuration(),\r\n            string(\r\n                abi.encodePacked(\r\n                    \"NftExchange: duration not in \",\r\n                    Strings.toString(getMinDuration()),\r\n                    \"-\",\r\n                    Strings.toString(getMaxDuration())\r\n                )\r\n            )\r\n        );\r\n        require(price <= 9999999900000000000000, \"price max is 9999.9999\");\r\n        _offShelfTime[address(nftCode)][tokenId] = offShelfTime;\r\n        _prices[address(nftCode)][tokenId] = price;\r\n        emit DoneOnShelf(\r\n            owner,\r\n            address(nftCode),\r\n            tokenId,\r\n            price,\r\n            _offShelfTime[address(nftCode)][tokenId]\r\n        );\r\n    }\r\n\r\n    function buy(IERC721 nftCode, uint256 tokenId) public payable {\r\n        require(\r\n            _isInCodeList[address(nftCode)],\r\n            \"please add the nftCode in the code list first.\"\r\n        );\r\n        require(\r\n            block.timestamp <= getOffShelfTime(address(nftCode), tokenId),\r\n            \"NftExchange: nft not on the shelf!\"\r\n        );\r\n        uint256 price = _prices[address(nftCode)][tokenId];\r\n        require(\r\n            msg.value >= price,\r\n            string(\r\n                abi.encodePacked(\r\n                    \"NftExchange: value Quantity less than \",\r\n                    Strings.toString(price)\r\n                )\r\n            )\r\n        );\r\n        address from = nftCode.ownerOf(tokenId);\r\n\r\n        uint256 harvest = (price / 100) * 98;\r\n        (bool success, ) = from.call{value: harvest}(\"\");\r\n        require(success, \"NftExchange: payment failure!\");\r\n        nftCode.safeTransferFrom(from, msg.sender, tokenId);\r\n\r\n        _offShelfTime[address(nftCode)][tokenId] = 0;\r\n        emit DonePurchase(from, msg.sender, address(nftCode), tokenId, price);\r\n    }\r\n}\r\n",
  "sourcePath": "D:\\linden\\eth-contracts\\nftExchange\\contracts\\NftExchange.sol",
  "compiler": {
    "name": "solc",
    "version": "0.8.13+commit.abaa5c0e.Emscripten.clang"
  },
  "schemaVersion": "3.4.7",
  "updatedAt": "2022-07-08T10:00:07.969Z",
  "networkType": "ethereum",
  "devdoc": {
    "kind": "dev",
    "methods": {
      "getRoleAdmin(bytes32)": {
        "details": "Returns the admin role that controls `role`. See {grantRole} and {revokeRole}. To change a role's admin, use {_setRoleAdmin}."
      },
      "grantRole(bytes32,address)": {
        "details": "Grants `role` to `account`. If `account` had not been already granted `role`, emits a {RoleGranted} event. Requirements: - the caller must have ``role``'s admin role."
      },
      "hasRole(bytes32,address)": {
        "details": "Returns `true` if `account` has been granted `role`."
      },
      "proxiableUUID()": {
        "details": "Implementation of the ERC1822 {proxiableUUID} function. This returns the storage slot used by the implementation. It is used to validate that the this implementation remains valid after an upgrade. IMPORTANT: A proxy pointing at a proxiable contract should not be considered proxiable itself, because this risks bricking a proxy that upgrades to it, by delegating to itself until out of gas. Thus it is critical that this function revert if invoked through a proxy. This is guaranteed by the `notDelegated` modifier."
      },
      "renounceRole(bytes32,address)": {
        "details": "Revokes `role` from the calling account. Roles are often managed via {grantRole} and {revokeRole}: this function's purpose is to provide a mechanism for accounts to lose their privileges if they are compromised (such as when a trusted device is misplaced). If the calling account had been revoked `role`, emits a {RoleRevoked} event. Requirements: - the caller must be `account`."
      },
      "revokeRole(bytes32,address)": {
        "details": "Revokes `role` from `account`. If `account` had been granted `role`, emits a {RoleRevoked} event. Requirements: - the caller must have ``role``'s admin role."
      },
      "supportsInterface(bytes4)": {
        "details": "See {IERC165-supportsInterface}."
      },
      "upgradeTo(address)": {
        "details": "Upgrade the implementation of the proxy to `newImplementation`. Calls {_authorizeUpgrade}. Emits an {Upgraded} event."
      },
      "upgradeToAndCall(address,bytes)": {
        "details": "Upgrade the implementation of the proxy to `newImplementation`, and subsequently execute the function call encoded in `data`. Calls {_authorizeUpgrade}. Emits an {Upgraded} event."
      }
    },
    "version": 1
  },
  "userdoc": {
    "kind": "user",
    "methods": {},
    "version": 1
  }
}