{
  "contractName": "NftExchange",
  "abi": [
    {
      "anonymous": false,
      "inputs": [
        {
          "indexed": false,
          "internalType": "address",
          "name": "previousAdmin",
          "type": "address"
        },
        {
          "indexed": false,
          "internalType": "address",
          "name": "newAdmin",
          "type": "address"
        }
      ],
      "name": "AdminChanged",
      "type": "event"
    },
    {
      "anonymous": false,
      "inputs": [
        {
          "indexed": true,
          "internalType": "address",
          "name": "beacon",
          "type": "address"
        }
      ],
      "name": "BeaconUpgraded",
      "type": "event"
    },
    {
      "anonymous": false,
      "inputs": [
        {
          "indexed": false,
          "internalType": "address",
          "name": "owner",
          "type": "address"
        },
        {
          "indexed": false,
          "internalType": "address",
          "name": "nftCode",
          "type": "address"
        },
        {
          "indexed": false,
          "internalType": "uint256",
          "name": "tokenId",
          "type": "uint256"
        },
        {
          "indexed": false,
          "internalType": "uint256",
          "name": "price",
          "type": "uint256"
        },
        {
          "indexed": false,
          "internalType": "uint256",
          "name": "timestamps",
          "type": "uint256"
        }
      ],
      "name": "DoneOnShelf",
      "type": "event"
    },
    {
      "anonymous": false,
      "inputs": [
        {
          "indexed": false,
          "internalType": "address",
          "name": "from",
          "type": "address"
        },
        {
          "indexed": false,
          "internalType": "address",
          "name": "to",
          "type": "address"
        },
        {
          "indexed": false,
          "internalType": "address",
          "name": "nftCode",
          "type": "address"
        },
        {
          "indexed": false,
          "internalType": "uint256",
          "name": "tokenId",
          "type": "uint256"
        },
        {
          "indexed": false,
          "internalType": "uint256",
          "name": "price",
          "type": "uint256"
        }
      ],
      "name": "DonePurchase",
      "type": "event"
    },
    {
      "anonymous": false,
      "inputs": [
        {
          "indexed": false,
          "internalType": "address",
          "name": "to",
          "type": "address"
        },
        {
          "indexed": false,
          "internalType": "uint256",
          "name": "amount",
          "type": "uint256"
        }
      ],
      "name": "DoneWithdraw",
      "type": "event"
    },
    {
      "anonymous": false,
      "inputs": [
        {
          "indexed": false,
          "internalType": "uint8",
          "name": "version",
          "type": "uint8"
        }
      ],
      "name": "Initialized",
      "type": "event"
    },
    {
      "anonymous": false,
      "inputs": [
        {
          "indexed": true,
          "internalType": "bytes32",
          "name": "role",
          "type": "bytes32"
        },
        {
          "indexed": true,
          "internalType": "bytes32",
          "name": "previousAdminRole",
          "type": "bytes32"
        },
        {
          "indexed": true,
          "internalType": "bytes32",
          "name": "newAdminRole",
          "type": "bytes32"
        }
      ],
      "name": "RoleAdminChanged",
      "type": "event"
    },
    {
      "anonymous": false,
      "inputs": [
        {
          "indexed": true,
          "internalType": "bytes32",
          "name": "role",
          "type": "bytes32"
        },
        {
          "indexed": true,
          "internalType": "address",
          "name": "account",
          "type": "address"
        },
        {
          "indexed": true,
          "internalType": "address",
          "name": "sender",
          "type": "address"
        }
      ],
      "name": "RoleGranted",
      "type": "event"
    },
    {
      "anonymous": false,
      "inputs": [
        {
          "indexed": true,
          "internalType": "bytes32",
          "name": "role",
          "type": "bytes32"
        },
        {
          "indexed": true,
          "internalType": "address",
          "name": "account",
          "type": "address"
        },
        {
          "indexed": true,
          "internalType": "address",
          "name": "sender",
          "type": "address"
        }
      ],
      "name": "RoleRevoked",
      "type": "event"
    },
    {
      "anonymous": false,
      "inputs": [
        {
          "indexed": true,
          "internalType": "address",
          "name": "implementation",
          "type": "address"
        }
      ],
      "name": "Upgraded",
      "type": "event"
    },
    {
      "inputs": [],
      "name": "DEFAULT_ADMIN_ROLE",
      "outputs": [
        {
          "internalType": "bytes32",
          "name": "",
          "type": "bytes32"
        }
      ],
      "stateMutability": "view",
      "type": "function"
    },
    {
      "inputs": [],
      "name": "EXADMIN_ROLE",
      "outputs": [
        {
          "internalType": "bytes32",
          "name": "",
          "type": "bytes32"
        }
      ],
      "stateMutability": "view",
      "type": "function"
    },
    {
      "inputs": [],
      "name": "UPGRADER_ROLE",
      "outputs": [
        {
          "internalType": "bytes32",
          "name": "",
          "type": "bytes32"
        }
      ],
      "stateMutability": "view",
      "type": "function"
    },
    {
      "inputs": [],
      "name": "WITHDRAW_ROLE",
      "outputs": [
        {
          "internalType": "bytes32",
          "name": "",
          "type": "bytes32"
        }
      ],
      "stateMutability": "view",
      "type": "function"
    },
    {
      "inputs": [
        {
          "internalType": "bytes32",
          "name": "role",
          "type": "bytes32"
        }
      ],
      "name": "getRoleAdmin",
      "outputs": [
        {
          "internalType": "bytes32",
          "name": "",
          "type": "bytes32"
        }
      ],
      "stateMutability": "view",
      "type": "function"
    },
    {
      "inputs": [
        {
          "internalType": "bytes32",
          "name": "role",
          "type": "bytes32"
        },
        {
          "internalType": "address",
          "name": "account",
          "type": "address"
        }
      ],
      "name": "grantRole",
      "outputs": [],
      "stateMutability": "nonpayable",
      "type": "function"
    },
    {
      "inputs": [
        {
          "internalType": "bytes32",
          "name": "role",
          "type": "bytes32"
        },
        {
          "internalType": "address",
          "name": "account",
          "type": "address"
        }
      ],
      "name": "hasRole",
      "outputs": [
        {
          "internalType": "bool",
          "name": "",
          "type": "bool"
        }
      ],
      "stateMutability": "view",
      "type": "function"
    },
    {
      "inputs": [],
      "name": "proxiableUUID",
      "outputs": [
        {
          "internalType": "bytes32",
          "name": "",
          "type": "bytes32"
        }
      ],
      "stateMutability": "view",
      "type": "function"
    },
    {
      "inputs": [
        {
          "internalType": "bytes32",
          "name": "role",
          "type": "bytes32"
        },
        {
          "internalType": "address",
          "name": "account",
          "type": "address"
        }
      ],
      "name": "renounceRole",
      "outputs": [],
      "stateMutability": "nonpayable",
      "type": "function"
    },
    {
      "inputs": [
        {
          "internalType": "bytes32",
          "name": "role",
          "type": "bytes32"
        },
        {
          "internalType": "address",
          "name": "account",
          "type": "address"
        }
      ],
      "name": "revokeRole",
      "outputs": [],
      "stateMutability": "nonpayable",
      "type": "function"
    },
    {
      "inputs": [
        {
          "internalType": "address",
          "name": "newImplementation",
          "type": "address"
        }
      ],
      "name": "upgradeTo",
      "outputs": [],
      "stateMutability": "nonpayable",
      "type": "function"
    },
    {
      "inputs": [
        {
          "internalType": "address",
          "name": "newImplementation",
          "type": "address"
        },
        {
          "internalType": "bytes",
          "name": "data",
          "type": "bytes"
        }
      ],
      "name": "upgradeToAndCall",
      "outputs": [],
      "stateMutability": "payable",
      "type": "function"
    },
    {
      "inputs": [],
      "name": "getVersion",
      "outputs": [
        {
          "internalType": "uint256",
          "name": "version",
          "type": "uint256"
        }
      ],
      "stateMutability": "pure",
      "type": "function"
    },
    {
      "inputs": [
        {
          "internalType": "uint256",
          "name": "minDuration",
          "type": "uint256"
        },
        {
          "internalType": "uint256",
          "name": "maxDuration",
          "type": "uint256"
        }
      ],
      "name": "initialize",
      "outputs": [],
      "stateMutability": "nonpayable",
      "type": "function"
    },
    {
      "inputs": [
        {
          "internalType": "bytes4",
          "name": "interfaceId",
          "type": "bytes4"
        }
      ],
      "name": "supportsInterface",
      "outputs": [
        {
          "internalType": "bool",
          "name": "",
          "type": "bool"
        }
      ],
      "stateMutability": "view",
      "type": "function"
    },
    {
      "inputs": [
        {
          "internalType": "uint256",
          "name": "duration",
          "type": "uint256"
        }
      ],
      "name": "setMinDuration",
      "outputs": [],
      "stateMutability": "nonpayable",
      "type": "function"
    },
    {
      "inputs": [],
      "name": "getMinDuration",
      "outputs": [
        {
          "internalType": "uint256",
          "name": "duration",
          "type": "uint256"
        }
      ],
      "stateMutability": "view",
      "type": "function"
    },
    {
      "inputs": [
        {
          "internalType": "uint256",
          "name": "duration",
          "type": "uint256"
        }
      ],
      "name": "setMaxDuration",
      "outputs": [],
      "stateMutability": "nonpayable",
      "type": "function"
    },
    {
      "inputs": [],
      "name": "getMaxDuration",
      "outputs": [
        {
          "internalType": "uint256",
          "name": "duration",
          "type": "uint256"
        }
      ],
      "stateMutability": "view",
      "type": "function"
    },
    {
      "inputs": [
        {
          "internalType": "contract IERC721",
          "name": "nftCode",
          "type": "address"
        }
      ],
      "name": "addNftCode",
      "outputs": [],
      "stateMutability": "nonpayable",
      "type": "function"
    },
    {
      "inputs": [
        {
          "internalType": "contract IERC721",
          "name": "nftCode",
          "type": "address"
        }
      ],
      "name": "rmNftCode",
      "outputs": [],
      "stateMutability": "nonpayable",
      "type": "function"
    },
    {
      "inputs": [],
      "name": "getNftCodes",
      "outputs": [
        {
          "internalType": "contract IERC721[]",
          "name": "nftCodes",
          "type": "address[]"
        }
      ],
      "stateMutability": "view",
      "type": "function"
    },
    {
      "inputs": [
        {
          "internalType": "address",
          "name": "nftCode",
          "type": "address"
        },
        {
          "internalType": "uint256",
          "name": "tokenId",
          "type": "uint256"
        }
      ],
      "name": "getOffShelfTime",
      "outputs": [
        {
          "internalType": "uint256",
          "name": "offShelfTime",
          "type": "uint256"
        }
      ],
      "stateMutability": "view",
      "type": "function"
    },
    {
      "inputs": [
        {
          "internalType": "address",
          "name": "nftCode",
          "type": "address"
        },
        {
          "internalType": "uint256",
          "name": "tokenId",
          "type": "uint256"
        }
      ],
      "name": "getPrices",
      "outputs": [
        {
          "internalType": "uint256",
          "name": "price",
          "type": "uint256"
        }
      ],
      "stateMutability": "view",
      "type": "function"
    },
    {
      "inputs": [
        {
          "internalType": "address",
          "name": "to",
          "type": "address"
        },
        {
          "internalType": "uint256",
          "name": "amount",
          "type": "uint256"
        }
      ],
      "name": "withdraw",
      "outputs": [],
      "stateMutability": "nonpayable",
      "type": "function"
    },
    {
      "inputs": [
        {
          "internalType": "contract IERC721",
          "name": "nftCode",
          "type": "address"
        },
        {
          "internalType": "uint256",
          "name": "tokenId",
          "type": "uint256"
        },
        {
          "internalType": "uint256",
          "name": "price",
          "type": "uint256"
        },
        {
          "internalType": "uint256",
          "name": "offShelfTime",
          "type": "uint256"
        }
      ],
      "name": "sell",
      "outputs": [],
      "stateMutability": "nonpayable",
      "type": "function"
    },
    {
      "inputs": [
        {
          "internalType": "contract IERC721",
          "name": "nftCode",
          "type": "address"
        },
        {
          "internalType": "uint256",
          "name": "tokenId",
          "type": "uint256"
        }
      ],
      "name": "buy",
      "outputs": [],
      "stateMutability": "payable",
      "type": "function"
    }
  ],
  "bytecode": "0x60a06040523073ffffffffffffffffffffffffffffffffffffffff1660809073ffffffffffffffffffffffffffffffffffffffff1681525034801561004357600080fd5b5060805161454861007b600039600081816108010152818161088f01528181610c3101528181610cbf0152610d6f01526145486000f3fe60806040526004361061019c5760003560e01c806392cdbac5116100ec578063cf0f34c41161008a578063e02023a111610064578063e02023a1146105a8578063e4a30116146105d3578063f3fef3a3146105fc578063f72c0d8b146106255761019c565b8063cf0f34c414610519578063d547741f14610542578063d5e1a18b1461056b5761019c565b8063b49a2db9116100c6578063b49a2db91461046a578063bd2a625014610495578063cb3382e7146104d2578063cce7ec13146104fd5761019c565b806392cdbac5146103eb5780639ed03b3814610414578063a217fddf1461043f5761019c565b806336568abe116101595780634f1ef286116101335780634f1ef2861461033e57806352d1902d1461035a5780635a090fa51461038557806391d14854146103ae5761019c565b806336568abe146102c35780633659cfe6146102ec57806342d3e346146103155761019c565b806301ffc9a7146101a1578063034d501b146101de5780630d8e6e2c146102095780631674bade14610234578063248a9ca31461025d5780632f2ff15d1461029a575b600080fd5b3480156101ad57600080fd5b506101c860048036038101906101c391906129dd565b610650565b6040516101d59190612a25565b60405180910390f35b3480156101ea57600080fd5b506101f3610662565b6040516102009190612a59565b60405180910390f35b34801561021557600080fd5b5061021e61066c565b60405161022b9190612a59565b60405180910390f35b34801561024057600080fd5b5061025b60048036038101906102569190612aa0565b610675565b005b34801561026957600080fd5b50610284600480360381019061027f9190612b03565b61073b565b6040516102919190612b3f565b60405180910390f35b3480156102a657600080fd5b506102c160048036038101906102bc9190612bb8565b61075b565b005b3480156102cf57600080fd5b506102ea60048036038101906102e59190612bb8565b61077c565b005b3480156102f857600080fd5b50610313600480360381019061030e9190612bf8565b6107ff565b005b34801561032157600080fd5b5061033c60048036038101906103379190612c63565b610987565b005b61035860048036038101906103539190612dd6565b610c2f565b005b34801561036657600080fd5b5061036f610d6b565b60405161037c9190612b3f565b60405180910390f35b34801561039157600080fd5b506103ac60048036038101906103a79190612c63565b610e24565b005b3480156103ba57600080fd5b506103d560048036038101906103d09190612bb8565b610f9a565b6040516103e29190612a25565b60405180910390f35b3480156103f757600080fd5b50610412600480360381019061040d9190612e32565b611005565b005b34801561042057600080fd5b5061042961144e565b6040516104369190612b3f565b60405180910390f35b34801561044b57600080fd5b50610454611472565b6040516104619190612b3f565b60405180910390f35b34801561047657600080fd5b5061047f611479565b60405161048c9190612a59565b60405180910390f35b3480156104a157600080fd5b506104bc60048036038101906104b79190612e99565b611483565b6040516104c99190612a59565b60405180910390f35b3480156104de57600080fd5b506104e76114de565b6040516104f49190612fe7565b60405180910390f35b61051760048036038101906105129190613009565b61156c565b005b34801561052557600080fd5b50610540600480360381019061053b9190612aa0565b61195b565b005b34801561054e57600080fd5b5061056960048036038101906105649190612bb8565b611a21565b005b34801561057757600080fd5b50610592600480360381019061058d9190612e99565b611a42565b60405161059f9190612a59565b60405180910390f35b3480156105b457600080fd5b506105bd611a9e565b6040516105ca9190612b3f565b60405180910390f35b3480156105df57600080fd5b506105fa60048036038101906105f59190613049565b611ac2565b005b34801561060857600080fd5b50610623600480360381019061061e9190612e99565b611c93565b005b34801561063157600080fd5b5061063a611da8565b6040516106479190612b3f565b60405180910390f35b600061065b82611dcc565b9050919050565b600060fd54905090565b60006001905090565b7f51ada25f7cf0859910926228d277aca0add8f50f444c7c5ee9b5b4086760654f61069f81611e46565b640202fbf0008211156106e7576040517f08c379a00000000000000000000000000000000000000000000000000000000081526004016106de906130e6565b60405180910390fd5b6106ef611479565b8210610730576040517f08c379a000000000000000000000000000000000000000000000000000000000815260040161072790613178565b60405180910390fd5b8160fd819055505050565b600060656000838152602001908152602001600020600101549050919050565b6107648261073b565b61076d81611e46565b6107778383611e5a565b505050565b610784611f3b565b73ffffffffffffffffffffffffffffffffffffffff168173ffffffffffffffffffffffffffffffffffffffff16146107f1576040517f08c379a00000000000000000000000000000000000000000000000000000000081526004016107e89061320a565b60405180910390fd5b6107fb8282611f43565b5050565b7f000000000000000000000000000000000000000000000000000000000000000073ffffffffffffffffffffffffffffffffffffffff163073ffffffffffffffffffffffffffffffffffffffff160361088d576040517f08c379a00000000000000000000000000000000000000000000000000000000081526004016108849061329c565b60405180910390fd5b7f000000000000000000000000000000000000000000000000000000000000000073ffffffffffffffffffffffffffffffffffffffff166108cc612025565b73ffffffffffffffffffffffffffffffffffffffff1614610922576040517f08c379a00000000000000000000000000000000000000000000000000000000081526004016109199061332e565b60405180910390fd5b61092b8161207c565b61098481600067ffffffffffffffff81111561094a57610949612cab565b5b6040519080825280601f01601f19166020018201604052801561097c5781602001600182028036833780820191505090505b5060006120aa565b50565b7f51ada25f7cf0859910926228d277aca0add8f50f444c7c5ee9b5b4086760654f6109b181611e46565b60fc60008373ffffffffffffffffffffffffffffffffffffffff1673ffffffffffffffffffffffffffffffffffffffff16815260200190815260200160002060009054906101000a900460ff16610a3d576040517f08c379a0000000000000000000000000000000000000000000000000000000008152600401610a349061339a565b60405180910390fd5b6000805b60fb80549050811015610b8a578115610b005760fb8181548110610a6857610a676133ba565b5b9060005260206000200160009054906101000a900473ffffffffffffffffffffffffffffffffffffffff1660fb600183610aa29190613418565b81548110610ab357610ab26133ba565b5b9060005260206000200160006101000a81548173ffffffffffffffffffffffffffffffffffffffff021916908373ffffffffffffffffffffffffffffffffffffffff160217905550610b77565b8373ffffffffffffffffffffffffffffffffffffffff1660fb8281548110610b2b57610b2a6133ba565b5b9060005260206000200160009054906101000a900473ffffffffffffffffffffffffffffffffffffffff1673ffffffffffffffffffffffffffffffffffffffff1603610b7657600191505b5b8080610b829061344c565b915050610a41565b5060fb805480610b9d57610b9c613494565b5b6001900381819060005260206000200160006101000a81549073ffffffffffffffffffffffffffffffffffffffff02191690559055600060fc60008573ffffffffffffffffffffffffffffffffffffffff1673ffffffffffffffffffffffffffffffffffffffff16815260200190815260200160002060006101000a81548160ff021916908315150217905550505050565b7f000000000000000000000000000000000000000000000000000000000000000073ffffffffffffffffffffffffffffffffffffffff163073ffffffffffffffffffffffffffffffffffffffff1603610cbd576040517f08c379a0000000000000000000000000000000000000000000000000000000008152600401610cb49061329c565b60405180910390fd5b7f000000000000000000000000000000000000000000000000000000000000000073ffffffffffffffffffffffffffffffffffffffff16610cfc612025565b73ffffffffffffffffffffffffffffffffffffffff1614610d52576040517f08c379a0000000000000000000000000000000000000000000000000000000008152600401610d499061332e565b60405180910390fd5b610d5b8261207c565b610d67828260016120aa565b5050565b60007f000000000000000000000000000000000000000000000000000000000000000073ffffffffffffffffffffffffffffffffffffffff163073ffffffffffffffffffffffffffffffffffffffff1614610dfb576040517f08c379a0000000000000000000000000000000000000000000000000000000008152600401610df290613535565b60405180910390fd5b7f360894a13ba1a3210667c828492db98dca3e2076cc3735a920a3ca505d382bbc60001b905090565b7f51ada25f7cf0859910926228d277aca0add8f50f444c7c5ee9b5b4086760654f610e4e81611e46565b60fc60008373ffffffffffffffffffffffffffffffffffffffff1673ffffffffffffffffffffffffffffffffffffffff16815260200190815260200160002060009054906101000a900460ff1615610edb576040517f08c379a0000000000000000000000000000000000000000000000000000000008152600401610ed2906135c7565b60405180910390fd5b60fb829080600181540180825580915050600190039060005260206000200160009091909190916101000a81548173ffffffffffffffffffffffffffffffffffffffff021916908373ffffffffffffffffffffffffffffffffffffffff160217905550600160fc60008473ffffffffffffffffffffffffffffffffffffffff1673ffffffffffffffffffffffffffffffffffffffff16815260200190815260200160002060006101000a81548160ff0219169083151502179055505050565b60006065600084815260200190815260200160002060000160008373ffffffffffffffffffffffffffffffffffffffff1673ffffffffffffffffffffffffffffffffffffffff16815260200190815260200160002060009054906101000a900460ff16905092915050565b60fc60008573ffffffffffffffffffffffffffffffffffffffff1673ffffffffffffffffffffffffffffffffffffffff16815260200190815260200160002060009054906101000a900460ff16611091576040517f08c379a000000000000000000000000000000000000000000000000000000000815260040161108890613659565b60405180910390fd5b60008473ffffffffffffffffffffffffffffffffffffffff16636352211e856040518263ffffffff1660e01b81526004016110cc9190612a59565b602060405180830381865afa1580156110e9573d6000803e3d6000fd5b505050506040513d601f19601f8201168201806040525081019061110d919061368e565b90508073ffffffffffffffffffffffffffffffffffffffff163373ffffffffffffffffffffffffffffffffffffffff161461117d576040517f08c379a00000000000000000000000000000000000000000000000000000000081526004016111749061372d565b60405180910390fd5b42611186610662565b611190919061374d565b8210156111ae4261119f610662565b6111a9919061374d565b612218565b6040516020016111be919061388f565b6040516020818303038152906040529061120e576040517f08c379a000000000000000000000000000000000000000000000000000000000815260040161120591906138ea565b60405180910390fd5b506000428361121d9190613418565b9050611227610662565b811015801561123d5750611239611479565b8111155b61124d611248610662565b612218565b61125d611258611479565b612218565b60405160200161126e9291906139a4565b604051602081830303815290604052906112be576040517f08c379a00000000000000000000000000000000000000000000000000000000081526004016112b591906138ea565b60405180910390fd5b5069021e19e06ec7a1c5c00084111561130c576040517f08c379a000000000000000000000000000000000000000000000000000000000815260040161130390613a2a565b60405180910390fd5b8260ff60008873ffffffffffffffffffffffffffffffffffffffff1673ffffffffffffffffffffffffffffffffffffffff1681526020019081526020016000206000878152602001908152602001600020819055508361010060008873ffffffffffffffffffffffffffffffffffffffff1673ffffffffffffffffffffffffffffffffffffffff1681526020019081526020016000206000878152602001908152602001600020819055507fd902de5bf909b45e20bb32ac2c845149bd1d52acd91b63205e51bf755834d2928287878760ff60008c73ffffffffffffffffffffffffffffffffffffffff1673ffffffffffffffffffffffffffffffffffffffff16815260200190815260200160002060008b81526020019081526020016000205460405161143e959493929190613a59565b60405180910390a1505050505050565b7f51ada25f7cf0859910926228d277aca0add8f50f444c7c5ee9b5b4086760654f81565b6000801b81565b600060fe54905090565b600060ff60008473ffffffffffffffffffffffffffffffffffffffff1673ffffffffffffffffffffffffffffffffffffffff168152602001908152602001600020600083815260200190815260200160002054905092915050565b606060fb80548060200260200160405190810160405280929190818152602001828054801561156257602002820191906000526020600020905b8160009054906101000a900473ffffffffffffffffffffffffffffffffffffffff1673ffffffffffffffffffffffffffffffffffffffff1681526020019060010190808311611518575b5050505050905090565b60fc60008373ffffffffffffffffffffffffffffffffffffffff1673ffffffffffffffffffffffffffffffffffffffff16815260200190815260200160002060009054906101000a900460ff166115f8576040517f08c379a00000000000000000000000000000000000000000000000000000000081526004016115ef90613659565b60405180910390fd5b6116028282611483565b421115611644576040517f08c379a000000000000000000000000000000000000000000000000000000000815260040161163b90613b1e565b60405180910390fd5b600061010060008473ffffffffffffffffffffffffffffffffffffffff1673ffffffffffffffffffffffffffffffffffffffff1681526020019081526020016000206000838152602001908152602001600020549050803410156116a782612218565b6040516020016116b79190613bb0565b60405160208183030381529060405290611707576040517f08c379a00000000000000000000000000000000000000000000000000000000081526004016116fe91906138ea565b60405180910390fd5b5060008373ffffffffffffffffffffffffffffffffffffffff16636352211e846040518263ffffffff1660e01b81526004016117439190612a59565b602060405180830381865afa158015611760573d6000803e3d6000fd5b505050506040513d601f19601f82011682018060405250810190611784919061368e565b9050600060626064846117979190613c01565b6117a19190613c32565b905060008273ffffffffffffffffffffffffffffffffffffffff16826040516117c990613cbd565b60006040518083038185875af1925050503d8060008114611806576040519150601f19603f3d011682016040523d82523d6000602084013e61180b565b606091505b505090508061184f576040517f08c379a000000000000000000000000000000000000000000000000000000000815260040161184690613d1e565b60405180910390fd5b8573ffffffffffffffffffffffffffffffffffffffff166342842e0e8433886040518463ffffffff1660e01b815260040161188c93929190613d3e565b600060405180830381600087803b1580156118a657600080fd5b505af11580156118ba573d6000803e3d6000fd5b50505050600060ff60008873ffffffffffffffffffffffffffffffffffffffff1673ffffffffffffffffffffffffffffffffffffffff1681526020019081526020016000206000878152602001908152602001600020819055507f7334929a1a00034bd42f16ada91af47dc1c1c10ebd3e7c3fb222343e252d473e833388888860405161194b959493929190613d75565b60405180910390a1505050505050565b7f51ada25f7cf0859910926228d277aca0add8f50f444c7c5ee9b5b4086760654f61198581611e46565b640202fbf0008211156119cd576040517f08c379a00000000000000000000000000000000000000000000000000000000081526004016119c490613e14565b60405180910390fd5b6119d5610662565b8211611a16576040517f08c379a0000000000000000000000000000000000000000000000000000000008152600401611a0d90613ecc565b60405180910390fd5b8160fe819055505050565b611a2a8261073b565b611a3381611e46565b611a3d8383611f43565b505050565b600061010060008473ffffffffffffffffffffffffffffffffffffffff1673ffffffffffffffffffffffffffffffffffffffff168152602001908152602001600020600083815260200190815260200160002054905092915050565b7f5d8e12c39142ff96d79d04d15d1ba1269e4fe57bb9d26f43523628b34ba108ec81565b60008060019054906101000a900460ff16159050808015611af35750600160008054906101000a900460ff1660ff16105b80611b205750611b0230612378565b158015611b1f5750600160008054906101000a900460ff1660ff16145b5b611b5f576040517f08c379a0000000000000000000000000000000000000000000000000000000008152600401611b5690613f5e565b60405180910390fd5b60016000806101000a81548160ff021916908360ff1602179055508015611b9c576001600060016101000a81548160ff0219169083151502179055505b8260fd819055508160fe81905550611bb76000801b33611e5a565b611be17f51ada25f7cf0859910926228d277aca0add8f50f444c7c5ee9b5b4086760654f33611e5a565b611c0b7f5d8e12c39142ff96d79d04d15d1ba1269e4fe57bb9d26f43523628b34ba108ec33611e5a565b611c357f189ab7a9244df0848122154315af71fe140f3db0fe014031783b0946b8c9d2e333611e5a565b8015611c8e5760008060016101000a81548160ff0219169083151502179055507f7f26b83ff96e1f2b6a682f133852f6798a09c465da95921460cefb38474024986001604051611c859190613fc6565b60405180910390a15b505050565b7f5d8e12c39142ff96d79d04d15d1ba1269e4fe57bb9d26f43523628b34ba108ec611cbd81611e46565b60008373ffffffffffffffffffffffffffffffffffffffff1683604051611ce390613cbd565b60006040518083038185875af1925050503d8060008114611d20576040519150601f19603f3d011682016040523d82523d6000602084013e611d25565b606091505b5050905080611d69576040517f08c379a0000000000000000000000000000000000000000000000000000000008152600401611d609061402d565b60405180910390fd5b7f9698e61c645d6b39d54d12fe323bad02e9dfdbde2487c2ba08ccfe654400623e3384604051611d9a92919061404d565b60405180910390a150505050565b7f189ab7a9244df0848122154315af71fe140f3db0fe014031783b0946b8c9d2e381565b60007f7965db0b000000000000000000000000000000000000000000000000000000007bffffffffffffffffffffffffffffffffffffffffffffffffffffffff1916827bffffffffffffffffffffffffffffffffffffffffffffffffffffffff19161480611e3f5750611e3e8261239b565b5b9050919050565b611e5781611e52611f3b565b612405565b50565b611e648282610f9a565b611f375760016065600084815260200190815260200160002060000160008373ffffffffffffffffffffffffffffffffffffffff1673ffffffffffffffffffffffffffffffffffffffff16815260200190815260200160002060006101000a81548160ff021916908315150217905550611edc611f3b565b73ffffffffffffffffffffffffffffffffffffffff168173ffffffffffffffffffffffffffffffffffffffff16837f2f8788117e7eff1d82e926ec794901d17c78024a50270940304540a733656f0d60405160405180910390a45b5050565b600033905090565b611f4d8282610f9a565b156120215760006065600084815260200190815260200160002060000160008373ffffffffffffffffffffffffffffffffffffffff1673ffffffffffffffffffffffffffffffffffffffff16815260200190815260200160002060006101000a81548160ff021916908315150217905550611fc6611f3b565b73ffffffffffffffffffffffffffffffffffffffff168173ffffffffffffffffffffffffffffffffffffffff16837ff6391f5c32d9c69d2a47ea670b442974b53935d1edc7fd64eb21e047a839171b60405160405180910390a45b5050565b60006120537f360894a13ba1a3210667c828492db98dca3e2076cc3735a920a3ca505d382bbc60001b6124a2565b60000160009054906101000a900473ffffffffffffffffffffffffffffffffffffffff16905090565b7f189ab7a9244df0848122154315af71fe140f3db0fe014031783b0946b8c9d2e36120a681611e46565b5050565b6120d67f4910fdfa16fed3260ed0e7147f7cc6da11a60208b5b9406d12a635614ffd914360001b6124ac565b60000160009054906101000a900460ff16156120fa576120f5836124b6565b612213565b8273ffffffffffffffffffffffffffffffffffffffff166352d1902d6040518163ffffffff1660e01b8152600401602060405180830381865afa92505050801561216257506040513d601f19601f8201168201806040525081019061215f919061408b565b60015b6121a1576040517f08c379a00000000000000000000000000000000000000000000000000000000081526004016121989061412a565b60405180910390fd5b7f360894a13ba1a3210667c828492db98dca3e2076cc3735a920a3ca505d382bbc60001b8114612206576040517f08c379a00000000000000000000000000000000000000000000000000000000081526004016121fd906141bc565b60405180910390fd5b5061221283838361256f565b5b505050565b60606000820361225f576040518060400160405280600181526020017f30000000000000000000000000000000000000000000000000000000000000008152509050612373565b600082905060005b6000821461229157808061227a9061344c565b915050600a8261228a9190613c01565b9150612267565b60008167ffffffffffffffff8111156122ad576122ac612cab565b5b6040519080825280601f01601f1916602001820160405280156122df5781602001600182028036833780820191505090505b5090505b6000851461236c576001826122f89190613418565b9150600a8561230791906141dc565b6030612313919061374d565b60f81b818381518110612329576123286133ba565b5b60200101907effffffffffffffffffffffffffffffffffffffffffffffffffffffffffffff1916908160001a905350600a856123659190613c01565b94506122e3565b8093505050505b919050565b6000808273ffffffffffffffffffffffffffffffffffffffff163b119050919050565b60007f01ffc9a7000000000000000000000000000000000000000000000000000000007bffffffffffffffffffffffffffffffffffffffffffffffffffffffff1916827bffffffffffffffffffffffffffffffffffffffffffffffffffffffff1916149050919050565b61240f8282610f9a565b61249e576124348173ffffffffffffffffffffffffffffffffffffffff16601461259b565b6124428360001c602061259b565b6040516020016124539291906142a5565b6040516020818303038152906040526040517f08c379a000000000000000000000000000000000000000000000000000000000815260040161249591906138ea565b60405180910390fd5b5050565b6000819050919050565b6000819050919050565b6124bf81612378565b6124fe576040517f08c379a00000000000000000000000000000000000000000000000000000000081526004016124f590614351565b60405180910390fd5b8061252b7f360894a13ba1a3210667c828492db98dca3e2076cc3735a920a3ca505d382bbc60001b6124a2565b60000160006101000a81548173ffffffffffffffffffffffffffffffffffffffff021916908373ffffffffffffffffffffffffffffffffffffffff16021790555050565b612578836127d7565b6000825111806125855750805b15612596576125948383612826565b505b505050565b6060600060028360026125ae9190613c32565b6125b8919061374d565b67ffffffffffffffff8111156125d1576125d0612cab565b5b6040519080825280601f01601f1916602001820160405280156126035781602001600182028036833780820191505090505b5090507f30000000000000000000000000000000000000000000000000000000000000008160008151811061263b5761263a6133ba565b5b60200101907effffffffffffffffffffffffffffffffffffffffffffffffffffffffffffff1916908160001a9053507f78000000000000000000000000000000000000000000000000000000000000008160018151811061269f5761269e6133ba565b5b60200101907effffffffffffffffffffffffffffffffffffffffffffffffffffffffffffff1916908160001a905350600060018460026126df9190613c32565b6126e9919061374d565b90505b6001811115612789577f3031323334353637383961626364656600000000000000000000000000000000600f86166010811061272b5761272a6133ba565b5b1a60f81b828281518110612742576127416133ba565b5b60200101907effffffffffffffffffffffffffffffffffffffffffffffffffffffffffffff1916908160001a905350600485901c94508061278290614371565b90506126ec565b50600084146127cd576040517f08c379a00000000000000000000000000000000000000000000000000000000081526004016127c4906143e6565b60405180910390fd5b8091505092915050565b6127e0816124b6565b8073ffffffffffffffffffffffffffffffffffffffff167fbc7cd75a20ee27fd9adebab32041f755214dbc6bffa90cc0225b39da2e5c2d3b60405160405180910390a250565b606061283183612378565b612870576040517f08c379a000000000000000000000000000000000000000000000000000000000815260040161286790614478565b60405180910390fd5b6000808473ffffffffffffffffffffffffffffffffffffffff168460405161289891906144d4565b600060405180830381855af49150503d80600081146128d3576040519150601f19603f3d011682016040523d82523d6000602084013e6128d8565b606091505b509150915061290082826040518060600160405280602781526020016144ec6027913961290a565b9250505092915050565b6060831561291a5782905061296a565b60008351111561292d5782518084602001fd5b816040517f08c379a000000000000000000000000000000000000000000000000000000000815260040161296191906138ea565b60405180910390fd5b9392505050565b6000604051905090565b600080fd5b600080fd5b60007fffffffff0000000000000000000000000000000000000000000000000000000082169050919050565b6129ba81612985565b81146129c557600080fd5b50565b6000813590506129d7816129b1565b92915050565b6000602082840312156129f3576129f261297b565b5b6000612a01848285016129c8565b91505092915050565b60008115159050919050565b612a1f81612a0a565b82525050565b6000602082019050612a3a6000830184612a16565b92915050565b6000819050919050565b612a5381612a40565b82525050565b6000602082019050612a6e6000830184612a4a565b92915050565b612a7d81612a40565b8114612a8857600080fd5b50565b600081359050612a9a81612a74565b92915050565b600060208284031215612ab657612ab561297b565b5b6000612ac484828501612a8b565b91505092915050565b6000819050919050565b612ae081612acd565b8114612aeb57600080fd5b50565b600081359050612afd81612ad7565b92915050565b600060208284031215612b1957612b1861297b565b5b6000612b2784828501612aee565b91505092915050565b612b3981612acd565b82525050565b6000602082019050612b546000830184612b30565b92915050565b600073ffffffffffffffffffffffffffffffffffffffff82169050919050565b6000612b8582612b5a565b9050919050565b612b9581612b7a565b8114612ba057600080fd5b50565b600081359050612bb281612b8c565b92915050565b60008060408385031215612bcf57612bce61297b565b5b6000612bdd85828601612aee565b9250506020612bee85828601612ba3565b9150509250929050565b600060208284031215612c0e57612c0d61297b565b5b6000612c1c84828501612ba3565b91505092915050565b6000612c3082612b7a565b9050919050565b612c4081612c25565b8114612c4b57600080fd5b50565b600081359050612c5d81612c37565b92915050565b600060208284031215612c7957612c7861297b565b5b6000612c8784828501612c4e565b91505092915050565b600080fd5b600080fd5b6000601f19601f8301169050919050565b7f4e487b7100000000000000000000000000000000000000000000000000000000600052604160045260246000fd5b612ce382612c9a565b810181811067ffffffffffffffff82111715612d0257612d01612cab565b5b80604052505050565b6000612d15612971565b9050612d218282612cda565b919050565b600067ffffffffffffffff821115612d4157612d40612cab565b5b612d4a82612c9a565b9050602081019050919050565b82818337600083830152505050565b6000612d79612d7484612d26565b612d0b565b905082815260208101848484011115612d9557612d94612c95565b5b612da0848285612d57565b509392505050565b600082601f830112612dbd57612dbc612c90565b5b8135612dcd848260208601612d66565b91505092915050565b60008060408385031215612ded57612dec61297b565b5b6000612dfb85828601612ba3565b925050602083013567ffffffffffffffff811115612e1c57612e1b612980565b5b612e2885828601612da8565b9150509250929050565b60008060008060808587031215612e4c57612e4b61297b565b5b6000612e5a87828801612c4e565b9450506020612e6b87828801612a8b565b9350506040612e7c87828801612a8b565b9250506060612e8d87828801612a8b565b91505092959194509250565b60008060408385031215612eb057612eaf61297b565b5b6000612ebe85828601612ba3565b9250506020612ecf85828601612a8b565b9150509250929050565b600081519050919050565b600082825260208201905092915050565b6000819050602082019050919050565b6000819050919050565b6000612f2a612f25612f2084612b5a565b612f05565b612b5a565b9050919050565b6000612f3c82612f0f565b9050919050565b6000612f4e82612f31565b9050919050565b612f5e81612f43565b82525050565b6000612f708383612f55565b60208301905092915050565b6000602082019050919050565b6000612f9482612ed9565b612f9e8185612ee4565b9350612fa983612ef5565b8060005b83811015612fda578151612fc18882612f64565b9750612fcc83612f7c565b925050600181019050612fad565b5085935050505092915050565b600060208201905081810360008301526130018184612f89565b905092915050565b600080604083850312156130205761301f61297b565b5b600061302e85828601612c4e565b925050602061303f85828601612a8b565b9150509250929050565b600080604083850312156130605761305f61297b565b5b600061306e85828601612a8b565b925050602061307f85828601612a8b565b9150509250929050565b600082825260208201905092915050565b7f4e667445786368616e67653a204d696e206475726174696f6e206572726f7221600082015250565b60006130d0602083613089565b91506130db8261309a565b602082019050919050565b600060208201905081810360008301526130ff816130c3565b9050919050565b7f4e667445786368616e67653a204d696e206475726174696f6e2073686f756c6460008201527f206265206c657373207468616e20746865206d6178206475726174696f6e2100602082015250565b6000613162603f83613089565b915061316d82613106565b604082019050919050565b6000602082019050818103600083015261319181613155565b9050919050565b7f416363657373436f6e74726f6c3a2063616e206f6e6c792072656e6f756e636560008201527f20726f6c657320666f722073656c660000000000000000000000000000000000602082015250565b60006131f4602f83613089565b91506131ff82613198565b604082019050919050565b60006020820190508181036000830152613223816131e7565b9050919050565b7f46756e6374696f6e206d7573742062652063616c6c6564207468726f7567682060008201527f64656c656761746563616c6c0000000000000000000000000000000000000000602082015250565b6000613286602c83613089565b91506132918261322a565b604082019050919050565b600060208201905081810360008301526132b581613279565b9050919050565b7f46756e6374696f6e206d7573742062652063616c6c6564207468726f7567682060008201527f6163746976652070726f78790000000000000000000000000000000000000000602082015250565b6000613318602c83613089565b9150613323826132bc565b604082019050919050565b600060208201905081810360008301526133478161330b565b9050919050565b7f746865206e6674436f6465206973206e6f7420696e20636f6465206c6973742e600082015250565b6000613384602083613089565b915061338f8261334e565b602082019050919050565b600060208201905081810360008301526133b381613377565b9050919050565b7f4e487b7100000000000000000000000000000000000000000000000000000000600052603260045260246000fd5b7f4e487b7100000000000000000000000000000000000000000000000000000000600052601160045260246000fd5b600061342382612a40565b915061342e83612a40565b925082821015613441576134406133e9565b5b828203905092915050565b600061345782612a40565b91507fffffffffffffffffffffffffffffffffffffffffffffffffffffffffffffffff8203613489576134886133e9565b5b600182019050919050565b7f4e487b7100000000000000000000000000000000000000000000000000000000600052603160045260246000fd5b7f555550535570677261646561626c653a206d757374206e6f742062652063616c60008201527f6c6564207468726f7567682064656c656761746563616c6c0000000000000000602082015250565b600061351f603883613089565b915061352a826134c3565b604082019050919050565b6000602082019050818103600083015261354e81613512565b9050919050565b7f746865206e6674436f646520697320616c726561647920696e20636f6465206c60008201527f6973742e00000000000000000000000000000000000000000000000000000000602082015250565b60006135b1602483613089565b91506135bc82613555565b604082019050919050565b600060208201905081810360008301526135e0816135a4565b9050919050565b7f706c656173652061646420746865206e6674436f646520696e2074686520636f60008201527f6465206c6973742066697273742e000000000000000000000000000000000000602082015250565b6000613643602e83613089565b915061364e826135e7565b604082019050919050565b6000602082019050818103600083015261367281613636565b9050919050565b60008151905061368881612b8c565b92915050565b6000602082840312156136a4576136a361297b565b5b60006136b284828501613679565b91505092915050565b7f4e667445786368616e67653a2073656c6c6572206973206e6f74206e6674206f60008201527f776e657200000000000000000000000000000000000000000000000000000000602082015250565b6000613717602483613089565b9150613722826136bb565b604082019050919050565b600060208201905081810360008301526137468161370a565b9050919050565b600061375882612a40565b915061376383612a40565b9250827fffffffffffffffffffffffffffffffffffffffffffffffffffffffffffffffff03821115613798576137976133e9565b5b828201905092915050565b600081905092915050565b7f4e667445786368616e67653a206f66665368656c6654696d65206174206c656160008201527f7374202000000000000000000000000000000000000000000000000000000000602082015250565b600061380a6024836137a3565b9150613815826137ae565b602482019050919050565b600081519050919050565b60005b8381101561384957808201518184015260208101905061382e565b83811115613858576000848401525b50505050565b600061386982613820565b61387381856137a3565b935061388381856020860161382b565b80840191505092915050565b600061389a826137fd565b91506138a6828461385e565b915081905092915050565b60006138bc82613820565b6138c68185613089565b93506138d681856020860161382b565b6138df81612c9a565b840191505092915050565b6000602082019050818103600083015261390481846138b1565b905092915050565b7f4e667445786368616e67653a206475726174696f6e206e6f7420696e20000000600082015250565b6000613942601d836137a3565b915061394d8261390c565b601d82019050919050565b7f2d00000000000000000000000000000000000000000000000000000000000000600082015250565b600061398e6001836137a3565b915061399982613958565b600182019050919050565b60006139af82613935565b91506139bb828561385e565b91506139c682613981565b91506139d2828461385e565b91508190509392505050565b7f7072696365206d617820697320393939392e3939393900000000000000000000600082015250565b6000613a14601683613089565b9150613a1f826139de565b602082019050919050565b60006020820190508181036000830152613a4381613a07565b9050919050565b613a5381612b7a565b82525050565b600060a082019050613a6e6000830188613a4a565b613a7b6020830187613a4a565b613a886040830186612a4a565b613a956060830185612a4a565b613aa26080830184612a4a565b9695505050505050565b7f4e667445786368616e67653a206e6674206e6f74206f6e20746865207368656c60008201527f6621000000000000000000000000000000000000000000000000000000000000602082015250565b6000613b08602283613089565b9150613b1382613aac565b604082019050919050565b60006020820190508181036000830152613b3781613afb565b9050919050565b7f4e667445786368616e67653a2076616c7565205175616e74697479206c65737360008201527f207468616e200000000000000000000000000000000000000000000000000000602082015250565b6000613b9a6026836137a3565b9150613ba582613b3e565b602682019050919050565b6000613bbb82613b8d565b9150613bc7828461385e565b915081905092915050565b7f4e487b7100000000000000000000000000000000000000000000000000000000600052601260045260246000fd5b6000613c0c82612a40565b9150613c1783612a40565b925082613c2757613c26613bd2565b5b828204905092915050565b6000613c3d82612a40565b9150613c4883612a40565b9250817fffffffffffffffffffffffffffffffffffffffffffffffffffffffffffffffff0483118215151615613c8157613c806133e9565b5b828202905092915050565b600081905092915050565b50565b6000613ca7600083613c8c565b9150613cb282613c97565b600082019050919050565b6000613cc882613c9a565b9150819050919050565b7f4e667445786368616e67653a207061796d656e74206661696c75726521000000600082015250565b6000613d08601d83613089565b9150613d1382613cd2565b602082019050919050565b60006020820190508181036000830152613d3781613cfb565b9050919050565b6000606082019050613d536000830186613a4a565b613d606020830185613a4a565b613d6d6040830184612a4a565b949350505050565b600060a082019050613d8a6000830188613a4a565b613d976020830187613a4a565b613da46040830186613a4a565b613db16060830185612a4a565b613dbe6080830184612a4a565b9695505050505050565b7f4e667445786368616e67653a204d6178206475726174696f6e206572726f7221600082015250565b6000613dfe602083613089565b9150613e0982613dc8565b602082019050919050565b60006020820190508181036000830152613e2d81613df1565b9050919050565b7f4e667445786368616e67653a204d6178206475726174696f6e2073686f756c6460008201527f2062652067726561746572207468616e20746865206d696e206475726174696f60208201527f6e21000000000000000000000000000000000000000000000000000000000000604082015250565b6000613eb6604283613089565b9150613ec182613e34565b606082019050919050565b60006020820190508181036000830152613ee581613ea9565b9050919050565b7f496e697469616c697a61626c653a20636f6e747261637420697320616c72656160008201527f647920696e697469616c697a6564000000000000000000000000000000000000602082015250565b6000613f48602e83613089565b9150613f5382613eec565b604082019050919050565b60006020820190508181036000830152613f7781613f3b565b9050919050565b6000819050919050565b600060ff82169050919050565b6000613fb0613fab613fa684613f7e565b612f05565b613f88565b9050919050565b613fc081613f95565b82525050565b6000602082019050613fdb6000830184613fb7565b92915050565b7f4e667445786368616e67653a207769746864726177206572726f722100000000600082015250565b6000614017601c83613089565b915061402282613fe1565b602082019050919050565b600060208201905081810360008301526140468161400a565b9050919050565b60006040820190506140626000830185613a4a565b61406f6020830184612a4a565b9392505050565b60008151905061408581612ad7565b92915050565b6000602082840312156140a1576140a061297b565b5b60006140af84828501614076565b91505092915050565b7f45524331393637557067726164653a206e657720696d706c656d656e7461746960008201527f6f6e206973206e6f742055555053000000000000000000000000000000000000602082015250565b6000614114602e83613089565b915061411f826140b8565b604082019050919050565b6000602082019050818103600083015261414381614107565b9050919050565b7f45524331393637557067726164653a20756e737570706f727465642070726f7860008201527f6961626c65555549440000000000000000000000000000000000000000000000602082015250565b60006141a6602983613089565b91506141b18261414a565b604082019050919050565b600060208201905081810360008301526141d581614199565b9050919050565b60006141e782612a40565b91506141f283612a40565b92508261420257614201613bd2565b5b828206905092915050565b7f416363657373436f6e74726f6c3a206163636f756e7420000000000000000000600082015250565b60006142436017836137a3565b915061424e8261420d565b601782019050919050565b7f206973206d697373696e6720726f6c6520000000000000000000000000000000600082015250565b600061428f6011836137a3565b915061429a82614259565b601182019050919050565b60006142b082614236565b91506142bc828561385e565b91506142c782614282565b91506142d3828461385e565b91508190509392505050565b7f455243313936373a206e657720696d706c656d656e746174696f6e206973206e60008201527f6f74206120636f6e747261637400000000000000000000000000000000000000602082015250565b600061433b602d83613089565b9150614346826142df565b604082019050919050565b6000602082019050818103600083015261436a8161432e565b9050919050565b600061437c82612a40565b91506000820361438f5761438e6133e9565b5b600182039050919050565b7f537472696e67733a20686578206c656e67746820696e73756666696369656e74600082015250565b60006143d0602083613089565b91506143db8261439a565b602082019050919050565b600060208201905081810360008301526143ff816143c3565b9050919050565b7f416464726573733a2064656c65676174652063616c6c20746f206e6f6e2d636f60008201527f6e74726163740000000000000000000000000000000000000000000000000000602082015250565b6000614462602683613089565b915061446d82614406565b604082019050919050565b6000602082019050818103600083015261449181614455565b9050919050565b600081519050919050565b60006144ae82614498565b6144b88185613c8c565b93506144c881856020860161382b565b80840191505092915050565b60006144e082846144a3565b91508190509291505056fe416464726573733a206c6f772d6c6576656c2064656c65676174652063616c6c206661696c6564a264697066735822122081f78a1b8b99acf43fe56693c55b4beb0dad10fd010a91f587e7013112ae843f64736f6c634300080d0033",
  "immutableReferences": {
    "983": [
      {
        "length": 32,
        "start": 2049
      },
      {
        "length": 32,
        "start": 2191
      },
      {
        "length": 32,
        "start": 3121
      },
      {
        "length": 32,
        "start": 3263
      },
      {
        "length": 32,
        "start": 3439
      }
    ]
  },
  "source": "// SPDX-License-Identifier: MIT\r\npragma solidity ^0.8.2;\r\n\r\nimport \"@openzeppelin/contracts-upgradeable/access/AccessControlUpgradeable.sol\";\r\nimport \"@openzeppelin/contracts-upgradeable/proxy/utils/Initializable.sol\";\r\nimport \"@openzeppelin/contracts-upgradeable/proxy/utils/UUPSUpgradeable.sol\";\r\nimport \"@openzeppelin/contracts/token/ERC721/IERC721.sol\";\r\nimport \"@openzeppelin/contracts/utils/Strings.sol\";\r\n\r\ncontract NftExchange is\r\n    Initializable,\r\n    AccessControlUpgradeable,\r\n    UUPSUpgradeable\r\n{\r\n    bytes32 public constant EXADMIN_ROLE = keccak256(\"EXADMIN_ROLE\");\r\n    bytes32 public constant WITHDRAW_ROLE = keccak256(\"WITHDRAW_ROLE\");\r\n    bytes32 public constant UPGRADER_ROLE = keccak256(\"UPGRADER_ROLE\");\r\n\r\n    IERC721[] private _nftCodes;\r\n    mapping(address => bool) _isInCodeList;\r\n    uint256 private _minDuration;\r\n    uint256 private _maxDuration;\r\n    mapping(address => mapping(uint256 => uint256)) private _offShelfTime;\r\n    mapping(address => mapping(uint256 => uint256)) private _prices;\r\n\r\n    function getVersion() public pure returns (uint256 version) {\r\n        return 1;\r\n    }\r\n\r\n    function _authorizeUpgrade(address newImplementation)\r\n        internal\r\n        override\r\n        onlyRole(UPGRADER_ROLE)\r\n    {}\r\n\r\n    // minDuration = 86400\r\n    // maxDuration = 15552000\r\n    function initialize(uint256 minDuration, uint256 maxDuration)\r\n        public\r\n        initializer\r\n    {\r\n        _minDuration = minDuration;\r\n        _maxDuration = maxDuration;\r\n\r\n        _grantRole(DEFAULT_ADMIN_ROLE, msg.sender);\r\n        _grantRole(EXADMIN_ROLE, msg.sender);\r\n        _grantRole(WITHDRAW_ROLE, msg.sender);\r\n        _grantRole(UPGRADER_ROLE, msg.sender);\r\n    }\r\n\r\n    function supportsInterface(bytes4 interfaceId)\r\n        public\r\n        view\r\n        override(AccessControlUpgradeable)\r\n        returns (bool)\r\n    {\r\n        return super.supportsInterface(interfaceId);\r\n    }\r\n\r\n    event DoneOnShelf(\r\n        address owner,\r\n        address nftCode,\r\n        uint256 tokenId,\r\n        uint256 price,\r\n        uint256 timestamps\r\n    );\r\n    event DonePurchase(\r\n        address from,\r\n        address to,\r\n        address nftCode,\r\n        uint256 tokenId,\r\n        uint256 price\r\n    );\r\n    event DoneWithdraw(address to, uint256 amount);\r\n\r\n    function setMinDuration(uint256 duration) public onlyRole(EXADMIN_ROLE) {\r\n        require(duration <= 8640000000, \"NftExchange: Min duration error!\");\r\n        require(\r\n            duration < getMaxDuration(),\r\n            \"NftExchange: Min duration should be less than the max duration!\"\r\n        );\r\n        _minDuration = duration;\r\n    }\r\n\r\n    function getMinDuration() public view returns (uint256 duration) {\r\n        return _minDuration;\r\n    }\r\n\r\n    function setMaxDuration(uint256 duration) public onlyRole(EXADMIN_ROLE) {\r\n        require(duration <= 8640000000, \"NftExchange: Max duration error!\");\r\n        require(\r\n            duration > getMinDuration(),\r\n            \"NftExchange: Max duration should be greater than the min duration!\"\r\n        );\r\n        _maxDuration = duration;\r\n    }\r\n\r\n    function getMaxDuration() public view returns (uint256 duration) {\r\n        return _maxDuration;\r\n    }\r\n\r\n    function addNftCode(IERC721 nftCode) public onlyRole(EXADMIN_ROLE) {\r\n        require(\r\n            !_isInCodeList[address(nftCode)],\r\n            \"the nftCode is already in code list.\"\r\n        );\r\n\r\n        _nftCodes.push(nftCode);\r\n        _isInCodeList[address(nftCode)] = true;\r\n    }\r\n\r\n    function rmNftCode(IERC721 nftCode) public onlyRole(EXADMIN_ROLE) {\r\n        require(\r\n            _isInCodeList[address(nftCode)],\r\n            \"the nftCode is not in code list.\"\r\n        );\r\n\r\n        bool finded = false;\r\n        for (uint256 i = 0; i < _nftCodes.length; i++) {\r\n            if (finded) {\r\n                _nftCodes[i - 1] = _nftCodes[i];\r\n            } else if (_nftCodes[i] == nftCode) {\r\n                finded = true;\r\n            }\r\n        }\r\n        _nftCodes.pop();\r\n        _isInCodeList[address(nftCode)] = false;\r\n    }\r\n\r\n    function getNftCodes() public view returns (IERC721[] memory nftCodes) {\r\n        return _nftCodes;\r\n    }\r\n\r\n    function getOffShelfTime(address nftCode, uint256 tokenId)\r\n        public\r\n        view\r\n        returns (uint256 offShelfTime)\r\n    {\r\n        return _offShelfTime[nftCode][tokenId];\r\n    }\r\n\r\n    function getPrices(address nftCode, uint256 tokenId)\r\n        public\r\n        view\r\n        returns (uint256 price)\r\n    {\r\n        return _prices[nftCode][tokenId];\r\n    }\r\n\r\n    function withdraw(address to, uint256 amount)\r\n        public\r\n        onlyRole(WITHDRAW_ROLE)\r\n    {\r\n        // require(amount <= address(this).balance, \"NftExchange: withdraw amount error!\");\r\n        (bool success, ) = to.call{value: amount}(\"\");\r\n        require(success, \"NftExchange: withdraw error!\");\r\n\r\n        emit DoneWithdraw(msg.sender, amount);\r\n    }\r\n\r\n    function sell(\r\n        IERC721 nftCode,\r\n        uint256 tokenId,\r\n        uint256 price,\r\n        uint256 offShelfTime\r\n    ) public {\r\n        require(\r\n            _isInCodeList[address(nftCode)],\r\n            \"please add the nftCode in the code list first.\"\r\n        );\r\n        address owner = nftCode.ownerOf(tokenId);\r\n        require(msg.sender == owner, \"NftExchange: seller is not nft owner\");\r\n        require(\r\n            offShelfTime >= getMinDuration() + block.timestamp,\r\n            string(\r\n                abi.encodePacked(\r\n                    \"NftExchange: offShelfTime at least  \",\r\n                    Strings.toString(getMinDuration() + block.timestamp)\r\n                )\r\n            )\r\n        );\r\n        uint256 duration = offShelfTime - block.timestamp;\r\n        require(\r\n            duration >= getMinDuration() && duration <= getMaxDuration(),\r\n            string(\r\n                abi.encodePacked(\r\n                    \"NftExchange: duration not in \",\r\n                    Strings.toString(getMinDuration()),\r\n                    \"-\",\r\n                    Strings.toString(getMaxDuration())\r\n                )\r\n            )\r\n        );\r\n        require(price <= 9999999900000000000000, \"price max is 9999.9999\");\r\n        _offShelfTime[address(nftCode)][tokenId] = offShelfTime;\r\n        _prices[address(nftCode)][tokenId] = price;\r\n        emit DoneOnShelf(\r\n            owner,\r\n            address(nftCode),\r\n            tokenId,\r\n            price,\r\n            _offShelfTime[address(nftCode)][tokenId]\r\n        );\r\n    }\r\n\r\n    function buy(IERC721 nftCode, uint256 tokenId) public payable {\r\n        require(\r\n            _isInCodeList[address(nftCode)],\r\n            \"please add the nftCode in the code list first.\"\r\n        );\r\n        require(\r\n            block.timestamp <= getOffShelfTime(address(nftCode), tokenId),\r\n            \"NftExchange: nft not on the shelf!\"\r\n        );\r\n        uint256 price = _prices[address(nftCode)][tokenId];\r\n        require(\r\n            msg.value >= price,\r\n            string(\r\n                abi.encodePacked(\r\n                    \"NftExchange: value Quantity less than \",\r\n                    Strings.toString(price)\r\n                )\r\n            )\r\n        );\r\n        address from = nftCode.ownerOf(tokenId);\r\n\r\n        uint256 harvest = (price / 100) * 98;\r\n        (bool success, ) = from.call{value: harvest}(\"\");\r\n        require(success, \"NftExchange: payment failure!\");\r\n        nftCode.safeTransferFrom(from, msg.sender, tokenId);\r\n\r\n        _offShelfTime[address(nftCode)][tokenId] = 0;\r\n        emit DonePurchase(from, msg.sender, address(nftCode), tokenId, price);\r\n    }\r\n}\r\n",
  "sourcePath": "C:\\linden\\eth-contracts\\nftExchange\\contracts\\NftExchange.sol",
  "compiler": {
    "name": "solc",
    "version": "0.8.13+commit.abaa5c0e.Emscripten.clang"
  },
  "schemaVersion": "3.4.8",
  "updatedAt": "2023-03-13T07:42:02.656Z",
  "devdoc": {
    "kind": "dev",
    "methods": {
      "getRoleAdmin(bytes32)": {
        "details": "Returns the admin role that controls `role`. See {grantRole} and {revokeRole}. To change a role's admin, use {_setRoleAdmin}."
      },
      "grantRole(bytes32,address)": {
        "details": "Grants `role` to `account`. If `account` had not been already granted `role`, emits a {RoleGranted} event. Requirements: - the caller must have ``role``'s admin role. May emit a {RoleGranted} event."
      },
      "hasRole(bytes32,address)": {
        "details": "Returns `true` if `account` has been granted `role`."
      },
      "proxiableUUID()": {
        "details": "Implementation of the ERC1822 {proxiableUUID} function. This returns the storage slot used by the implementation. It is used to validate that the this implementation remains valid after an upgrade. IMPORTANT: A proxy pointing at a proxiable contract should not be considered proxiable itself, because this risks bricking a proxy that upgrades to it, by delegating to itself until out of gas. Thus it is critical that this function revert if invoked through a proxy. This is guaranteed by the `notDelegated` modifier."
      },
      "renounceRole(bytes32,address)": {
        "details": "Revokes `role` from the calling account. Roles are often managed via {grantRole} and {revokeRole}: this function's purpose is to provide a mechanism for accounts to lose their privileges if they are compromised (such as when a trusted device is misplaced). If the calling account had been revoked `role`, emits a {RoleRevoked} event. Requirements: - the caller must be `account`. May emit a {RoleRevoked} event."
      },
      "revokeRole(bytes32,address)": {
        "details": "Revokes `role` from `account`. If `account` had been granted `role`, emits a {RoleRevoked} event. Requirements: - the caller must have ``role``'s admin role. May emit a {RoleRevoked} event."
      },
      "supportsInterface(bytes4)": {
        "details": "See {IERC165-supportsInterface}."
      },
      "upgradeTo(address)": {
        "details": "Upgrade the implementation of the proxy to `newImplementation`. Calls {_authorizeUpgrade}. Emits an {Upgraded} event."
      },
      "upgradeToAndCall(address,bytes)": {
        "details": "Upgrade the implementation of the proxy to `newImplementation`, and subsequently execute the function call encoded in `data`. Calls {_authorizeUpgrade}. Emits an {Upgraded} event."
      }
    },
    "version": 1
  },
  "userdoc": {
    "kind": "user",
    "methods": {},
    "version": 1
  }
}