{
	"data": {
		"bytecode": {
			"linkReferences": {},
			"object": "608060405234801561001057600080fd5b50610b41806100206000396000f3fe608060405234801561001057600080fd5b50600436106100625760003560e01c806301ffc9a7146100675780630c817b7c146100975780634525092d146100b3578063aade6b65146100cf578063bc197c81146100eb578063f23a6e611461011b575b600080fd5b610081600480360381019061007c9190610691565b61014b565b60405161008e9190610927565b60405180910390f35b6100b160048036038101906100ac9190610711565b610156565b005b6100cd60048036038101906100c89190610751565b610224565b005b6100e960048036038101906100e491906106be565b6102d1565b005b610105600480360381019061010091906104ee565b610381565b6040516101129190610942565b60405180910390f35b610135600480360381019061013091906105ca565b610399565b6040516101429190610942565b60405180910390f35b600060019050919050565b8173ffffffffffffffffffffffffffffffffffffffff166323b872dd3330846040518463ffffffff1660e01b81526004016101939392919061081d565b602060405180830381600087803b1580156101ad57600080fd5b505af11580156101c1573d6000803e3d6000fd5b505050506040513d601f19601f820116820180604052508101906101e59190610664565b507f17ccc49dbd040dde63a62914402f804b9c86f4d2d3c3d0522a9ca7ec9c1b50123360026040516102189291906108fe565b60405180910390a15050565b8173ffffffffffffffffffffffffffffffffffffffff166342842e0e3330846040518463ffffffff1660e01b81526004016102619392919061081d565b600060405180830381600087803b15801561027b57600080fd5b505af115801561028f573d6000803e3d6000fd5b505050507f17ccc49dbd040dde63a62914402f804b9c86f4d2d3c3d0522a9ca7ec9c1b50123360016040516102c59291906108d5565b60405180910390a15050565b8273ffffffffffffffffffffffffffffffffffffffff1663f242432a333085856040518563ffffffff1660e01b81526004016103109493929190610854565b600060405180830381600087803b15801561032a57600080fd5b505af115801561033e573d6000803e3d6000fd5b505050507f17ccc49dbd040dde63a62914402f804b9c86f4d2d3c3d0522a9ca7ec9c1b50123360006040516103749291906108ac565b60405180910390a1505050565b600063bc197c8160e01b905098975050505050505050565b600063f23a6e6160e01b90509695505050505050565b6000813590506103be81610a6a565b92915050565b60008083601f8401126103da576103d9610a53565b5b8235905067ffffffffffffffff8111156103f7576103f6610a4e565b5b60208301915083602082028301111561041357610412610a58565b5b9250929050565b60008151905061042981610a81565b92915050565b60008135905061043e81610a98565b92915050565b60008083601f84011261045a57610459610a53565b5b8235905067ffffffffffffffff81111561047757610476610a4e565b5b60208301915083600182028301111561049357610492610a58565b5b9250929050565b6000813590506104a981610aaf565b92915050565b6000813590506104be81610ac6565b92915050565b6000813590506104d381610add565b92915050565b6000813590506104e881610af4565b92915050565b60008060008060008060008060a0898b03121561050e5761050d610a62565b5b600061051c8b828c016103af565b985050602061052d8b828c016103af565b975050604089013567ffffffffffffffff81111561054e5761054d610a5d565b5b61055a8b828c016103c4565b9650965050606089013567ffffffffffffffff81111561057d5761057c610a5d565b5b6105898b828c016103c4565b9450945050608089013567ffffffffffffffff8111156105ac576105ab610a5d565b5b6105b88b828c01610444565b92509250509295985092959890939650565b60008060008060008060a087890312156105e7576105e6610a62565b5b60006105f589828a016103af565b965050602061060689828a016103af565b955050604061061789828a016104d9565b945050606061062889828a016104d9565b935050608087013567ffffffffffffffff81111561064957610648610a5d565b5b61065589828a01610444565b92509250509295509295509295565b60006020828403121561067a57610679610a62565b5b60006106888482850161041a565b91505092915050565b6000602082840312156106a7576106a6610a62565b5b60006106b58482850161042f565b91505092915050565b6000806000606084860312156106d7576106d6610a62565b5b60006106e58682870161049a565b93505060206106f6868287016104d9565b9250506040610707868287016104d9565b9150509250925092565b6000806040838503121561072857610727610a62565b5b6000610736858286016104af565b9250506020610747858286016104d9565b9150509250929050565b6000806040838503121561076857610767610a62565b5b6000610776858286016104c4565b9250506020610787858286016104d9565b9150509250929050565b61079a8161096e565b82525050565b6107a981610980565b82525050565b6107b88161098c565b82525050565b6107c781610a18565b82525050565b6107d681610a2a565b82525050565b6107e581610a3c565b82525050565b60006107f860008361095d565b915061080382610a67565b600082019050919050565b61081781610a0e565b82525050565b60006060820190506108326000830186610791565b61083f6020830185610791565b61084c604083018461080e565b949350505050565b600060a0820190506108696000830187610791565b6108766020830186610791565b610883604083018561080e565b610890606083018461080e565b81810360808301526108a1816107eb565b905095945050505050565b60006040820190506108c16000830185610791565b6108ce60208301846107be565b9392505050565b60006040820190506108ea6000830185610791565b6108f760208301846107cd565b9392505050565b60006040820190506109136000830185610791565b61092060208301846107dc565b9392505050565b600060208201905061093c60008301846107a0565b92915050565b600060208201905061095760008301846107af565b92915050565b600082825260208201905092915050565b6000610979826109ee565b9050919050565b60008115159050919050565b60007fffffffff0000000000000000000000000000000000000000000000000000000082169050919050565b60006109c38261096e565b9050919050565b60006109d58261096e565b9050919050565b60006109e78261096e565b9050919050565b600073ffffffffffffffffffffffffffffffffffffffff82169050919050565b6000819050919050565b6000610a2382610a0e565b9050919050565b6000610a3582610a0e565b9050919050565b6000610a4782610a0e565b9050919050565b600080fd5b600080fd5b600080fd5b600080fd5b600080fd5b50565b610a738161096e565b8114610a7e57600080fd5b50565b610a8a81610980565b8114610a9557600080fd5b50565b610aa18161098c565b8114610aac57600080fd5b50565b610ab8816109b8565b8114610ac357600080fd5b50565b610acf816109ca565b8114610ada57600080fd5b50565b610ae6816109dc565b8114610af157600080fd5b50565b610afd81610a0e565b8114610b0857600080fd5b5056fea2646970667358221220e65dd8e506f06c8d107af410e94491d17fdc6d1e0bae72a0023e6ee015cbbff764736f6c63430008070033",
			"opcodes": "PUSH1 0x80 PUSH1 0x40 MSTORE CALLVALUE DUP1 ISZERO PUSH2 0x10 JUMPI PUSH1 0x0 DUP1 REVERT JUMPDEST POP PUSH2 0xB41 DUP1 PUSH2 0x20 PUSH1 0x0 CODECOPY PUSH1 0x0 RETURN INVALID PUSH1 0x80 PUSH1 0x40 MSTORE CALLVALUE DUP1 ISZERO PUSH2 0x10 JUMPI PUSH1 0x0 DUP1 REVERT JUMPDEST POP PUSH1 0x4 CALLDATASIZE LT PUSH2 0x62 JUMPI PUSH1 0x0 CALLDATALOAD PUSH1 0xE0 SHR DUP1 PUSH4 0x1FFC9A7 EQ PUSH2 0x67 JUMPI DUP1 PUSH4 0xC817B7C EQ PUSH2 0x97 JUMPI DUP1 PUSH4 0x4525092D EQ PUSH2 0xB3 JUMPI DUP1 PUSH4 0xAADE6B65 EQ PUSH2 0xCF JUMPI DUP1 PUSH4 0xBC197C81 EQ PUSH2 0xEB JUMPI DUP1 PUSH4 0xF23A6E61 EQ PUSH2 0x11B JUMPI JUMPDEST PUSH1 0x0 DUP1 REVERT JUMPDEST PUSH2 0x81 PUSH1 0x4 DUP1 CALLDATASIZE SUB DUP2 ADD SWAP1 PUSH2 0x7C SWAP2 SWAP1 PUSH2 0x691 JUMP JUMPDEST PUSH2 0x14B JUMP JUMPDEST PUSH1 0x40 MLOAD PUSH2 0x8E SWAP2 SWAP1 PUSH2 0x927 JUMP JUMPDEST PUSH1 0x40 MLOAD DUP1 SWAP2 SUB SWAP1 RETURN JUMPDEST PUSH2 0xB1 PUSH1 0x4 DUP1 CALLDATASIZE SUB DUP2 ADD SWAP1 PUSH2 0xAC SWAP2 SWAP1 PUSH2 0x711 JUMP JUMPDEST PUSH2 0x156 JUMP JUMPDEST STOP JUMPDEST PUSH2 0xCD PUSH1 0x4 DUP1 CALLDATASIZE SUB DUP2 ADD SWAP1 PUSH2 0xC8 SWAP2 SWAP1 PUSH2 0x751 JUMP JUMPDEST PUSH2 0x224 JUMP JUMPDEST STOP JUMPDEST PUSH2 0xE9 PUSH1 0x4 DUP1 CALLDATASIZE SUB DUP2 ADD SWAP1 PUSH2 0xE4 SWAP2 SWAP1 PUSH2 0x6BE JUMP JUMPDEST PUSH2 0x2D1 JUMP JUMPDEST STOP JUMPDEST PUSH2 0x105 PUSH1 0x4 DUP1 CALLDATASIZE SUB DUP2 ADD SWAP1 PUSH2 0x100 SWAP2 SWAP1 PUSH2 0x4EE JUMP JUMPDEST PUSH2 0x381 JUMP JUMPDEST PUSH1 0x40 MLOAD PUSH2 0x112 SWAP2 SWAP1 PUSH2 0x942 JUMP JUMPDEST PUSH1 0x40 MLOAD DUP1 SWAP2 SUB SWAP1 RETURN JUMPDEST PUSH2 0x135 PUSH1 0x4 DUP1 CALLDATASIZE SUB DUP2 ADD SWAP1 PUSH2 0x130 SWAP2 SWAP1 PUSH2 0x5CA JUMP JUMPDEST PUSH2 0x399 JUMP JUMPDEST PUSH1 0x40 MLOAD PUSH2 0x142 SWAP2 SWAP1 PUSH2 0x942 JUMP JUMPDEST PUSH1 0x40 MLOAD DUP1 SWAP2 SUB SWAP1 RETURN JUMPDEST PUSH1 0x0 PUSH1 0x1 SWAP1 POP SWAP2 SWAP1 POP JUMP JUMPDEST DUP2 PUSH20 0xFFFFFFFFFFFFFFFFFFFFFFFFFFFFFFFFFFFFFFFF AND PUSH4 0x23B872DD CALLER ADDRESS DUP5 PUSH1 0x40 MLOAD DUP5 PUSH4 0xFFFFFFFF AND PUSH1 0xE0 SHL DUP2 MSTORE PUSH1 0x4 ADD PUSH2 0x193 SWAP4 SWAP3 SWAP2 SWAP1 PUSH2 0x81D JUMP JUMPDEST PUSH1 0x20 PUSH1 0x40 MLOAD DUP1 DUP4 SUB DUP2 PUSH1 0x0 DUP8 DUP1 EXTCODESIZE ISZERO DUP1 ISZERO PUSH2 0x1AD JUMPI PUSH1 0x0 DUP1 REVERT JUMPDEST POP GAS CALL ISZERO DUP1 ISZERO PUSH2 0x1C1 JUMPI RETURNDATASIZE PUSH1 0x0 DUP1 RETURNDATACOPY RETURNDATASIZE PUSH1 0x0 REVERT JUMPDEST POP POP POP POP PUSH1 0x40 MLOAD RETURNDATASIZE PUSH1 0x1F NOT PUSH1 0x1F DUP3 ADD AND DUP3 ADD DUP1 PUSH1 0x40 MSTORE POP DUP2 ADD SWAP1 PUSH2 0x1E5 SWAP2 SWAP1 PUSH2 0x664 JUMP JUMPDEST POP PUSH32 0x17CCC49DBD040DDE63A62914402F804B9C86F4D2D3C3D0522A9CA7EC9C1B5012 CALLER PUSH1 0x2 PUSH1 0x40 MLOAD PUSH2 0x218 SWAP3 SWAP2 SWAP1 PUSH2 0x8FE JUMP JUMPDEST PUSH1 0x40 MLOAD DUP1 SWAP2 SUB SWAP1 LOG1 POP POP JUMP JUMPDEST DUP2 PUSH20 0xFFFFFFFFFFFFFFFFFFFFFFFFFFFFFFFFFFFFFFFF AND PUSH4 0x42842E0E CALLER ADDRESS DUP5 PUSH1 0x40 MLOAD DUP5 PUSH4 0xFFFFFFFF AND PUSH1 0xE0 SHL DUP2 MSTORE PUSH1 0x4 ADD PUSH2 0x261 SWAP4 SWAP3 SWAP2 SWAP1 PUSH2 0x81D JUMP JUMPDEST PUSH1 0x0 PUSH1 0x40 MLOAD DUP1 DUP4 SUB DUP2 PUSH1 0x0 DUP8 DUP1 EXTCODESIZE ISZERO DUP1 ISZERO PUSH2 0x27B JUMPI PUSH1 0x0 DUP1 REVERT JUMPDEST POP GAS CALL ISZERO DUP1 ISZERO PUSH2 0x28F JUMPI RETURNDATASIZE PUSH1 0x0 DUP1 RETURNDATACOPY RETURNDATASIZE PUSH1 0x0 REVERT JUMPDEST POP POP POP POP PUSH32 0x17CCC49DBD040DDE63A62914402F804B9C86F4D2D3C3D0522A9CA7EC9C1B5012 CALLER PUSH1 0x1 PUSH1 0x40 MLOAD PUSH2 0x2C5 SWAP3 SWAP2 SWAP1 PUSH2 0x8D5 JUMP JUMPDEST PUSH1 0x40 MLOAD DUP1 SWAP2 SUB SWAP1 LOG1 POP POP JUMP JUMPDEST DUP3 PUSH20 0xFFFFFFFFFFFFFFFFFFFFFFFFFFFFFFFFFFFFFFFF AND PUSH4 0xF242432A CALLER ADDRESS DUP6 DUP6 PUSH1 0x40 MLOAD DUP6 PUSH4 0xFFFFFFFF AND PUSH1 0xE0 SHL DUP2 MSTORE PUSH1 0x4 ADD PUSH2 0x310 SWAP5 SWAP4 SWAP3 SWAP2 SWAP1 PUSH2 0x854 JUMP JUMPDEST PUSH1 0x0 PUSH1 0x40 MLOAD DUP1 DUP4 SUB DUP2 PUSH1 0x0 DUP8 DUP1 EXTCODESIZE ISZERO DUP1 ISZERO PUSH2 0x32A JUMPI PUSH1 0x0 DUP1 REVERT JUMPDEST POP GAS CALL ISZERO DUP1 ISZERO PUSH2 0x33E JUMPI RETURNDATASIZE PUSH1 0x0 DUP1 RETURNDATACOPY RETURNDATASIZE PUSH1 0x0 REVERT JUMPDEST POP POP POP POP PUSH32 0x17CCC49DBD040DDE63A62914402F804B9C86F4D2D3C3D0522A9CA7EC9C1B5012 CALLER PUSH1 0x0 PUSH1 0x40 MLOAD PUSH2 0x374 SWAP3 SWAP2 SWAP1 PUSH2 0x8AC JUMP JUMPDEST PUSH1 0x40 MLOAD DUP1 SWAP2 SUB SWAP1 LOG1 POP POP POP JUMP JUMPDEST PUSH1 0x0 PUSH4 0xBC197C81 PUSH1 0xE0 SHL SWAP1 POP SWAP9 SWAP8 POP POP POP POP POP POP POP POP JUMP JUMPDEST PUSH1 0x0 PUSH4 0xF23A6E61 PUSH1 0xE0 SHL SWAP1 POP SWAP7 SWAP6 POP POP POP POP POP POP JUMP JUMPDEST PUSH1 0x0 DUP2 CALLDATALOAD SWAP1 POP PUSH2 0x3BE DUP2 PUSH2 0xA6A JUMP JUMPDEST SWAP3 SWAP2 POP POP JUMP JUMPDEST PUSH1 0x0 DUP1 DUP4 PUSH1 0x1F DUP5 ADD SLT PUSH2 0x3DA JUMPI PUSH2 0x3D9 PUSH2 0xA53 JUMP JUMPDEST JUMPDEST DUP3 CALLDATALOAD SWAP1 POP PUSH8 0xFFFFFFFFFFFFFFFF DUP2 GT ISZERO PUSH2 0x3F7 JUMPI PUSH2 0x3F6 PUSH2 0xA4E JUMP JUMPDEST JUMPDEST PUSH1 0x20 DUP4 ADD SWAP2 POP DUP4 PUSH1 0x20 DUP3 MUL DUP4 ADD GT ISZERO PUSH2 0x413 JUMPI PUSH2 0x412 PUSH2 0xA58 JUMP JUMPDEST JUMPDEST SWAP3 POP SWAP3 SWAP1 POP JUMP JUMPDEST PUSH1 0x0 DUP2 MLOAD SWAP1 POP PUSH2 0x429 DUP2 PUSH2 0xA81 JUMP JUMPDEST SWAP3 SWAP2 POP POP JUMP JUMPDEST PUSH1 0x0 DUP2 CALLDATALOAD SWAP1 POP PUSH2 0x43E DUP2 PUSH2 0xA98 JUMP JUMPDEST SWAP3 SWAP2 POP POP JUMP JUMPDEST PUSH1 0x0 DUP1 DUP4 PUSH1 0x1F DUP5 ADD SLT PUSH2 0x45A JUMPI PUSH2 0x459 PUSH2 0xA53 JUMP JUMPDEST JUMPDEST DUP3 CALLDATALOAD SWAP1 POP PUSH8 0xFFFFFFFFFFFFFFFF DUP2 GT ISZERO PUSH2 0x477 JUMPI PUSH2 0x476 PUSH2 0xA4E JUMP JUMPDEST JUMPDEST PUSH1 0x20 DUP4 ADD SWAP2 POP DUP4 PUSH1 0x1 DUP3 MUL DUP4 ADD GT ISZERO PUSH2 0x493 JUMPI PUSH2 0x492 PUSH2 0xA58 JUMP JUMPDEST JUMPDEST SWAP3 POP SWAP3 SWAP1 POP JUMP JUMPDEST PUSH1 0x0 DUP2 CALLDATALOAD SWAP1 POP PUSH2 0x4A9 DUP2 PUSH2 0xAAF JUMP JUMPDEST SWAP3 SWAP2 POP POP JUMP JUMPDEST PUSH1 0x0 DUP2 CALLDATALOAD SWAP1 POP PUSH2 0x4BE DUP2 PUSH2 0xAC6 JUMP JUMPDEST SWAP3 SWAP2 POP POP JUMP JUMPDEST PUSH1 0x0 DUP2 CALLDATALOAD SWAP1 POP PUSH2 0x4D3 DUP2 PUSH2 0xADD JUMP JUMPDEST SWAP3 SWAP2 POP POP JUMP JUMPDEST PUSH1 0x0 DUP2 CALLDATALOAD SWAP1 POP PUSH2 0x4E8 DUP2 PUSH2 0xAF4 JUMP JUMPDEST SWAP3 SWAP2 POP POP JUMP JUMPDEST PUSH1 0x0 DUP1 PUSH1 0x0 DUP1 PUSH1 0x0 DUP1 PUSH1 0x0 DUP1 PUSH1 0xA0 DUP10 DUP12 SUB SLT ISZERO PUSH2 0x50E JUMPI PUSH2 0x50D PUSH2 0xA62 JUMP JUMPDEST JUMPDEST PUSH1 0x0 PUSH2 0x51C DUP12 DUP3 DUP13 ADD PUSH2 0x3AF JUMP JUMPDEST SWAP9 POP POP PUSH1 0x20 PUSH2 0x52D DUP12 DUP3 DUP13 ADD PUSH2 0x3AF JUMP JUMPDEST SWAP8 POP POP PUSH1 0x40 DUP10 ADD CALLDATALOAD PUSH8 0xFFFFFFFFFFFFFFFF DUP2 GT ISZERO PUSH2 0x54E JUMPI PUSH2 0x54D PUSH2 0xA5D JUMP JUMPDEST JUMPDEST PUSH2 0x55A DUP12 DUP3 DUP13 ADD PUSH2 0x3C4 JUMP JUMPDEST SWAP7 POP SWAP7 POP POP PUSH1 0x60 DUP10 ADD CALLDATALOAD PUSH8 0xFFFFFFFFFFFFFFFF DUP2 GT ISZERO PUSH2 0x57D JUMPI PUSH2 0x57C PUSH2 0xA5D JUMP JUMPDEST JUMPDEST PUSH2 0x589 DUP12 DUP3 DUP13 ADD PUSH2 0x3C4 JUMP JUMPDEST SWAP5 POP SWAP5 POP POP PUSH1 0x80 DUP10 ADD CALLDATALOAD PUSH8 0xFFFFFFFFFFFFFFFF DUP2 GT ISZERO PUSH2 0x5AC JUMPI PUSH2 0x5AB PUSH2 0xA5D JUMP JUMPDEST JUMPDEST PUSH2 0x5B8 DUP12 DUP3 DUP13 ADD PUSH2 0x444 JUMP JUMPDEST SWAP3 POP SWAP3 POP POP SWAP3 SWAP6 SWAP9 POP SWAP3 SWAP6 SWAP9 SWAP1 SWAP4 SWAP7 POP JUMP JUMPDEST PUSH1 0x0 DUP1 PUSH1 0x0 DUP1 PUSH1 0x0 DUP1 PUSH1 0xA0 DUP8 DUP10 SUB SLT ISZERO PUSH2 0x5E7 JUMPI PUSH2 0x5E6 PUSH2 0xA62 JUMP JUMPDEST JUMPDEST PUSH1 0x0 PUSH2 0x5F5 DUP10 DUP3 DUP11 ADD PUSH2 0x3AF JUMP JUMPDEST SWAP7 POP POP PUSH1 0x20 PUSH2 0x606 DUP10 DUP3 DUP11 ADD PUSH2 0x3AF JUMP JUMPDEST SWAP6 POP POP PUSH1 0x40 PUSH2 0x617 DUP10 DUP3 DUP11 ADD PUSH2 0x4D9 JUMP JUMPDEST SWAP5 POP POP PUSH1 0x60 PUSH2 0x628 DUP10 DUP3 DUP11 ADD PUSH2 0x4D9 JUMP JUMPDEST SWAP4 POP POP PUSH1 0x80 DUP8 ADD CALLDATALOAD PUSH8 0xFFFFFFFFFFFFFFFF DUP2 GT ISZERO PUSH2 0x649 JUMPI PUSH2 0x648 PUSH2 0xA5D JUMP JUMPDEST JUMPDEST PUSH2 0x655 DUP10 DUP3 DUP11 ADD PUSH2 0x444 JUMP JUMPDEST SWAP3 POP SWAP3 POP POP SWAP3 SWAP6 POP SWAP3 SWAP6 POP SWAP3 SWAP6 JUMP JUMPDEST PUSH1 0x0 PUSH1 0x20 DUP3 DUP5 SUB SLT ISZERO PUSH2 0x67A JUMPI PUSH2 0x679 PUSH2 0xA62 JUMP JUMPDEST JUMPDEST PUSH1 0x0 PUSH2 0x688 DUP5 DUP3 DUP6 ADD PUSH2 0x41A JUMP JUMPDEST SWAP2 POP POP SWAP3 SWAP2 POP POP JUMP JUMPDEST PUSH1 0x0 PUSH1 0x20 DUP3 DUP5 SUB SLT ISZERO PUSH2 0x6A7 JUMPI PUSH2 0x6A6 PUSH2 0xA62 JUMP JUMPDEST JUMPDEST PUSH1 0x0 PUSH2 0x6B5 DUP5 DUP3 DUP6 ADD PUSH2 0x42F JUMP JUMPDEST SWAP2 POP POP SWAP3 SWAP2 POP POP JUMP JUMPDEST PUSH1 0x0 DUP1 PUSH1 0x0 PUSH1 0x60 DUP5 DUP7 SUB SLT ISZERO PUSH2 0x6D7 JUMPI PUSH2 0x6D6 PUSH2 0xA62 JUMP JUMPDEST JUMPDEST PUSH1 0x0 PUSH2 0x6E5 DUP7 DUP3 DUP8 ADD PUSH2 0x49A JUMP JUMPDEST SWAP4 POP POP PUSH1 0x20 PUSH2 0x6F6 DUP7 DUP3 DUP8 ADD PUSH2 0x4D9 JUMP JUMPDEST SWAP3 POP POP PUSH1 0x40 PUSH2 0x707 DUP7 DUP3 DUP8 ADD PUSH2 0x4D9 JUMP JUMPDEST SWAP2 POP POP SWAP3 POP SWAP3 POP SWAP3 JUMP JUMPDEST PUSH1 0x0 DUP1 PUSH1 0x40 DUP4 DUP6 SUB SLT ISZERO PUSH2 0x728 JUMPI PUSH2 0x727 PUSH2 0xA62 JUMP JUMPDEST JUMPDEST PUSH1 0x0 PUSH2 0x736 DUP6 DUP3 DUP7 ADD PUSH2 0x4AF JUMP JUMPDEST SWAP3 POP POP PUSH1 0x20 PUSH2 0x747 DUP6 DUP3 DUP7 ADD PUSH2 0x4D9 JUMP JUMPDEST SWAP2 POP POP SWAP3 POP SWAP3 SWAP1 POP JUMP JUMPDEST PUSH1 0x0 DUP1 PUSH1 0x40 DUP4 DUP6 SUB SLT ISZERO PUSH2 0x768 JUMPI PUSH2 0x767 PUSH2 0xA62 JUMP JUMPDEST JUMPDEST PUSH1 0x0 PUSH2 0x776 DUP6 DUP3 DUP7 ADD PUSH2 0x4C4 JUMP JUMPDEST SWAP3 POP POP PUSH1 0x20 PUSH2 0x787 DUP6 DUP3 DUP7 ADD PUSH2 0x4D9 JUMP JUMPDEST SWAP2 POP POP SWAP3 POP SWAP3 SWAP1 POP JUMP JUMPDEST PUSH2 0x79A DUP2 PUSH2 0x96E JUMP JUMPDEST DUP3 MSTORE POP POP JUMP JUMPDEST PUSH2 0x7A9 DUP2 PUSH2 0x980 JUMP JUMPDEST DUP3 MSTORE POP POP JUMP JUMPDEST PUSH2 0x7B8 DUP2 PUSH2 0x98C JUMP JUMPDEST DUP3 MSTORE POP POP JUMP JUMPDEST PUSH2 0x7C7 DUP2 PUSH2 0xA18 JUMP JUMPDEST DUP3 MSTORE POP POP JUMP JUMPDEST PUSH2 0x7D6 DUP2 PUSH2 0xA2A JUMP JUMPDEST DUP3 MSTORE POP POP JUMP JUMPDEST PUSH2 0x7E5 DUP2 PUSH2 0xA3C JUMP JUMPDEST DUP3 MSTORE POP POP JUMP JUMPDEST PUSH1 0x0 PUSH2 0x7F8 PUSH1 0x0 DUP4 PUSH2 0x95D JUMP JUMPDEST SWAP2 POP PUSH2 0x803 DUP3 PUSH2 0xA67 JUMP JUMPDEST PUSH1 0x0 DUP3 ADD SWAP1 POP SWAP2 SWAP1 POP JUMP JUMPDEST PUSH2 0x817 DUP2 PUSH2 0xA0E JUMP JUMPDEST DUP3 MSTORE POP POP JUMP JUMPDEST PUSH1 0x0 PUSH1 0x60 DUP3 ADD SWAP1 POP PUSH2 0x832 PUSH1 0x0 DUP4 ADD DUP7 PUSH2 0x791 JUMP JUMPDEST PUSH2 0x83F PUSH1 0x20 DUP4 ADD DUP6 PUSH2 0x791 JUMP JUMPDEST PUSH2 0x84C PUSH1 0x40 DUP4 ADD DUP5 PUSH2 0x80E JUMP JUMPDEST SWAP5 SWAP4 POP POP POP POP JUMP JUMPDEST PUSH1 0x0 PUSH1 0xA0 DUP3 ADD SWAP1 POP PUSH2 0x869 PUSH1 0x0 DUP4 ADD DUP8 PUSH2 0x791 JUMP JUMPDEST PUSH2 0x876 PUSH1 0x20 DUP4 ADD DUP7 PUSH2 0x791 JUMP JUMPDEST PUSH2 0x883 PUSH1 0x40 DUP4 ADD DUP6 PUSH2 0x80E JUMP JUMPDEST PUSH2 0x890 PUSH1 0x60 DUP4 ADD DUP5 PUSH2 0x80E JUMP JUMPDEST DUP2 DUP2 SUB PUSH1 0x80 DUP4 ADD MSTORE PUSH2 0x8A1 DUP2 PUSH2 0x7EB JUMP JUMPDEST SWAP1 POP SWAP6 SWAP5 POP POP POP POP POP JUMP JUMPDEST PUSH1 0x0 PUSH1 0x40 DUP3 ADD SWAP1 POP PUSH2 0x8C1 PUSH1 0x0 DUP4 ADD DUP6 PUSH2 0x791 JUMP JUMPDEST PUSH2 0x8CE PUSH1 0x20 DUP4 ADD DUP5 PUSH2 0x7BE JUMP JUMPDEST SWAP4 SWAP3 POP POP POP JUMP JUMPDEST PUSH1 0x0 PUSH1 0x40 DUP3 ADD SWAP1 POP PUSH2 0x8EA PUSH1 0x0 DUP4 ADD DUP6 PUSH2 0x791 JUMP JUMPDEST PUSH2 0x8F7 PUSH1 0x20 DUP4 ADD DUP5 PUSH2 0x7CD JUMP JUMPDEST SWAP4 SWAP3 POP POP POP JUMP JUMPDEST PUSH1 0x0 PUSH1 0x40 DUP3 ADD SWAP1 POP PUSH2 0x913 PUSH1 0x0 DUP4 ADD DUP6 PUSH2 0x791 JUMP JUMPDEST PUSH2 0x920 PUSH1 0x20 DUP4 ADD DUP5 PUSH2 0x7DC JUMP JUMPDEST SWAP4 SWAP3 POP POP POP JUMP JUMPDEST PUSH1 0x0 PUSH1 0x20 DUP3 ADD SWAP1 POP PUSH2 0x93C PUSH1 0x0 DUP4 ADD DUP5 PUSH2 0x7A0 JUMP JUMPDEST SWAP3 SWAP2 POP POP JUMP JUMPDEST PUSH1 0x0 PUSH1 0x20 DUP3 ADD SWAP1 POP PUSH2 0x957 PUSH1 0x0 DUP4 ADD DUP5 PUSH2 0x7AF JUMP JUMPDEST SWAP3 SWAP2 POP POP JUMP JUMPDEST PUSH1 0x0 DUP3 DUP3 MSTORE PUSH1 0x20 DUP3 ADD SWAP1 POP SWAP3 SWAP2 POP POP JUMP JUMPDEST PUSH1 0x0 PUSH2 0x979 DUP3 PUSH2 0x9EE JUMP JUMPDEST SWAP1 POP SWAP2 SWAP1 POP JUMP JUMPDEST PUSH1 0x0 DUP2 ISZERO ISZERO SWAP1 POP SWAP2 SWAP1 POP JUMP JUMPDEST PUSH1 0x0 PUSH32 0xFFFFFFFF00000000000000000000000000000000000000000000000000000000 DUP3 AND SWAP1 POP SWAP2 SWAP1 POP JUMP JUMPDEST PUSH1 0x0 PUSH2 0x9C3 DUP3 PUSH2 0x96E JUMP JUMPDEST SWAP1 POP SWAP2 SWAP1 POP JUMP JUMPDEST PUSH1 0x0 PUSH2 0x9D5 DUP3 PUSH2 0x96E JUMP JUMPDEST SWAP1 POP SWAP2 SWAP1 POP JUMP JUMPDEST PUSH1 0x0 PUSH2 0x9E7 DUP3 PUSH2 0x96E JUMP JUMPDEST SWAP1 POP SWAP2 SWAP1 POP JUMP JUMPDEST PUSH1 0x0 PUSH20 0xFFFFFFFFFFFFFFFFFFFFFFFFFFFFFFFFFFFFFFFF DUP3 AND SWAP1 POP SWAP2 SWAP1 POP JUMP JUMPDEST PUSH1 0x0 DUP2 SWAP1 POP SWAP2 SWAP1 POP JUMP JUMPDEST PUSH1 0x0 PUSH2 0xA23 DUP3 PUSH2 0xA0E JUMP JUMPDEST SWAP1 POP SWAP2 SWAP1 POP JUMP JUMPDEST PUSH1 0x0 PUSH2 0xA35 DUP3 PUSH2 0xA0E JUMP JUMPDEST SWAP1 POP SWAP2 SWAP1 POP JUMP JUMPDEST PUSH1 0x0 PUSH2 0xA47 DUP3 PUSH2 0xA0E JUMP JUMPDEST SWAP1 POP SWAP2 SWAP1 POP JUMP JUMPDEST PUSH1 0x0 DUP1 REVERT JUMPDEST PUSH1 0x0 DUP1 REVERT JUMPDEST PUSH1 0x0 DUP1 REVERT JUMPDEST PUSH1 0x0 DUP1 REVERT JUMPDEST PUSH1 0x0 DUP1 REVERT JUMPDEST POP JUMP JUMPDEST PUSH2 0xA73 DUP2 PUSH2 0x96E JUMP JUMPDEST DUP2 EQ PUSH2 0xA7E JUMPI PUSH1 0x0 DUP1 REVERT JUMPDEST POP JUMP JUMPDEST PUSH2 0xA8A DUP2 PUSH2 0x980 JUMP JUMPDEST DUP2 EQ PUSH2 0xA95 JUMPI PUSH1 0x0 DUP1 REVERT JUMPDEST POP JUMP JUMPDEST PUSH2 0xAA1 DUP2 PUSH2 0x98C JUMP JUMPDEST DUP2 EQ PUSH2 0xAAC JUMPI PUSH1 0x0 DUP1 REVERT JUMPDEST POP JUMP JUMPDEST PUSH2 0xAB8 DUP2 PUSH2 0x9B8 JUMP JUMPDEST DUP2 EQ PUSH2 0xAC3 JUMPI PUSH1 0x0 DUP1 REVERT JUMPDEST POP JUMP JUMPDEST PUSH2 0xACF DUP2 PUSH2 0x9CA JUMP JUMPDEST DUP2 EQ PUSH2 0xADA JUMPI PUSH1 0x0 DUP1 REVERT JUMPDEST POP JUMP JUMPDEST PUSH2 0xAE6 DUP2 PUSH2 0x9DC JUMP JUMPDEST DUP2 EQ PUSH2 0xAF1 JUMPI PUSH1 0x0 DUP1 REVERT JUMPDEST POP JUMP JUMPDEST PUSH2 0xAFD DUP2 PUSH2 0xA0E JUMP JUMPDEST DUP2 EQ PUSH2 0xB08 JUMPI PUSH1 0x0 DUP1 REVERT JUMPDEST POP JUMP INVALID LOG2 PUSH5 0x6970667358 0x22 SLT KECCAK256 0xE6 0x5D 0xD8 0xE5 MOD CREATE PUSH13 0x8D107AF410E94491D17FDC6D1E SIGNEXTEND 0xAE PUSH19 0xA0023E6EE015CBBFF764736F6C634300080700 CALLER "
		},
		"gasEstimates": {
			"creation": {
				"codeDepositCost": "576200",
				"executionCost": "613",
				"totalCost": "576813"
			},
			"external": {
				"onERC1155BatchReceived(address,address,uint256[],uint256[],bytes)": "infinite",
				"onERC1155Received(address,address,uint256,uint256,bytes)": "infinite",
				"stake_1155(address,uint256,uint256)": "infinite",
				"stake_20(address,uint256)": "infinite",
				"stake_721(address,uint256)": "infinite",
				"supportsInterface(bytes4)": "592"
			}
		},
		"methodIdentifiers": {
			"onERC1155BatchReceived(address,address,uint256[],uint256[],bytes)": "bc197c81",
			"onERC1155Received(address,address,uint256,uint256,bytes)": "f23a6e61",
			"stake_1155(address,uint256,uint256)": "aade6b65",
			"stake_20(address,uint256)": "0c817b7c",
			"stake_721(address,uint256)": "4525092d",
			"supportsInterface(bytes4)": "01ffc9a7"
		}
	},
	"abi": [
		{
			"anonymous": false,
			"inputs": [
				{
					"indexed": false,
					"internalType": "address",
					"name": "from",
					"type": "address"
				},
				{
					"indexed": false,
					"internalType": "uint256",
					"name": "tokenType",
					"type": "uint256"
				}
			],
			"name": "DoneStake",
			"type": "event"
		},
		{
			"inputs": [
				{
					"internalType": "address",
					"name": "operator",
					"type": "address"
				},
				{
					"internalType": "address",
					"name": "from",
					"type": "address"
				},
				{
					"internalType": "uint256[]",
					"name": "ids",
					"type": "uint256[]"
				},
				{
					"internalType": "uint256[]",
					"name": "values",
					"type": "uint256[]"
				},
				{
					"internalType": "bytes",
					"name": "data",
					"type": "bytes"
				}
			],
			"name": "onERC1155BatchReceived",
			"outputs": [
				{
					"internalType": "bytes4",
					"name": "",
					"type": "bytes4"
				}
			],
			"stateMutability": "nonpayable",
			"type": "function"
		},
		{
			"inputs": [
				{
					"internalType": "address",
					"name": "operator",
					"type": "address"
				},
				{
					"internalType": "address",
					"name": "from",
					"type": "address"
				},
				{
					"internalType": "uint256",
					"name": "id",
					"type": "uint256"
				},
				{
					"internalType": "uint256",
					"name": "value",
					"type": "uint256"
				},
				{
					"internalType": "bytes",
					"name": "data",
					"type": "bytes"
				}
			],
			"name": "onERC1155Received",
			"outputs": [
				{
					"internalType": "bytes4",
					"name": "",
					"type": "bytes4"
				}
			],
			"stateMutability": "nonpayable",
			"type": "function"
		},
		{
			"inputs": [
				{
					"internalType": "contract IERC1155",
					"name": "token1155",
					"type": "address"
				},
				{
					"internalType": "uint256",
					"name": "id",
					"type": "uint256"
				},
				{
					"internalType": "uint256",
					"name": "amount",
					"type": "uint256"
				}
			],
			"name": "stake_1155",
			"outputs": [],
			"stateMutability": "nonpayable",
			"type": "function"
		},
		{
			"inputs": [
				{
					"internalType": "contract IERC20",
					"name": "token20",
					"type": "address"
				},
				{
					"internalType": "uint256",
					"name": "amount",
					"type": "uint256"
				}
			],
			"name": "stake_20",
			"outputs": [],
			"stateMutability": "nonpayable",
			"type": "function"
		},
		{
			"inputs": [
				{
					"internalType": "contract IERC721",
					"name": "token721",
					"type": "address"
				},
				{
					"internalType": "uint256",
					"name": "id",
					"type": "uint256"
				}
			],
			"name": "stake_721",
			"outputs": [],
			"stateMutability": "nonpayable",
			"type": "function"
		},
		{
			"inputs": [
				{
					"internalType": "bytes4",
					"name": "",
					"type": "bytes4"
				}
			],
			"name": "supportsInterface",
			"outputs": [
				{
					"internalType": "bool",
					"name": "",
					"type": "bool"
				}
			],
			"stateMutability": "pure",
			"type": "function"
		}
	]
}